:100000000C94FD060C9425070C9425070C94580AB3
:100010000C94580A0C94580A0C9425070C94250744
:100020000C9425070C9425070C9425070C942507A0
:100030000C9425070C9425070C9425070C94250790
:100040000C9449080C9425070C94B9080C94930857
:100050000C9425070C9425070C9425070C94250770
:100060000C9425070C94250753657269616C4E6FDB
:1000700064653A3A496E69743E2073797374656DAC
:1000800049643A200053657269616C506F72743A2A
:100090003A53657269616C506F72743E20696E6983
:1000A0007465640066726565207372616D203A2024
:1000B0000072656D6F74655379734964206D757353
:1000C00074206265206469666672656E742066726B
:1000D0006F6D2073797374656D496400536572693F
:1000E000616C506F72743A3A53657269616C506F0B
:1000F00072743E2073797349643A20000000000056
:10010000240027002A000000000023002600290008
:1001100066726565207372616D203A2000736574A4
:1001200075702053657269616C546573744D6173A9
:1001300074657200002053657269616C52783A3AB6
:10014000726561644E6578743E2063616C6C2075E5
:10015000706461746543616C6C6261636B004255ED
:1001600046464552204F564552464C4F573A20443A
:100170004154412053495A45203E3D20002E2E2E09
:100180006E6F74206C697374656E696E67202C6382
:10019000616C6C206C697374656E282920666F72BF
:1001A00020706F7274203A200053657269616C4E42
:1001B0006F64653A3A636865636B4C6966654E6F58
:1001C0006465733E206E6F6465206973206C617492
:1001D00065203A200053657269616C4E6F64653A20
:1001E0003A636865636B4C6966654E6F6465733E20
:1001F0002069734C696665436865636B457870690F
:1002000072656420666F72206E6F6465203A20000C
:1002100000000000250028002B000404040404044E
:1002200004040202020202020303030303030102A5
:100230000408102040800102040810200102040874
:100240001020000000080002010000030407000065
:100250000000000000002020202020202076616C7B
:1002600020203A2000202020202020206C696E656C
:10027000203A20002020202020202066696C652064
:100280003A20004153534552542066756E63203A1C
:1002900020004C63624C6973743A3A676574546128
:1002A00072676574506F7274204552524F5200004D
:1002B0002E00002E0053657269616C4E6F64653AC2
:1002C0003A5570646174653E20666F72776172643E
:1002D00020666F72204352206661696C65643A2023
:1002E00000002E0053657269616C4E6F64653A3A86
:1002F0005570646174653E204C494E4B20637265B5
:10030000617465643A200053657269616C4E6F6474
:10031000653A3A5570646174653E206E6F206C6971
:100320006E6B20666F756E6420746F2073797374C2
:10033000656D3A2000207061723A200020636D6480
:100340003A200020616B7449643A2000002E00209E
:10035000746F20002E0053657269616C4E6F646586
:100360003A3A666F72776172643E005365726961F2
:100370006C4E6F64653A3A7570646174653E2072C4
:10038000656D6F74652073797374656D2068617332
:10039000207468652073616D652069642061732035
:1003A0006C6F63616C2073797374656D202C206DA4
:1003B0006573736167652064697363617264656402
:1003C0000053657269616C4E6F64653A3A7570648A
:1003D0006174653E206D657373616765207769742C
:1003E000686F7574206E6F6465496420696E20744F
:1003F0006F41646472207265636569766564005359
:10040000657269616C4E6F64653A3A7570646174C7
:10041000653E206E6F207265616479206E6F646541
:1004200020666F7220435220666F756E64002070E4
:1004300061723A200020636D643A200020616B7481
:1004400049643A2000002E0020746F20002E0053D3
:10045000657269616C4E6F64653A3A757064617477
:10046000653E206E6F6465206E6F7420666F756EDA
:1004700064203A200053657269616C4E6F64653A7E
:100480003A7570646174653E206E6F646520666FB6
:10049000756E640053657269616C4E6F64653A3ABB
:1004A0007570646174653E206E6F206E6F64657355
:1004B00020666F756E640053657269616C4E6F647F
:1004C000653A3A7570646174653E2073797374653A
:1004D0006D4964206D757374206265203E20302064
:1004E00000207061723A200020636D643A20002081
:1004F000616B7449643A2000002E0020746F200064
:100500002E0053657269616C4E6F64653A3A75707E
:10051000646174653E2073697A653A200020543D19
:100520002000002E0053657269616C4E6F64653A5D
:1005300053657269616C4E6F64653E2063726561DC
:10054000746564203A2000706C6561736520636196
:100550006C6C2053797374656D2E696E697428799B
:100560006F757253797374656D496429206265668D
:100570006F726520796F7520637265617465206E96
:100580006F6465732E0053657269616C4E6F6465AC
:100590003A3A53657269616C4E6F64653E00415230
:1005A00050004152510041434400414641004352F2
:1005B000004C4956450041434B004E414B005365AA
:1005C0007269616C4E6F64653A3A73656E643E2081
:1005D000746F20706F727420696E206C6973742060
:1005E0002D20737563636573730053657269616C65
:1005F0004E6F64653A3A73656E643E2073656E644F
:1006000020746F20616C6C20706F727473202E2EBA
:100610002E0053657269616C4E6F64653A3A73657A
:100620006E643E206E6F20706F727420696E206C55
:1006300069737420210053657269616C4E6F646543
:100640003A3A73656E643E20746F20686561646534
:100650007220746F4164647220706F7274202D2058
:10066000737563636573730053657269616C4E6F74
:1006700064653A3A73656E643E20746F206E6F64F1
:1006800065277320706F7274202D20737563636506
:1006900073730053657269616C4E6F64653A3A73A7
:1006A000656E643E206E6F64652C206E6F742063EF
:1006B0006F6E6E6563746564202C20756E6B6E6F53
:1006C000776E2072656D6F746520616472657373F7
:1006D0003A0053657269616C4E6F64653A3A7365AE
:1006E0006E643E207265706C7920746F3A005365B9
:1006F0007269616C4E6F64653A3A73656E64203E50
:10070000206E6F7420636F6E6E65637465642C2059
:10071000636D64206E6F7420616C6C6F776564200C
:100720003A2000203E3E3E0053657269616C4E6F78
:1007300064653A3A73656E643E20203E3E3E20007A
:100740004163624C6973743A3A63726561746541DE
:1007500063623E20636F756E743A20004163624CA1
:100760006973743A3A6372656174654163623E20ED
:10077000616B7449643A2000202C206E65772061FB
:100780006B7469643A20004163624C6973743A3A4D
:100790006372656174654F725573654163623E2093
:1007A0007265757365206163622020203A200041E4
:1007B00063624C6973743A3A6372656174654F722F
:1007C0005573654163623E20746F74616C20636F82
:1007D000756E74203A2000554E4B4F574E5F434D77
:1007E000440053657269616C4E6F64653A3A777282
:1007F000697465546F506F72743E2073656E642027
:10080000746F20706F72743A2000207061723A2009
:100810000020636D643A200020616B7449643A20C3
:1008200000002E0020746F20002E00203E3E3E204F
:100830000020203E3E3E200053657269616C4E6F81
:1008400064653A3A7772697465546F506F72743E9A
:10085000206E6F6465203A20004163624C697374B6
:100860003A3A64656C657465416362456E74727989
:100870003E204E4F5420464F554E443A200041638F
:10088000624C6973743A3A64656C6574654163627D
:10089000456E7472793E20636F756E743A20004124
:1008A00063624C6973743A3A64656C65746541635C
:1008B00062456E7472793E200053657269616C4EB8
:1008C0006F64653A3A6F6E4D6573736167653E207C
:1008D00041434220434F554E54203A2000667265F2
:1008E00065207372616D203A200053657269616CF6
:1008F0004E6F64653A3A6F6E4D6573736167653E1E
:1009000020726F756E6420747269702074696D65F1
:10091000203A200053657269616C4E6F64653A3A03
:100920006F6E4D6573736167653E20616362206E13
:100930006F7420666F756E64202D20616B7469641E
:100940003A0053657269616C4E6F64653A3A6F6E36
:100950004D6573736167653E204E414B204F4E20BD
:100960004352203A2000002E0053657269616C4E9C
:100970006F64653A3A6F6E4D6573736167653E20CB
:100980006E6F646520646973636F6E6E6563746512
:1009900064203A2000002E0053657269616C4E6F2E
:1009A00064653A3A6F6E4D6573736167653E2043C7
:1009B0004F4E4E454354494F4E5F53544154555347
:1009C0005F434F4E4E4543544544206E6F6465204F
:1009D0002861637469766529203A2000536572693D
:1009E000616C4E6F64653A3A6F6E4D657373616703
:1009F000653E41434B204F4E204352206E6F64654D
:100A0000206973206E6F742072656164793A2000EA
:100A100053657269616C4E6F64653A3A6F6E4D65ED
:100A200073736167653E6E6F646520697320616CE6
:100A3000726561647920636F6E6E65637465643A94
:100A4000200053657269616C4E6F64653A3A6F6E4F
:100A50004D6573736167653E41434B204F4E2043A4
:100A600052206E6F6465206973206E6F742061631D
:100A7000746976653A200053657269616C4E6F64E3
:100A8000653A3A6F6E4D6573736167653E206E6FB0
:100A9000646520646973636F6E6E6563746564205A
:100AA0003A200053657269616C4E6F64653A3A6F23
:100AB0006E4D6573736167653E206E6F6465206976
:100AC00073206E6F742072656164792C2073656E7B
:100AD00064204E414B203A200053657269616C4E90
:100AE0006F64653A3A6F6E4D6573736167653E6E0C
:100AF0006F646520697320616C726561647920633D
:100B00006F6E6E65637465642C2073656E64204E31
:100B1000414B203A200053657269616C4E6F6465E9
:100B20003A3A6F6E4D6573736167653E6E6F6465CB
:100B3000732061726520616C726561647920636FF6
:100B40006E6E65637465642C2073656E642041432A
:100B50004B203A200053657269616C4E6F64653AB0
:100B60003A6F6E4D6573736167653E206E6F6465A5
:100B7000206973206163746976652C2073656E64E7
:100B8000204E414B203A200053657269616C4E6FD4
:100B900064653A3A6F6E4D6573736167653E2043D5
:100BA0004F4E4E454354494F4E5F53544154555355
:100BB0005F434F4E4E4543544544206E6F6465205D
:100BC0003A2000002E0053657269616C4E6F6465B7
:100BD0003A3A6F6E4D6573736167653E20756E6B53
:100BE0006E6F776E2072656D6F7465206E6F6465D1
:100BF00020616464726573733A0053657269616C55
:100C00004E6F64653A3A6F6E4D6573736167653E0A
:100C100020756E6B6E6F776E2072656D6F746520D8
:100C20006E6F64652077616E747320746F20636FDC
:100C30006E6E6563743A2000002E0070636220724D
:100C4000656D6F746520616464726573733A0053F7
:100C5000657269616C4E6F64653A3A6F6E4D65738B
:100C6000736167653E20434D443D3D3020726563AE
:100C700065697665640053657269616C4E6F646581
:100C80003A3A6F6E4D6573736167653E20756E61AC
:100C90006C6C6F776564206D6573736167652C207C
:100CA000737461747573203C3E20636F6E6E656370
:100CB0007465642C20616B74696420203A00207094
:100CC00061723A200020636D643A200020616B74E9
:100CD00049643A2000002E0020746F20002E00206E
:100CE0003C3C3C200020203C3C3C20005365726989
:100CF000616C4E6F64653A3A6F6E4D6573736167F0
:100D0000653E206E6F6465203A2000207061723A63
:100D1000200020636D643A200020616B7449643ABE
:100D20002000002E0020746F20002E005365726991
:100D3000616C4E6F64653A3A6F6E4D6573736167AF
:100D4000653E0053657269616C4E6F64653A726509
:100D5000636F6E6E65637428293E207761697469DC
:100D60006E6720666F72204352206D6573736167F2
:100D7000652C206E6F64653A200053657269616C62
:100D80004E6F64653A7265636F6E6E656374282991
:100D90003E2073656E6420435220666F72206E6F32
:100DA0006465200053657269616C4E6F64653A72C8
:100DB00065636F6E6E65637428293E206E6F204FE9
:100DC0006E507265436F6E6E6563742D48616E641C
:100DD0006C657220666F756E642C20736574206E6E
:100DE0006F646520726561647920746F20636F6E33
:100DF0006E6563740000111C0D1C11241FBECFEF23
:100E0000D8E0DEBFCDBF14E0A0E0B1E0E6E3FCE354
:100E100002C005900D92AC34B107D9F725E0ACE4DF
:100E2000B4E001C01D92AE36B207E1F716E0CCEF98
:100E3000D6E004C02197FE010E94031ECB3FD107DC
:100E4000C9F70E94DA170C940E1E0C94000090E073
:100E5000FC01EE5BFD4F3491FC01E25DFD4F2491FE
:100E6000FC01E65EFD4FE491EE2309F43BC0332321
:100E700039F1333091F038F43130A9F0323001F5E6
:100E800084B58F7D12C0373091F03830A1F0343006
:100E9000B9F4809180008F7D03C0809180008F77AE
:100EA000809380000DC084B58F7784BD09C0809188
:100EB000B0008F7703C08091B0008F7D8093B00029
:100EC000F0E0EE0FFF1FE05FFD4FA591B4918FB7EB
:100ED000F894EC91611103C020952E2301C02E2BB4
:100EE0002C938FBF0895CF92DF92EF92FF920F93D2
:100EF0001F93CF93DF936C017A018B01C0E0D0E0A8
:100F0000CE15DF0589F0D8016D918D01D601ED91E7
:100F1000FC910190F081E02DC6010995892B11F417
:100F20007E0102C02196ECCFC701DF91CF911F91C6
:100F30000F91FF90EF90DF90CF9008950E94091ECF
:100F400080EB94E00E94C01521E0892B09F420E099
:100F5000822F0895EF92FF920F931F93CF93DF9309
:100F6000EC0181E0888F9B8D8C8D981305C0E889FA
:100F7000F989808185FD24C0F62E0B8D10E00F5F6E
:100F80001F4F0F731127E02E8C8DE8120CC00FB687
:100F900007FCFACFE889F989808185FFF5CFCE017A
:100FA0000E94B416F1CF8B8DFE01E80FF11DE35ABC
:100FB000FF4FF0820B8FEA89FB898081806207C036
:100FC000EE89FF896083E889F98980818064808364
:100FD00081E090E0DF91CF911F910F91FF90EF9012
:100FE0000895CF92DF92EF92FF920F931F93CF93CA
:100FF000DF938C01C0914F05D09150057C0182E0B8
:10100000E80EF11C209761F18E819F81892B21F1DF
:1010100088859985892B01F16E0182E0C80ED11C6B
:10102000B801C6010E944B0A811106C0B701C60172
:101030000E944B0A882381F06E0184E0C80ED11C07
:10104000B801C6010E944B0A81110DC0B701C6014B
:101050000E944B0A811107C00A84DB85C02DD2CFC4
:1010600080E090E001C0CE01DF91CF911F910F9100
:10107000FF90EF90DF90CF9008952FB7F894609194
:101080005D0470915E0480915F04909160042FBFB5
:1010900008951F920F920FB60F9211242F933F9332
:1010A0008F939F93AF93BF9380915D0490915E0463
:1010B000A0915F04B091600430915C0423E0230FA1
:1010C0002D3720F40196A11DB11D05C026E8230F80
:1010D0000296A11DB11D20935C0480935D04909342
:1010E0005E04A0935F04B0936004809158049091D3
:1010F0005904A0915A04B0915B040196A11DB11D41
:101100008093580490935904A0935A04B0935B04BD
:10111000BF91AF919F918F913F912F910F900FBEF3
:101120000F901F9018951F920F920FB60F921124D7
:101130002F933F934F935F936F937F938F939F93DF
:10114000AF93BF93EF93FF9380EB94E00E94B416AC
:10115000FF91EF91BF91AF919F918F917F916F918F
:101160005F914F913F912F910F900FBE0F901F9065
:1011700018951F920F920FB60F9211242F938F93F1
:101180009F93EF93FF93E091C004F091C10480819D
:10119000E091C604F091C70482FD12C09081809155
:1011A000C9048F5F8F732091CA04821751F0E091B8
:1011B000C904F0E0E055FB4F958F8093C90401C04E
:1011C0008081FF91EF919F918F912F910F900FBE92
:1011D0000F901F9018952091680530916905281788
:1011E000390771F49091A2048091A104981741F0FD
:1011F000E091A204F0E0EF59FB4F808190E0089568
:101200008FEF9FEF089508951F93CF93DF93DC0135
:101210005C962D913C915D972115310539F481E063
:1012200090E013969C938E9312973DC05196ED914A
:10123000FC91529750969C915097892F80951FB79B
:101240005E964C915E9741FB772770F941FD609562
:10125000F8944081772311F0492B01C04823408343
:10126000E9012197F1F748E0508160FF02C0592B56
:1012700001C058235083E9012197F1F76695415049
:1012800099F7772321F090818923808303C080819F
:10129000982B90831FBF5C968D919C915D970197D1
:1012A000F1F721E030E0C901DF91CF911F9108955E
:1012B00020916805309169052817390771F48091EC
:1012C000A1042091A20490E0805C9F4F821B9109B1
:1012D00060E470E00E949A1D089580E090E0089517
:1012E000209168053091690528173907B9F4909164
:1012F000A2048091A104981789F0E091A204F0E083
:10130000EF59FB4F80812091A20430E02F5F3F4FC7
:101310002F7333272093A20490E008958FEF9FEF5F
:101320000895089580E090E008950C94021DCF93F5
:10133000DF93EC018CEE91E099838883EC81FD8151
:10134000309751F080859185009721F4CF010E945C
:10135000021DF4CFFC01F4CFDF91CF910895CF931C
:10136000DF93EC010E949709CE01DF91CF910C949D
:10137000021DBF92CF92DF92EF92FF920F931F93C5
:10138000CF93DF93EC01B62ED42EC22E8CEF91E0DA
:10139000998388831B821A821D821C821F821E826F
:1013A000188619861A861B861C861D861E861F8631
:1013B000188A198A1A8A1B8A86E895E00E94AF0E5D
:1013C0001091A90411110EC087E495E00E94AF0EA0
:1013D00080E192E00E94C40E80EB94E00E94D5165A
:1013E0000E94091EFF82EE8286E090E00E946D1C42
:1013F000FC0186E0DF011D928A95E9F7FD83EC830D
:101400001083B182C2820383D582E0914C04F091B3
:101410004D04309731F082819381009729F1FC01CE
:10142000F8CFD0934D04C0934C0485E295E00E9420
:101430008E0EEC81FD8180810E94BD0E83E295E0DD
:101440000E948E0EEC81FD8181810E94BD0E82E2A0
:1014500095E0DF91CF911F910F91FF90EF90DF907A
:10146000CF90BF900C94AF0ED383C283DECFDC014C
:101470001496ED91FC911597309751F016968D9139
:101480009C911797892B21F081E09481943009F089
:1014900080E008950895FC019081DB018C91981300
:1014A00005C081E0218111969C91291380E0089567
:1014B0001F920F920FB60F9211242F933F934F93C9
:1014C0005F936F937F938F939F93AF93BF93EF93AC
:1014D000FF93E0916805F0916905309709F451C0D8
:1014E000968DA685B785858591FF04C09C9189233B
:1014F00029F447C09C91892309F043C0A389B4898A
:101500009C918589809589238C93868997890197F9
:10151000F1F7608D718DA685B785558538E020E09F
:10152000CB010197F1F7822F90E095958795282FB1
:101530004C91452309F02068315091F7868D81FD4B
:1015400020958091A10490E001968F7399273091A6
:10155000A204381749F0A091A104B0E0AF59BB4FE5
:101560002C938093A10403C0868D8160868F828D29
:10157000938D0197F1F7A389B4899C918589892B73
:101580008C93FF91EF91BF91AF919F918F917F913C
:101590006F915F914F913F912F910F900FBE0F90E0
:1015A0001F901895CF93DF93FC01828D938D892B2B
:1015B00031F1A0916805B0916905AE17BF07F9F048
:1015C000109751F05396CD91DC9154979881559690
:1015D0008C91809589238883868D8E7F868F10924B
:1015E000A1041092A204F0936905E0936805A38911
:1015F000B4899C918589892B8C9381E001C080E01E
:10160000DF91CF9108956C017B018A01E90183E8A4
:1016100092E00E948E0EC6010E94C40E84E792E002
:101620000E948E0EC7010E94C40E85E692E00E94C1
:101630008E0EC8010E94760E86E592E00E948E0E04
:10164000CE010E94C40E80EB94E00E94D5160E9449
:10165000091E8F929F92AF92BF92CF92DF92EF922C
:10166000FF920F931F93CF93DF93EC017B018A01CD
:101670008091AE049091AF0401969093AF04809353
:10168000AE040E943D088090AA049090AB04A09004
:10169000AC04B090AD04DC01CB0188199909AA090A
:1016A000BB098093A3049093A404A093A504B093D2
:1016B000A6046091AE047091AF0480E090E04AE02F
:1016C0000E940E0E8DE195E00E948E0E6091A304A3
:1016D0007091A4048091A5049091A6044AE00E9410
:1016E0000E0E86E593E00E94FC0D0E943D0860937B
:1016F000AA047093AB048093AC049093AD0482E091
:1017000095E00E948E0EC7010E94E50E209729F4F5
:1017100029E533E041E250E05AC088810E94BD0EC5
:1017200080E095E00E948E0E89810E94BD0E8BEFB5
:1017300094E00E948E0E8A810E94BD0E89EF94E093
:101740000E948E0E8B810E94BD0E88EF94E00E9455
:10175000AF0E8FEE94E00E948E0E6C817D8180E052
:1017600090E04AE00E940E0E88EE94E00E948E0EF9
:101770008E819F810E94F70E81EE94E00E948E0E72
:1017800088850E94D20E29E0E216F10428F0670154
:1017900039E0C31AD10802C0C12CD12C9A81911111
:1017A00003C087EB94E033C18091A90498139CC0D7
:1017B000E0904C04F0904D04E114F10471F484E9DC
:1017C00094E00E94AF0E2FE933E04AE350E061E677
:1017D00073E08EE891E00E94030B8B81882309F46B
:1017E0005FC05E0182E0A80EB11CB501D70114965E
:1017F0008D919C9115970E944B0A882329F085E7CB
:1018000094E00E94AF0E11C1F701E280F380E11471
:10181000F10459F78FE494E00E94AF0E88810E9492
:10182000BD0E8DE494E00E948E0E89810E94BD0E53
:1018300088E494E00E948E0E8A810E94BD0E86E4A8
:1018400094E00E948E0E8B810E94BD0E85E494E090
:101850000E94AF0E8CE394E00E948E0E6C817D811D
:1018600080E090E04AE00E940E0E85E394E00E9442
:101870008E0E8E819F810E94F70E8EE294E00E9470
:101880008E0E8885DF91CF911F910F91FF90EF9081
:10189000DF90CF90BF90AF909F908F900C94D20E1E
:1018A0008E819F81833F9105E1F4D7011496AD901D
:1018B000BC901597F501858181119EC0C7010E94DA
:1018C000CD11882309F498C0D50112968C918823F4
:1018D00019F09881891390C0F501838181118CC022
:1018E000A4C081EC93E093C09881981303C08BE669
:1018F00093E08DC086E593E00E94AF0E88810E9440
:10190000BD0E84E593E00E948E0E89810E94BD0E7B
:101910008FE493E00E948E0E8A810E94BD0E8DE4BA
:1019200093E00E948E0E8B810E94BD0E8CE493E0AA
:101930000E94AF0E83E493E00E948E0E6C817D8145
:1019400080E090E04AE00E940E0E8CE393E00E945B
:101950008E0E8E819F810E94F70E85E393E00E9498
:101960008E0E88850E94D20E8A81E091A704F091A4
:10197000A804309739F09481981759F10280F381C7
:10198000E02DF7CFCE010E94F1076C01892B09F4FD
:1019900065C04601F2E08F0E911CBE01C4010E9499
:1019A0004B0A96012C5F3F4F5901882309F44CC024
:1019B000BE016E5F7F4FC9010E944B0A882309F464
:1019C00043C0D6011896ED91FC911997309709F410
:1019D00045C0CF010E948D17A701BE01DF91CF91B5
:1019E0001F910F91FF90EF90DF90CF90BF90AF903D
:1019F0009F908F900C943517D7011296ED90FC9024
:101A00001397E114F10409F050CF8FEF93E0DF91C9
:101A1000CF911F910F91FF90EF90DF90CF90BF90EB
:101A2000AF909F908F900C94AF0EC114D10449F0E9
:101A3000AE01475F5F4F9601BE01C7010E94DA11F8
:101A4000CEC040E050E0F7CFBE01C5010E944B0A76
:101A50008111B1C082E992E00E94AF0E8E819F8118
:101A6000833F910599F087E093E00E948E0E8A8172
:101A7000DF91CF911F910F91FF90EF90DF90CF906A
:101A8000BF90AF909F908F900C94BD0EC0904F056B
:101A9000D0905005F601309721F00284F385E02DB7
:101AA000FACFCE010E94F107009759F02C813D81B9
:101AB000DC0111963C932E9319961C921E92189756
:101AC0002CC08CE090E00E946D1CFC018CE0DF01DA
:101AD0001D928A95E9F71282138214821582C1142D
:101AE000D10409F477C0D6011A968D919C911B9769
:101AF000009711F06C01F3CFD6011B96FC93EE9387
:101B00001A978881998193838283178306838C81B6
:101B10009D8191838083EF2B91F084EE92E00E946F
:101B20008E0E88810E94BD0E82EE92E00E948E0E83
:101B300089810E94BD0E81EE92E00E94AF0EC0909E
:101B4000A704D090A804B12CC114D10409F5B11098
:101B500046C085EB92E00E948E0E88810E94BD0EE9
:101B600083EB92E00E948E0E89810E94BD0E82EB73
:101B700092E00E94AF0E8A810E94BD0E80EB92E03F
:101B80000E948E0E8B810E94BD0E8FEA92E03FCFA5
:101B9000D60114969C91F80184819817C1F2C60170
:101BA0000E948D17A701BE010E943517F601C28061
:101BB000D380B394C9CFBE016E5F7F4FC4010E9432
:101BC0004B0A882309F446CFD6011696ED91FC9175
:101BD0001797FCCEF0935005E0934F0592CFDF911D
:101BE000CF911F910F91FF90EF90DF90CF90BF901A
:101BF000AF909F908F900895009769F0FC0101903D
:101C00000020E9F73197AF01481B590BBC0180EB6D
:101C100094E00C94730780E090E008958F929F9277
:101C2000AF92BF920F931F93CF93DF93CDB7DEB7E1
:101C3000A1970FB6F894DEBF0FBECDBF19A24230F8
:101C400008F44AE08E010F5D1F4F842E912CA12CC9
:101C5000B12CA50194010E94AE1DE62FB901CA0165
:101C600001501109EA3014F4E05D01C0E95CD801CB
:101C7000EC93232B242B252B61F7C8010E94FC0D2C
:101C8000A1960FB6F894DEBF0FBECDBFDF91CF9106
:101C90001F910F91BF90AF909F908F900895CF921A
:101CA000DF92EF92FF92CF93DF936B017C01E09183
:101CB000B004F091B1040190F081E02D6DE280EB71
:101CC00094E00995EC0166277727CB016C197D0913
:101CD0008E099F094AE00E940E0E8C0F9D1FDF9116
:101CE000CF91FF90EF90DF90CF900895CF93DF9347
:101CF000BC01990F880B990B97FF03C00E944F0EF0
:101D000003C04AE00E940E0EEC0186E593E00E94BB
:101D1000FC0D8C0F9D1FDF91CF9108950F931F93A2
:101D2000CF93DF938C01C0E0D0E0F801EC0FFD1FF2
:101D30006491662371F0E091B004F091B1040190D8
:101D4000F081E02D80EB94E00995892B11F021962C
:101D5000ECCFCE01DF91CF911F910F910895CF93DA
:101D6000DF930E948E0EEC0186E593E00E94FC0D4D
:101D70008C0F9D1FDF91CF910895682F70E080E058
:101D800090E04AE00C940E0ECF93DF930E94FC0D7E
:101D9000EC0186E593E00E94FC0D8C0F9D1FDF9106
:101DA000CF910895CF93DF93682F70E080E090E0AB
:101DB0004AE00E940E0EEC0186E593E00E94FC0DC5
:101DC0008C0F9D1FDF91CF910895CF93DF93BC01BE
:101DD00080E090E04AE00E940E0EEC0186E593E080
:101DE0000E94FC0D8C0F9D1FDF91CF910895BC01C7
:101DF000990F880B990B97FD0C944F0E4AE00C94A9
:101E00000E0EAF92BF92CF92DF92EF92FF920F939E
:101E10001F93CF93DF938C017A0188E398E00E94AF
:101E20008E0ED80111968C910E94BD0E81E398E030
:101E30000E948E0EF80126813781205F31092930FA
:101E4000310540F4220F331FF901E656FE4F808121
:101E5000918102C087ED97E00E948E0E8BE298E0A0
:101E60000E94AF0ED8018C910E94BD0E89E298E0CD
:101E70000E948E0EF80181810E94BD0E84E298E0DE
:101E80000E948E0ED80112968C910E94BD0E82E2A5
:101E900098E00E948E0EF80183810E94BD0E81E2BF
:101EA00098E00E94AF0E88E198E00E948E0ED80163
:101EB00014966D917C91159780E090E04AE00E9425
:101EC0000E0E81E198E00E948E0EF80186819781C6
:101ED0000E94F70E8AE098E00E948E0ED8011896B4
:101EE0008C910E94D20E82EE97E00E948E0EF70136
:101EF00084810E94D20E0115110529F429E533E0F1
:101F000049EC52E00BC0D80112969C9112978C912B
:101F100098130AC025EA33E04AEC52E061E673E028
:101F20008CEA91E00E94030BF80184819581892B52
:101F300009F0C0C0C0905505D0905605E601580183
:101F4000F2E0AF0EB11C209721F18A8190E0D80118
:101F500016962D913C9117978217930771F4B8014B
:101F6000CE0103960E944B0A882339F0B501CE01B9
:101F700005960E944B0A8111D3C00884D985C02DD3
:101F8000E2CFD60118968D919C911997009721F078
:101F90006C01C114D104A9F78EE090E00E946D1C81
:101FA000EC018EE0FE0111928A95E9F71B821C82FA
:101FB0001D821E82C114D10429F4D0935605C0930A
:101FC000550505C0D6011996DC93CE931897F801F4
:101FD00086818A83808191819C838B838281938196
:101FE0009E838D838091530590915405019621F431
:101FF0001092540510925305809153059091540509
:102000000196909354058093530599838883D80152
:1020100015969C938E9314978CE597E00E948E0EF4
:10202000888199810E94E50E80E497E00E948E0EDF
:10203000E0915505F091560580E090E0309791F1E0
:1020400001960084F185E02DF9CF0E94E50E87E826
:1020500097E00E948E0E6881798180E090E04AE0EE
:102060000E940E0E8091530590915405019621F423
:102070001092540510925305809153059091540588
:102080000196909354058093530599838883F801B2
:102090009583848382E08F8388E797E00E948E0E89
:1020A000888199810E94E50E0E943D086A877B879E
:1020B0008C879D87C7010E948D170E942517C70135
:1020C0000E948D17FC0182819381DC01ED91FC91CE
:1020D0000084F185E02D49E050E0B8010995C70181
:1020E0000E948D170E9415171092AF041092AE0433
:1020F0000E943D086093AA047093AB048093AC04E3
:102100009093AD04F80184819581DF91CF911F9167
:102110000F91FF90EF90DF90CF90BF90AF90089518
:102120008FEA97E00E948E0EE0915505F0915605DA
:1021300080E090E0309709F488CF01960084F18523
:10214000E02DF8CFAF92BF92CF92DF92EF92FF9245
:102150000F931F93CF93DF93CDB7DEB729970FB6B9
:10216000F894DEBF0FBECDBF8C017B016A011982DE
:102170001A821B821C821E821D8218861F8219866B
:1021800088E297E00E948E0E570180EFA81AB108EE
:1021900099E0A916B10440F4F501EE0FFF1FE656D1
:1021A000FE4F8081918102C087ED97E00E948E0EE4
:1021B00083E297E00E94AF0ED8011496ED91FC9156
:1021C00015978091A904928198130AC026ED33E0F7
:1021D0004FE752E061E673E085E991E00E94030B6E
:1021E0009481943081F0B3EFEB16F10461F092E04A
:1021F000A916B10440F08EEE96E00E948E0EC70143
:102200000E94F70E5DC08983C114D104B9F082ED3C
:1022100096E00E948E0EC6010E94E50EDE82CD82FF
:10222000C8010E94370A882331F0D8011496ED9135
:10223000FC91159705C083E996E040C01E821D827F
:10224000828193819C838B83D8011496ED91FC91BC
:102250001597808191819A838983F886EF82198608
:1022600016964D915C9117974115510549F060E024
:1022700070E0CE0101960E94010F88E696E036C01C
:102280008B810091A7041091A804A8014115510564
:1022900081F0FA019481981309C060E070E0CE01EA
:1022A00001960E94010F86E396E020C0428153818F
:1022B000EDCF0115110539F482E196E00E94AF0ED1
:1022C00080E090E017C08AEE95E00E94AF0EA80172
:1022D00060E070E0CE0101960E94010FF8010281DA
:1022E00013810115110599F78EEB95E00E94AF0E51
:1022F0008D819E8129960FB6F894DEBF0FBECDBFAB
:10230000DF91CF911F910F91FF90EF90DF90CF90D1
:10231000BF90AF900895E0915505F0915605309724
:1023200049F0208131812817390721F00084F18597
:10233000E02DF5CFCF010895DC018CEF91E01196EF
:102340009C938E9312962D913C91139721153105F4
:1023500089F0E0914C04F0914D04309759F082815E
:102360009381009729F08A179B0711F0FC01F5CFA4
:102370003383228314968D919C911597009711F0C9
:102380000C94021D0895CF93DF93EC010E949C11E1
:10239000CE01DF91CF910C94021DDC011496ED91DA
:1023A000FC911597309721F081E09481923009F0EB
:1023B00080E008956F927F929F92AF92BF92CF92EA
:1023C000DF92EF92FF920F931F93CF93DF9300D092
:1023D000CDB7DEB77C016B013A0159018CE29DE07B
:1023E0000E94AF0EC114D10429F429EF33E048E074
:1023F00051E04CC0D6018C910E94BD0E8AE29DE056
:102400000E948E0EF60181810E94BD0E85E29DE044
:102410000E948E0ED60112968C910E94BD0E83E210
:102420009DE00E948E0EF60183810E94BD0E82E225
:102430009DE00E94AF0E89E19DE00E948E0ED601C4
:1024400014966D917C91159780E090E04AE00E948F
:102450000E0E82E19DE00E948E0EF601868197812C
:102460000E94F70E8BE09DE00E948E0ED60118961A
:102470008C910E94D20E672819F0AB2869F402C033
:10248000AB2851F027E034E04AE051E061E673E028
:1024900080E092E00E94030B0115110529F42CE263
:1024A00034E04BE051E0F2CFD7011496ED91FC916E
:1024B000159792818091A904981305C026ED33E009
:1024C0004CE051E0E3CF0E943D08F701608771873F
:1024D00082879387D6011696AD90BC901797C70157
:1024E0000E94370A982E8CEE9CE00E948E0ED70137
:1024F0001496ED91FC91159781810E94BD0E85EE99
:102500009CE00E948E0E3501B0EF6B1A7108E9E075
:102510006E16710440F4F301EE0FFF1FE656FE4FF6
:102520008081918102C087ED97E00E948E0E8FED31
:102530009CE00E94AF0ED6018C910E94BD0E8DEDE5
:102540009CE00E948E0EF60181810E94BD0E88EDF6
:102550009CE00E948E0ED60112968C910E94BD0EB8
:1025600086ED9CE00E948E0EF60183810E94BD0ED6
:1025700085ED9CE00E94AF0E8CEC9CE00E948E0EDC
:10258000D60114966D917C91159780E090E04AE019
:102590000E940E0E85EC9CE00E948E0EF601868154
:1025A00097810E94F70E8EEB9CE00E948E0ED60162
:1025B00018968C910E94D20E91100BC0B2E06B164F
:1025C000710438F0E3EFAE16B10419F086E79CE031
:1025D0008DC2B2EFAB16B10409F486C07CF4F0EF03
:1025E000AF16B10409F440C10CF0A1C0AB2809F04A
:1025F00086C28FE49CE00E94AF0E81C2A4EFAA16AF
:10260000B10409F450C05CF0E5EFAE16B10409F472
:1026100078C0F8EFAF16B10409F47DC070C2D701DD
:102620001496AD90BC901597F5018581811106C077
:10263000C7010E94CD118111D8C103C085E59BE07F
:1026400022C0C7010E94370A8823D9F0B5016E5F06
:102650007F4FC6010E944B0A882381F086E19BE0F0
:102660000E948E0ED7011496ED91FC9115978181F1
:102670000E94D20EF601448155813DC089ED9AE059
:1026800002C083EA9AE00E948E0ED7011496ED9163
:10269000FC91159781810E94D20EF60144815581EB
:1026A00060EF70E02AC09920C1F3D60114964D91D5
:1026B0005C91159761EF70E0C7010E94A210F701CD
:1026C000178216820480F581E02D83E0848387E7FA
:1026D0009AE00E948E0ED7011496ED91FC91159709
:1026E00081810E94D20E0BC29920B9F2D6011496B4
:1026F0004D915C91159761EF70E0C7010E94A210A7
:10270000FEC1F70164817581C60102960E944B0AE1
:102710008111ECCFC2CFD60114968D919C91159763
:102720000E948B115C01892B09F0C1C0DDC1F6014B
:10273000848195810E948B115C01009709F4D4C1BA
:10274000DC0112968C91833F31F1843F09F0AFC0D8
:10275000F701178216820480F581E02D83E08483DF
:1027600089E699E00E948E0ED7011496ED91FC91B6
:10277000159780810E94BD0E87E699E00E948E0E1B
:10278000D7011496ED91FC91159781810E94BD0EA1
:1027900086E699E066C0F70117830683648075803A
:1027A000D30115968C91811103C082E49AE019C07F
:1027B000C7010E94370A882369F080E19AE00E94ED
:1027C0008E0ED7011496ED91FC91159781810E9490
:1027D000D20E6DC0C7010E94CD1181110DC08CEDCC
:1027E00099E00E948E0ED7011496ED91FC911597F9
:1027F00081810E94BD0E5BC0F60180819181D30171
:1028000013969C938E931297D7011496ED91FC9199
:10281000159784E0848317961C930E93169788E986
:1028200099E00E948E0ED7011496ED91FC911597B8
:1028300081810E94D20ED7011496ED91FC911597DB
:1028400080810E94BD0E86E999E00E948E0ED7011C
:102850001496ED91FC91159781810E94BD0E85E93A
:1028600099E00E94AF0E23C0F601848195810E94F9
:102870008B115C01009709F437C1DC0112968C9131
:10288000823F71F0833F99F482E499E00E948E0EBA
:10289000D7011496ED91FC91159781810E94BD0E90
:1028A000D7011496ED91FC91159783E084838AEE0D
:1028B00098E00E948E0E0E943D08F5010285138566
:1028C00024853585601B710B820B930B4AE00E94B7
:1028D0000E0E86E593E00E94FC0D8DED98E00E94BF
:1028E0008E0E20916A0530916B052115310511F48A
:1028F0002EE635E0CE010196821B930B0E94760EE8
:1029000089EB98E00E948E0EE0915505F0915605F6
:1029100080E090E0309729F001960084F185E02D69
:10292000F9CF0E94E50ED60114960D911C911597D2
:102930008FE998E00E948E0EC8010E94E50EC80142
:102940000E948B11DC01009709F449C018962D9163
:102950003C911997E0915505F091560521153105E7
:10296000A9F08E179F0731F4309356052093550533
:1029700021C0FC013097F1F0808591850097D1F05E
:102980008A179B07B1F73187208714C08E179F07DE
:1029900031F410925605109255050CC0FC01309789
:1029A00049F080859185009729F08A179B07B1F738
:1029B00011861086CD010E94021D8EE798E00E94CC
:1029C0008E0EE0915505F091560580E090E030972D
:1029D00009F493C001960084F185E02DF8CF89E5D4
:1029E00098E00E948E0EC80188C0F5018281811195
:1029F00023C0D6018D919C91F501938382838BE353
:102A00009CE00E94AF0ED7011496ED91FC911597B2
:102A100082810E94BD0E89E39CE00E948E0ED70148
:102A20001496ED91FC91159783810E94BD0E88E369
:102A30009CE00E94AF0E37C0B601C50102960E940D
:102A40004B0A811130C08AEF9BE00E948E0ED701A5
:102A50001496ED91FC91159781810E94BD0E86EC34
:102A60009BE00E94AF0ED7011496ED91FC91159753
:102A700082810E94BD0E84EC9BE00E948E0ED701E5
:102A80001496ED91FC91159783810E94BD0E83EC05
:102A90009BE00E94AF0EF6014481558160EF70E02B
:102AA000C7010E94A210D70117961C930E93169788
:102AB0001496ED91FC91159784E084831496ED9122
:102AC000FC911597D6018D919C91119793838283E8
:102AD00014964D915C91159761EF70E0C7010E94CB
:102AE000A21088E89BE0F5CD84E199E00E948E0E6B
:102AF000D60114968D919C9115970E94E50E0F902A
:102B00000F90DF91CF911F910F91FF90EF90DF9089
:102B1000CF90BF90AF909F907F906F900895FC01F1
:102B2000538D448D252F30E0842F90E0821B930B32
:102B3000541710F0CF96089501970895FC01918DD8
:102B4000828D981761F0828DDF01A80FB11D5D960F
:102B50008C91928D9F5F9F73928F90E008958FEF7D
:102B60009FEF0895FC01918D828D981731F0828D31
:102B7000E80FF11D858D90E008958FEF9FEF089588
:102B8000FC01918D228D892F90E0805C9F4F821BEC
:102B900091098F739927089580E090E0892B29F09F
:102BA0000E94A00781110C940000089521E0FC010F
:102BB00047815085809168059091690548175907AC
:102BC00009F020E0822F0895DC0117968D919C91E9
:102BD0001897DC01ED91FC910084F185E02D0994BA
:102BE000DC0117968D919C911897DC01ED91FC9179
:102BF0000280F381E02D0994DC0117968D919C9160
:102C00001897DC01ED91FC910190F081E02D099580
:102C100021E0892B09F420E0822F0895DC0117962A
:102C20008D919C911897DC01ED91FC910284F385C4
:102C3000E02D09950895CF93DF939A01AB01FC0134
:102C4000C781D0851B8E1A8E198E188E1F8A1E8AF8
:102C500060E079E08DE390E00E94D01DF90124301E
:102C6000310518F0C901039702C081E090E09D8F03
:102C70008C8F6C85663108F069C0C901969587957F
:102C80008431910510F0439702C081E090E09F8B62
:102C90008E8B369718F0C901059702C081E090E04D
:102CA000998F888FC901880F991F280F391F369572
:102CB0002795369527952D30310518F02C50310980
:102CC00002C021E030E03B8F2A8F9091680068308D
:102CD00050F021E06E3008F420E081E001C0880F60
:102CE0002A95EAF701C084E0892B809368008C85DF
:102CF000883038F08E3040F0863148F020E030E007
:102D000008C02DE630E005C02BE630E002C02CE61E
:102D100030E03C8B2B8B883030F491E001C0990F70
:102D20008A95EAF70EC0282F30E08E3018F428502C
:102D3000310902C02E50310991E001C0990F2A9546
:102D4000EAF79D8B8C8D9D8D0197F1F7CE01DF9178
:102D5000CF910C94D20AFC01878190850C94D20A01
:102D60000C94021D0C94021DFC01848DDF01A80F40
:102D7000B11DA35ABF4F2C91848D90E001968F73A3
:102D80009927848FA689B7892C93A089B1898C91C2
:102D900080648C93938D848D981306C00288F38988
:102DA000E02D80818F7D80830895CF93DF93EC01A8
:102DB000888D8823C9F0EA89FB89808185FD05C05B
:102DC000A889B9898C9186FD0FC00FB607FCF5CF95
:102DD000808185FFF2CFA889B9898C9185FFEDCFDD
:102DE000CE010E94B416E7CFDF91CF91089522E380
:102DF00031E0DC0111963C932E9315968D919C91B8
:102E00001697009739F0DC01ED91FC910280F38177
:102E1000E02D09940895CF93DF93EC010E94F716FB
:102E2000CE01DF91CF910C94021DDC0112968D91A1
:102E30009C911397DC01ED91FC910084F185E02DCC
:102E400044E050E060E071E00994DC0112968D915D
:102E50009C911397DC01ED91FC910084F185E02DAC
:102E600044E050E064E071E009940F931F93CF9326
:102E7000DF9300D000D0CDB7DEB78C014B835C83ED
:102E800069837A830E942517D80112968D919C91AF
:102E90001397DC01ED91FC910084F185E02D4B81CD
:102EA0005C8169817A810995C8010F900F900F901C
:102EB0000F90DF91CF911F910F910C9415170895EA
:102EC0000895CF93DF93EC018AE291E099838883A0
:102ED0008C819D81009739F0DC01ED91FC9102809D
:102EE000F381E02D09958E819F81009749F0DC01E7
:102EF000ED91FC910280F381E02DDF91CF91099457
:102F0000DF91CF910895CF93DF93EC010E94611779
:102F1000CE01DF91CF910C94021DDC011596ED914D
:102F2000FC91169786819781009751F422E334E053
:102F300040E450E065EC72E08AE092E00E94030B0E
:102F40000895CF93DF93EC010E94CD11811104C04D
:102F500084EA9DE00E94AF0EEC81FD8182E08483D3
:102F6000CE010E94CD11882311F1EC81FD81858174
:102F7000882391F08AE79DE00E948E0EEC81FD810E
:102F800081810E94D20E40E050E063EF70E0CE01FC
:102F9000DF91CF910C94A21083E49DE00E948E0EED
:102FA000EC81FD818181DF91CF910C94D20EDF9174
:102FB000CF910895CF93DF9300D0CDB7DEB778944B
:102FC00084B5826084BD84B5816084BD85B582602E
:102FD00085BD85B5816085BD80916E0081608093DF
:102FE0006E00109281008091810082608093810048
:102FF0008091810081608093810080918000816058
:10300000809380008091B10084608093B1008091B2
:10301000B00081608093B00080917A0084608093DA
:103020007A0080917A00826080937A0080917A00A1
:10303000816080937A0080917A00806880937A0022
:103040001092C100E091C004F091C10482E080833D
:10305000E091BC04F091BD041082E091BE04F091B7
:10306000BF048FEC80831092C804E091C404F091F7
:10307000C50486E08083E091C204F091C30480819E
:1030800080618083E091C204F091C30480818860F4
:103090008083E091C204F091C304808180688083C2
:1030A000E091C204F091C30480818F7D808384E32A
:1030B00091E00E94AF0E8DE191E00E94AF0E8BE097
:1030C0008093A90488E690E00E948E0E8BE00E9417
:1030D000D20E8AE090E00E946D1C8C0182E391E0A8
:1030E000D80111969C938E9313961C921E92129760
:1030F00014961C92149716961C921E9215978CED9E
:1031000090E00E948E0E8AE00E94D20E8091A90467
:103110008A3071F481EB90E00E94AF0E80E192E082
:103120000E94C40E80EB94E00E94D5160E94091EF6
:103130008AE0F8018483E091A704F091A804309715
:1031400029F41093A8040093A70409C082819381F5
:10315000892B19F4E0E0F0E0F9CF1383028388E0D3
:1031600090E00E946D1C6C018AE291E0D6018D9383
:103170009C9380E190E00E946D1C7C0182E191E0D3
:10318000F70191838083158214821086118612863E
:103190001386148616861586178613821282D60128
:1031A0001596FC92EE92149784E090E00E946D1CBC
:1031B000FC018AE191E09183808313821282D6011F
:1031C0001796FC93EE931697D70117961C930E93C0
:1031D00016970115110549F422E232E045E250E06C
:1031E0006EE272E08EE191E0F5C113830283F60195
:1031F0001383028389E29BE0D70113969C938E93FD
:103200001297F801D682C58284EA90E00E948E0E61
:103210009E012F5F3F4F690180916A0590916B0578
:10322000009711F48EE695E0A601481B590BCA01E0
:103230000E94760ED8011596ED91FC911697E480C8
:10324000F5808DE090E0F701968785870E946D1CE0
:10325000D70115969C938E93149785E890E00E9471
:10326000AF0E8AE591E0F8019183808311868FE1AA
:1032700090E00E946D1C7C01DC0113961C921E9252
:10328000129788EE93E0A0E0B0E0F7018483958385
:10329000A683B78388E491E091838083178A168A96
:1032A000118E108E138E128E158E148E668D6E7F7B
:1032B0006D7F668F6695617081E068278BE00E9464
:1032C0002707E9E3F2E02491E5E2F2E08491882324
:1032D000A1F090E0880F991FFC01E450FF4FA591E9
:1032E000B491FC01E05FFD4F859194918FB7F89404
:1032F0009C91E92FE22BEC938FBFE9E3F2E0E4919C
:10330000D7015096EC93E5E2F2E0E491F0E0EE0FA5
:10331000FF1FE05FFD4F85919491F701928B818BA8
:10332000E8E3F2E08491E4E2F2E024912223D1F098
:1033300030E0220F331FF901E450FF4FA591B49103
:10334000F901E05FFD4F259134914FB7F8949C91BE
:10335000E82FE095892F8E238C93D9018C91E82357
:10336000EC934FBFF701868D81FD04C061E08AE0D8
:103370000E9427078AE0D7011C968C931C97E8E3EC
:10338000F2E0E4911D96EC93E4E2F2E0E491F0E0E7
:10339000EE0FFF1FEA5FFE4F85919491F70197872B
:1033A0008687D8011896FC92EE92179781E01996BD
:1033B0008C9319971093530400935204ED91FC9150
:1033C0000284F385E02D40E855E260E070E0C8013A
:1033D000099584E190E00E946D1C5C01E12CF12CC8
:1033E00001E02AE040E061E00E94B909B092510496
:1033F000A092500484E190E00E946D1C5C0102E008
:103400002AE040E062E00E94B909B0924F04A09225
:103410004E0480E191E00E948E0E80916A059091A9
:103420006B05009711F48EE695E0F601E81BF90BA9
:10343000CF010E94760EBB24B3940E943D086B011D
:103440007C0100914C0410914D04809154049091A2
:103450005504A0915604B0915704A7019601281B6A
:10346000390B4A0B5B0BDA01C901843F9140A1057E
:10347000B10508F4A0C00115110509F494C0C801F4
:103480000E94370A882331F1D8011496ED91FC91FE
:10349000159785818823E1F10E943D08F801408459
:1034A000518462847384DC01CB0184199509A609D7
:1034B000B70989389341A105B10550F185ED91E037
:1034C0000E948E0ED8011496ED91FC911597818182
:1034D0000E94D20EF80184859585A685B785A7013F
:1034E0009601281B390B4A0B5B0BDA01C90189389D
:1034F0009341A105B10508F450C0C8010E94A1176D
:10350000D8011C96CD92DD92ED92FC921F9745C09A
:103510000E943D08F8014084518462847384DC0178
:10352000CB0184199509A609B709813D9740A105EA
:10353000B10598F1D8011496ED91FC91159785810C
:10354000882359F150968D919D910D90BC91A02D9D
:10355000A7019601281B390B4A0B5B0BDA01C90145
:1035600089389341A105B105C0F089EA91E00E9434
:103570008E0ED8011496ED91FC91159781810E94D1
:10358000D20E40E050E062EF70E0C8010E94A2104D
:10359000F801C08AD18AE28AF38AD80112960D9185
:1035A0001C91139768CFC0925404D0925504E092B6
:1035B0005604F0925704E090A704F090A804E11498
:1035C000F10451F42AE632E04EE350E060E772E0A5
:1035D0008BE791E00E94030BD12CD7011596ED915A
:1035E000FC911697048115810115110549F42CEA07
:1035F00032E04CE350E065EC72E08CE691E0EACF1B
:10360000F80186819781009729F422E232E04BE7A6
:1036100050E03DC0DC01ED91FC910088F189E02D86
:103620000995811116C08DE791E00E948E0ED80198
:103630001696ED91FC91179784810E94D20EF801A5
:1036400086819781DC01ED91FC910484F585E02D64
:103650000995F80186819781DC01ED91FC91068442
:10366000F785E02D0995181619060CF0AAC0F80187
:103670008185843028F023E033E045E850E007C03E
:103680008085843048F026E233E046E850E060E789
:1036900072E082E791E09ECFF80186819781DC019C
:1036A000ED91FC910480F581E02D0995F801878763
:1036B0009485992311F1228530E04585568524179C
:1036C000350770F444815581FA01E20FF31F8083BE
:1036D000D8011A968C911A978F5F1A968C930DC009
:1036E0008EE591E00E948E0EF801858596850497FF
:1036F0000E94E50ED8011C961C92F80197858085E2
:10370000E82FF0E0EC5FFE4F2081921310C0833071
:1037100051F4D80118961C9218971C96BC921C97CD
:103720001A961C920EC08F5FF80180870AC0D801DC
:1037300018961C92189780910401981302C018964D
:10374000BC92F8018185E82FF0E0E050FF4F208126
:10375000921330C0833049F5D8011A968C911A978C
:1037600084501B968C931B9712968D919C91139766
:10377000892BB1F01C968C91882391F085E391E020
:103780000E94AF0EF80146815781638570E0028088
:10379000F381E02DD80114968D919C911597099590
:1037A000F8011186148612860CC08F5FD801199615
:1037B0008C9307C0F801118680910001981301C015
:1037C000B186D394D7011296ED90FC901397E11433
:1037D000F10409F002CFB1E0DB1629F027E433E071
:1037E0004EE450E0F3CE00914C0410914D0481E082
:1037F0000115110549F0882319F0C8010E94370A04
:10380000F80102811381F4CF882321F080EB94E04A
:103810000E94D5160E94CC1510CE81E595E00C943F
:103820009709E0EBF4E01382128288EE93E0A0E0C7
:10383000B0E084839583A683B7838CEB91E091837A
:10384000808385EC90E09587848784EC90E097876F
:10385000868780EC90E0918B808B81EC90E0938B5D
:10386000828B82EC90E0958B848B86EC90E0978B3A
:10387000868B118E128E138E148EE6E6F5E0108282
:103880001182E4E6F5E010821182E1E5F5E08CEECC
:1038900091E0918380831582148213821282EDE479
:1038A000F5E084EF91E09183808313821282EBE54F
:1038B000F5E010821182128213821582148217821F
:1038C000168210860E943D08609357057093580534
:1038D0008093590590935A050895CF93DF938230D2
:1038E000910510F482E090E0E0916C05F0916D0597
:1038F00020E030E0C0E0D0E0309711F1408151810C
:1039000048175907C0F04817590761F4828193811D
:10391000209719F09B838A832BC090936D05809329
:103920006C0526C02115310519F04217530718F40C
:103930009A01BE01DF01EF010280F381E02DDCCFAF
:103940002115310509F1281B390B2430310590F47C
:1039500012968D919C9113976115710521F0FB01D1
:103960009383828304C090936D0580936C05FD0161
:10397000329644C0FD01E20FF31F819391932250D0
:1039800031092D933C933AC020916A0530916B0523
:10399000232B41F420910A0130910B0130936B05E8
:1039A00020936A0520910801309109012115310504
:1039B00041F42DB73EB740910C0150910D01241BED
:1039C000350BE0916A05F0916B05E217F307A0F45F
:1039D0002E1B3F0B2817390778F0AC014E5F5F4F65
:1039E0002417350748F04E0F5F1F50936B05409327
:1039F0006A058193919302C0E0E0F0E0CF01DF918E
:103A0000CF9108950F931F93CF93DF93009709F4FD
:103A10008CC0FC0132971382128200916C051091C8
:103A20006D050115110581F420813181820F931FED
:103A300020916A0530916B052817390779F5F093C5
:103A40006B05E0936A0571C0D80140E050E0AE1705
:103A5000BF0750F412962D913C911397AD0121159B
:103A6000310509F1D901F3CF9D01DA0133832283B6
:103A700060817181860F971F8217930769F4EC01AB
:103A800028813981260F371F2E5F3F4F31832083D6
:103A90008A819B8193838283452B29F4F0936D0562
:103AA000E0936C0542C01396FC93EE931297ED01E0
:103AB000499159919E01240F351FE217F30771F4C4
:103AC00080819181840F951F029611969C938E930D
:103AD0008281938113969C938E931297E0E0F0E09D
:103AE000D80112968D919C911397009719F0F801C7
:103AF0008C01F6CF8D919C9198012E5F3F4F820FE4
:103B0000931F20916A0530916B052817390769F4D6
:103B1000309729F410926D0510926C0502C0138243
:103B2000128210936B0500936A05DF91CF911F916C
:103B30000F91089597FB072E16F4009407D077FD98
:103B400009D00E94EF1D07FC05D03EF490958195A9
:103B50009F4F0895709561957F4F0895A1E21A2EA9
:103B6000AA1BBB1BFD010DC0AA1FBB1FEE1FFF1F21
:103B7000A217B307E407F50720F0A21BB30BE40B71
:103B8000F50B661F771F881F991F1A9469F76095B8
:103B90007095809590959B01AC01BD01CF01089572
:103BA000052E97FB1EF400940E94E71D57FD07D0D9
:103BB0000E94AE1D07FC03D04EF40C94E71D5095F7
:103BC0004095309521953F4F4F4F5F4F0895909509
:103BD0008095709561957F4F8F4F9F4F0895AA1BD9
:103BE000BB1B51E107C0AA1FBB1FA617B70710F0E8
:103BF000A61BB70B881F991F5A95A9F7809590951A
:103C0000BC01CD010895EE0FFF1F0590F491E02D4A
:103C1000099481E090E0F8940C940E1E16E0CCEF2D
:103C2000D6E004C0FE010E94031E2196CD3FD107BD
:063C3000C9F7F894FFCF74
:103C360060574E450E17202900006E0580000000D3
:103C460000006017B216000000005F17B01673651B
:103C560074506F7274000000000061178317000033
:103C66000000000000009E079E079E079E079E0715
:103C76009E079E07000000000409730792090309C6
:103C860058097009EB0800000000F7160B170E160E
:103C9600FC15F0151B16AB16E415D61567657452A0
:103CA6007800726561644E65787400726561644E71
:103CB6006578744F6E416C6C506F727473007570DA
:103CC600646174650073656E6400BA05B605B10576
:103CD600AE05D707AA05A605A2059E0577726974E3
:103CE60065546F506F72740000000000AA077307D6
:103CF6008F15D516C0159E15B215000000009E073B
:103D06007307920991099E079E079E07000000000F
:103D16009E07730792099109000000009709AF09F1
:103D2600000000004A0A9509000000009C11C3111A
:103D36006F6E4D65737361676500676574547800CF
:103D46005B70726F6772616D2061626F7274656419
:103D56005D007053657269616C506F727400433A0E
:103D66005C55736572735C557365725C6769745CE8
:103D7600617264756C69627265706F5C53657269B5
:103D8600616C4D73674C69625C7372635C536572F8
:103D960069616C54782E6370700070706F72740075
:103DA600433A5C55736572735C557365725C6769FB
:103DB600745C617264756C69627265706F5C536580
:103DC6007269616C4D73674C69625C7372635C53B4
:103DD600657269616C52782E6370700070506F72F4
:103DE60074527854784D61707065722D3E676574B3
:103DF6005278282900433A5C55736572735C557393
:103E060065725C6769745C617264756C696272651F
:103E1600706F5C53657269616C4D73674C69625C67
:103E26007372635C53657269616C506F72742E6352
:103E3600707000706F7374416D436F756E74203CC3
:103E46002073697A656F6628736572506F73746143
:103E56006D626C652900707265416D436F756E7495
:103E6600203C2073697A656F6628736572507265A7
:103E7600616D626C6529006E726F66706F72747325
:103E8600203D3D2031000D0A007048656164657271
:103E960000433A5C55736572735C557365725C6773
:103EA60069745C617264756C69627265706F5C538B
:103EB600657269616C4D73674C69625C7372635CB1
:103EC60053657269616C4E6F64652E63707000662F
:103ED600616C736500704865616465722D3E746F30
:103EE600416464722E737973496420213D207048C1
:103EF60065616465722D3E66726F6D416464722EF3
:103F0600737973496400704363622D3E72656D6F09
:103F16007465416464722E737973496420213D206F
:103F260073797374656D4964007053657269616C69
:103F3600486561646572007044617461203F206465
:103F460061746173697A65203E2030203A2064618D
:103F5600746173697A65203D3D20300070506F7240
:103F6600740070506F7274527854784D6170706539
:0C3F7600722D3E67657454782829000005
:00000001FF
