:100000000C947A000C94A2000C94A2000C940205AB
:100010000C9402050C9402050C94A2000C94A2000E
:100020000C94A2000C94A2000C94A2000C94A200C8
:100030000C94A2000C94A2000C94A2000C94A200B8
:100040000C9460040C94A2000C94D0040C94AA04A8
:100050000C94A2000C94A2000C94A2000C94A20098
:100060000C94A2000C94A2007365747570206F6BE1
:10007000006D6573736167652072656374207365D5
:100080006E74006D65737361676520636C65617282
:100090002073656E74000000000800020100000378
:1000A0000407000000000000000000000000250020
:1000B00028002B0000000000240027002A00000078
:1000C000000023002600290004040404040404049E
:1000D00002020202020203030303030301020408F3
:1000E00010204080010204081020010204081020A2
:1000F0007C05610711241FBECFEFD8E0DEBFCDBF66
:1001000011E0A0E0B1E0E0E2F2E102C005900D9262
:10011000AC34B107D9F722E0ACE4B1E001C01D92E4
:10012000AC34B207E1F710E0C9E7D0E004C0219792
:10013000FE010E94F808C837D107C9F70E9495064A
:100140000C9403090C9400000895CF93DF93CCE343
:10015000D2E08A819B81DC01ED91FC910084F185E4
:10016000E02D44E050E060E472E009958A819B81D3
:10017000DC01ED91FC910084F185E02D46E050E03A
:1001800066E372E009958A819B81DC01ED91FC9127
:100190000084F185E02D44E050E064E472E0DF91FA
:1001A000CF91099490E0FC01EA56FF4F3491FC0195
:1001B000E452FF4F2491FC01E853FF4FE491EE23FA
:1001C00009F43BC0332339F1333091F038F4313046
:1001D000A9F0323001F584B58F7D12C0373091F02F
:1001E0003830A1F03430B9F4809180008F7D03C0A5
:1001F000809180008F77809380000DC084B58F77C9
:1002000084BD09C08091B0008F7703C08091B00099
:100210008F7D8093B000F0E0EE0FFF1FE655FF4F9B
:10022000A591B4918FB7F894EC91611103C020951A
:100230002E2301C02E2B2C938FBF08953FB7F89427
:100240008091950190919601A0919701B0919801AC
:1002500026B5A89B05C02F3F19F00196A11DB11D21
:100260003FBFBA2FA92F982F8827820F911DA11D5C
:10027000B11DBC01CD0142E0660F771F881F991F99
:100280004A95D1F70895CF92DF92EF92FF920F93A4
:100290001F93CF93DF936C017A018B01C0E0D0E014
:1002A000CE15DF0589F0D8016D918D01D601ED9154
:1002B000FC910190F081E02DC6010995892B11F484
:1002C0007E0102C02196ECCFC701DF91CF911F9133
:1002D0000F91FF90EF90DF90CF9008950F931F93B1
:1002E000CF93DF938C01C0E0D0E0F801EC0FFD1F4D
:1002F0006491662371F0E0919901F0919A01019067
:10030000F081E02D89E991E00995892B11F0219682
:10031000ECCF42E050E068E471E089E991E00E94AE
:1003200043018C0F9D1FDF91CF911F910F91089575
:10033000FC01538D448D252F30E0842F90E0821BEB
:10034000930B541710F0CF96089501970895FC0170
:10035000918D828D981761F0828DDF01A80FB11DFC
:100360005D968C91928D9F5F9F73928F90E0089520
:100370008FEF9FEF0895FC01918D828D981731F0DA
:10038000828DE80FF11D858D90E008958FEF9FEF2E
:100390000895FC01918D228D892F90E0805C9F4F04
:1003A000821B91098F739927089589E991E00E9432
:1003B000C90121E0892B09F420E0822F0895FC0176
:1003C000848DDF01A80FB11DA35ABF4F2C91848DDE
:1003D00090E001968F739927848FA689B7892C9313
:1003E000A089B1898C9180648C93938D848D9813AE
:1003F00006C00288F389E02D80818F7D8083089577
:10040000EF92FF920F931F93CF93DF93EC0181E064
:10041000888F9B8D8C8D981305C0E889F989808120
:1004200085FD24C0F62E0B8D10E00F5F1F4F0F735C
:100430001127E02E8C8DE8120CC00FB607FCFACF06
:10044000E889F989808185FFF5CFCE010E94DF011F
:10045000F1CF8B8DFE01E80FF11DE35AFF4FF082C3
:100460000B8FEA89FB898081806207C0EE89FF8952
:100470006083E889F98980818064808381E090E0ED
:10048000DF91CF911F910F91FF90EF900895CF933F
:10049000DF93EC01888D8823C9F0EA89FB8980818C
:1004A00085FD05C0A889B9898C9186FD0FC00FB65E
:1004B00007FCF5CF808185FFF2CFA889B9898C919F
:1004C00085FFEDCFCE010E94DF01E7CFDF91CF9115
:1004D000089580E090E0892B29F00E94D5018111D8
:1004E0000C940000089521E0FC0142815381809129
:1004F0008E0190918F014817590709F020E0822F53
:100500000895DC0112968D919C911397DC01ED9179
:10051000FC910084F185E02D0994DC0112968D9107
:100520009C911397DC01ED91FC910280F381E02D09
:100530000994DC0112968D919C911397DC01ED9149
:10054000FC910190F081E02D099521E0892B09F4BF
:1005500020E0822F0895DC0112968D919C911397D3
:10056000DC01ED91FC910284F385E02D099508955D
:10057000089520918E0130918F012817390771F469
:1005800090918D0180918C01981741F0E0918D013F
:10059000F0E0E45BFE4F808190E008958FEF9FEFE5
:1005A000089508951F93CF93DF93DC015C962D91FE
:1005B0003C915D972115310539F481E090E0139667
:1005C0009C938E9312973DC05196ED91FC9152975A
:1005D00050969C915097892F80951FB75E964C91AD
:1005E0005E9741FB772770F941FD6095F894408153
:1005F000772311F0492B01C048234083E90121975B
:10060000F1F748E0508160FF02C0592B01C0582328
:100610005083E9012197F1F76695415099F77723C7
:1006200021F090818923808303C08081982B90835F
:100630001FBF5C968D919C915D970197F1F721E02A
:1006400030E0C901DF91CF911F91089520918E0173
:1006500030918F012817390771F480918C01209116
:100660008D0190E0805C9F4F821B910960E470E0F7
:100670000E948F08089580E090E0089520918E01F7
:1006800030918F0128173907B9F490918D0180912D
:100690008C01981789F0E0918D01F0E0E45BFE4F4A
:1006A000808120918D0130E02F5F3F4F2F733327E2
:1006B00020938D0190E008958FEF9FEF0895CF93E1
:1006C000DF93FC01828D938D892B31F1A0918E01F6
:1006D000B0918F01AE17BF07F9F0109751F0539604
:1006E000CD91DC915497988155968C918095892372
:1006F0008883868D8E7F868F10928C0110928D015B
:10070000F0938F01E0938E01A389B4899C91858930
:10071000892B8C9381E001C080E0DF91CF91089517
:10072000CF93DF939A01AB01FC01C281D3811B8E71
:100730001A8E198E188E1F8A1E8A60E079E08DE36A
:1007400090E00E94A308F9012430310518F0C90196
:10075000039702C081E090E09D8F8C8F6C8566319D
:1007600008F069C0C901969587958431910510F00C
:10077000439702C081E090E09F8B8E8B369718F0F4
:10078000C901059702C081E090E0998F888FC90167
:10079000880F991F280F391F36952795369527956D
:1007A0002D30310518F02C50310902C021E030E025
:1007B0003B8F2A8F90916800683050F021E06E30B6
:1007C00008F420E081E001C0880F2A95EAF701C013
:1007D00084E0892B809368008C85883038F08E30D7
:1007E00040F0863148F020E030E008C02DE630E0EF
:1007F00005C02BE630E002C02CE630E03C8B2B8BB2
:10080000883030F491E001C0990F8A95EAF70EC064
:10081000282F30E08E3018F42850310902C02E50B5
:10082000310991E001C0990F2A95EAF79D8B8C8DD3
:100830009D8D0197F1F7CE01DF91CF910C945F036D
:10084000FC01828193810C945F03089580E090E025
:1008500008950E94FE080C94F707FC0186E391E0DE
:100860009183808384818823F1F00280F381E02DDD
:100870003097C9F084E291E09183808380918E016A
:1008800090918F018E179F0759F4A389B4899C9189
:100890008589809589238C9310928F0110928E0107
:1008A000CF010C94F7070895CF93DF93EC010E94DA
:1008B0002D04CE01DF91CF910C94F7070C94F7072C
:1008C0001F920F920FB60F9211242F933F938F9385
:1008D0009F93AF93BF938091910190919201A091CA
:1008E0009301B09194013091900123E0230F2D37B3
:1008F00020F40196A11DB11D05C026E8230F029624
:10090000A11DB11D209390018093910190939201BC
:10091000A0939301B09394018091950190919601D9
:10092000A0919701B09198010196A11DB11D8093EE
:10093000950190939601A0939701B0939801BF9170
:10094000AF919F918F913F912F910F900FBE0F907C
:100950001F9018951F920F920FB60F9211242F938C
:100960003F934F935F936F937F938F939F93AF9337
:10097000BF93EF93FF9389E991E00E94DF01FF911C
:10098000EF91BF91AF919F918F917F916F915F9107
:100990004F913F912F910F900FBE0F901F90189580
:1009A0001F920F920FB60F9211242F938F939F9344
:1009B000EF93FF93E091A901F091AA018081E0916A
:1009C000AF01F091B00182FD12C090818091B2011F
:1009D0008F5F8F732091B301821751F0E091B201C4
:1009E000F0E0E756FE4F958F8093B20101C0808101
:1009F000FF91EF919F918F912F910F900FBE0F90CC
:100A00001F9018951F920F920FB60F9211242F93DB
:100A10003F934F935F936F937F938F939F93AF9386
:100A2000BF93EF93FF93E0918E01F0918F01309788
:100A300009F451C0968DA685B785858591FF04C0C0
:100A40009C91892329F447C09C91892309F043C0D4
:100A5000A389B4899C918589809589238C93868903
:100A600097890197F1F7608D718DA685B7855585BA
:100A700038E020E0CB010197F1F7822F90E09595C7
:100A80008795282F4C91452309F02068315091F724
:100A9000868D81FD209580918C0190E001968F7369
:100AA000992730918D01381749F0A0918C01B0E061
:100AB000A45BBE4F2C9380938C0103C0868D816014
:100AC000868F828D938D0197F1F7A389B4899C91CC
:100AD0008589892B8C93FF91EF91BF91AF919F9165
:100AE0008F917F916F915F914F913F912F910F90D7
:100AF0000FBE0F901F901895CF92DF92EF92FF924A
:100B00000F931F93CF93DF9310929C0110929B0140
:100B100048EEC42E43E0D42EE12CF12CC0929D016E
:100B2000D0929E01E0929F01F092A0018AE091E0B4
:100B300090939A018093990185EC90E09093A6019F
:100B40008093A50184EC90E09093A8018093A70185
:100B500080EC90E09093AA018093A90181EC90E051
:100B60009093AC018093AB0182EC90E09093AE0146
:100B70008093AD0186EC90E09093B0018093AF013B
:100B80001092B2011092B3011092B4011092B5010B
:100B900085E090E00E9462078C0186E391E0D80135
:100BA00011969C938E9314961C928FE190E00E9474
:100BB0006207EC011B821A82CC82DD82EE82FF8208
:100BC00084E291E0998388831F8A1E8A198E188E89
:100BD0001B8E1A8E1D8E1C8E6E8D6E7F6D7F6E8F9E
:100BE0006695617081E068278BE00E94D200E7EE95
:100BF000F0E02491E3EDF0E08491882399F090E017
:100C0000880F991FFC01EC54FF4FA591B491FC0192
:100C1000E655FF4F859194918FB7F894EC91E22BB4
:100C2000EC938FBFE7EEF0E0E491E88BE3EDF0E0CA
:100C3000E491F0E0EE0FFF1FE655FF4F8591949190
:100C40009A8B898BE6EEF0E08491E2EDF0E024915E
:100C50002223D1F030E0220F331FF901EC54FF4F73
:100C6000A591B491F901E655FF4F259134914FB705
:100C7000F8949C91E82FE095892F8E238C93D901CD
:100C80008C91E823EC934FBF8E8D81FD04C061E011
:100C90008AE00E94D2008AE08C87E6EEF0E0E491E0
:100CA000ED87E2EDF0E0E491F0E0EE0FFF1FE2549B
:100CB000FF4F859194919F878E87F801D383C283DC
:100CC00081E084838CE191E090933D0280933C022B
:100CD0008EE08093400287E18093410280E280931E
:100CE000420289E28093430280E68093440287E5D2
:100CF000809345028EE48093460285E48093470208
:100D000010933F0200933E02109236021092370277
:100D10001092390210923802DF91CF911F910F91FA
:100D2000FF90EF90DF90CF900895789484B5826023
:100D300084BD84B5816084BD85B5826085BD85B57F
:100D4000816085BD80916E00816080936E001092FD
:100D50008100809181008260809381008091810078
:100D60008160809381008091800081608093800009
:100D70008091B10084608093B1008091B000816067
:100D80008093B00080917A00846080937A00809193
:100D90007A00826080937A0080917A0081608093EB
:100DA0007A0080917A00806880937A001092C10066
:100DB000E091A901F091AA0182E08083E091A50170
:100DC000F091A6011082E091A701F091A8018FECAB
:100DD00080831092B101E091AD01F091AE0186E007
:100DE0008083E091AB01F091AC01808180618083D0
:100DF000E091AB01F091AC01808188608083E0914B
:100E0000AB01F091AC01808180688083E091AB01FF
:100E1000F091AC0180818F7D808380913E02909122
:100E20003F02DC01ED91FC910284F385E02D40E866
:100E300055E260E070E0099588E690E00E946E015E
:100E4000C3E011E0D2E0C0933602109337020E9453
:100E5000A50083E890E00E946E010E941E014B01F4
:100E60005C0188EEC82E83E0D82EE12CF12C0E9484
:100E70001E01DC01CB0188199909AA09BB09883E2A
:100E80009340A105B10558F0B1E0CB1AD108E108B3
:100E9000F10828EE820E23E0921EA11CB11CC114A1
:100EA000D104E104F10419F7C0933602D09337025C
:100EB0000E94A50081E790E00E946E010E946902F5
:100EC000C2CF0895CF93DF938230910510F482E072
:100ED00090E0E0914A02F0914B0220E030E0C0E067
:100EE000D0E0309711F14081518148175907C0F087
:100EF0004817590761F482819381209719F09B83E9
:100F00008A832BC090934B0280934A0226C02115FE
:100F1000310519F04217530718F49A01BE01DF0199
:100F2000EF010280F381E02DDCCF2115310509F1BD
:100F3000281B390B2430310590F412968D919C9129
:100F400013976115710521F0FB019383828304C01F
:100F500090934B0280934A02FD01329644C0FD01FA
:100F6000E20FF31F81939193225031092D933C930B
:100F70003AC02091480230914902232B41F420913C
:100F800002013091030130934902209348022091DD
:100F90000001309101012115310541F42DB73EB713
:100FA0004091040150910501241B350BE09148024A
:100FB000F0914902E217F307A0F42E1B3F0B28170C
:100FC000390778F0AC014E5F5F4F2417350748F0C2
:100FD0004E0F5F1F509349024093480281939193B3
:100FE00002C0E0E0F0E0CF01DF91CF9108950F93D0
:100FF0001F93CF93DF93009709F48CC0FC013297C5
:101000001382128200914A0210914B0201151105C0
:1010100081F420813181820F931F20914802309109
:1010200049022817390779F5F0934902E0934802FD
:1010300071C0D80140E050E0AE17BF0750F41296DF
:101040002D913C911397AD012115310509F1D9017D
:10105000F3CF9D01DA013383228360817181860F92
:10106000971F8217930769F4EC0128813981260FB5
:10107000371F2E5F3F4F318320838A819B8193836B
:101080008283452B29F4F0934B02E0934A0242C03D
:101090001396FC93EE931297ED01499159919E019D
:1010A000240F351FE217F30771F480819181840FBB
:1010B000951F029611969C938E938281938113962D
:1010C0009C938E931297E0E0F0E0D80112968D91F8
:1010D0009C911397009719F0F8018C01F6CF8D9130
:1010E0009C9198012E5F3F4F820F931F20914802E1
:1010F000309149022817390769F4309729F4109282
:101100004B0210924A0202C01382128210934902CB
:1011100000934802DF91CF911F910F91089597FBA3
:10112000072E16F4009407D077FD09D00E94C2085C
:1011300007FC05D03EF4909581959F4F08957095DA
:1011400061957F4F0895052E97FB1EF400940E9431
:10115000BA0857FD07D00E94D60807FC03D04EF40A
:101160000C94BA0850954095309521953F4F4F4FBC
:101170005F4F089590958095709561957F4F8F4F43
:101180009F4F0895AA1BBB1B51E107C0AA1FBB1F9D
:10119000A617B70710F0A61BB70B881F991F5A9503
:1011A000A9F780959095BC01CD010895A1E21A2E72
:1011B000AA1BBB1BFD010DC0AA1FBB1FEE1FFF1FFB
:1011C000A217B307E407F50720F0A21BB30BE40B4B
:1011D000F50B661F771F881F991F1A9469F7609592
:1011E0007095809590959B01AC01BD01CF0108954C
:1011F000EE0FFF1F0590F491E02D099481E090E03F
:10120000F8940C94030910E0C9E7D0E004C0FE0193
:101210000E94F8082196CA37D107C9F7F894FFCF82
:1012200000004C0280000000000000024301980111
:101230004702C901A701BB0100000000A4002B0464
:1012400000000000D20243012604D10226033E031F
:10125000B902000000002D045404AB0299028D0273
:0C12600090032004810273020D0A0000BC
:00000001FF
