:100000000C94E3020C940B030C940B030C940B0361
:100010000C940B030C940B030C940B030C94CD0564
:100020000C940B030C940B030C940B030C940B0318
:100030000C940B030C940B030C940B030C940B0308
:100040000C9458050C940B030C944F060C94290641
:100050000C940B030C940B030C940B030C940B03E8
:100060000C94E4080C940B03020000000024002709
:10007000002A0000000000250028002B00000000DE
:1000800000230026002900040404040404040402DC
:100090000202020202030303030303010204081025
:1000A00020408001020408102001020408102000F2
:1000B0000000080002010000030407000000000027
:1000C00000000000000000003E5B4F5B3E3E6B4FB7
:1000D0006B3E1C3E7C3E1C183C7E3C181C577D57DA
:1000E0001C1C5E7F5E1C00183C1800FFE7C3E7FF86
:1000F0000018241800FFE7DBE7FF30483A060E2619
:1001000029792926407F050507407F05253F5A3C70
:10011000E73C5A7F3E1C1C08081C1C3E7F14227FB3
:1001200022145F5F005F5F06097F017F006689958B
:100130006A606060606094A2FFA29408047E040874
:1001400010207E201008082A1C08081C2A08081EF7
:10015000101010100C1E0C1E0C30383E3830060EDD
:100160003E0E06000000000000005F0000000700D7
:100170000700147F147F14242A7F2A122313086493
:100180006236495620500008070300001C22410037
:100190000041221C002A1C7F1C2A08083E08080077
:1001A0008070300008080808080000606000201017
:1001B0000804023E5149453E00427F4000724949D1
:1001C00049462141494D331814127F1027454545B2
:1001D000393C4A49493141211109073649494936D3
:1001E000464949291E000014000000403400000068
:1001F000081422411414141414004122140802019A
:100200005909063E415D594E7C1211127C7F4949C5
:1002100049363E414141227F4141413E7F49494962
:10022000417F090909013E414151737F0808087F58
:1002300000417F41002040413F017F081422417F5F
:10024000404040407F021C027F7F0408107F3E41F7
:1002500041413E7F090909063E4151215E7F09194E
:100260002946264949493203017F01033F40404066
:100270003F1F2040201F3F4038403F631408146355
:1002800003047804036159494D43007F4141410211
:1002900004081020004141417F0402010204404053
:1002A000404040000307080020545478407F284411
:1002B00044383844444428384444287F38545454FB
:1002C0001800087E090218A4A49C787F080404780A
:1002D00000447D40002040403D007F102844000045
:1002E000417F40007C047804787C0804047838441A
:1002F000444438FC1824241818242418FC7C0804CE
:100300000408485454542404043F44243C404020EE
:100310007C1C2040201C3C4030403C442810284499
:100320004C9090907C4464544C440008364100004A
:1003300000770000004136080002010204023C265A
:1003400023263C1EA1A161123A4040207A38545421
:1003500055592155557941225454784221555478A4
:100360004020545579400C1E52721239555555593A
:10037000395454545939555454580000457C41005F
:1003800002457D420001457C407D1211127DF0281E
:100390002528F07C545545002054547C547C0A098F
:1003A0007F4932494949323A4444443A324A4848FA
:1003B000303A4141217A3A42402078009DA0A07D08
:1003C0003D4242423D3D4040403D3C24FF242448C4
:1003D0007E4943662B2FFC2F2BFF0929F620C0886E
:1003E0007E090320545479410000447D413048483F
:1003F0004A32384040227A007A0A0A727D0D193159
:100400007D2629292F28262929292630484D4020B4
:10041000380808080808080808382F10C8ACBA2F90
:10042000102834FA00007B000008142A1422221439
:100430002A14085500550055AA55AA55AAFF55FF7C
:1004400055FF000000FF00101010FF00141414FFEF
:10045000001010FF00FF1010F010F0141414FC0036
:100460001414F700FF0000FF00FF1414F404FC1440
:100470001417101F10101F101F1414141F00101039
:1004800010F0000000001F101010101F10101010AE
:10049000F010000000FF101010101010101010FFCE
:1004A00010000000FF140000FF00FF00001F1017E5
:1004B0000000FC04F414141710171414F404F400CE
:1004C00000FF00F714141414141414F700F7141494
:1004D00014171410101F101F141414F4141010F01B
:1004E00010F000001F101F0000001F14000000FC8F
:1004F000140000F010F01010FF10FF141414FF147B
:100500001010101F00000000F010FFFFFFFFFFF0B1
:10051000F0F0F0F0FFFFFF0000000000FFFF0F0F02
:100520000F0F0F3844443844FC4A4A4A347E0202D2
:100530000606027E027E0263554941633844443C0C
:1005400004407E201E2006027E020299A5E7A5999E
:100550001C2A492A1C4C7201724C304A4D4D3030D5
:1005600048784830BC625A463D3E494949007E01C0
:1005700001017E2A2A2A2A2A44445F444440514ADF
:10058000444040444A51400000FF0103E080FF0026
:100590000008086B6B083612362436060F090F0662
:1005A000000018180000001010003040FF0101008A
:1005B0001F01011E00191D1712003C3C3C3C0000AD
:1005C000000000003C1511241FBECFEFD8E0DEBFB5
:1005D000CDBF16E0A0E0B1E0E8EEF4E302C0059084
:1005E0000D92AE3FB107D9F729E0AEEFB6E001C0FA
:1005F0001D92A839B207E1F712E0C3EED2E004C0C1
:100600002197FE010E94671AC23ED107C9F70E94D6
:1006100016160C94721A0C940000833081F028F4A2
:10062000813099F08230A1F008958730A9F08830A8
:10063000B9F08430D1F4809180008F7D03C0809127
:1006400080008F7780938000089584B58F7702C0F3
:1006500084B58F7D84BD08958091B0008F7703C0ED
:100660008091B0008F7D8093B0000895CF93DF9389
:10067000282F30E0F901E155FF4F8491F901E5564B
:10068000FF4FD491F901E957FF4FC491CC2391F06A
:1006900081110E940D03EC2FF0E0EE0FFF1FE358D5
:1006A000FF4FA591B491EC91ED2381E090E021F40E
:1006B00080E002C080E090E0DF91CF9108953FB7E5
:1006C000F8948091BB089091BC08A091BD08B091AE
:1006D000BE0826B5A89B05C02F3F19F00196A11DA5
:1006E000B11D3FBFBA2FA92F982F8827820F911DC8
:1006F000A11DB11DBC01CD0142E0660F771F881F0F
:10070000991F4A95D1F70895CF92DF92EF92FF9209
:100710000F931F93CF93DF936C017A018B01C0E09D
:10072000D0E0CE15DF0589F0D8016D918D01D6019D
:10073000ED91FC910190F081E02DC6010995892B86
:1007400011F47E0102C02196ECCFC701DF91CF9159
:100750001F910F91FF90EF90DF90CF9008958DE65D
:1007600097E00E94DF0D21E0892B09F420E0822F21
:1007700008950E946D1AEF92FF920F931F93CF93EB
:10078000DF93EC0181E0888F9B8D8C8D981305C0E1
:10079000E889F989808185FD24C0F62E0B8D10E053
:1007A0000F5F1F4F0F731127E02E8C8DE8120CC0C6
:1007B0000FB607FCFACFE889F989808185FFF5CF6C
:1007C000CE010E94F914F1CF8B8DFE01E80FF11DCF
:1007D000E35AFF4FF0820B8FEA89FB8980818062A8
:1007E00007C0EE89FF896083E889F9898081806488
:1007F000808381E090E0DF91CF911F910F91FF9076
:10080000EF900895009769F0FC0101900020E9F74E
:100810003197AF01481B590BBC018DE697E00C9452
:10082000840380E090E008958F929F92AF92BF92F0
:10083000CF92DF92EF92FF920F931F93CF93DF93AC
:10084000CDB7DEB7A1970FB6F894DEBF0FBECDBF10
:100850006C01990FEE08FF08F7FE31C0E0916D07BB
:10086000F0916E070190F081E02D6DE28DE697E04A
:1008700009958C0122273327A9012C193D094E091E
:100880005F0919A2CE0181967C019AE0892E912CF4
:10089000A12CB12CCA01B901A50194010E94361AFC
:1008A000605DF70162937F01211531054105510516
:1008B00089F7CF010E940204080F191F1EC0A7016B
:1008C000960119A28E010F5D1F4F8AE0C82ED12C10
:1008D000E12CF12CCA01B901A70196010E94361A38
:1008E000605DF80162938F012115310541055105C5
:1008F00089F7CF010E9402048C0183E895E00E94F1
:100900000204800F911FA1960FB6F894DEBF0FBEB0
:10091000CDBFDF91CF911F910F91FF90EF90DF90AE
:10092000CF90BF90AF909F908F9008950C94020449
:10093000CF93DF930E940204EC0183E895E00E94CC
:1009400002048C0F9D1FDF91CF9108951F93CF93C9
:10095000DF93282F30E0F901E155FF4F8491F90131
:10096000E556FF4FD491F901E957FF4FC491CC23CD
:10097000C9F0162F81110E940D03EC2FF0E0EE0F4D
:10098000FF1FED58FF4FA591B4918FB7F894111147
:1009900005C09C91ED2FE095E92302C0EC91ED2B71
:1009A000EC938FBFDF91CF911F910895CF93DF9389
:1009B00090E0FC01E556FF4F2491FC01E957FF4F01
:1009C0008491882361F190E0880F991FFC01E75919
:1009D000FF4FC591D491FC01ED58FF4FA591B49103
:1009E000611109C09FB7F89488812095822388837C
:1009F000EC912E230BC0623061F49FB7F8943881DC
:100A0000822F809583238883EC912E2B2C939FBF7C
:100A100006C08FB7F894E8812E2B28838FBFDF9113
:100A2000CF9108958F929F92AF92BF92CF92DF9213
:100A3000EF92FF926B017C010E945F034B015C010E
:100A4000C114D104E104F104F1F00E945F03DC0160
:100A5000CB0188199909AA09BB09883E9340A105D1
:100A6000B10570F321E0C21AD108E108F10888EE5F
:100A7000880E83E0981EA11CB11CC114D104E104AE
:100A8000F10419F7DDCFFF90EF90DF90CF90BF908A
:100A9000AF909F908F9008952FB7F8946091B7080A
:100AA0007091B8088091B9089091BA082FBF089545
:100AB0001F920F920FB60F9211242F933F938F9393
:100AC0009F93AF93BF938091B7089091B808A0917E
:100AD000B908B091BA083091B60823E0230F2D373A
:100AE00020F40196A11DB11D05C026E8230F029632
:100AF000A11DB11D2093B6088093B7089093B80844
:100B0000A093B908B093BA088091BB089091BC0833
:100B1000A091BD08B091BE080196A11DB11D8093A2
:100B2000BB089093BC08A093BD08B093BE08BF91CA
:100B3000AF919F918F913F912F910F900FBE0F908A
:100B40001F90189590910001981324C0E8E6F0E0FA
:100B5000E4919FEF90930001E130B9F098F0E2301A
:100B6000C9F4909170009D7F9093700091E09093F4
:100B7000B0009091B100987F94609093B100109272
:100B8000B30008C010926E0005C090916F009D7F69
:100B900090936F0060E00C94A6041F920F920FB622
:100BA0000F9211242F933F934F935F936F937F93F3
:100BB0008F939F93AF93BF93EF93FF938091010720
:100BC00090910207A0910307B0910407892B8A2B0B
:100BD0008B2B51F180910007E091FE06F091FF060A
:100BE0009081892780838091010790910207A091CD
:100BF0000307B0910407181619061A061B06C4F459
:100C00008091010790910207A0910307B09104071A
:100C10000197A109B1098093010790930207A0935E
:100C20000307B093040704C0809100010E94A2054D
:100C3000FF91EF91BF91AF919F918F917F916F91B4
:100C40005F914F913F912F910F900FBE0F901F908A
:100C500018951F920F920FB60F9211242F933F9366
:100C60004F935F936F937F938F939F93AF93BF93B4
:100C7000EF93FF938DE697E00E94F914FF91EF91B7
:100C8000BF91AF919F918F917F916F915F914F91A4
:100C90003F912F910F900FBE0F901F9018951F92AC
:100CA0000F920FB60F9211242F938F939F93EF9370
:100CB000FF93E0917D07F0917E078081E0918307AB
:100CC000F091840782FD12C09081809186078F5F2A
:100CD0008F7320918707821751F0E0918607F0E02B
:100CE000E359F84F958F8093860701C08081FF916B
:100CF000EF919F918F912F910F900FBE0F901F90AA
:100D000018950F931F93CF93DF93DC01FB0155964A
:100D10008C915597823081F0833019F1813051F5F3
:100D200014968D919C911597BC01641B750BAB01BA
:100D300041505109BF0181C014966D917C91159766
:100D4000CB018E1B9F0BFC0116968D919C911797E2
:100D5000BC01641B750BAB0141505109E21BF30B45
:100D600009C016966D917C9117976E1B7F0B621BC5
:100D7000730B63C057FD1CC116968D919C911797FC
:100D8000481759070CF014C1F7FF04C02E0F3F1F7E
:100D9000E0E0F0E014968D919C911597BF01620FF1
:100DA000731F861797071CF49C012E1B3F0B12160E
:100DB00013060CF0FDC0CA0157FD079663E0959538
:100DC00087956A95E1F79695982F88279795879547
:100DD000E80FF91FE55FFE4F4770552781E090E06F
:100DE00001C0880F4A95EAF7482F0130110541F0FC
:100DF00088F00230110509F0DBC02E0F3F1F15C02F
:100E00002E0F3F1FE217F30709F4D2C08081842B15
:100E10008193F8CF80952E0F3F1FE217F30709F457
:100E2000C7C0908198239193F8CFE217F30709F494
:100E3000BFC0808184278193F8CF57FDB9C0149635
:100E40008D919C911597481759070CF0B1C077FF09
:100E500004C0260F371F60E070E016968D919C91BC
:100E60001797FB01E20FF31F8E179F071CF49C01DD
:100E7000261B370B121613060CF09AC0A22F862FD2
:100E800086958695869590E8899F400D511D112481
:100E9000FA01E55FFE4F6770A9F198E0961B492FB4
:100EA00050E0EA01C558DA4F8881291790F4421BB7
:100EB00051092FEF30E002C0359527954A95E2F7AA
:100EC00082230130110541F068F00230110589F0EC
:100ED0006FC00130110519F42081822B0CC0013044
:100EE000110520F480952081822305C00230110570
:100EF00031F4208182278083A91708F459C0A91BE7
:100F0000E058FF4FA83048F10230110559F4EF01C5
:100F10008A2F988190959883C058DF4F88508830E9
:100F2000C0F731C081E00130110509F080E0819502
:100F3000EF019A2F8883C058DF4F98509830D0F730
:100F400088EF8A0F86958695869560E8869FE00DE6
:100F5000F11D1124E058FF4FA770AA2349F1B0E01A
:100F6000AD58BA4F8C910130110529F038F002309C
:100F70001105D9F01DC09081892B03C08095908107
:100F80008923808315C088EF8A0F8695869586957C
:100F900070E8879FE00DF11D1124E058FF4FA77006
:100FA00039F0B0E0AD58BA4F8C9190818927E9CFE4
:100FB000DF91CF911F910F910895FC0177FD9AC0A9
:100FC00080859185681779070CF094C057FD92C011
:100FD00082859385481759070CF08CC0858982302B
:100FE00009F07CC084819581DC01A61BB70BBD0193
:100FF0006150710986819781FC01E41BF50BAF01FB
:10100000415051090AC0813041F484819581841B8B
:10101000950BAB01BC01615071092130310529F0FC
:1010200008F122303105E1F10895FA0157FD3796B4
:10103000A3E0F595E795AA95E1F7F695FE2FEE2743
:10104000F795E7956E0F7F1FFB01E55FFE4F477039
:10105000552781E090E001C0880F4A95EAF790811A
:10106000892B3AC0FA0157FD379623E0F595E795AD
:101070002A95E1F7F695FE2FEE27F795E7956E0F87
:101080007F1FFB01E55FFE4F4770552781E090E031
:1010900001C0880F4A95EAF78095908189231CC08A
:1010A000FA0157FD379683E0F595E7958A95E1F7C4
:1010B000F695FE2FEE27F795E7956E0F7F1FFB0144
:1010C000E55FFE4F4770552781E090E001C0880F33
:1010D0004A95EAF79081892780830895833009F043
:1010E00092CF86819781861B970BBA01AC01415044
:1010F000510993CF089508958FEF9FEF08958FEFD3
:101100009FEF08958091970990E0919581959109BD
:101110000895089580E090E0089585ED8093BC00E7
:101120008091BC0084FDFCCF10927109089540911C
:101130004B09262F30E0240F311D21323105DCF41C
:10114000209171092430C9F4FC0180E090E08617F9
:1011500058F430914B092191DC01A75DB64FA30FE4
:10116000B11D2C930196F3CF80914B09680F6093CA
:101170004B0980E0089581E0089582E00895CF93BF
:10118000DF9300D0CDB7DEB7CB01642F49835A83FC
:101190000E9497084981842F5A81952F0F900F90B4
:1011A000DF91CF910895CF93DF931F92CDB7DEB734
:1011B000698361E0CE0101960E94970881E090E08A
:1011C0000F90DF91CF9108951F920F920FB60F925B
:1011D00011242F933F934F935F936F937F938F933C
:1011E0009F93AF93BF93EF93FF938091B900887F54
:1011F000803609F49CC068F5883209F45BC090F42D
:10120000803109F454C038F4882309F4F6C08830DA
:1012100009F44DC0F6C0883109F44CC0803209F49D
:101220005DC0EFC0803409F468C048F4803309F42D
:1012300055C0883309F0E5C080937009D8C0803567
:1012400009F44FC0883509F45DC0883409F0D9C06D
:10125000D6C0883909F4C7C0A8F4883709F467C034
:1012600038F4883609F463C0803709F460C0C9C017
:10127000883809F4B8C0803909F45FC0803809F0B3
:10128000C0C05BC0803B09F486C038F4803A09F4E2
:1012900066C0883A09F47FC0B4C0803C09F4A7C096
:1012A000883C09F4A4C0883B09F48AC0AAC0809194
:1012B000960910C09091950980919409981770F53E
:1012C000E091950981E08E0F80939509F0E0EC584C
:1012D000F64F80818093BB0085EC86C080937009B7
:1012E0008EC0E091950981E08E0F809395098091E1
:1012F000BB00F0E0EC58F64F808390919509809107
:1013000094096EC0E091950981E08E0F8093950954
:101310008091BB00F0E0EC58F64F80838091730918
:1013200081116DC081E08093720984EA61C083E01D
:101330008093710910926F09CFCF80916F0980322D
:1013400008F051C0E0916F0981E08E0F80936F0922
:101350008091BB00F0E0E15BF64F8083BDCF85EC70
:101360008093BC001092710980916F09803230F433
:10137000E0916F09F0E0E15BF64F108260916F0938
:1013800070E0E0914D09F0914E098FE499E00995E4
:1013900010926F0936C084E08093710910924C0955
:1013A00010924B09E0914909F0914A090995809101
:1013B0004B09811105C081E080934B0910922909E6
:1013C000E0914C0981E08E0F80934C09F0E0E75DDD
:1013D000F64F80818093BB0090914C0980914B091E
:1013E000981708F479CF85E88093BC000AC085EC93
:1013F0008093BC001092710904C0109270090E9481
:101400008D08FF91EF91BF91AF919F918F917F9147
:101410006F915F914F913F912F910F900FBE0F9061
:101420001F9018958F929F92AF92BF92CF92DF92AA
:10143000EF92FF921F93CF93DF93EC01162FFC01E5
:10144000E15FFA4F80810E94A604113009F0BDC10E
:101450008BE696E00E949804FE01EE0FFF1FE7590D
:10146000FA4F8080918080910001873021F08F3F7A
:1014700009F099C104C0E8E6F0E0149172C087E079
:1014800080930001E8E6F0E014911F3F09F48BC15E
:10149000113009F1123009F441C0111162C014BCBD
:1014A00015BC84B5826084BD85B5816085BDEEE8DC
:1014B000F0E0E491F0E0EE0FFF1FED58FF4F859153
:1014C00094919093200980931F09E2EAF0E0E4915F
:1014D000E0931E0948C01092800010928100809114
:1014E0008100886080938100809181008160809379
:1014F0008100EEE8F0E0E491F0E0EE0FFF1FED5820
:10150000FF4F8591949190931D0980931C09E2EA05
:10151000F0E0E491E0931B0911E025C01092B000C7
:101520001092B1008091B00082608093B0008091F1
:10153000B10081608093B100EEE8F0E0E491F0E06A
:10154000EE0FFF1FED58FF4F859194919093FF068A
:101550008093FE06E2EAF0E0E491E093000712E0F7
:1015600002C017FD20C161E087E00E94D604A12CD3
:10157000B12C812F8D7F09F0A9C060E072E18AE76C
:1015800090E0A50194010E94041A69017A01BA0150
:10159000A90141505109610971094F3F5105610588
:1015A000710509F008F445C060E472E48FE090E052
:1015B000A50194010E94041ABA01A90141505109E0
:1015C000610971091230E9F44F3F51056105710558
:1015D00009F008F45BC160E970ED83E090E0A501DB
:1015E00094010E94041ABA01A901415051096109EC
:1015F00071094F3F51056105710509F0A8F583E0B8
:101600005EC04F3F510561057105A9F0A0F068E487
:1016100078EE81E090E0A50194010E94041ABA01DD
:10162000A9014150510961097109112309F40FC140
:1016300006C181E001C082E0112389F040C0D701DA
:10164000C6012AE0B595A795979587952A95D1F774
:10165000AC01BD01415051096109710985E095B5A1
:10166000987F892B85BD66C068E478EE81E090E0C4
:10167000A50194010E94041ABA01A901415051091F
:10168000610971094F3F51056105710509F008F4C1
:10169000AAC064E274EF80E090E0A50194010E948A
:1016A000041ABA01A90141505109610971094F3F5A
:1016B00051056105710511F008F097C085E0909122
:1016C000B100987F892B8093B1002EC060E072E159
:1016D0008AE790E0A50194010E94041ABA01A901C9
:1016E00041505109610971094115510581E06807AF
:1016F000710580F068E478EE81E090E0A501940146
:101700000E94041ABA01A9014150510961097109E5
:1017100093E001C091E0113039F480918100887F1D
:10172000892B8093810018C01130B1F0123049F13B
:10173000111139C047BD8FEF9FEFDC018093250960
:1017400090932609A0932709B093280980916E00F1
:10175000826080936E0027C0509389004093880078
:101760008FEF9FEFDC018093210990932209A093D2
:101770002309B093240980916F00826080936F00E9
:1017800012C04093B3008FEF9FEFDC0180930107FD
:1017900090930207A0930307B09304078091700011
:1017A00082608093700080E796E00E949604CE01EC
:1017B000DF91CF911F91FF90EF90DF90CF90BF907E
:1017C000AF909F908F900C94140487E0DF91CF919D
:1017D0001F91FF90EF90DF90CF90BF90AF909F90C0
:1017E0008F900C94A20584E06ACF62E17AE780E0F2
:1017F00090E0A50194010E94041ABA01A901415088
:101800005109610971094F3F510561057105A9F041
:10181000A0F0D701C6013AE0B595A79597958795B1
:101820003A95D1F7AC01BD014150510961097109E7
:10183000112309F413CF87E042CF86E0FDCE4F3F5E
:1018400051056105710509F080F684E0F5CE4F3F42
:10185000510561057105C1F0B8F062E17AE780E0F9
:1018600090E0A50194010E94041ABA01A901415017
:101870005109610971094F3F51056105710511F069
:1018800008F0DDCE84E0EBCE83E0E9CE82E017CF36
:10189000CF93DF9390936C0780936B078330910510
:1018A00091F480910507909106078A30910524F400
:1018B000FC01EA56F74F10828FEF9FEF90930A01D9
:1018C000809309012BC00497F9F48FEF9FEF909359
:1018D000080180930701C0910507D0910607CA301F
:1018E000D105E4F4FE01EA56F74F81E080830E94BF
:1018F0004C05CC0FDD1FCC0FDD1FC65FD74F6883B3
:1019000079838A839B830AC08FEF9FEF90930A01AC
:1019100080930901909308018093070185E796E081
:101920000E94020480916B0790916C07DF91CF9128
:101930000C9414040F931F93CF93DF9360E0809176
:10194000190990911A090E94120A80916B079091CF
:101950006C071816190654F487E896E00E9496045E
:1019600080916B0790916C070E94140480916B0723
:1019700090916C078430910519F0019709F0E9C046
:101980008091090190910A01019690930A01809338
:1019900009018AE996E00E949604809109019091DC
:1019A0000A010E94140480EB96E00E949604809144
:1019B0000501909106010E94140489EC96E00E94B2
:1019C00098048091010190910201A0910301B091CE
:1019D0000401813921E09207A105B10534F1449752
:1019E000A109B1098093010190930201A093030121
:1019F000B0930401C0910507D0910607FE01EE0FD8
:101A0000FF1FEE0FFF1FEA5BF74F80839183A283D6
:101A1000B3830E944C05CC0FDD1FCC0FDD1FC65FCA
:101A2000D74F688379838A839B8360E0809119090B
:101A300090911A090E94120A64E670E080E090E03A
:101A40000E9412058091050190910601C29741F410
:101A500080E090E00E94480C82ED96E00E9498049D
:101A6000C0910901D0910A01009105011091060170
:101A700080916B0790916C078130910551F48091B2
:101A8000190990911A098430910509F445C001960D
:101A900045C00497B1F50C171D0774F0FE01EE0F59
:101AA000FF1FE95FF84F8081918190931A0980931D
:101AB000190984EE96E023C00E94F61924E030E074
:101AC00040E050E00E94041A70931A0960931909CB
:101AD00020910501309106012F5F3F4F30930601A1
:101AE00020930501220F331FF901E95FF84F71833D
:101AF000608383E090E00E94480C81EF96E00E94B2
:101B000096048091190990911A090E9414048091F9
:101B1000190990911A0902C080E090E090931A0987
:101B20008093190961E00E94120A0C171D078CF4BA
:101B300064EF71E080E090E00E94120560E0809127
:101B4000190990911A09DF91CF911F910F910C946F
:101B5000120ADF91CF911F910F910895FC01538DCF
:101B6000448D252F30E0842F90E0821B930B541777
:101B700010F0CF96089501970895FC01918D828D04
:101B8000981761F0828DDF01A80FB11D5D968C91D1
:101B9000928D9F5F9F73928F90E008958FEF9FEFDC
:101BA0000895FC01918D828D981731F0828DE80F98
:101BB000F11D858D90E008958FEF9FEF0895FC0152
:101BC000918D228D892F90E0805C9F4F821B91091F
:101BD0008F739927089580E090E0892B29F00E9467
:101BE000AF0381110C94000008950895FC01637007
:101BF000658B8481958126813781613039F063302E
:101C000029F091878087338722870895318720873D
:101C10009387828708952F923F924F925F926F929F
:101C20007F928F929F92AF92BF92CF92DF92EF926C
:101C3000FF920F931F93CF93DF93CDB7DEB76C97CF
:101C40000FB6F894DEBF0FBECDBF9C8F8B8F5B01AC
:101C50001A011F830E833701C982DC0158964D910A
:101C60005C9159974115510509F0E5C018968D9181
:101C70009C911997681779070CF0CAC11A968D9133
:101C80009C911B97281639060CF0C2C18C2C912C04
:101C9000FB0136E0C39EE00DF11D1124FB87EA87AE
:101CA0001E161F060CF0B4C1C40133E0880F991F43
:101CB0003A95E1F79D878C87820D931D18161906BA
:101CC0000CF0A6C157968C91811103C0203B08F0FF
:101CD0002F5FAB8DBC8DED91FC9111970284F38544
:101CE000E02DCD012A8F09952A8DB5E02B9F90011B
:101CF0001124F5013596FF87EE87BB82AA82250164
:101D0000A9014A195B09598B488BC10108969B8B25
:101D10008A8BE889F989E40DF51DED53FF4F949105
:101D2000988761013D822C82A885A0FF13C0AB8DEE
:101D3000BC8DED91FC91B981B13031F40484F5850D
:101D4000E02D2E813F8116C00684F785E02DEE80C0
:101D5000FF801AC0EE81FF816E167F06F1F0AB8D19
:101D6000BC8DED91FC91B981B13051F40484F585BD
:101D7000E02D9301A601B2018B8D9C8D09950DC0BC
:101D80000684F785E02D7301840194014C815D8107
:101D90006A817B818B8D9C8D0995E885E695E88726
:101DA000FFEFCF1ADF0A2C813D81280D391D3D83BD
:101DB0002C834A895B89C416D50609F0B5CF5FEF3D
:101DC000451A550A8A819B81880D991D9B838A83B8
:101DD000AE85BF854A165B0609F09BCFEE81FF8179
:101DE0006E167F0609F4F2C0EB8DFC8DA081B181E7
:101DF000F981F13079F4B5016B5F7F4F5096ED9129
:101E0000FC915197830128E030E0A1018B8D9C8DDE
:101E10000995DCC06A857B85681979091E96ED9164
:101E2000FC911F9773010C851D859401A1018B8D79
:101E30009C8D0995CBC0FA013496949132976591A7
:101E40007491291BCB01B7E02B9F800D911D1124AC
:101E5000FA01259134913B8B2A8BFC0145915491D9
:101E60005B834A83FC013296C490319654915E871D
:101E7000329614913196D4908981823058F0612E37
:101E8000012E000C7708AD2D0D2C000CBB0BB98773
:101E9000A88704C019861886612C712CAB8DBC8D67
:101EA000ED91FC9111970284F385E02DCD01099508
:101EB000B9818B2E912C689CC001699C900D789CF7
:101EC000900D1124FC01EA0DFB1DFD87EC871C829F
:101ED000712C612CE12F110FFF0B95012E0F3F1F6D
:101EE0003B872A87AC0CB11CA5014E0F5F1F5F8B8F
:101EF0004E8BC1018D0D911DD7FC9A95998F888FBE
:101F00004E85641608F062C0862D90E0488559859C
:101F1000480F591F489D9001499D300D589D300D27
:101F20001124D901A20DB31DB98BA88BAA84BB843F
:101F30004C845D84DC80BA85DB1AE88DF98DE80F6E
:101F4000F91FFD8BEC8B8D2D8A0D2E893F89A216F2
:101F5000B306B9F1877061F48A819B810196EA89A1
:101F6000FB89AA81BB81EA0FFB1F74909B838A8344
:101F700077FE20C0AB8DBC8DED91FC91B981B13065
:101F800061F40484F585E02D2E813F814C895D89C3
:101F9000B5018B8D9C8D09950DC00684F785E02DCC
:101FA000EE80FF808401940148895989B2018B8DAC
:101FB0009C8D0995770CEFEFAE1ABE0A480C591CA0
:101FC000C2CF3C813C0D3C8363949ACFAB8DBC8DDA
:101FD000ED91FC9111970688F789E02DCD016C9663
:101FE0000FB6F894DEBF0FBECDBFDF91CF911F912A
:101FF0000F91FF90EF90DF90CF90BF90AF909F90A8
:102000008F907F906F905F904F903F902F900994AA
:102010006C960FB6F894DEBF0FBECDBFDF91CF91A7
:102020001F910F91FF90EF90DF90CF90BF90AF90F6
:102030009F908F907F906F905F904F903F902F90E8
:102040000895AF92BF92CF92EF92FF920F931F939A
:10205000CF93DF93EC01262F888D998D009709F09F
:1020600040C06A3059F41D861C862C898E859F8558
:1020700038E0239F800D911D112441C06D3009F47B
:10208000AAC08E898823C1F03C898C859D8546E055
:10209000349F800D911D1124488559854817590793
:1020A0005CF41D861C868E859F8548E0349F800DDC
:1020B000911D11249F878E87EA88FB8808891989DA
:1020C0004E855F856C857D85CC88CE010E940B0E88
:1020D0002C898C859D8536E0239F800D911D1124D0
:1020E00042C06A3079F41D861C862C89FC01369624
:1020F000E4918E859F852E9F800D911D11249F87D1
:102100008E8769C06D3009F466C0FC013496349145
:10211000631708F460C03196E491E61708F45BC0D9
:10212000FC013296A590B490462F50E0431B510914
:1021300037E0349FB001359F700D1124A60EB71EF5
:10214000F501329634913196E491332311F0E11187
:102150000DC0F5013496E4912C898C859D85E29F14
:10216000800D911D11249D878C8735C0F501359612
:1021700044915E89552311F16C89E32FF0E0E40F5F
:10218000F11D47FDFA956E9FD0016F9FB00D112490
:102190004C855D854A0F5B1FE885F985E417F507D7
:1021A0006CF41D861C86FC013696E4918E859F8515
:1021B0006E9F800D911D11249F878E87EA88FB8872
:1021C000088919894E855F856C857D85CC88CE010F
:1021D0000E940B0EBECF81E090E0DF91CF911F9166
:1021E0000F91FF90EF90CF90BF90AF9008956F92B6
:1021F0007F928F929F92AF92BF92CF92DF92EF9297
:10220000FF920F931F93CF93DF93EC014B015A0181
:1022100069013801E881F9810284F385E02D09958F
:10222000E881F9810288F389E02D87019601A501F3
:10223000B401CE010995E881F981A501460D571D2C
:10224000415051090288F389E02D9601B401CE0175
:102250000995E881F9810088F189E02D9301A501B4
:10226000B401CE010995E881F981C80CD91CB601E9
:10227000615071090088F189E02D9301A501CE011B
:102280000995E881F9810688F789E02DCE01DF9173
:10229000CF911F910F91FF90EF90DF90CF90BF9063
:1022A000AF909F908F907F906F900994CF92DF9224
:1022B000EF92FF920F931F93CF93DF9300D000D044
:1022C00000D0CDB7DEB76C01DC01ED91FC91621757
:1022D000730789F4041715072CF4942F852FA80190
:1022E000092F182F041B150B98012F5F3F4F048CEB
:1022F000F58DE02D12C04017510709F52617370755
:102300002CF4962F872FB901292F382F261B370B36
:102310002F5F3F4F068CF78DE02D8701C601099591
:1023200026960FB6F894DEBF0FBECDBFDF91CF91DA
:102330001F910F91FF90EF90DF90CF90089502844E
:10234000F385E02D2D833E834B835C8369837A8301
:102350000995D601ED91FC910488F589E02D2D8138
:102360003E814B815C8169817A81C6010995D601E4
:10237000ED91FC910688F789E02DC60126960FB6EF
:10238000F894DEBF0FBECDBFDF91CF911F910F91AB
:10239000FF90EF90DF90CF900994EF92FF920F9310
:1023A0001F93DC01ED91FC9111971A960D911C91F0
:1023B0001B9718962D913C91199700A0F1A1E02D43
:1023C0007B0140E050E060E070E009951F910F91C3
:1023D000FF90EF9008954F925F926F927F928F924D
:1023E0009F92AF92BF92CF92DF92EF92FF920F93A4
:1023F0001F93CF93DF9300D0CDB7DEB76C015A01A6
:1024000039014801DC01ED91FC910284F385E02D56
:1024100069837A8309956981462E7A81572E640CE7
:10242000751CD601ED91FC91461457046CF400889C
:10243000F189E02D87019401A501B201C60109953A
:10244000BFEF4B1A5B0AEDCF0688F789E02DC60176
:102450000F900F90DF91CF911F910F91FF90EF9010
:10246000DF90CF90BF90AF909F908F907F906F90B4
:102470005F904F900994AF92BF92CF92DF92EF920C
:10248000FF920F931F93CF93DF9300D000D0CDB76F
:10249000DEB75C016901DC01ED91FC910284F385FA
:1024A000E02D4B835C8369837A830995D501ED9197
:1024B000FC9169817A819B012C0D3D1D21503109D0
:1024C0000488F589E02D78014B815C818A01C50182
:1024D0000995D501ED91FC910688F789E02DC5019C
:1024E0000F900F900F900F90DF91CF911F910F9150
:1024F000FF90EF90DF90CF90BF90AF900994AF9294
:10250000BF92CF92DF92EF92FF920F931F93CF93E0
:10251000DF9300D000D0CDB7DEB75C016901DC01EC
:10252000ED91FC910284F385E02D4B835C836983FC
:102530007A830995D501ED91FC914B815C81C40EA4
:10254000D51EB1E0CB1AD1080488F589E02D7801B9
:10255000860169817A819B01C5010995D501ED91BB
:10256000FC910688F789E02DC5010F900F900F9020
:102570000F90DF91CF911F910F91FF90EF90DF901F
:10258000CF90BF90AF9009940895EF92FF920F9370
:102590001F93DC01ED91FC9100A0F1A1E02D0995C4
:1025A0001F910F91FF90EF9008950F931F93DC01FF
:1025B000ED91FC91068CF78DE02D09951F910F91FF
:1025C00008950F931F93DC01ED91FC91048CF58D20
:1025D000E02D09951F910F910895DC01ED91FC917B
:1025E0000084F185E02D099408952F923F924F9237
:1025F0005F926F927F928F929F92AF92BF92CF9293
:10260000DF92EF92FF920F931F93CF93DF9300D04F
:102610001F92CDB7DEB74C017B836A836A015901F3
:1026200017019801241B350B37FF03C03195219505
:102630003109C5014A815B81841B950B97FF03C05B
:1026400091958195910951E059838217930714F070
:1026500019820BC09A2D8B2D5801092F182F9A81A2
:102660008B81DB82CA82C92ED82E8A819B81A816D3
:10267000B9065CF49C2D8D2D6801092F182F9A81C5
:102680008B81BB82AA82A92EB82E2501AA81BB818B
:102690004A1A5B0A38016C187D0877FE03C07194F2
:1026A00061947108720157FE03C0BFEFEB1AFB0A79
:1026B000F594E794C016D1061CF00FEF1FEF1FC072
:1026C00001E010E01CC0D401ED91FC91B9810484BB
:1026D000F585E02D9101BB23C1F04A815B81B601F4
:1026E000C4010995E618F708F7FE04C0C00ED11E14
:1026F000E40CF51CEA81FB813196FB83EA834A8175
:102700005B81A416B506FCF604C0A6016A817B8134
:10271000E7CF0F900F900F90DF91CF911F910F9106
:10272000FF90EF90DF90CF90BF90AF909F908F90F1
:102730007F906F905F904F903F902F9008950F93F0
:102740001F93CF93DF93DC0155968C915597823080
:1027500071F0833009F1813009F08CC01496ED914D
:10276000FC911597E41BF50BE21BF30B20C01496AC
:10277000ED91FC911597CF01861B970BBC01615021
:1027800071091696ED91FC911797CF01841B950B5B
:10279000AC01421B530B6EC01696ED91FC9117973E
:1027A000CF01861B970BBC0161507109FA0177FDBF
:1027B0001BC116968D919C911797681779070CF09D
:1027C00013C1F7FF04C02E0F3F1FE0E0F0E01496A6
:1027D0008D919C911597AF01420F531F8417950758
:1027E0001CF49C012E1B3F0B121613060CF0FCC0B0
:1027F000CB0177FD079643E0959587954A95E1F7DC
:102800009695982F882797958795E80FF91FE55F8C
:10281000FE4F6770772781E090E001C0880F6A95CE
:10282000EAF7482F0130110541F088F00230110518
:1028300009F0DAC02E0F3F1F15C02E0F3F1FE21701
:10284000F30709F4D1C08081842B8193F8CF809560
:102850002E0F3F1FE217F30709F4C6C0908198239B
:102860009193F8CFE217F30709F4BEC08081842763
:102870008193F8CF77FDB8C014968D919C911597F0
:10288000681779070CF0B0C057FF04C0240F351F3C
:1028900040E050E016968D919C911797FA01E20F57
:1028A000F31F8E179F071CF49C01241B350B121677
:1028B00013060CF099C0A22F842F869586958695D5
:1028C00090E8899F600D711D1124FB01E55FFE4FAB
:1028D0004770A9F198E0941B492F50E0EA01C558D0
:1028E000DA4F8881291790F4421B51092FEF30E00D
:1028F00002C0359527954A95E2F7822301301105EC
:1029000041F068F00230110589F06EC00130110508
:1029100019F42081822B0CC00130110520F4809520
:102920002081822305C00230110531F420818227E5
:102930008083A91708F458C0A91BE058FF4FA8309E
:1029400048F10230110559F4EF018A2F98819095D2
:102950009883C058DF4F88508830C0F730C081E07E
:102960000130110509F080E08195EF019A2F8883ED
:10297000C058DF4F98509830D0F788EF8A0F86956F
:102980008695869590E8899FE00DF11D1124E05809
:10299000FF4FA770AA2341F1B0E0AD58BA4F8C9118
:1029A0000130110529F038F002301105D1F01CC0BA
:1029B0009081892B18C080959081892314C088EF5D
:1029C0008A0F86958695869590E8899FE00DF11D82
:1029D0001124E058FF4FA77039F0B0E0AD58BA4F5E
:1029E0008C91908189278083DF91CF911F910F91E6
:1029F0000895FC01848DDF01A80FB11DA35ABF4FBC
:102A00002C91848D90E001968F739927848FA689ED
:102A1000B7892C93A089B1898C9180648C93938D14
:102A2000848D981306C00288F389E02D80818F7D04
:102A300080830895CF93DF93EC01888D8823C9F0BC
:102A4000EA89FB89808185FD05C0A889B9898C91B7
:102A500086FD0FC00FB607FCF5CF808185FFF2CF52
:102A6000A889B9898C9185FFEDCFCE010E94F91418
:102A7000E7CFDF91CF910895CF93DF931092700746
:102A800010926F0788EE93E0A0E0B0E080937107AA
:102A900090937207A0937307B09374072DE135E00C
:102AA00030936E0720936D0725EC30E030937A0762
:102AB0002093790724EC30E030937C0720937B0748
:102AC00020EC30E030937E0720937D0721EC30E04E
:102AD0003093800720937F0722EC30E03093820709
:102AE0002093810726EC30E03093840720938307FE
:102AF0001092860710928707109288071092890714
:102B00001092C2081092C1088093C3089093C40821
:102B1000A093C508B093C6088FE295E09093C008D3
:102B20008093BF080E944C05C6E9D8E0E2E3F8E0D4
:102B30004AE058E0199211921192DA016D937D9357
:102B40008D939D93AD019F01225B3F4FD9011D9253
:102B50001C92B8E0E634FB0769F71092B5081092B2
:102B6000B408EBECF8E080E090E02AE030E010827E
:102B700011821282138235832483DC01A553B74F5F
:102B800016961C92169717961C92089638968032C5
:102B9000910569F71092EE081092ED0820E830E0F8
:102BA0003093F0082093EF0880E490E09093F208CF
:102BB0008093F1083093F4082093F3089093F6087B
:102BC0008093F508109200091092F8081092F70807
:102BD0001092FA081092F90881E08093FF082FEF15
:102BE0003FEF3093FE082093FD083093FC082093BC
:102BF000FB088093010910920209109204091092B7
:102C0000030981E495E09093EC088093EB088FEF43
:102C10008093070980930B09809309098093080921
:102C200084E080930A09DF91CF910895CF93DF93D9
:102C300000D000D000D0CDB7DEB7789484B58260E4
:102C400084BD84B5816084BD85B5826085BD85B550
:102C5000816085BD80916E00816080936E001092CE
:102C60008100809181008260809381008091810049
:102C700081608093810080918000816080938000DA
:102C80008091B10084608093B1008091B000816038
:102C90008093B00080917A00846080937A00809164
:102CA0007A00826080937A0080917A0081608093BC
:102CB0007A0080917A00806880937A001092C10037
:102CC000E0917D07F0917E0782E08083E0917907B3
:102CD000F0917A071082E0917B07F0917C078FECEE
:102CE000808310928507E0918107F091820786E04A
:102CF0008083E0917F07F0918007808180618083ED
:102D0000E0917F07F0918007808188608083E09167
:102D10007F07F0918007808180688083E0917F0742
:102D2000F091800780818F7D808354E1C52E55E02E
:102D3000D52E6FE0A62E65E0B62E0BEC18E0412CE8
:102D4000512C73E0672EEEE18E2E912CD6017D90F2
:102D50006D0162E0872D0E94D60461E0F50181914A
:102D60005F010E94D604C2018553974F7C01DC01AC
:102D700017967C92179716961C92872D0E94360301
:102D8000892B11F0F70166820E944C05D8016D93E2
:102D90007D938D939C93139715969C928E92149786
:102DA000B8E04B0E511C085F1F4FE8E24E1651046D
:102DB00069F68091B4089091B5080A970CF04BC061
:102DC000E2E3F8E000E010E081919191892BE9F5D0
:102DD000F801EE0FFF1FEE0FFF1FEA5BF74F80E1D8
:102DE00097E2A0E0B0E080839183A283B383F801EF
:102DF000EE0FFF1FEE5CF74F8AE99CE09183808322
:102E0000F801EE0FFF1FE259F74F11821082F8010F
:102E1000EA56F74F81E080830E944C05F801EE0FDF
:102E2000FF1FEE0FFF1FE65FF74F60837183828302
:102E300093838091B4089091B50801969093B5085A
:102E40008093B408902F812F08C00F5F1F4F0A3066
:102E5000110509F0B9CF9FEF8FEF9093050780938D
:102E6000060782E090E00E94480C01E010E082E05A
:102E7000282E312C0E944C056B017C018AE098E0E1
:102E80009A83898382E898E09C838B83DC0120E02D
:102E900030E05F961C921E925E97CD01805591099D
:102EA000FC0180819181892B09F446C0E981FA8176
:102EB000408151816281738184AC95ACA6ACB7AC82
:102EC00026013701441A550A660A770A481459043C
:102ED0006A047B0488F1480D591D6A1D7B1D4083DF
:102EE000518362837383C9018A56974FFC018081A5
:102EF000882311F1CD014497FC0140815181411596
:102F0000510529F45F961C930E935E9715C08D9121
:102F10009C911197841795077CF45F961C930E93F0
:102F20005E97019611969C938E938417950724F0D3
:102F30005F963C922E925E972F5F3F4F89819A81D8
:102F400004969A83898312962A30310509F0A1CF1D
:102F5000A2E3EA2EA8E0FA2EB6E4CB2EB8E0DB2EF0
:102F6000A12CB12CAB81BC815E968D919C915F9719
:102F70008130910519F0029731F02CC0D701ED9105
:102F8000FC91099527C0D701ED91FC91099580919D
:102F9000B4089091B5080097E9F0F70120813181DC
:102FA000232BC1F011821082F501EA56F74F1082EF
:102FB000AB81BC815F961C921E925E97F6011082D7
:102FC0001182128213821D921C9201979093B50870
:102FD0008093B408FFEFAF1ABF0A22E0E20EF11CA3
:102FE00084E0C80ED11C8B819C8102969C838B83CC
:102FF0009AE0A916B10409F0B5CF86E895E00E94E1
:10300000980471EDE72E78E0F72EEBECCE2EE8E099
:10301000DE2E812C912CF2E0AF2ED60117968C91EA
:103020000E943603BB24B394892B09F4B12CF70119
:103030008081982F977F908386958170B81669F06C
:103040000E944C05D6016D937D938D939C931397AD
:10305000F70180818A2580832DC00E944C05D6010E
:103060004D905D906D907C901397AB01BC0144191D
:1030700055096609770914968D919C911597A0E0E2
:10308000B0E0481759076A077B07A0F0F701808175
:1030900081708B1579F00E944C05D6016D937D935C
:1030A0008D939C931397F7018081F1E08F278860BF
:1030B000D7018C93F701808180FD04C083FBBB2482
:1030C000B0F801C0B12C8970893009F42EC1BB2041
:1030D00009F42FC1B12C61E0C4010E94120ABB2087
:1030E00009F427C160E0C4010E94120A84E995E056
:1030F0000E949604C4010E94140480916B07909171
:103100006C078230910579F461E0C4010E94120AD3
:1031100064EF71E080E090E00E94120560E0C4017D
:103120000E94120AFFC0F4E08F16910409F058C003
:1031300085EA95E00E94020482E3E7E0F7E0DF0120
:103140001D928A95E9F788EE93E0A0E0B0E08093C5
:10315000010190930201A0930301B0930401E09058
:103160000507F0900607F701EE0FFF1FEE0FFF1F98
:10317000EA5BF74F80839183A283B3830E944C055F
:103180009701220F331F220F331F265F374FF9019C
:10319000608371838283938363E0E62EF12C61E088
:1031A00084E090E00E94120A64E670E080E090E023
:1031B0000E94120560E084E090E00E94120A64E63A
:1031C00070E080E090E00E941205F1E0EF1AF10853
:1031D00031F78FEF9FEF909306018093050161C057
:1031E000039709F09FC08091070190910801019613
:1031F000909308018093070188EE95E00E940204F5
:10320000C4010E94140482E096E00E94960480911A
:103210000701909108010E94140481E196E00E9448
:103220009604E0910701F0910801EE0FFF1FE95F9E
:10323000F84F808191810E94140480910701909140
:103240000801FC01EE0FFF1FE95FF84F208131817B
:103250008216930649F520910501309106018217E7
:1032600093072CF482E296E00E9498045BC061E030
:1032700084E090E00E94120A64E670E080E090E052
:103280000E94120560E084E090E00E94120A64E669
:1032900070E080E090E00E9412058AE396E00E94D0
:1032A000980484E090E03CC084E596E00E94980495
:1032B00061E084E090E00E94120A68EE73E080E032
:1032C00090E00E94120560E084E090E00E94120A03
:1032D00068EE73E080E090E00E941205E091070143
:1032E000F0910801EE0FFF1FE95FF84F61E0808168
:1032F00091810E94120A64EF71E080E090E00E94E8
:103300001205E0910701F0910801EE0FFF1FE95F40
:10331000F84F60E0808191810E94120A80E090E085
:103320000E94480C0E94EB0DA5CDBB2009F4DACE1B
:10333000D2CE2FEF821A920A88E0C80ED11C98E0F4
:10334000E90EF11CA5E08A16910409F066CEEACFD9
:103350008F929F92AF92BF92CF92DF92EF92FF92A5
:10336000CF93DF93EC01688179818A819B8161151C
:1033700071058105910521F464E279ED8BE597E013
:103380002DE133EF41E050E00E94041A49015A0157
:103390009B01AC01A7EAB1E40E94231A6B017C01F6
:1033A000ACEEB4EFA50194010E94311ADC01CB010F
:1033B0008C0D9D1DAE1DBF1DB7FF03C00197A10958
:1033C000B04888839983AA83BB83BC01CD019F77D2
:1033D000DF91CF91FF90EF90DF90CF90BF90AF90B3
:1033E0009F908F9008950E94A81908958BE095E012
:1033F0000E94A819089560930B0570930C058093A3
:103400000D0590930E050895052E97FB1EF400946C
:103410000E941B1A57FD07D00E94361A07FC03D0E2
:103420004EF40C941B1A50954095309521953F4FC2
:103430004F4F5F4F089590958095709561957F4FA0
:103440008F4F9F4F08950E94581AA59F900DB49FCB
:10345000900DA49F800D911D11240895B7FF0C9429
:10346000231A0E94231A821B930B0895A1E21A2E9D
:10347000AA1BBB1BFD010DC0AA1FBB1FEE1FFF1F18
:10348000A217B307E407F50720F0A21BB30BE40B68
:10349000F50B661F771F881F991F1A9469F76095AF
:1034A0007095809590959B01AC01BD01CF01089569
:1034B000A29FB001B39FC001A39F700D811D112475
:1034C000911DB29F700D811D1124911D0895EE0F65
:1034D000FF1F0590F491E02D099481E090E0F894AD
:0834E0000C94721AF894FFCF5E
:1034E800FFE8030000FFFFFFFFFFFF0000000000F0
:1034F80000000000000000000000000000000000C4
:1035080000000000000000000000000000000000B3
:1035180000000000000000000000000000000000A3
:103528000000000000000000000080808000000013
:103538000000000000000000000000008080C0C003
:103548000000000000000000000000000000000073
:103558000000000000000000000000000000000063
:103568000000000000000000000000000000000053
:1035780000000000000000000000000000000080C3
:10358800C0E0F0F8FCF8E0000000000000000000D7
:1035980000000000000000008080808080008080A3
:1035A80000000000808080808000FFFFFF00000096
:1035B800008080808000008080000080FFFF808085
:1035C80000808000808080800080800000000000F3
:1035D800808000008C8E84000080F8F8F88000005D
:1035E8000000000000000000000000F0F0F0F0F023
:1035F800F0F0F0F0F0F0F0E0E0C08000E0FCFEFF5A
:10360800FFFF7FFFFFFFFFFF00000000000000003A
:10361800000000000000FEFFC70101010183FFFF59
:1036280000007CFEC70101010183FFFFFF0038FE97
:10363800C78301010183C7FFFF000001FFFF0101EC
:1036480000FFFF0701010100007FFF80000000FF6D
:10365800FF7F0000FFFFFF000001FFFFFF010000E8
:103668000000000000000000000000030F3F7F7F03
:10367800FFFFFFFFFFFFFFE7C7C78F8F9FBFFFFF5A
:10368800C3C0F0FFFFFFFFFFFCFCFCFCFCFCFCFCE4
:10369800F8F8F0F0E0C0000103030303030103039B
:1036A80000000000010303030301010301000000FF
:1036B80001030303030101030300000003030000E7
:1036C80000030300000000000000010303030303DC
:1036D80001000000010301000000030301000000D5
:1036E800000000000000000000000000000080C092
:1036F800E0F0F9FFFFFFFFFF3F1F0F87C7F7FFFF4E
:103708001F1F3DFCF8F8F8F87C7DFFFFFFFFFFFF67
:10371800FFFF7F3F0F07003030000000000000006F
:10372800000000000000000000000000000000FE93
:10373800FEFC000000000000000000000000000087
:103748000000000000000000E0C0000000000000D1
:103758000000000000303000000000000000000001
:10376800000000000000000000000000C0FEFFFF95
:10377800FFFFFFFFFFFFFF7F7F3F1F0F071F7FFF39
:10378800FFF8F8FFFFFFFFFFFEF8E0000000010070
:1037980000000000000000FEFE000000FCFEFC0C23
:1037A80006060EFCF80000F0F81C0E0606060CFFD4
:1037B800FFFF0000FEFE00000000FCFEFC00183CBD
:1037C8007E66E6CE84000006FFFF0606FCFEFC0CC3
:1037D8000606060000FEFE0000C0F8FC4E464646FF
:1037E8004E7C7840183C76E6CECC80000000000085
:1037F80000000000000000000000000000000001C0
:10380800070F1F1F3F3F3F3F1F0F0300000000002F
:10381800000000000000000F0F0000000F0F0F0055
:103828000000000F0F000003070E0C18180C060FFD
:103838000F0F0000010F0E0C180C0F070100040EEB
:103848000C180C0F070000000F0F00000F0F0F00DF
:1038580000000000000F0F00000007070C0C181CE8
:103868000C060600040E0C180C0F070000000000E0
:103878000000000000000000000000000000000040
:103888000000000000000000000000000000000030
:103898000000000000000000000000000000000020
:1038A8000000000000000000000000000000000010
:1038B8000000000000000000000000000000000000
:1038C80000000000000000000000000000000000F0
:1038D80000000000000000000000000000000000E0
:1038E80000000000000000000000000100000008C7
:1038F800090A0B0C020304050600000000BB038440
:1039080003AE0D1A15DF0DBD0DD10D00000000D35B
:1039180008BF088A087B0882087F087C0800000026
:1039280000211084038A088908DD07F412ED12C506
:1039380012E112D512F512C412F60DF50D9F13817E
:1039480006EB11CD115611F71006018801B8018355
:10395800001F00000103070F1F3F7F0080C0E0F039
:10396800F8FCFE0D0A00636865636B204275747489
:103978006F6E7300427574746F6E20707265737326
:1039880065643A20003C3C3C3C3C3C3C3C3C3C3C78
:103998003C3C3C3C3C3C3C3C3C3C3C3C3C737461CB
:1039A80072742067616D653E3E3E3E3E3E3E3E3E41
:1039B8003E3E3E3E3E3E3E3E3E3E3E3E3E3E3E3E1F
:1039C8003E3E3E3E3E3E0A006C697374656E696E0B
:1039D80067206D6F6465202F20627574746F6E3A6E
:1039E8002000736571427574746F6E496478203A6B
:1039F80000657870656374656420636F6C6F723AF4
:103A0800200077616974696E6720666F72206E6541
:103A1800787420627574746F6E00796573212073F1
:103A2800746172742066726F6D20626567696E6E6C
:103A3800696E670077726F6E6720636F6C6F722CA8
:103A480020796F75206C6F6F736500746F6E6500F9
:103A58004C45443A0073657453657175656E6365CA
:103A68004D6F64653A2000666E2063757272656EEC
:103A7800736571206D6F64652000666C6173684EB4
:103A880065787420666C61736820696478203A00F0
:103A9800666C6173684E657874206C61737420730A
:103AA800657120696478203A0073706565642075D3
:103AB800700047414D45204F56455220594F5520DB
:103AC80057494E007365712020636F6C6F723A20FE
:0E3AD800006E65772020636F6C6F723A2000DD
:00000001FF
