:100000000C9463000C948B000C948B000C948B006C
:100010000C948B000C948B000C948B000C94C405F6
:100020000C948B000C948B000C948B000C948B0024
:100030000C948B000C948B000C948B000C948B0014
:100040000C9468090C948B000C9446060C942006C2
:100050000C948B000C948B000C948B000C948B00F4
:100060000C9478060C948B000200000000240027FA
:10007000002A0000000000250028002B00000000DE
:1000800000230026002900040404040404040402DC
:100090000202020202030303030303010204081025
:1000A00020408001020408102001020408102000F2
:1000B0000000080002010000030407000000000027
:1000C00000000000350D11241FBECFEFD8E0DEBFC9
:1000D000CDBF12E0A0E0B1E0E0EAFDE102C0059092
:1000E0000D92A43CB107D9F725E0A4ECB2E001C021
:1000F0001D92A832B207E1F710E0C3E6D0E004C0D9
:100100002197FE010E94C30EC236D107C9F70E9493
:10011000B2090C94CE0E0C940000CF92DF92EF92B5
:10012000FF920F931F93CF93DF936C017A018B01A2
:10013000C0E0D0E0CE15DF0581F0D8016D918D01D2
:10014000D601ED91FC910190F081E02DC601099559
:10015000892B11F02196EECF7E01C701DF91CF915F
:100160001F910F91FF90EF90DF90CF900895FC01C9
:10017000538D448D252F30E0842F90E0821B930B0C
:10018000541710F0CF96089501970895FC01918DB2
:10019000828D981761F0828DDF01A80FB11D5D96E9
:1001A0008C91928D9F5F9F73928F90E008958FEF57
:1001B0009FEF0895FC01918D828D981731F0828D0B
:1001C000E80FF11D858D90E008958FEF9FEF089562
:1001D000FC01918D228D892F90E0805C9F4F821BC6
:1001E00091098F73992708958AEA93E00E94E800A5
:1001F00021E0892B09F420E0822F0895FC01848DF1
:10020000DF01A80FB11DA35ABF4F2C91848D90E040
:1002100001968F739927848FA689B7892C93A0891B
:10022000B1898C91837080648C93938D848D9813A5
:1002300006C00288F389E02D80818F7D8083089538
:10024000EF92FF920F931F93CF93DF93EC0181E026
:10025000888F9B8D8C8D981305C0E889F9898081E2
:1002600085FD26C0F62E0B8D10E00F5F1F4F0F731C
:100270001127E02E8C8DE8120CC00FB607FCFACFC8
:10028000E889F989808185FFF5CFCE010E94FE00C3
:10029000F1CF8B8DFE01E80FF11DE35AFF4FF08285
:1002A0009FB7F8940B8FEA89FB89808180620AC02E
:1002B0009FB7F894EE89FF896083E889F989808186
:1002C0008370806480839FBF81E090E0DF91CF9155
:1002D0001F910F91FF90EF900895CF93DF93EC0162
:1002E000888D8823C9F0EA89FB89808185FD05C056
:1002F000A889B9898C9186FD0FC00FB607FCF5CF90
:10030000808185FFF2CFA889B9898C9185FFEDCFD7
:10031000CE010E94FE00E7CFDF91CF91089580E0EB
:1003200090E0892B29F00E94F40081110C940000C8
:10033000089508958FEF9FEF08958FEF9FEF089531
:1003400080913A0390E091958195910908950895DF
:1003500080E090E0089585ED8093BC008091BC0022
:1003600084FDFCCF1092140308954091F002262FD3
:1003700030E0240F311D21323105DCF420911403CB
:100380002430C9F4FC0180E090E0861758F43091E5
:10039000F0022191DC01A053BD4FA30FB11D2C939E
:1003A0000196F3CF8091F002680F6093F00280E035
:1003B000089581E0089582E00895CF93DF93CB0103
:1003C000EA01642F0E94B501CE01DF91CF9108951B
:1003D000CF93DF931F92CDB7DEB7698361E0CE0183
:1003E00001960E94B50181E090E00F90DF91CF91DE
:1003F0000895CF93DF939093A9038093A80383304C
:10040000910591F480914203909143038A309105C4
:1004100024F4FC01ED50FB4F10828FEF9FEF90937F
:100420000101809300012BC00497F9F48FEF9FEF37
:1004300090930A0180930901C0914203D091430334
:10044000CA30D105E4F4FE01ED50FB4F81E080831A
:100450000E945C09CC0FDD1FCC0FDD1FC959DB4F9B
:10046000688379838A839B830AC08FEF9FEF909381
:1004700001018093000190930A018093090187E4B0
:1004800091E00E94F0078091A8039091A903DF9169
:10049000CF910C9404080E94C90E90910201891317
:1004A00024C0E8E6F0E0E4919FEF90930201E13090
:1004B000B9F098F0E230C9F4909170009D7F90936C
:1004C000700091E09093B0009091B100987F94609B
:1004D0009093B1001092B30008C010926E0005C056
:1004E00090916F009D7F90936F0060E00C94B7082F
:1004F0008F929F92AF92BF92CF92DF92EF92FF9234
:100500000F931F93CF938C01C62FFC01E75EFE4F24
:1005100080810E94B708C13009F0ADC189E591E042
:100520000E948008F801EE0FFF1FE15FFE4FE080A0
:10053000F180809102018D3021F08F3F09F089C157
:1005400004C0E8E6F0E0C4916FC08DE08093020142
:10055000E8E6F0E0C491CF3F09F47BC1C13009F473
:1005600040C030F1C23009F05FC01092B00010926C
:10057000B1008091B00082608093B0008091B100A2
:1005800081608093B100E4E9F0E0E491F0E0EE0FE7
:10059000FF1FED58FF4F8591949190933C038093FA
:1005A0003B03E8EAF0E0E491E0933D03C2E0D3C10D
:1005B00014BC15BC84B5826084BD85B5816085BDE1
:1005C000E4E9F0E0E491F0E0EE0FFF1FED58FF4F9B
:1005D00085919491E8EAF0E0E491E093C502C0E0EF
:1005E000BAC11092800010928100809181008860D1
:1005F0008093810080918100816080938100E4E993
:10060000F0E0E491F0E0EE0FFF1FED58FF4F859111
:100610009491E8EAF0E0E491E093C40261E08DE0B7
:100620000E94E608C1E0A5C0C7FD13C161E08DE0EE
:100630000E94E6088C2F8D7F09F09BC06701E12C9A
:10064000F12C60E072E18AE790E0A70196010E9438
:10065000600E49015A01BA01A901415051096109CD
:1006600071094F3F51056105710509F008F445C056
:1006700060E472E48FE090E0A70196010E94600EB2
:10068000BA01A9014150510961097109C230E9F467
:100690004F3F51056105710509F008F4FCC060E9A0
:1006A00070ED83E090E0A70196010E94600EBA0110
:1006B000A90141505109610971094F3F5105610577
:1006C000710509F020F583E04DC04F3F51056105EC
:1006D0007105A9F0A0F068E478EE81E090E0A70150
:1006E00096010E94600EBA01A901415051096109A9
:1006F0007109CC2309F4D1C026C181E001C082E098
:10070000C11130C095B5987F892B85BD69C068E45B
:1007100078EE81E090E0A70196010E94600EBA0198
:10072000A90141505109610971094F3F5105610506
:10073000710509F008F4ADC064E274EF80E090E068
:10074000A70196010E94600EBA01A901415051090A
:10075000610971094F3F51056105710511F008F0FC
:10076000CBC085E09091B100987F892B8093B10038
:1007700031C06701E12CF12C60E072E18AE790E082
:10078000A70196010E94600EBA01A90141505109CA
:10079000610971094115510581E06807710580F013
:1007A00068E478EE81E090E0A70196010E94600E77
:1007B000BA01A901415051096109710983E001C0E1
:1007C00081E0C13039F490918100987F892B80932A
:1007D000810018C0C130B1F0C23049F1C11139C037
:1007E00047BD8FEF9FEFDC018093CA029093CB024D
:1007F000A093CC02B093CD0280916E008260809372
:100800006E0027C050938900409388008FEF9FEFC0
:10081000DC018093C6029093C702A093C802B093F4
:10082000C90280916F00826080936F0012C0409374
:10083000B3008FEF9FEFDC0180933E0390933F0363
:10084000A0934003B0934103809170008260809335
:1008500070008EE591E00E940208C801CF911F91BF
:100860000F91FF90EF90DF90CF90BF90AF909F904F
:100870008F900C9404088DE0CF911F910F91FF9001
:10088000EF90DF90CF90BF90AF909F908F900C949F
:100890004D0284E067CF82E065CF4F3F510561058F
:1008A000710541F138F162E17AE780E090E0A7015B
:1008B00096010E94600EBA01A901415051096109D7
:1008C00071094F3F51056105710591F088F0D5011F
:1008D000C4013AE0B595A795979587953A95D1F7D4
:1008E000AC01BD01415051096109710985E00ACF90
:1008F00084E008CF83E006CF62E17AE780E090E011
:10090000A70196010E94600EBA01A9014150510948
:10091000610971094F3F51056105710591F088F03A
:10092000D501C4012AE0B595A795979587952A9595
:10093000D1F7AC01BD01415051096109710987E04E
:1009400011CF86E00FCF4F3F51056105710509F0CA
:1009500098F684E0D5CE61E08DE00E94E6086ECE88
:100960000F931F93CF93DF9360E08091CE0290911D
:10097000CF020E9478028091A8039091A9031816D3
:10098000190654F483E691E00E9402088091A803BE
:100990009091A9030E9404088091A8039091A90353
:1009A0008430910519F0019709F0E9C080910001A8
:1009B000909101010196909301018093000186E7D7
:1009C00091E00E94020880910001909101010E9433
:1009D00004088CE891E00E94020880910701909140
:1009E00008010E94040885EA91E00E948008809135
:1009F000030190910401A0910501B0910601813994
:100A000021E09207A105B10534F14497A109B1098C
:100A10008093030190930401A0930501B093060114
:100A2000C0914203D0914303FE01EE0FFF1FEE0F72
:100A3000FF1FED55FB4F80839183A283B3830E94F8
:100A40005C09CC0FDD1FCC0FDD1FC959DB4F68835C
:100A500079838A839B8360E08091CE029091CF025C
:100A60000E94780264E670E080E090E00E94220933
:100A70008091070190910801C29741F480E090E0D5
:100A80000E94F9018EEA91E00E948008C091000165
:100A9000D091010100910701109108018091A803F4
:100AA0009091A9038130910551F48091CE029091EB
:100AB000CF028430910509F445C0019645C00497E2
:100AC000B1F50C171D0774F0FE01EE0FFF1FEC5B74
:100AD000FC4F808191819093CF028093CE0280EC75
:100AE00091E023C00E94090E24E030E040E050E095
:100AF0000E94600E7093CF026093CE022091070196
:100B0000309108012F5F3F4F309308012093070178
:100B1000220F331FF901EC5BFC4F7183608383E08C
:100B200090E00E94F9018DEC91E00E940208809112
:100B3000CE029091CF020E9404088091CE02909143
:100B4000CF0202C080E090E09093CF028093CE026B
:100B500061E00E9478020C171D078CF464EF71E0CD
:100B600080E090E00E94220960E08091CE029091A6
:100B7000CF02DF91CF911F910F910C947802DF91FA
:100B8000CF911F910F9108951F920F920FB60F9260
:100B900011242F933F934F935F936F937F938F9382
:100BA0009F93AF93BF93EF93FF9380913E039091F8
:100BB0003F03A0914003B0914103892B8A2B8B2BDB
:100BC00051F190913D03E0913B03F0913C03808112
:100BD0008927808380913E0390913F03A091400339
:100BE000B0914103181619061A061B06C4F4809129
:100BF0003E0390913F03A0914003B09141030197C0
:100C0000A109B10980933E0390933F03A093400351
:100C1000B093410304C0809102010E944D02FF91F4
:100C2000EF91BF91AF919F918F917F916F915F9164
:100C30004F913F912F910F900FBE0F901F901895DD
:100C40001F920F920FB60F9211242F933F934F9341
:100C50005F936F937F938F939F93AF93BF93EF9324
:100C6000FF938AEA93E00E94FE00FF91EF91BF910B
:100C7000AF919F918F917F916F915F914F913F9134
:100C80002F910F900FBE0F901F9018951F920F92EB
:100C90000FB60F9211242F938F939F93EF93FF938F
:100CA000E091BA03F091BB038081E091C003F09121
:100CB000C10382FD12C090818091C3038F5F8F7347
:100CC0002091C403821751F0E091C303F0E0E65590
:100CD000FC4F958F8093C30301C08081FF91EF91FA
:100CE0009F918F912F910F900FBE0F901F9018958D
:100CF0001F920F920FB60F9211242F933F934F9391
:100D00005F936F937F938F939F93AF93BF93EF9373
:100D1000FF938091B900887F803609F49CC068F504
:100D2000883209F45BC090F4803109F454C038F47F
:100D3000882309F4F2C0883009F44DC0F2C088312C
:100D400009F44CC0803209F45DC0EBC0803409F472
:100D500068C048F4803309F455C0883309F0E1C015
:100D600080931303D4C0803509F44FC0883509F44B
:100D70005DC0883409F0D5C0D2C0883909F4C3C039
:100D8000A8F4883709F467C038F4883609F463C0DA
:100D9000803709F460C0C5C0883809F4B4C0803910
:100DA00009F45FC0803809F0BCC05BC0803B09F427
:100DB00084C038F4803A09F466C0883A09F47DC0EA
:100DC000B0C0803C09F4A3C0883C09F4A0C0883BB3
:100DD00009F486C0A6C08091390310C090913803F1
:100DE00080913703981770F5E091380381E08E0FFA
:100DF00080933803F0E0E95EFC4F80818093BB0074
:100E000085EC82C0809313038AC0E091380381E0AF
:100E10008E0F809338038091BB00F0E0E95EFC4FB9
:100E2000808390913803809137036AC0E091380342
:100E300081E08E0F809338038091BB00F0E0E95E83
:100E4000FC4F808380911603811169C081E08093FB
:100E5000150384EA5DC083E08093140310921203AB
:100E6000CFCF80911203803208F04DC0E091120381
:100E700081E08E0F809312038091BB00F0E0EE5072
:100E8000FD4F8083BDCF85EC8093BC00109214038E
:100E900080911203803230F4E0911203F0E0EE50C2
:100EA000FD4F10826091120370E082EF92E0E0E06B
:100EB000F0E009951092120334C084E0809314038B
:100EC0001092F1021092F002E0E0F0E009958091BA
:100ED000F002811105C081E08093F0021092D002EF
:100EE000E091F10281E08E0F8093F102F0E0E05397
:100EF000FD4F80818093BB009091F1028091F002C0
:100F0000981708F47DCF85E88093BC000AC085EC73
:100F10008093BC001092140304C0109213030E942B
:100F2000AB01FF91EF91BF91AF919F918F917F9115
:100F30006F915F914F913F912F910F900FBE0F9046
:100F40001F901895833081F028F4813099F0823019
:100F5000A1F008958730A9F08830B9F08430D1F439
:100F6000809180008F7D03C0809180008F77809377
:100F70008000089584B58F7702C084B58F7D84BDCD
:100F800008958091B0008F7703C08091B0008F7D6D
:100F90008093B00008953FB7F89480911805909120
:100FA0001905A0911A05B0911B0526B5A89B05C08F
:100FB0002F3F19F00196A11DB11D3FBFBA2FA92FD8
:100FC000982F8827820F911DA11DB11DBC01CD0155
:100FD00042E0660F771F881F991F4A95D1F7089541
:100FE000009769F0FC0101900020E9F73197AF010B
:100FF000481B590BBC018AEA93E00C948D0080E0F9
:1010000090E008950C94F0078F929F92AF92BF9258
:10101000CF92DF92EF92FF920F931F93CF93DF93C4
:10102000CDB7DEB7A1970FB6F894DEBF0FBECDBF28
:101030006C01990FEE08FF08F7FE2BC06DE28AEAFB
:1010400093E00E9420018C0122273327A9012C194B
:101050003D094E095F0919A2CE0181967C019AE0F3
:10106000892E912CA12CB12CCA01B901A5019401A2
:101070000E94920E605DF70162937F012115310598
:101080004105510589F7CF010E94F007080F191F8C
:101090001EC0A701960119A28E010F5D1F4F8AE0A5
:1010A000C82ED12CE12CF12CCA01B901A70196015F
:1010B0000E94920E605DF80162938F012115310547
:1010C0004105510589F7CF010E94F0078C0180ECA2
:1010D00092E00E94F007800F911FA1960FB6F8943E
:1010E000DEBF0FBECDBFDF91CF911F910F91FF905B
:1010F000EF90DF90CF90BF90AF909F908F9008952A
:10110000CF93DF930E94F007EC0180EC92E00E9405
:10111000F0078C0F9D1FDF91CF910895CF93DF9340
:10112000282F30E0F901E155FF4F8491F901E55690
:10113000FF4FD491F901E957FF4FC491CC2391F0AF
:1011400081110E94A207EC2FF0E0EE0FFF1FE35881
:10115000FF4FA591B491EC91ED2381E090E021F453
:1011600080E002C080E090E0DF91CF9108951F936E
:10117000CF93DF93282F30E0F901E155FF4F8491A1
:10118000F901E556FF4FD491F901E957FF4FC4919A
:10119000CC23C1F0162F81110E94A207EC2FF0E0A2
:1011A000EE0FFF1FED58FF4FA591B4919FB7F89434
:1011B000111104C08C91D095D82302C0EC91DE2B84
:1011C000DC939FBFDF91CF911F910895CF93DF9361
:1011D00090E0FC01E556FF4F2491FC01E957FF4FD9
:1011E0008491882361F190E0880F991FFC01E759F1
:1011F000FF4FC591D491FC01ED58FF4FA591B491DB
:10120000611109C09FB7F894888120958223888353
:10121000EC912E230BC0623061F49FB7F894888163
:10122000322F309583238883EC912E2B2C939FBFF4
:1012300006C08FB7F894E8812E2B28838FBFDF91EB
:10124000CF9108958F929F92AF92BF92CF92DF92EB
:10125000EF92FF926B017C010E94CB074B015C0176
:10126000C114D104E104F104F1F00E94CB07DC01C8
:10127000CB0188199909AA09BB09883E9340A105A9
:10128000B10570F321E0C21AD108E108F10888EE37
:10129000880E83E0981EA11CB11CC114D104E10486
:1012A000F10419F7DDCFFF90EF90DF90CF90BF9062
:1012B000AF909F908F9008952FB7F8946091140588
:1012C0007091150580911605909117052FBF08950F
:1012D0001F920F920FB60F9211242F933F938F936B
:1012E0009F93AF93BF938091140590911505A091A2
:1012F0001605B09117053091130523E0230F2D3704
:1013000020F40196A11DB11D05C026E8230F029609
:10131000A11DB11D2093130580931405909315050D
:10132000A0931605B09317058091180590911905A3
:10133000A0911A05B0911B050196A11DB11D8093C6
:10134000180590931905A0931A05B0931B05BF913A
:10135000AF919F918F913F912F910F900FBE0F9062
:101360001F901895CF93DF9300D000D0CDB7DEB794
:10137000789484B5826084BD84B5816084BD85B570
:10138000826085BD85B5816085BD80916E0081607C
:1013900080936E0010928100809181008260809322
:1013A0008100809181008160809381008091800024
:1013B0008160809380008091B10084608093B1004F
:1013C0008091B00081608093B00080917A00846049
:1013D00080937A0080917A00826080937A00809175
:1013E0007A00816080937A0080917A00806880938F
:1013F0007A001092C100E091BA03F091BB0382E041
:101400008083E091B603F091B7031082E091B803B6
:10141000F091B9038FEC80831092C203E091BE0378
:10142000F091BF0386E08083E091BC03F091BD039F
:10143000808180618083E091BC03F091BD03808155
:1014400088608083E091BC03F091BD038081806857
:101450008083E091BC03F091BD0380818F7D808308
:101460000EE111E0B9E1CB2EB1E0DB2E27E434E050
:101470003A83298383E0E82E9EE1A92EB12CD8017E
:10148000FD908D0162E08F2D0E94E60861E0F6017B
:1014900081916F010E94E608A981BA811796FC929A
:1014A000179716961C928F2D0E948E08892B19F083
:1014B000E981FA81E6820E945C09A981BA816D9373
:1014C0007D938D939C9313971596BC92AE9214972F
:1014D0001896BA83A983B1E003321B0781F6809185
:1014E0001105909112050A9794F4EFE8F4E01A823E
:1014F000198281919191892B09F475C229813A81D0
:101500002F5F3F4F3A8329832A30310591F79FEFB0
:101510008FEF90934203809343030E945C096B0119
:101520007C01EBECF4E067E674E07C836B83A3EF73
:101530002A2EA4E03A2E0FED14E091017A836983FC
:1015400013AA12AACF01CC97DC018D919C91892B13
:1015500009F440C0A981BA818D909D90AD90BC9056
:101560001397DC964D915D916D917C91DF972601EB
:101570003701481859086A087B084416550666065C
:10158000770640F1480D591D6A1D7B1D4D935D93F3
:101590006D937C931397D9018C918823D9F0408166
:1015A00051814115510519F461E070E011C0848941
:1015B00095898417950774F4A1E0B0E0B3ABA2ABB2
:1015C0000196958B848B8417950724F062E070E078
:1015D00073AB62AB329689819A8104969A83898330
:1015E0002F5F3F4F94E0EF3DF90709F0A9CF77E671
:1015F000E72E74E0F72ED8015E968D919C915F974F
:101600008130910519F0029749F030C0AB81BC815F
:101610009896ED91FC919997099528C0AB81BC8172
:101620009896ED91FC91999709958091110590916B
:1016300012050097D9F0EB81FC8120A531A5232B61
:10164000A9F011A610A6D1011C92F801178E168ED2
:10165000D701DC961D921D921D921C92DF9711827C
:10166000108201979093120580931105EB81FC8104
:101670003296FC83EB83FFEF2F1A3F0A24E0E20E41
:10168000F11C0E5F1F4F6BE774E08B819C81681724
:10169000790709F0B0CF8AED91E00E94800887E4D5
:1016A00091E00E94F0078091A8039091A9030E9405
:1016B0000408A7E4B4E0BA83A98300E010E052E094
:1016C000D52E62E3C62EE981FA8187810E948E08B9
:1016D000FF24F394892B09F4F12CA981BA81169681
:1016E0008C911697982F977F16969C93869581706C
:1016F000F81659F00E945C09E981FA8160837183D0
:101700008283938386818D2530C00E945C09A981E4
:10171000BA818D909D90AD90BC901397AB01BC01A8
:10172000481959096A097B0914968D919C9115975E
:10173000A0E0B0E0481759076A077B07B8F0E981D5
:10174000FA8186818170F81689F00E945C09A9816E
:10175000BA816D937D938D939C93139716968C917C
:10176000B1E08B278860E981FA818683A981BA81FB
:1017700016968C9180FD02C083FD05C0897089306A
:1017800009F023C105C061E0C8010E9478021DC1B3
:1017900060E0C8010E94780289EE91E00E94020890
:1017A000C8010E9404088091A8039091A903823087
:1017B000910579F461E0C8010E94780264EF71E05C
:1017C00080E090E00E94220960E0C8010E94780257
:1017D00007C10430110509F056C08AEF91E00E945C
:1017E000F007E4E4F3E02C2D11922A95E9F788EE56
:1017F00093E0A0E0B0E08093030190930401A093F4
:101800000501B0930601E0904203F0904303F70115
:10181000EE0FFF1FEE0FFF1FED55FB4F80839183EF
:10182000A283B3830E945C09F701EE0FFF1FEE0F46
:10183000FF1FE959FB4F608371838283938343E0E9
:10184000E42EF12C61E084E090E00E94780264E6EE
:1018500070E080E090E00E94220960E084E090E087
:101860000E94780264E670E080E090E00E94220925
:1018700031E0E31AF10831F76FEF7FEF7093080161
:101880006093070161C0039709F09FC0809109012F
:1018900090910A01019690930A01809309018DE3CA
:1018A00092E00E94F007C8010E94040887E592E0D8
:1018B0000E9402088091090190910A010E94040887
:1018C00086E692E00E940208E0910901F0910A0187
:1018D000EE0FFF1FEC5BFC4F808191810E9404089A
:1018E0008091090190910A01FC01EE0FFF1FEC5B52
:1018F000FC4F208131810217130749F52091070120
:1019000030910801821793072CF487E792E00E9438
:10191000800866C061E084E090E00E94780264E69E
:1019200070E080E090E00E94220960E084E090E0B6
:101930000E94780264E670E080E090E00E94220954
:101940008FE892E00E94800884E090E03CC089EA41
:1019500092E00E94800861E084E090E00E947802BA
:1019600068EE73E080E090E00E94220960E084E08D
:1019700090E00E94780268EE73E080E090E00E94C0
:101980002209E0910901F0910A01EE0FFF1FEC5BC3
:10199000FC4F61E0808191810E94780264EF71E0E8
:1019A00080E090E00E942209E0910901F0910A0193
:1019B000EE0FFF1FEC5BFC4F60E0808191810E9485
:1019C000780280E090E00E94F9010F5F1F4F89814B
:1019D0009A8108969A8389830530110509F073CEA0
:1019E0000E948F019ACDE981FA81EE0FFF1FEE0F61
:1019F000FF1FED55FB4F80E197E2A0E0B0E0808350
:101A00009183A283B383E981FA81EE0FFF1FE1572F
:101A1000FB4F80EB94E091838083E981FA81EE0FA4
:101A2000FF1FE553FB4F11821082E981FA81ED50CF
:101A3000FB4F81E080830E945C09E981FA81EE0F0F
:101A4000FF1FEE0FFF1FE959FB4F608371838283F5
:101A50009383809111059091120501969093120540
:101A60008093110599818A8154CDCF93DF93109291
:101A7000AD031092AC0388EE93E0A0E0B0E0809359
:101A8000AE039093AF03A093B003B093B10327E2EA
:101A900031E03093AB032093AA0325EC30E0309380
:101AA000B7032093B60324EC30E03093B9032093BE
:101AB000B80320EC30E03093BB032093BA0321EC51
:101AC00030E03093BD032093BC0322EC30E0309330
:101AD000BF032093BE0326EC30E03093C103209374
:101AE000C0031092C3031092C4031092C503109256
:101AF000C60310921F0510921E0580932005909337
:101B00002105A0932205B093230589E391E09093EA
:101B10001D0580931C050E945C09C3EFD4E0EFE82B
:101B2000F4E047E654E0199211921192DA016D93B4
:101B30007D938D939D93AD019F01225B3F4FD90112
:101B40001D921C92B4E0E33AFB0769F7109212056C
:101B500010921105E7E4F4E08AE090E0108211822F
:101B6000128213829583848316821782389624E02A
:101B7000E736F20799F7DF91CF9108958F929F9200
:101B8000AF92BF92CF92DF92EF92FF92CF93DF930B
:101B9000EC01688179818A819B81611571058105DC
:101BA000910521F464E279ED8BE597E02DE133EFC7
:101BB00041E050E00E94600E49015A019B01AC01D6
:101BC000A7EAB1E40E947F0E6B017C01ACEEB4EF9A
:101BD000A50194010E948D0EDC01CB018C0D9D1D91
:101BE000AE1DBF1DB7FF03C00197A109B048888390
:101BF0009983AA83BB83BC01CD019F77DF91CF91ED
:101C0000FF90EF90DF90CF90BF90AF909F908F901C
:101C100008958F929F92AF92BF92CF92DF92EF92F0
:101C2000FF9260910B0170910C0180910D019091D8
:101C30000E01611571058105910521F464E279EDCC
:101C40008BE597E02DE133EF41E050E00E94600E1C
:101C500049015A019B01AC01A7EAB1E40E947F0E41
:101C60006B017C01ACEEB4EFA50194010E948D0ED6
:101C7000DC01CB018C0D9D1DAE1DBF1DB7FF03C048
:101C80000197A109B04880930B0190930C01A09398
:101C90000D01B0930E01BC01CD019F77FF90EF9035
:101CA000DF90CF90BF90AF909F908F9008956093FA
:101CB0000B0170930C0180930D0190930E01089518
:101CC000052E97FB1EF400940E94770E57FD07D057
:101CD0000E94920E07FC03D04EF40C94770E5095A0
:101CE0004095309521953F4F4F4F5F4F0895909508
:101CF0008095709561957F4F8F4F9F4F08950E94FB
:101D0000B40EA59F900DB49F900DA49F800D911DC2
:101D100011240895B7FF0C947F0E0E947F0E821B42
:101D2000930B0895A1E21A2EAA1BBB1BFD010DC047
:101D3000AA1FBB1FEE1FFF1FA217B307E407F5077B
:101D400020F0A21BB30BE40BF50B661F771F881F57
:101D5000991F1A9469F760957095809590959B01ED
:101D6000AC01BD01CF010895A29FB001B39FC00196
:101D7000A39F700D811D1124911DB29F700D811DB7
:101D80001124911D0895EE0FFF1F0590F491E02D91
:101D9000099481E090E0F8940C94CE0EF894FFCF73
:101DA000FFFFFFE8030000FFFFFFFF010000000648
:101DB000018801B80183001F0008090A0B0C030405
:101DC0000506070000000020018D00B7006D01E846
:101DD00000C600DA0000000000E801DD01A801995A
:101DE00001A0019D019A0173657453657175656E5B
:101DF00063654D6F64653A2000746F6E65004C45F5
:101E0000443A00666E2063757272656E7365712068
:101E10006D6F64652000666C6173684E6578742030
:101E2000666C61736820696478203A00666C61733F
:101E3000684E657874206C617374207365712069D5
:101E40006478203A007370656564207570004741BE
:101E50004D45204F56455220594F552057494E0069
:101E60007365712020636F6C6F723A20006E657726
:101E70002020636F6C6F723A2000636865636B208B
:101E8000427574746F6F6E7300427574746F6E2058
:101E9000707265737365643A20003C3C3C3C3C3C8A
:101EA0003C3C3C3C3C3C3C3C3C3C3C3C3C3C3C3C72
:101EB0003C3C73746172742067616D653E3E3E3ECA
:101EC0003E3E3E3E3E3E3E3E3E3E3E3E3E3E3E3E32
:101ED0003E3E3E3E3E3E3E3E3E3E3E0A006C697306
:101EE00074656E696E67206D6F6465202F20627562
:101EF00074746F6E3A2000736571427574746F6EFE
:101F0000496478203A00657870656374656420637D
:101F10006F6C6F723A200077616974696E67206632
:101F20006F72206E65787420627574746F6E0079BC
:101F30006573212073746172742066726F6D206204
:101F40006567696E6E696E670077726F6E67206392
:101F50006F6C6F722C20796F75206C6F6F736500DA
:041F60000D0A000066
:00000001FF
