:100000000C9448010C9470010C9470010C94AB0F8B
:100010000C94AB0F0C94AB0F0C9470010C9470010A
:100020000C9470010C9470010C9470010C9470018C
:100030000C9470010C9470010C9470010C9470017C
:100040000C9446120C9470010C94E60E0C94C00EA5
:100050000C9470010C9470010C9470010C9470015C
:100060000C9470010C9470014152500041525100A7
:10007000414344004352004C4956450041434B0024
:100080004E414B00554E4B4F574E5F434D44002061
:100090007061723A200020636D643A200020616B29
:1000A0007449643A2000002E0020746F20002E0056
:1000B0004D794D65737361676548616E646C6572F7
:1000C000283131293A3A6F6E4D6573736167653E29
:1000D00020666F72206E6F6465203A20004D795063
:1000E0007265436F6E6E65637448616E646C6572B1
:1000F0003A3A6F6E507265436F6E6E6563743E2060
:100100006E6F6465203A200053657269616C4E6FB2
:1001100064653A3A6F6E4D6573736167653E207230
:100120006F756E6420747269702074696D65203A11
:10013000200053657269616C4E6F64653A3A77725C
:10014000697465546F506F72743E20474C45494343
:10015000484552204C495354454E4552203F007269
:10016000656D6F74655379734964206D7573742080
:100170006265206469666672656E742066726F6D72
:100180002073797374656D49640072656D6F746571
:100190005379734964206D757374206265203E2025
:1001A0003020210053657269616C506F72743A3A65
:1001B00073656E644D657373616765206D657373F8
:1001C000616765203C206865616465722073697AA7
:1001D000650066726565207372616D203A20005378
:1001E000657269616C4E6F64654E65743A3A7072FF
:1001F0006F636573734E6F6465733E206E6F206E20
:100200006F64657320666F756E64000000000023E4
:100210000026002900536F6674776172655365721A
:1002200069616C3A3A536F667477617265536572AF
:1002300069616C2829206672656520000000000055
:10024000240027002A0000000000250028002B00C1
:10025000040404040404040402020202020203036C
:100260000303030301020408102040800102040874
:100270001020010204081020000000080002010004
:100280000003040700000000000000007816771645
:1002900011241FBECFEFD8E0DEBFCDBF12E0A0E03B
:1002A000B1E0E0E2F1E302C005900D92A230B107A7
:1002B000D9F723E0A2E0B2E001C01D92A531B20758
:1002C000E1F711E0C7E4D1E004C02197FE010E94EC
:1002D0007818C634D107C9F70E945E130C948318AE
:1002E0000C9400000C9477170C9477170C947717E4
:1002F000CF93DF93EB016DED70E086E592E00E9415
:10030000D40BEA81FB8181810E94D310EA81FB81B9
:1003100082E08483DF91CF910895AF92BF92CF9214
:10032000DF92EF92FF920F931F93CF93DF93EB0136
:100330006A015901780160EB70E086E592E00E9465
:10034000D40BD8011296ED91FC91139781810E94F4
:10035000D310488150E060E070E02AE086E592E04A
:100360000E948B0B6EEA70E086E592E00E94D40B4F
:10037000498150E060E070E02AE086E592E00E946A
:100380008B0B69EA70E086E592E00E94D40B4A810B
:1003900050E060E070E02AE086E592E00E948B0B7E
:1003A00067EA70E086E592E00E94D40B4B8150E052
:1003B00060E070E02AE086E592E00E948B0B86EA1E
:1003C00090E00E9425106DE970E086E592E00E94C1
:1003D000D40B4C815D8160E070E02AE086E592E01C
:1003E0000E948B0B66E970E086E592E00E94D40BD8
:1003F0006E817F81605F71096830710540F4660F1E
:10040000771FFB01E25FFE4F6081718102C064E8EB
:1004100070E086E592E00E94D40B6FE870E086E51C
:1004200092E00E94D40B88850E94D3108E819F8118
:10043000863F910549F44C815D818501960167EF06
:1004400070E0C7010E943810DF91CF911F910F918A
:10045000FF90EF90DF90CF90BF90AF9008950F93F3
:100460001F93CF93DF93EC01EA81FB8181E08483CA
:10047000EA81FB8185818823B9F0BE018091520217
:10048000909153020E944E0BEA81FB81848182305D
:1004900059F400E010E020E030E040E050E063EF8D
:1004A00070E0CE010E943810DF91CF911F910F9123
:1004B0000895DC0150962D913C915197232B41F0EA
:1004C0001296ED91FC91139781E09481943009F09C
:1004D00080E008950895482FE0910402F09105020C
:1004E00080E090E03097D1F0A781B08520E030E047
:1004F000109771F0442329F018965C9118975413C3
:1005000002C02F5F3F4F1D960D90BC91A02DF0CFE4
:10051000820F931F0280F381E02DE4CF0895FC0148
:1005200087819085009751F0FC0120813181261749
:10053000370721F0FC0185859685F4CF0895CF9388
:10054000DF93EC010E948F02009799F1FC01458531
:100550005685EF81F88541155105A1F08E179F074B
:1005600021F458874F8321C0F9013097F1F0258598
:10057000368521153105C9F028173907A9F756879F
:10058000458713C08E179F0721F418861F820DC060
:10059000F901309751F0258536852115310529F06F
:1005A00028173907A9F7168615860E94771781E064
:1005B00001C080E0DF91CF910895CF93DF93EC01EC
:1005C00082E291E099838883EF81F885309731F05A
:1005D00060817181CE010E949F02F6CFDF91CF91A1
:1005E0000895CF93DF93EC010E94DD02CE01DF91ED
:1005F000CF910C9477171F93CF93DF93182FC0914F
:100600000402D09105022097D9F489E090E00E947D
:10061000E216FC0182E291E09183808313821282D0
:1006200010861782168315821482F0930502E093D8
:100630000402CF0121C08A819B81009729F0EC013F
:100640008E818113F8CF17C0662391F089E090E086
:100650000E94E216FC0182E291E091838083138282
:10066000128210861782168315821482FB83EA8316
:100670008A819B8101C0CE01DF91CF911F910895A6
:10068000E0915202F091530261E084810C94FB02EC
:10069000FC019081DB018C91981305C081E02181E0
:1006A00011969C91291380E008952F923F924F92CA
:1006B0005F926F927F928F929F92AF92BF92CF92F2
:1006C000DF92EF92FF920F931F93CF93DF935C0122
:1006D0007B011A014901E801E881F9810480F58173
:1006E000E02DC8010995019791F4E881F98102880C
:1006F000F389E02DC8010995811109C047C0D801CF
:100700001B968C910E946B02892B09F051C0E881E5
:10071000F9810288F389E02DCE010995811115C078
:10072000F70186819781825F91098530910568F490
:10073000FC01EA5CFE4F8081882339F0E881F98171
:100740000684F785E02DCE010995E114F10411F43A
:100750000E947E18D70112969C9112978C9198173F
:10076000B9F39401A101B701CE010E94F106F7018E
:1007700084819581D5011D969C938E931C97E09161
:100780005202F0915302B382A2829BC00E9489065A
:100790008C018C179D0709F0B2CF82E391E00E9493
:1007A00025100E94CE1686E592E00E94A70CD0CFBD
:1007B000F70186819781823F910509F480C0863FC9
:1007C000910509F0A4CF0E94AD11D801ED91FC91E3
:1007D0000684F785E02DC8010995D801ED91FC91BB
:1007E0000088F189E02DC80109951816190654F4FE
:1007F000D8011296ED91FC911397848195810E9406
:100800005408EBCFF801D3840E944003DC01179613
:10081000ED91FC911897309739F080858D1521F076
:100820000584F685E02DF7CFDF013097B9F080859C
:100830008D1110C0418452846384748419964D9143
:100840005D916D917C911C9744165506660677065E
:1008500008F4DF010584F685E02DE7CF1097F9F065
:10086000E0915202F0915302658076806D01E3E0E1
:10087000CE0ED11C6114710491F0B601D301129611
:100880008D919C9113970E944803882321F0C30106
:100890000E94B91104C0F30166847784EBCFD801BC
:1008A0001B968C910E946B02892B09F096CFE881F0
:1008B000F9810684F785E02DCE01099528CF80E0E7
:1008C00090E0DF91CF911F910F91FF90EF90DF901B
:1008D000CF90BF90AF909F908F907F906F905F90E0
:1008E0004F903F902F9008956F927F928F929F929A
:1008F000AF92BF92CF92DF92EF92FF920F931F932E
:10090000CF93DF93EC017B013A0149015801672B3A
:1009100011F40E947E18452B19F0232B19F4F9CFFE
:10092000232BB9F7A114B104A1F3AA81BB81E091F3
:100930005202F091530212969C918481981749F3C8
:100940000E94AD116C837D838E839F83D7011696A1
:10095000CD90DC901797CE010E94590281110BC0F7
:100960009601205F31092230310528F0B3EFCB1614
:10097000D10409F068C1E3EFCE16D10431F1ACF433
:1009800090EFC916D10409F4DDC024F4CD2809F490
:100990005AC156C1B1EFCB16D10409F496C0E2EFAB
:1009A000CE16D10409F476C04BC1F7EFCF16D104AF
:1009B00034F495EFC916D1040CF455C0DEC0A7EF8E
:1009C000CA16D10409F472C03BC1EA81FB8185815A
:1009D00081113CC0BE0180915202909153020E944D
:1009E0004E0BEA81FB818481823009F02CC1828127
:1009F000811106C0D7018D919C919383828313C08E
:100A0000B701CF0102960E94480381110CC0F70183
:100A10004481558100E010E020E030E060EF70E0BC
:100A2000CE010E943810B98AA88AEA81FB8184E04D
:100A30008483EA81FB81D7018D919C9111979383E7
:100A4000828314964D915C91159729C0F7014481DA
:100A5000558100E010E020E030E060EF70E0CE0172
:100A60000E943810EDC0882389F3D70114964D9168
:100A70005C91159700E010E020E030E061EF70E05D
:100A8000CE010E943810198A188AEA81FB8183E01E
:100A90008483D6C08823D1F2F7014481558100E0D8
:100AA00010E020E030E061EF70E0D9CFD70114967C
:100AB000CD90DC9015970E944003B6010E948F02F2
:100AC0006C01892B09F05BC0BEC0F701C480D580E2
:100AD0000E944003B6010E948F026C01009709F446
:100AE000B2C0DC0112968C91843F49F1863F09F433
:100AF00046C0833F09F056C0B98AA88A8A809B8085
:100B0000F4018581882309F44DC0CE010E94590269
:100B1000811148C0D40114968C911497823009F049
:100B200041C0F7018081918113969C938E93129717
:100B3000EA81FB8184E08483B98AA88A33C0198A58
:100B4000188A16C0D7011496CD90DC9015970E9494
:100B50004003B6010E948F026C01009709F473C034
:100B6000FC018281833F21F0863F49F0823FD1F42E
:100B7000EA81FB8183E0848315C0C12CD12CE091F4
:100B80005202F091530283859485009759F0DC015D
:100B9000ED91FC910480F581E02D8E019401A3017B
:100BA000B7010995C114D10409F44DC068E071E0A2
:100BB00086E592E00E94D40B0E94AD11F60181847B
:100BC0009284A384B484AB01BC01481959096A0911
:100BD0007B092AE086E592E00E948B0B6DEE71E0C6
:100BE00086E592E00E94AB0E0E944003DC0117965E
:100BF000ED91FC911897C0E0D0E0309729F0219654
:100C00000584F685E02DF9CFF701E480F5800E9498
:100C10004003B7010E949F020E944003DC01179627
:100C2000ED91FC91189780E090E0309729F00196C3
:100C30000584F685E02DF9CF8C179D0720F069CE4D
:100C4000C12CD12CAFCFDF91CF911F910F91FF908D
:100C5000EF90DF90CF90BF90AF909F908F907F905C
:100C60006F9008950895089527E431E0DC0111960E
:100C70003C932E9312968D919C911397009739F087
:100C8000DC01ED91FC910280F381E02D099408953F
:100C900008950895CF93DF93EC018AE291E0998360
:100CA00088838C819D81009739F0DC01ED91FC9166
:100CB0000280F381E02D09958E819F81009749F094
:100CC000DC01ED91FC910280F381E02DDF91CF9169
:100CD0000994DF91CF910895CF93DF93EC010E94A7
:100CE0004A06CE01DF91CF910C9477170C947717B9
:100CF0000C9477170C947717E0915402F0915502F9
:100D000080E0309729F08F5F0084F185E02DF9CFE6
:100D10000895CF93DF93C0915402D091550220974C
:100D2000B1F0E881F9810480F581E02DCE010995CB
:100D3000019749F4E881F9810288F389E02DCE0119
:100D40000995811122C00884D985C02DE8CFC091B2
:100D50005402D09155022097A9F0E881F9810480CE
:100D6000F581E02DCE010995019741F4E881F981E3
:100D70000684F785E02DCE01099507C00884D98542
:100D8000C02DE9CF80E090E001C0CE01DF91CF918E
:100D90000895CF93DF93EC016C5F7F4F7C876B8767
:100DA0008A819B81009711F00E9477178B859C8523
:100DB0000E94E2169B838A83DF91CF910895E09190
:100DC0005402F0915502309739F09385981739F015
:100DD0000084F185E02DF7CF80E090E00895CF0109
:100DE00008952F923F924F925F926F927F928F92CF
:100DF0009F92AF92BF92CF92DF92EF92FF920F93AA
:100E00001F93CF93DF937C01EB015A0149018C8141
:100E10009D81892B89F40E944003FC018481958186
:100E2000019611F415821482248135812F5F3F4F82
:100E3000358324833D832C838E819F81825F91093A
:100E40008530910508F0A1C0FC01EA5CFE4F80816D
:100E5000882309F49AC061E088810E94FB028C011A
:100E6000CE80DF80C601825F9109D80117963C9041
:100E7000179718962C90039708F00DC1632C722CCD
:100E80002E01B2E04B0E511C6114710409F403C130
:100E9000F301828190E08C159D0571F4BE01C301C0
:100EA00003960E944803882339F0B201C3010596D6
:100EB0000E9448038111DDC0D3011D966D907C9086
:100EC0001E97E2CFF20185859685009721F02C01CF
:100ED00041145104B9F78FE090E00E94E2163C0102
:100EE0008FE0D3011D928A95E9F7F30113821482F2
:100EF000158216824114510409F0D0C0D801189609
:100F00007C926E921797D3011296CC921297888199
:100F1000998114969C938E9313978A819B81169640
:100F20009C938E93159717961C928C819D810097A8
:100F300009F0B8C0F80184819581019629F4D8019F
:100F400015961C921E921497F80184819581019642
:100F500095838483D3018D939C939D838C830E947E
:100F6000AD11D30119966D937D938D939C931C972E
:100F7000F7018385D30118968C930190F081E02DC1
:100F80000684F785E02DC7010995D7011296ED91EA
:100F9000FC9113970680F781E02D309711F40E94A1
:100FA0007E1882819381DC01ED91FC910284F385AE
:100FB000E02D44E050E064E071E00995D70112961D
:100FC000ED91FC9113970680F781E02D309739F36E
:100FD00082819381DC01ED91FC910284F385E02D07
:100FE00049E050E0BE010995A114B104C1F081149B
:100FF0009104A9F0D7011296ED91FC911397068008
:10100000F781E02D309759F282819381DC01ED91D7
:10101000FC910284F385E02DA401B5010995D70167
:101020001296ED91FC9113970680F781E02D309791
:1010300009F4B5CF82819381DC01ED91FC910284AA
:10104000F385E02D44E050E060E071E0DF91CF9166
:101050001F910F91FF90EF90DF90CF90BF90AF90D6
:101060009F908F907F906F905F904F903F902F90C8
:10107000099482E0F30187838E818283888199813C
:10108000948383838A819B81968385838C819D81D0
:101090009183808364CF432C522C1ACFF201768641
:1010A000658631CFF301F4CF2F923F924F925F923A
:1010B0006F927F928F929F92AF92BF92CF92DF9268
:1010C000EF92FF920F931F93CF93DF9300D000D046
:1010D0001F92CDB7DEB77C01DC0114968D919C91F7
:1010E0001597009711F40E947E18DC01ED91FC9198
:1010F0000088F189E02D0995181619060CF025C213
:10110000F7018781843078F78681843060F78481A5
:101110009581DC01ED91FC910680F781E02D099528
:10112000F701858792859923B9F0208530E04385C2
:1011300054852417350770F442815381FA01E20F78
:10114000F31F8083D70118968C9118978F5F18969C
:101150008C9302C0F7011286D7011D969C911D97B2
:1011600016968C911697E82FF0E0EC5FFE4F2081E9
:10117000921310C0833051F416961C92169781E09A
:101180001A968C931A9718961C920FC08F5FF701CE
:1011900086830BC0D70116961C9216978091040186
:1011A000981303C081E016968C93F7018781E82F8E
:1011B000F0E0E050FF4F20819213BCC1833009F072
:1011C000B5C1D70118968C911897845089831996C8
:1011D0008C9319971A968C911A97882309F49BC1BE
:1011E00014960D911C911597B9814B2E512CF70136
:1011F0000280F381E02DFD83EC83EF2B09F473CFA4
:10120000B93020F092012950310902C020E030E0CD
:10121000AC81BD8116968D919C911797AC01405F72
:1012200051094530510520F42115310509F073C1EC
:10123000EC81FD815281552309F46DC1C0905202A9
:10124000D0905302D60114964C911497541340C079
:101250001596CD90DC901697C114D10409F443CFB4
:1012600043814423C9F05F01B2E0AB0EB11CB5016C
:10127000F601828193812A833B830E9448032A815D
:101280003B8181113CC1D6011E96CD90DC901F9709
:10129000C114D10461F73FC1833F910509F03BC1FF
:1012A000D6011296ED91FC911397858181114FC162
:1012B0008481823009F04BC18281882329F0AC817E
:1012C000BD819C91891343C18381811140C117C1A4
:1012D000EC81FD81B080B41609F41DC1813F9105F8
:1012E00079F4BF01C60107960E949012009741F061
:1012F000DC011396BC92139717961C930E931697C6
:10130000EC81FD8182810E94DF065C01AC81BD81A0
:101310008C910E94DF061C01EC81FD818681978102
:10132000825F910985309105D8F4FC01EA5CFE4F9B
:1013300080818823A9F0D801ED91FC910480F5818A
:10134000E02DC8010995019759F48091020290910E
:1013500003028017910721F0109303020093020209
:10136000A114B10449F54601B7E08B0E911C6C81C4
:101370007D81C4010E94C212FC01892B09F47EC048
:101380008281AC81BD819C912381891307C0129613
:101390003C91231303C0A680B7800AC029136EC0F6
:1013A000AC81BD8112969C91891368C0A480B580E0
:1013B000A114B10409F462C0EC81FD81868197819A
:1013C000825F91098530910530F4FC01EA5CFE4FA3
:1013D0008081811117C060E0AC81BD8112968C9133
:1013E0000E94FB024C01009769F0EC81FD81648052
:1013F0007580B3010E948F02892B21F0B301C401D3
:101400000E949F02AC81BD8116968D919C91179789
:10141000833F9105C9F42328B9F4B7E0CB0ED11C62
:101420006C817D81C6010E94C212892B69F46C8196
:101430007D81C6010E949012892B31F4A8016C8134
:101440007D81C6010E94EE12E981E93010F40E940C
:1014500052139201295031094C815D81475F5F4FE2
:101460006C817D81C5010E94F106D501ED91FC9151
:101470000684F785E02DC50109954DC0EC81FD81FD
:1014800086819781833F910509F045C0BF01C40162
:101490000E949012892B31F4A8016C817D81C401D6
:1014A0000E94EE12C0905402D0905502F9E04F1AFB
:1014B0005108AC80BD8089E0A80EB11CC114D104D4
:1014C00051F1D6011B969C91F8018385981799F0EC
:1014D000F981F93008F4BBCF9201A5016C817D81BF
:1014E000C6010E94F106D601ED91FC910684F785B4
:1014F000E02DC6010995F601C084D184DFCF211506
:10150000310569F14C815D81475F5F4F6C817D8161
:10151000C6010E947404D70117961C9217971A9659
:101520001C921A9718961C9281E01CC08F5FF701DD
:1015300087830BC0D70117961C92179780910001E3
:10154000981303C081E017968C9380E00BC0F601DE
:10155000C684D784C114D10409F0A2CEDCCF40E008
:1015600050E0D4CF0F900F900F900F900F90DF911D
:10157000CF911F910F91FF90EF90DF90CF90BF9090
:10158000AF909F908F907F906F905F904F903F9023
:101590002F900895EF92FF920F931F93CF93DF93B5
:1015A000EC0187E491E0998388831B821A821C8274
:1015B0001D821E821F82198618861A861B8661115B
:1015C00003C08AE891E009C0E0915202F091530211
:1015D000848168130CC08FE591E00E9425100E9461
:1015E000CE1686E592E00E94A70C0E947E186B87BB
:1015F000E0915402F0915502309729F4D0935502AE
:10160000C093540208C080859185009711F0FC01B9
:10161000FACFD187C08788E090E00E94E2167C0173
:101620008AE291E0F701918380838EE090E00E944E
:10163000E2168C0182E391E0F801918380831382AA
:1016400012821682178210861186128614861386DD
:101650001586F7011583048384E090E00E94E2166A
:101660002FE331E0FC0131832083F70197838683E8
:10167000F801D583C483FC01D383C283F701D383EC
:10168000C283FB82EA8269E070E0C801DF91CF91FA
:101690001F910F91FF90EF900C94C906DC011D96ED
:1016A0008D919C911E97009739F0DC01ED91FC9192
:1016B0000480F581E02D099408950895CF92DF927A
:1016C000EF92FF920F931F93CF93DF936C017A01F8
:1016D0008B01C0E0D0E0CE15DF0589F0D8016D9117
:1016E0008D01D601ED91FC910190F081E02DC601B4
:1016F0000995892B11F47E0102C02196ECCFC70118
:10170000DF91CF911F910F91FF90EF90DF90CF90DD
:1017100008950E947E184F925F926F927F92EF928F
:10172000FF920F931F93CF93DF93CDB7DEB7A197AF
:101730000FB6F894DEBF0FBECDBF7C01FA01CB011E
:1017400019A2223008F42AE08E010F5D1F4F422EAD
:10175000512C612C712CBF01A30192010E9423180E
:10176000F901CA01015011096A3014F4605D01C029
:10177000695CD8016C93232B242B252B61F7B801CE
:10178000C7010E94AB0EA1960FB6F894DEBF0FBE44
:10179000CDBFDF91CF911F910F91FF90EF907F9080
:1017A0006F905F904F900895EF92FF920F931F9369
:1017B000CF93DF938C017B01C0E0D0E0F701EC0F09
:1017C000FD1F6491662361F0D801ED91FC910190B9
:1017D000F081E02DC8010995892B11F02196EECFFB
:1017E000CE01DF91CF911F910F91FF90EF9008955F
:1017F000FC01538D448D252F30E0842F90E0821B17
:10180000930B541710F0CF96089501970895FC019B
:10181000918D828D981761F0828DDF01A80FB11D27
:101820005D968C91928D9F5F9F73928F90E008954B
:101830008FEF9FEF0895FC01918D828D981731F005
:10184000828DE80FF11D858D90E008958FEF9FEF59
:101850000895FC01918D228D892F90E0805C9F4F2F
:10186000821B91098F739927089586E592E00E9463
:10187000290C21E0892B09F420E0822F0895FC0136
:10188000848DDF01A80FB11DA35ABF4F2C91848D09
:1018900090E001968F739927848FA689B7892C933E
:1018A000A089B1898C9180648C93938D848D9813D9
:1018B00006C00288F389E02D80818F7D80830895A2
:1018C000EF92FF920F931F93CF93DF93EC0181E090
:1018D000888F9B8D8C8D981305C0E889F98980814C
:1018E00085FD24C0F62E0B8D10E00F5F1F4F0F7388
:1018F0001127E02E8C8DE8120CC00FB607FCFACF32
:10190000E889F989808185FFF5CFCE010E943F0CDF
:10191000F1CF8B8DFE01E80FF11DE35AFF4FF082EE
:101920000B8FEA89FB898081806207C0EE89FF897D
:101930006083E889F98980818064808381E090E018
:10194000DF91CF911F910F91FF90EF900895CF936A
:10195000DF93EC01888D8823C9F0EA89FB898081B7
:1019600085FD05C0A889B9898C9186FD0FC00FB689
:1019700007FCF5CF808185FFF2CFA889B9898C91CA
:1019800085FFEDCFCE010E943F0CE7CFDF91CF91D5
:10199000089580E090E0892B29F00E94350C811198
:1019A0000C940000089520915002309151022817A4
:1019B000390771F490914F0280914E02981741F0CF
:1019C000E0914F02F0E0E25FFD4F808190E00895EA
:1019D0008FEF9FEF089508951F93CF93DF93DC015E
:1019E0005C962D913C915D972115310539F481E08C
:1019F00090E013969C938E9312973DC05196ED9173
:101A0000FC91529750969C915097892F80951FB7C3
:101A10005E964C915E9741FB772770F941FD60958A
:101A2000F8944081772311F0492B01C0482340836B
:101A3000E9012197F1F748E0508160FF02C0592B7E
:101A400001C058235083E9012197F1F76695415071
:101A500099F7772321F090818923808303C08081C7
:101A6000982B90831FBF5C968D919C915D970197F9
:101A7000F1F721E030E0C901DF91CF911F91089586
:101A800020915002309151022817390771F480914A
:101A90004E0220914F0290E0805C9F4F821B910983
:101AA00060E470E00E940F18089580E090E00895CF
:101AB000209150023091510228173907B9F49091C2
:101AC0004F0280914E02981789F0E0914F02F0E0AA
:101AD000E25FFD4F808120914F0230E02F5F3F4F4A
:101AE0002F73332720934F0290E008958FEF9FEFDD
:101AF0000895CF93DF93FC01828D938D892B31F173
:101B0000A0915002B0915102AE17BF07F9F01097A3
:101B100051F05396CD91DC915497988155968C91C4
:101B2000809589238883868D8E7F868F10924E02C2
:101B300010924F02F0935102E0935002A389B489AE
:101B40009C918589892B8C9381E001C080E0DF9195
:101B5000CF910895089580E090E0089521E0FC0180
:101B6000448555858091500290915102481759073C
:101B700009F020E0822F0895DC011C968D919C9144
:101B80001D97DC01ED91FC910084F185E02D099415
:101B9000CF93DF939A01AB01FC01C485D5851B8EE1
:101BA0001A8E198E188E1F8A1E8A60E079E08DE3E6
:101BB00090E00E944518F9012430310518F0C90160
:101BC000039702C081E090E09D8F8C8F6C85663119
:101BD00008F069C0C901969587958431910510F088
:101BE000439702C081E090E09F8B8E8B369718F070
:101BF000C901059702C081E090E0998F888FC901E3
:101C0000880F991F280F391F3695279536952795E8
:101C10002D30310518F02C50310902C021E030E0A0
:101C20003B8F2A8F90916800683050F021E06E3031
:101C300008F420E081E001C0880F2A95EAF701C08E
:101C400084E0892B809368008C85883038F08E3052
:101C500040F0863148F020E030E008C02DE630E06A
:101C600005C02BE630E002C02CE630E03C8B2B8B2D
:101C7000883030F491E001C0990F8A95EAF70EC0E0
:101C8000282F30E08E3018F42850310902C02E5031
:101C9000310991E001C0990F2A95EAF79D8B8C8D4F
:101CA0009D8D0197F1F7CE01DF91CF910C94790DC5
:101CB000DC011C968D919C911D97DC01ED91FC91AE
:101CC0000280F381E02D0994DC011C968D919C919A
:101CD0001D97DC01ED91FC910190F081E02D0995BB
:101CE00021E0892B09F420E0822F0895DC011C9665
:101CF0008D919C911D97DC01ED91FC910284F385FF
:101D0000E02D0995089581E090E00895CF93DF9349
:101D1000EC01E881F9810288F389E02D09958111B0
:101D20000CC00E94AD116C837D838E839F838C8554
:101D30009D85DF91CF910C94790D80E0DF91CF915B
:101D40000895CF93DF93EC010E943406CE01DF911A
:101D5000CF910C9477176115710579F0FB01019013
:101D60000020E9F73197AF01461B570BDC01ED91DD
:101D7000FC910280F381E02D099480E090E00895C9
:101D80001F920F920FB60F9211242F933F934F93F0
:101D90005F936F937F938F939F93AF93BF93EF93D3
:101DA000FF9386E592E00E943F0CFF91EF91BF9177
:101DB000AF919F918F917F916F915F914F913F91E3
:101DC0002F910F900FBE0F901F9018951F920F929A
:101DD0000FB60F9211242F938F939F93EF93FF933E
:101DE000E0916602F09167028081E0916C02F091CF
:101DF0006D0282FD12C0908180916F028F5F8F73A0
:101E000020917002821751F0E0916F02F0E0EA5ADF
:101E1000FD4F958F80936F0201C08081FF91EF91FC
:101E20009F918F912F910F900FBE0F901F9018953B
:101E3000EF92FF920F931F93CF93DF9300D0CDB714
:101E4000DEB78C01F62EE42EDC0113961C921E9256
:101E5000129788EE93E0A0E0B0E0F80184839583C8
:101E6000A683B78387E891E091838083178A168AD7
:101E7000118E108E138E128E158E148E668D6E7FBF
:101E800020FB61F9668F6695617081E06827842F79
:101E90000E94251161E08E2D0E9471114E2D50E09F
:101EA000FA01EC59FD4FE491D8015096EC93FA01F8
:101EB000E05BFD4FE491F0E0EE0FFF1FEA5BFD4FAA
:101EC00085919491F801928B818B60E08F2D0E9417
:101ED0007111D8015E968C9181FD04C061E08F2D57
:101EE0000E942511F801F4866F2D70E0FB01EC597A
:101EF000FD4FE491D8011D96EC93FB01E05BFD4F93
:101F0000E491F0E0EE0FFF1FE55FFD4F85919491A6
:101F1000F8019787868765E172E086E592E00E9486
:101F2000D40B8091110390911203009711F485E175
:101F300093E0BE016F5F7F4F681B790B86E592E0EF
:101F40000E94EA100F900F90DF91CF911F910F9197
:101F5000FF90EF9008951F920F920FB60F921124E9
:101F60002F933F934F935F936F937F938F939F93A1
:101F7000AF93BF93EF93FF93E0915002F091510222
:101F8000309709F451C0968DA685B785858591FF58
:101F900004C09C91892329F447C09C91892309F0AE
:101FA00043C0A389B4899C918589809589238C93AA
:101FB000868997890197F1F7608D718DA685B78520
:101FC000558538E020E0CB010197F1F7822F90E0B2
:101FD00095958795282F4C91452309F0206831501D
:101FE00091F7868D81FD209580914E0290E00196BB
:101FF0008F73992730914F02381749F0A0914E0204
:10200000B0E0A25FBD4F2C9380934E0203C0868D3B
:102010008160868F828D938D0197F1F7A389B489B2
:102020009C918589892B8C93FF91EF91BF91AF9102
:102030009F918F917F916F915F914F913F912F91E0
:102040000F900FBE0F901F901895CF93DF93BC0198
:1020500086E592E00E94D40BEC016DEE71E086E51E
:1020600092E00E94AB0E8C0F9D1FDF91CF910895DF
:102070006F927F928F929F92AF92BF92CF92DF9298
:10208000EF92FF920F931F93CF93DF93CDB7DEB7FD
:1020900029970FB6F894DEBF0FBECDBF7C013B0180
:1020A0005901480119821A821B821C821E821D82DC
:1020B00018861F821986FC01C280D380E0915202EB
:1020C000F09153028481F6019281981302C00E941C
:1020D0007E18F6019481943061F0633F710549F0F8
:1020E0009B01205F31092230310518F080E090E03B
:1020F00045C089834115510539F05E834D83C70181
:102100000E945902882391F3F601828193819C8376
:102110008B83F601808191819A83898378866F828F
:102120001986F701008911890115110531F48B8198
:102130000E94DF06009751F08C019401A501BE01B9
:102140006F5F7F4FC7010E94550316C0C0905402B5
:10215000D0905502C114D10449F286019401A50121
:10216000BE016F5F7F4FC7010E945503F601C08417
:10217000D184C114D10489F78D819E8129960FB62F
:10218000F894DEBF0FBECDBFDF91CF911F910F91AD
:10219000FF90EF90DF90CF90BF90AF909F908F9087
:1021A0007F906F900895CF93DF93482F50E060E0C9
:1021B00070E02AE086E592E00E948B0BEC016DEE68
:1021C00071E086E592E00E94AB0E8C0F9D1FDF91BF
:1021D000CF910895CF92DF92EF92FF920F931F93CA
:1021E000CF93DF93EC016B01770FEE08FF08F7FE4A
:1021F00016C0E881F9810190F081E02D6DE209952A
:102200008C0144275527BA014C195D096E097F09D5
:102210002AE0CE010E948B0B080F191F06C02AE08E
:10222000B701A6010E948B0B8C016DEE71E0CE010F
:102230000E94AB0E800F911FDF91CF911F910F91E4
:10224000FF90EF90DF90CF90089590E0FC01E85868
:10225000FD4F3491FC01EC59FD4F2491FC01E05BF2
:10226000FD4FE491EE2309F43BC0332339F13330C1
:1022700091F038F43130A9F0323001F584B58F7D1A
:1022800012C0373091F03830A1F03430B9F4809179
:1022900080008F7D03C0809180008F7780938000C5
:1022A0000DC084B58F7784BD09C08091B0008F7751
:1022B00003C08091B0008F7D8093B000F0E0EE0FFE
:1022C000FF1FEA5BFD4FA591B4918FB7F894EC9195
:1022D000611103C020952E2301C02E2B2C938FBF9C
:1022E0000895CF93DF9390E0FC01EC59FD4F2491CA
:1022F000FC01E05BFD4F8491882361F190E0880F41
:10230000991FFC01E45CFD4FC591D491FC01EA5B8F
:10231000FD4FA591B491611109C09FB7F8948881D0
:10232000209582238883EC912E230BC0623061F4C8
:102330009FB7F8943881822F809583238883EC910E
:102340002E2B2C939FBF06C08FB7F894E8812E2BBD
:1023500028838FBFDF91CF9108952FB7F8946091B4
:10236000FC027091FD028091FE029091FF022FBF4E
:1023700008958F929F92AF92BF92CF92DF92EF9289
:10238000FF920F931F93CF93DF93EC010E94AD1147
:102390006B017C0188859985AA85BB850097A1057D
:1023A000B10571F0A7019601281B390B4A0B5B0B95
:1023B000DA01C901843F9140A105B10508F459C073
:1023C0000C851D850E944003B8010E948F028C017C
:1023D000CE010E945902811107C001151105D9F4DF
:1023E000CE010E942F0232C0EA81FB8185818823C1
:1023F000B9F00E94AD118C809D80AE80BF80DC0161
:10240000CB0188199909AA09BB0981319742A10515
:10241000B10530F0E2CFF8018281833F09F716C0A1
:10242000EA81FB818581882389F00E94AD118C802F
:102430009D80AE80BF80DC01CB0188199909AA0973
:10244000BB09813A9F40A105B10528F4C886D98609
:10245000EA86FB860EC0012BC9F700E010E020E001
:1024600030E040E050E062EF70E0CE010E943810B2
:10247000EDCFDF91CF911F910F91FF90EF90DF9003
:10248000CF90BF90AF909F908F9008951F920F9222
:102490000FB60F9211242F933F938F939F93AF9377
:1024A000BF938091FC029091FD02A091FE02B09139
:1024B000FF023091FB0223E0230F2D3720F4019619
:1024C000A11DB11D05C026E8230F0296A11DB11D57
:1024D0002093FB028093FC029093FD02A093FE02E6
:1024E000B093FF028091F7029091F802A091F90257
:1024F000B091FA020196A11DB11D8093F70290934D
:10250000F802A093F902B093FA02BF91AF919F91A4
:102510008F913F912F910F900FBE0F901F901895A4
:10252000CF93DF93DB01EC01EA81FB81309719F156
:1025300084819581892BD9F086819781892BB9F483
:1025400082819C91891307C016962D913C91179713
:10255000233F310599F012969C911297891307C079
:1025600016968D919C911797813F910539F00084C3
:10257000F185E02DDBCF80E090E001C0CF01DF915D
:10258000CF910895CF93DF93DB01EC01EA81FB81CA
:102590003097E9F084819581892BA9F08681978114
:1025A000892B89F082819C91891729F012962C91B0
:1025B0001297821308C08381891761F012969C914B
:1025C0001297891739F00084F185E02DE1CF80E082
:1025D00090E001C0CF01DF91CF910895EF92FF927B
:1025E0000F931F93CF93DF93DB0116962D913C91B0
:1025F0001797233F310509F045C07A01EB018C01A3
:102600000E949012009731F02C813D81FC013183B2
:10261000208341C0BE01C8010E94C212FC01892B67
:1026200039F08C819D81918380831782168228C026
:102630008AE090E00E94E216FC018AE0DF011D9230
:102640008A95E9F7D80112962D913C91139721159F
:102650003105D9F0D90118968D919C911997009761
:1026600011F09C01F4CFD9011996FC93EE931897C1
:1026700088818283F582E4828C819D81918380832D
:10268000CF0109C080E090E006C0D8011396FC930A
:10269000EE931297EDCFDF91CF911F910F91FF90A5
:1026A000EF90089584EA91E00E9425100E94CE16D2
:1026B00086E592E00E94A70C0E947E18CF93DF93DC
:1026C00000D0CDB7DEB7789484B5826084BD84B580
:1026D000816084BD85B5826085BD85B5816085BD1D
:1026E00080916E00816080936E00109281008091D5
:1026F000810082608093810080918100816080935D
:102700008100809180008160809380008091B10081
:1027100084608093B1008091B00081608093B000AC
:1027200080917A00846080937A0080917A00826040
:1027300080937A0080917A00816080937A00809102
:102740007A00806880937A001092C100E09166025E
:10275000F091670282E08083E0916202F09163026F
:102760001082E0916402F09165028FEC80831092F8
:102770006E02E0916A02F0916B0286E08083E09144
:102780006802F0916902808180618083E091680233
:10279000F0916902808188608083E0916802F09105
:1027A0006902808180688083E0916802F09169020B
:1027B00080818F7D808361E082E00E94711160E002
:1027C00082E00E942511809152029091530200975D
:1027D00039F0DC01ED91FC910280F381E02D099547
:1027E0008FE090E00E94E216FC0187E691E0918381
:1027F000808313821282168215828FE591E0908782
:10280000878312861186148613861686158685E0C0
:102810008483F0935302E0935202F0930D02E0930D
:102820000C020E94400328EE33E0FC013583248330
:102830008EE090E00E94E2168C0164E00E94CA0AD9
:102840008FE6E82E81E0F82ED801ED92FC928FE120
:1028500090E00E94E2166C0120E049E068E00E94EE
:10286000180FF801D586C486109309020093080258
:102870000280F381E02D6DE070E0848195810E94FB
:10288000C906D801ED91FC910484F585E02D40E85E
:1028900055E260E070E0C80109958EE090E00E948A
:1028A000E2168C0166E00E94CA0AF801F182E08219
:1028B0008FE190E00E94E2167C0120E047E066E0B4
:1028C0000E94180FD8011D96FC92EE921C9710934F
:1028D0000702009306021296ED91FC9113976DE0AA
:1028E00070E0848195810E94C906D801ED91FC9128
:1028F0000484F585E02D40E855E260E070E0C80111
:102900000995E0910C02F0910D0285EF92E0948719
:10291000838783EF92E09687858762ED71E086E595
:1029200092E00E94D40B80911103909112030097C2
:1029300011F485E193E0BE016F5F7F4F681B790B57
:1029400086E592E00E94EA1086E592E00E94A70CDC
:10295000DD24D39400910C0210910D02E0905402FA
:10296000F0905502E114F10409F454C1D701129614
:10297000ED91FC91139784819581892B09F44AC1CB
:10298000ED91FC910088F189E02DC7010995181699
:1029900019069CF0F701E084F184E114F10431F7A9
:1029A00017C0D7011296ED91FC9113978481958100
:1029B000009709F42FC10E945408D701ED91FC91B2
:1029C0000088F189E02DC7010995892B51F7E2CFE5
:1029D000F80182819381892B21F4858196819383EB
:1029E00082830E94AD11683C71058105910550F408
:1029F000D8011296ED90FC901397E114F10409F0C0
:102A00009EC048C0A0900402B0900502A114B10479
:102A100079F3F501E780F084F70180E090E03097EA
:102A200029F001960584F685E02DF9CF892B71F107
:102A3000E114F10401F10E94AD11D70119964D90F6
:102A40005D906D907C901C97DC01CB0184199509F9
:102A5000A609B709F7019584C684853F9140A10571
:102A6000B10530F0D7016D917C91C5010E949F02A4
:102A7000E92CFC2CDDCFD5011796ED91FC91189730
:102A8000309721F00584F685E02DFACFF501A2807C
:102A9000B380BCCF0E947C06823008F4BFC00E9485
:102AA00089068C010E947C06813079F480910202B3
:102AB00090910302892B21F01092030210920202DE
:102AC000809102029091030232C00115110509F4B0
:102AD000A5C0D801ED91FC910088F189E02DC801D5
:102AE0000995892B09F09AC0F80183850E946B0231
:102AF000892B09F093C00E94AD11D80114968D90D6
:102B00009D90AD90BC901797DC01CB018819990975
:102B1000AA09BB09893C9105A105B10508F47EC04D
:102B20008091020290910302009709F4B5C0DC0184
:102B3000ED91FC910684F785E02D09956FC00E9408
:102B40007C06823088F10E948906FC0183850E9400
:102B50006B02D8011296ED90FC901397882321F117
:102B6000A7016091520270915302F7018089918907
:102B70000684F785E02D309729F4DB011596ED9159
:102B8000FC911697009761F0208931892115310554
:102B900039F02817390709F49FC0EE15FF0541F7F2
:102BA000F8014283538308C0D7011E968D919C91F2
:102BB0001F97F80193838283D80112968D919C917F
:102BC0001397892B41F415968D919C911697139626
:102BD0009C938E931297D8011296ED91FC911397C6
:102BE00080899189009739F0DC01ED91FC91068490
:102BF000F785E02D0995F80182819381009761F4B2
:102C00008FED91E00E9425100E94CE1686E592E09D
:102C10000E94A70C0E947E180E94B911E0905202F7
:102C2000F0905302D70115960D911C91169781E0F3
:102C30000115110549F0882319F0C8010E945902B5
:102C4000F80106851785F4CF882339F080910A02B0
:102C500081110AC0D0920A0207C010920A0260E0F5
:102C600082E00E94251115C080910B02811111C0D4
:102C7000D7011996ED91FC911A9780E090E030977A
:102C800069F5892B31F061E082E00E942511D09234
:102C90000B020E94C90C5ECEF8010085118501155A
:102CA000110521F4009154021091550201151105EE
:102CB00009F4B0CFD801ED91FC910480F581E02DAD
:102CC000C8010995019741F7D801ED91FC9106845F
:102CD000F785E02DC80131CFAF0162CF2681378162
:102CE000232B09F001960084F185E02DC8CF0895CB
:102CF000E6E5F2E01382128288EE93E0A0E0B0E015
:102D000084839583A683B78389E991E09183808347
:102D100085EC90E09587848784EC90E097878687A0
:102D200080EC90E0918B808B81EC90E0938B828B98
:102D300082EC90E0958B848B86EC90E0978B868B71
:102D4000118E128E138E148EEFE0F3E0108211823A
:102D5000EDE0F3E010821182E4E0F3E010821182F2
:102D6000128213821582148217821682108683EDD6
:102D700091E09093F6028093F50287EE91E09093B4
:102D8000F4028093F3020E94AD11609300037093EC
:102D9000010380930203909303030895CF93DF937D
:102DA00060EF71E086E592E00E94AB0EEC016DEE03
:102DB00071E086E592E00E94AB0E8C0F9D1FDF91C3
:102DC000CF910895CF93DF938230910510F482E084
:102DD00090E0E0911303F091140320E030E0C0E0B4
:102DE000D0E0309711F14081518148175907C0F068
:102DF0004817590761F482819381209719F09B83CA
:102E00008A832BC0909314038093130326C021154B
:102E1000310519F04217530718F49A01BE01DF017A
:102E2000EF010280F381E02DDCCF2115310509F19E
:102E3000281B390B2430310590F412968D919C910A
:102E400013976115710521F0FB019383828304C000
:102E50009093140380931303FD01329644C0FD0147
:102E6000E20FF31F81939193225031092D933C93EC
:102E70003AC02091110330911203232B41F4209189
:102E80000A0130910B01309312032093110320911A
:102E90000801309109012115310541F42DB73EB7E4
:102EA00040910C0150910D01241B350BE091110351
:102EB000F0911203E217F307A0F42E1B3F0B281723
:102EC000390778F0AC014E5F5F4F2417350748F0A3
:102ED0004E0F5F1F50931203409311038193919300
:102EE00002C0E0E0F0E0CF01DF91CF9108950F93B1
:102EF0001F93CF93DF93009709F48CC0FC013297A6
:102F0000138212820091130310911403011511050D
:102F100081F420813181820F931F20911103309120
:102F200012032817390779F5F0931203E093110380
:102F300071C0D80140E050E0AE17BF0750F41296C0
:102F40002D913C911397AD012115310509F1D9015E
:102F5000F3CF9D01DA013383228360817181860F73
:102F6000971F8217930769F4EC0128813981260F96
:102F7000371F2E5F3F4F318320838A819B8193834C
:102F80008283452B29F4F0931403E093130342C08A
:102F90001396FC93EE931297ED01499159919E017E
:102FA000240F351FE217F30771F480819181840F9C
:102FB000951F029611969C938E938281938113960E
:102FC0009C938E931297E0E0F0E0D80112968D91D9
:102FD0009C911397009719F0F8018C01F6CF8D9111
:102FE0009C9198012E5F3F4F820F931F20911103F8
:102FF000309112032817390769F4309729F4109299
:1030000014031092130302C013821282109312034E
:1030100000931103DF91CF911F910F91089597FBBA
:10302000072E16F4009407D077FD09D00E9464188B
:1030300007FC05D03EF4909581959F4F08957095BB
:1030400061957F4F0895A1E21A2EAA1BBB1BFD01BB
:103050000DC0AA1FBB1FEE1FFF1FA217B307E40777
:10306000F50720F0A21BB30BE40BF50B661F771FCF
:10307000881F991F1A9469F76095709580959095AF
:103080009B01AC01BD01CF010895052E97FB1EF4F5
:1030900000940E945C1857FD07D00E94231807FC7B
:1030A00003D04EF40C945C185095409530952195C2
:1030B0003F4F4F4F5F4F0895909580957095619564
:1030C0007F4F8F4F9F4F0895AA1BBB1B51E107C035
:1030D000AA1FBB1FA617B70710F0A61BB70B881FA8
:1030E000991F5A95A9F780959095BC01CD01089537
:1030F000EE0FFF1F0590F491E02D099481E090E020
:10310000F8940C94831811E0C7E4D1E004C0FE01E8
:103110000E9478182196C834D107C9F7F894FFCFD8
:1031200060574E450E1720290000150380008000CF
:103130007C0077007400840070006C006800000060
:103140000000DD02F102000000004A066C060000EB
:103150000000490678060101000001000000004857
:103160000676060000000000000000890B890B892C
:103170000B890B890B890B890B890B000000006AF6
:10318000027201000000005D0B7A060000000034AE
:1031900006A10E830E760E640E580EC80D860EBC68
:1031A0000DAE0D00000000EC0C5E0BAB0DEB0C4007
:1031B0000D580DD30C00000000600C5E0BF80BA73F
:1031C0000C290C070C1B0C00000000890B5E0BABDC
:1031D0000DAA0D890B890B890B00000000890B5E7D
:1031E0000BAB0DAA0D0000000000000000890B00D1
:1031F000000000330676018D010000000000000091
:1032000000890B000000003206740178010D0A00ED
:103210005B70726F6772616D2061626F727465645A
:023220005D004F
:00000001FF
