:100000000C94A6040C94CE040C94CE040C94CE1440
:100010000C94CE140C94CE140C94CE040C94CE04F8
:100020000C94CE040C94CE040C94CE040C94CE0408
:100030000C94CE040C94CE040C94CE040C94CE04F8
:100040000C94360E0C94CE040C94A60E0C94800ED8
:100050000C94CE040C94CE040C94CE040C94CE04D8
:100060000C94CE040C94CE046F6E507265436F6E88
:100070006E656374203A0075736572206D657373E5
:10008000616765206461746120202020203A00753A
:10009000736572206D657373616765207265636552
:1000A00069766564203A00706C65617365206361F0
:1000B0006C6C2053797374656D2E696E6974287940
:1000C0006F757253797374656D4964292062656632
:1000D0006F726520796F7520637265617465206E3B
:1000E0006F6465732E0066726565207372616D20A2
:1000F0003A200053657269616C4E6F64653A3A6FDD
:100100006E4D6573736167653E20726F756E642016
:10011000747269702074696D65203A2000002E00A9
:1001200053657269616C4E6F64653A3A6F6E4D65E6
:1001300073736167653E20434F4E4E454354494FAC
:100140004E5F5354415455535F434F4E4E454354B5
:100150004544206E6F646520286163746976652963
:10016000203A200053657269616C4E6F64653A3ABB
:100170006F6E4D6573736167653E41434B204F4E13
:10018000204352206E6F6465206973206E6F742067
:1001900072656164793A200053657269616C4E6FD3
:1001A00064653A3A6F6E4D6573736167653E6E6F55
:1001B000646520697320616C726561647920636F86
:1001C0006E6E65637465643A200053657269616C94
:1001D0004E6F64653A3A6F6E4D6573736167653E45
:1001E00041434B204F4E204352206E6F646520697F
:1001F00073206E6F74206163746976653A20002005
:10020000203C3C3C200053657269616C4E6F646514
:100210003A3A6F6E4D6573736167653E20434D4496
:100220005F414344203A200053657269616C4E6F10
:1002300064653A3A6F6E4D6573736167653E20433E
:100240004F4E4E454354494F4E5F535441545553BE
:100250005F434F4E4E4543544544206E6F646520C6
:100260003A2000002E0053657269616C4E6F646520
:100270003A3A6F6E4D6573736167653E20756E6BBC
:100280006E6F776E2072656D6F7465206E6F64653A
:100290002077616E747320746F20636F6E6E656378
:1002A000743A2000002E007063622072656D6F74D6
:1002B0006520616464726573733A005365726961A5
:1002C0006C4E6F64653A3A6F6E4D65737361676526
:1002D0003E206E6F6465206E6F7420726561647974
:1002E000203A0053657269616C4E6F64653A3A6FEB
:1002F0006E4D6573736167653E20756E616C6C6FE2
:10030000776564206D6573736167652C2073746114
:10031000747573203C3E20636F6E6E656374656414
:100320002C20616B74696420203A00207061723A5D
:10033000200020636D643A200020616B7449643AA8
:100340002000002E0020746F20002E00203C3C3C3A
:100350003C200020203C3C3C200053657269616CCD
:100360004E6F64653A3A6F6E4D6573736167653EB3
:10037000206E6F6465203A200053657269616C4E8F
:100380006F64653A7265636F6E6E6563743E206E6E
:100390006F6465206E6F742072656164793A200025
:1003A00053657269616C4E6F64653A7265636F6E16
:1003B0006E65637428293E2073656E642043522065
:1003C000666F72206E6F6465200053657269616CA0
:1003D0004E6F64653A7265636F6E6E65637428294B
:1003E0003E2077616974696E6720666F72204352A0
:1003F000206D6573736167652C206E6F64653A20AC
:1004000000207061723A200020636D643A20002061
:10041000616B7449643A2000002E0020746F200044
:100420002E0053657269616C4E6F64653A3A77725B
:10043000697465546F506F72743E207375636365A1
:100440007373202C206865616465722E2E2E002047
:1004500077616974656420666F72203A2000536585
:100460007269616C4E6F64653A3A7772697465546B
:100470006F506F72743E2077616974696E67206592
:100480006E642C206E6F6465203A2000667265658C
:10049000207372616D203A200053657269616C4E61
:1004A0006F64653A3A7772697465546F506F72740D
:1004B0003E2077616974696E6720666F722072658D
:1004C000706C696573206F6E206F7468657220733D
:1004D0006F66742073657269616C20706F72742E20
:1004E0002E2E0053657269616C4E6F64653A3A77DF
:1004F00072697465546F506F72743E2077616974CD
:10050000696E6720666F72207265706C6965732012
:100510006F6E206F7468657220736F6674207365E8
:100520007269616C20706F72742C202063616E633D
:10053000656C0053657269616C4E6F64653A3A7719
:1005400072697465546F506F72743E20474C454910
:1005500043484552204C495354454E4552203F0094
:10056000203E3E3E20706F72743A200020203E3EB6
:100570003E200053657269616C4E6F64653A3A774C
:1005800072697465546F506F72743E206E6F64654B
:10059000203A200000000000240027002A0000006C
:1005A00000002300260029006672656520737261D1
:1005B0006D203A200073657475702053657269610F
:1005C0006C546573744D61737465720000205365DB
:1005D0007269616C4E6F64653A3A617265416C6C28
:1005E0004E6F646573436F6E6E656374656428292E
:1005F0003E202A2A2A20414C4C204E4F444553206D
:10060000434F4E4E45435445442057495448205289
:10061000454D4F5445202A2A2A004152500041524C
:100620005100414344004352004C49564500414368
:100630004B004E414B0000000000250028002B001D
:100640000404040404040404020202020202030378
:100650000303030301020408102040800102040880
:100660001020010204081020000000080002010010
:10067000000304070000000000000000554E4B4F2F
:10068000574E5F434D440053657269616C4E6F6411
:10069000653A3A73656E643E206E6F64652C206E19
:1006A0006F7420636F6E6E6563746564202C2075B3
:1006B0006E6B6E6F776E2072656D6F74652061640E
:1006C00064726573733A0053657269616C4E6F644E
:1006D000653A3A73656E643E207265706C79207479
:1006E0006F3A0053657269616C4E6F64653A3A7394
:1006F000656E64203E206E6F7420636F6E6E65635E
:100700007465642C20636D64206E6F7420616C6C62
:100710006F776564203A2000203E3E3E00536572AC
:1007200069616C4E6F64653A3A73656E643E202071
:100730003E3E3E2000425546464552204F564552C9
:10074000464C4F573A206461746153697A65203E84
:100750002000203A20002053657269616C4E6F645E
:10076000653A3A69734C696665436865636B4C61C9
:1007700074653E206E6F6465206C6174653A20007C
:10078000203A20002053657269616C4E6F64653AAF
:100790003A69734C696665436865636B4C6174655F
:1007A0003E206E6F64652076657279206C61746599
:1007B000202C657870697265643A200020726F752C
:1007C0006E642074726970203A200053657269610A
:1007D0006C4E6F64653A3A69734C69666543686547
:1007E000636B457870697265643E206E6F64652046
:1007F000657870697265643A200053657269616C4E
:100800004E6F64653A3A636865636B436F6E6E65FD
:100810006374696F6E3E2061636220666F756E64FB
:100820000053657269616C4E6F64653A3A6368653E
:10083000636B436F6E6E656374696F6E3E206C61AF
:10084000737453656E64416B7449643A2000536558
:100850007269616C4E6F64653A3A636865636B43B5
:100860006F6E6E656374696F6E3E2069734C696666
:1008700065436865636B45787069726564005365AC
:100880007269616C4E6F64653A3A636865636B4385
:100890006F6E6E656374696F6E3E206E6F74206359
:1008A0006F6E6E65637465640053657269616C4E4A
:1008B0006F64653A3A70726F636573734E6F646507
:1008C000733E206E6F206E6F64657320666F756E69
:1008D000640053657269616C4E6F64653A3A707278
:1008E0006F636573734E6F6465203A2D2D2D2D2D2A
:1008F0002D2D2D2D2D2D2D2D2D2D2D2D2D2D2D2D28
:100900002D2D2D2D2D2D2D2D2D2D2D2D2D2D2D2D17
:100910002D2D2D2D2D2000506F7274206E6F7420A0
:10092000666F756E6400536F667453657269616CAF
:10093000506F72743A3A6C697374656E3E206F6ED4
:1009400020706F7274203A007E197A1911241FBE2C
:10095000CFEFD8E0DEBFCDBF11E0A0E0B1E0E0E333
:10096000F7E302C005900D92AA3DB107D9F722E046
:10097000AAEDB1E001C01D92A73DB207E1F714E076
:10098000C5EAD4E004C02197FE010E94801BC43A4E
:10099000D107C9F70E9425170C948B1B0C940000FB
:1009A000CF93DF93EC0188E690E00E947B16EA810A
:1009B000FB8181810E946816EA81FB8182E0848349
:1009C000DF91CF910895CF92DF92EF92FF920F9334
:1009D0001F93CF93DF936C018B017A01E9018FE8BC
:1009E00090E00E947B16EA81FB8181810E9468165B
:1009F00087E790E00E947B16D8016D917D918D91E3
:100A00009C910E94B116F60186819781863F9105DF
:100A100069F4EA81FB81D60114964D915C9115979A
:100A2000218167EF70E0CE010E94D80EDF91CF9157
:100A30001F910F91FF90EF90DF90CF900895DC0110
:100A400082E191E011969C938E931E962D913C919C
:100A50001F972115310589F0E091F301F091F40120
:100A6000309759F086859785009729F08A179B075C
:100A700011F0FC01F5CF3787268712968D919C9156
:100A80001397009711F00C947F1A0895CF93DF937A
:100A9000EC010E941F05CE01DF91CF910C947F1ACB
:100AA0000C947F1AEF92FF920F931F93CF93DF93D3
:100AB000EC01EA81FB8181E08483EA81FB8185810D
:100AC000882349F0E091DA01F091DB01309731F0B1
:100AD000CE01099503C08AEC93E023C0EA81FB8133
:100AE00084818230E1F480EA93E00E947B16EA81FF
:100AF000FB8181810E946816E12CF12C00E010E05E
:100B000020E040E050E063EF70E0CE010E94D80E9C
:100B1000DF91CF911F910F91FF90EF90089589E79A
:100B200093E00E947B16EA81FB818181DF91CF9166
:100B30001F910F91FF90EF900C946816CF92DF9267
:100B4000EF92FF920F931F93CF93DF9300D01F92EA
:100B5000CDB7DEB76C0182E191E0D60111969C938E
:100B60008E9313961C921E921297F6011482158290
:100B70001682178218961D921D921D921C921B9729
:100B80001D961C921E921C971F961C921E921E97D9
:100B900051961C921E9250971091F00111110CC0A9
:100BA00087EA90E00E949C160E94DA198BE192E09D
:100BB0000E94140E0E94861BF601F18AE08A86E0EC
:100BC00090E02B834A8369830E94EA19FC0186E046
:100BD000DF011D928A95E9F7D6011396FC93EE93F7
:100BE00012971083698161832B81228303834A8159
:100BF0004583E091F301F091F401309731F086855F
:100C00009785009739F0FC01F8CFD092F401C0929B
:100C1000F30102C0D786C6860F900F900F90DF9128
:100C2000CF911F910F91FF90EF90DF90CF9008959B
:100C3000DC011296ED91FC911397309751F050968C
:100C40008D919C915197892B21F081E09481943072
:100C500009F080E008950895FC0184819581009752
:100C600051F0FC01208131812617370721F0FC016A
:100C700085859685F4CF0895CF93DF93EC010E948C
:100C80002C06009799F1FC0145855685EC81FD8184
:100C900041155105A1F08E179F0721F45D834C8308
:100CA00021C0F9013097F1F02585368521153105F0
:100CB000C9F028173907A9F75687458713C08E173B
:100CC0009F0721F41D821C820DC0F901309751F05D
:100CD000258536852115310529F028173907A9F70B
:100CE000168615860E947F1A81E001C080E0DF91A0
:100CF000CF910895CF93DF93EC0189EB91E0998335
:100D00008883EC81FD81309731F060817181CE0163
:100D10000E943C06F6CFDF91CF910895CF93DF93E9
:100D2000EC010E947A06CE01DF91CF910C947F1ADC
:100D3000FC019081DB018C91981305C081E0218139
:100D400011969C91291380E008952F923F924F9223
:100D50005F926F927F928F929F92AF92BF92CF924B
:100D6000DF92EF92FF920F931F93CF93DF9300D008
:100D700000D000D0CDB7DEB79C838B837B015A01B6
:100D8000490183E795E00E947B16D70111968C916B
:100D90000E94AA168CE695E00E947B16F7018681D8
:100DA0009781805F91098830910540F4880F991FE1
:100DB000FC01EB58FE4F8081918102C08CE796E0E8
:100DC0000E947B1680E695E00E947B16D80115965E
:100DD0008C910E946816D801ED91FC910480F581F8
:100DE000E02DC8010995019791F4D801ED91FC918E
:100DF0000288F389E02DC8010995811108C06EC1F0
:100E0000F60185810E94C016892B09F079C1D801AD
:100E1000ED91FC910288F389E02DC80109958111BB
:100E200016C0F70186819781825F9109853091050F
:100E300070F4FC01EA5EFE4F8081882341F0D80106
:100E4000ED91FC910684F785E02DC8010995E11428
:100E5000F10411F40E94861BF7019281808198179A
:100E6000C9F384819581892B09F0C1C08091BA02B0
:100E70009091BB02019621F41092BB021092BA022B
:100E8000C090BA02D090BB022FEFC21AD20AD09201
:100E9000BB02C092BA02D7011596DC92CE9214978B
:100EA00016962D903C901797C101825F910985306D
:100EB000910508F09CC0FC01EA5EFE4F808188230A
:100EC00009F495C06090BC027090BD022301F70147
:100ED0003296FE83ED834114510411F1D201129632
:100EE0008C9190E08215930579F4B701C2010396C5
:100EF0000E949806882341F06D817E81C20105968B
:100F00000E949806811154C1F20145845684E3CFB2
:100F1000D3011D968D919C911E97009721F03C0165
:100F200061147104A9F78FE090E00E94EA192C0186
:100F30008FE0F20111928A95E9F7D20113961C9283
:100F4000139714961C92149715961C921597169643
:100F50001C926114710429F45092BD024092BC02AB
:100F600003C0F30156864586D20112962C92129741
:100F7000F7018081918114969C938E9313978281BF
:100F8000938116969C938E931597CD20C09421F44F
:100F90001092BB021092BA028091BA029091BB02E9
:100FA00001969093BB028093BA02D2018D939C93D9
:100FB000F701958384830E945210D20119966D9394
:100FC0007D938D939C931C97F701848195818D93DC
:100FD0009C93D80115968C91F2018087D7011496C5
:100FE0008D919C911597EB81FC8195878487C80131
:100FF0000E9409160E94BF15C8010E94091649E007
:1010000050E0B7010E94CF15A114B10451F0811432
:10101000910439F0C8010E940916A401B5010E948B
:10102000CF15C8010E9409160E94AF1582E294E014
:101030000E949C16D7018C910E94AA1680E294E02F
:101040000E947B16F70181810E94AA168BE194E031
:101050000E947B16D70112968C910E94AA1689E1F4
:1010600094E00E947B16F70183810E94AA1688E112
:1010700094E00E949C168FE094E00E947B16D701BA
:1010800014966D917C91159780E090E04AE00E9463
:10109000271688E094E00E947B16F70186819781ED
:1010A000805F91098830910540F4880F991FFC01F9
:1010B000EB58FE4F8081918102C08CE796E00E9440
:1010C0007B1681E094E00E947B16D70118968C91E4
:1010D0000E946816F701848195816FC00E94661591
:1010E0006C018017910709F08BCE83E395E00E9495
:1010F0009C160E94DA198BE192E00E94140EAACE8F
:10110000D70116968D919C911797823F910539F4DE
:1011100083EE94E00E949C1680E090E04EC0863FF3
:10112000910509F074CE89E994E00E949C168CE840
:1011300094E00E947B162091D3023091D4022115B5
:10114000310511F427ED32E0CE010196821B930B9D
:101150000E940D170E9452102B013C010E945E104C
:10116000F60185810E94C016892BC1F78EE594E0B7
:101170000E947B16AB81BC811296ED91FC91139776
:1011800081810E94AA168FE494E00E947B160E943F
:10119000521064197509860997090E94B116D80181
:1011A000ED91FC910684F785E02DC80109952FCEBD
:1011B00082E0D20117968C93FECE26960FB6F89455
:1011C000DEBF0FBECDBFDF91CF911F910F91FF907A
:1011D000EF90DF90CF90BF90AF909F908F907F90D7
:1011E0006F905F904F903F902F9008953F924F9255
:1011F0005F926F927F928F929F92AF92BF92CF92A7
:10120000DF92EF92FF920F931F93CF93DF9300D063
:10121000CDB7DEB76C015B012A0139014801672BAC
:1012200011F40E94861B452B19F0232B19F4F9CFDA
:10123000232BB9F781149104A1F3D6011296ED91F5
:10124000FC91139792818091F001981751F30E94BD
:101250005210F6016483758386839783D5011696B1
:10126000ED90FC901797C6010E941806382E8AE56B
:1012700093E00E947B16D6011296ED91FC91139794
:1012800081810E94AA1683E593E00E947B16870164
:10129000005F11090830110540F4F801EE0FFF1F3F
:1012A000EB58FE4F8081918102C08CE796E00E944E
:1012B0007B168CE493E00E949C16F50180810E94CD
:1012C000AA168AE493E00E947B16D50111968C91B0
:1012D0000E94AA1685E493E00E947B16F5018281A4
:1012E0000E94AA1683E493E00E947B16D501139610
:1012F0008C910E94AA1682E493E00E949C1689E3D6
:1013000093E00E947B16F5016481758180E090E096
:101310004AE00E94271682E393E00E947B16D501E3
:1013200016968D919C911797805F91098830910551
:1013300040F4880F991FFC01EB58FE4F808191818A
:1013400002C08CE796E00E947B168BE293E00E943D
:101350007B16F50180850E946816311013C002309B
:10136000110580F0F3EFEF16F10461F083EE92E0E7
:101370000E947B16D50114968D919C9115970E9421
:10138000D41613C2B3EFEB16F10441F1ACF4F0EF55
:10139000EF16F10409F4A0C124F4EF2809F405C202
:1013A00001C2A1EFEA16F10409F40CC1B2EFEB1689
:1013B000F10409F4D8C0F6C1E5EFEE16F10409F422
:1013C000E4C00CF4BEC086EFE816F10409F4A1C134
:1013D000A7EFEA16F10409F4E9C0E4C1D6011296B8
:1013E000ED91FC91139785818111A0C0E091DA0104
:1013F000F091DB01309711F0C6010995D6011296E4
:10140000ED91FC9113978481823069F08BEB92E02F
:101410000E947B16D6011296ED91FC911397818163
:101420000E946816C2C18281811122C0D5018D91AE
:101430009C919383828387EA92E00E949C16D60156
:101440001296ED91FC91139782810E94AA1685EA6B
:1014500092E00E947B16D6011296ED91FC911397B3
:1014600083810E94AA1684EA92E00E949C1638C0EA
:10147000B501CF0102960E949806811131C086E61F
:1014800092E00E947B16D6011296ED91FC91139783
:1014900081810E94AA16D6011296ED91FC911397B4
:1014A00082810E94AA1684E692E00E947B16D601F1
:1014B0001296ED91FC91139783810E94AA1683E600
:1014C00092E00E949C16F50144815581E12CF12C9B
:1014D00000E010E020E060EF70E0C6010E94D80E4E
:1014E000D60151969C928E9250971296ED91FC9156
:1014F000139784E084831296ED91FC911397D501A4
:101500008D919C9111979383828314964D915C9158
:101510001597E12CF12C00E010E020E061EF70E085
:10152000C6010E94D80E88E292E07BC0F50144819A
:101530005581E12CF12C00E010E020E060EF70E03C
:1015400020C0332099F3D50114964D915C911597E5
:10155000E12CF12C00E010E020E061EF70E0C6012A
:101560000E94D80EB2C0332009F3D50114964D91D4
:101570005C911597E12CF12C00E010E020E061EF88
:1015800070E0C6010E94D80ED1C086E092E00E94B1
:101590007B16D6011296ED91FC91139781810E94E2
:1015A000AA168FEF91E00E947B16B3C0F50164810B
:1015B000758188EB92E00E942C067C01892B09F052
:1015C000AAC0F3C0D50114966D917C91159788EB54
:1015D00092E00E942C067C01009709F4E6C0FC0111
:1015E0008281843F09F471C0863F09F494C0833F2F
:1015F00009F09CC0D60151969C928E9250971296FB
:101600000D911C911397F8018581811103C08AEC1B
:1016100091E018C0C6010E941806882369F088E985
:1016200091E00E947B16D6011296ED91FC911397E2
:1016300081810E9468167AC0F8018481823069F045
:1016400084E691E00E947B16D6011296ED91FC9102
:10165000139781810E94AA1669C0F501808191814A
:10166000D80113969C938E931297D6011296ED9102
:10167000FC91139784E0848351969C928E925097AC
:1016800080E291E00E947B16D6011296ED91FC91CA
:10169000139781810E946816D6011296ED91FC91F4
:1016A000139780810E94AA168EE191E00E947B161A
:1016B000D6011296ED91FC91139781810E94AA1692
:1016C0008DE191E00E949C1631C0F601118A108ACA
:1016D0000280F381E02D1AC0D50114966D917C91A2
:1016E000159788EB92E00E942C067C01009709F484
:1016F0005CC0FC018281833F21F0863F61F0823F24
:10170000A9F4D6011296ED91FC91139783E084839E
:101710000DC0E12CF12CE091DC01F091DD0130975E
:1017200029F09601A301B201C5010995E114F10464
:10173000E1F183EF90E00E947B160E945210F701C6
:101740000185128523853485601B710B820B930BF9
:101750000E94B11680E00E94C0168C01D50114963B
:101760006D917C91159788EB92E00E943C0680E099
:101770000E94C0168017910708F053CD86EE90E0C6
:101780000E947B162091D3023091D402211531059D
:1017900011F427ED32E0CE010196821B930B0E94DB
:1017A0000D1703C0E12CF12CC1CF0F900F90DF91EA
:1017B000CF911F910F91FF90EF90DF90CF90BF904E
:1017C000AF909F908F907F906F905F904F903F90E1
:1017D00008954F925F926F927F928F929F92AF92F5
:1017E000BF92CF92DF92EF92FF920F931F93CF930E
:1017F000DF9300D0CDB7DEB72C016B018A01892BB6
:1018000011F40E94861B6930710520F09B0129505C
:10181000310902C020E030E0D20112968C9112977B
:10182000882309F43FC19091F001891342C0E090F0
:10183000F301F090F401E114F10419F313968C9183
:101840008823C9F06201B2E0CB0ED11CB601F701CA
:101850008281938129833A830E94980629813A8163
:1018600081118BC0D7011E96ED90FC901F97E1145B
:10187000F10461F717C1F20186819781833F9105D9
:1018800009F010C1D7011296ED91FC911397858153
:10189000811169C08481823009F065C0828188230A
:1018A00021F0D2019C9189135EC0838181115BC0BC
:1018B00064C0F2012081291709F4F4C0E090F1011D
:1018C000F090F201F701309739F09581981759F1AE
:1018D0000280F381E02DF7CFC2010E94BA0F5C01B4
:1018E000892B09F45EC04501F2E08F0E911CB20114
:1018F000C4010E94980695012C5F3F4F390188234F
:1019000009F449C0B2016E5F7F4FC9010E94980679
:10191000882309F440C0D5011896ED91FC911997E0
:10192000309709F43EC0CF010E9409168C010E9435
:10193000BF15A601B201C8010E94CF15C8010F90C2
:101940000F90DF91CF911F910F91FF90EF90DF905B
:10195000CF90BF90AF909F908F907F906F905F904F
:101960004F900C94AF15D7011E96ED90FC901F97E9
:10197000E114F10409F086CF95C02115310541F03D
:10198000A201475F5F4FB201C7010E94F6088AC0FB
:1019900040E050E0F8CFB201C3010E9498068111E7
:1019A0006DC0D20116968D919C911797833F91053A
:1019B00009F078C08090C0029090C102F401309785
:1019C00021F00284F385E02DFACFA114B10461F077
:1019D000F20184819581D50111969C938E9319967D
:1019E0001C921E9218972EC08CE090E00E94EA197B
:1019F000FC018CE0DF011D928A95E9F712821382C7
:101A0000148215828114910409F447C0D4011A96F6
:101A10008D919C911B97009711F04C01F3CFD4014D
:101A20001B96FC93EE931A97D2018D919C9111977E
:101A3000938382831783068314968D919C911597C7
:101A400091838083E114F10469F1D70115969C918B
:101A5000F8018581981731F1C7010E9409165C01D0
:101A60000E94BF15A601B201C5010E94CF15C50194
:101A70000E94AF15F701E280F380E4CFB2016E5F00
:101A80007F4FC4010E949806882309F48ACFD501AC
:101A90001696ED91FC91179743CFF093C102E09316
:101AA000C002C2CF0F900F90DF91CF911F910F9185
:101AB000FF90EF90DF90CF90BF90AF909F908F906E
:101AC0007F906F905F904F900895CF92DF92EF924A
:101AD000FF920F931F93CF93DF936C017A018B01D9
:101AE000C0E0D0E0CE15DF0589F0D8016D918D0101
:101AF000D601ED91FC910190F081E02DC601099590
:101B0000892B11F47E0102C02196ECCFC701DF9131
:101B1000CF911F910F91FF90EF90DF90CF9008959C
:101B2000FC01538D448D252F30E0842F90E0821BE3
:101B3000930B541710F0CF96089501970895FC0168
:101B4000918D828D981761F0828DDF01A80FB11DF4
:101B50005D968C91928D9F5F9F73928F90E0089518
:101B60008FEF9FEF0895FC01918D828D981731F0D2
:101B7000828DE80FF11D858D90E008958FEF9FEF26
:101B800008950E94861B8BE192E00E94BF1221E023
:101B9000892B09F420E0822F0895EF92FF920F9392
:101BA0001F93CF93DF93EC0181E0888F9B8D8C8D09
:101BB000981305C0E889F989808185FD24C0F62E37
:101BC0000B8D10E00F5F1F4F0F731127E02E8C8DD0
:101BD000E8120CC00FB607FCFACFE889F9898081BA
:101BE00085FFF5CFCE010E94AD14F1CF8B8DFE01A4
:101BF000E80FF11DE35AFF4FF0820B8FEA89FB8952
:101C00008081806207C0EE89FF896083E889F98955
:101C100080818064808381E090E0DF91CF911F918B
:101C20000F91FF90EF900895CF93DF93EC01888D93
:101C30008823C9F0EA89FB89808185FD05C0A889D0
:101C4000B9898C9186FD0FC00FB607FCF5CF808156
:101C500085FFF2CFA889B9898C9185FFEDCFCE01A0
:101C60000E94AD14E7CFDF91CF9108951F920F929C
:101C70000FB60F9211242F933F938F939F93AF939F
:101C8000BF938091EC019091ED01A091EE01B09194
:101C9000EF013091EB0123E0230F2D3720F4019663
:101CA000A11DB11D05C026E8230F0296A11DB11D7F
:101CB0002093EB018093EC019093ED01A093EE0152
:101CC000B093EF018091E7019091E801A091E901C3
:101CD000B091EA010196A11DB11D8093E701909397
:101CE000E801A093E901B093EA01BF91AF919F9100
:101CF0008F913F912F910F900FBE0F901F901895CD
:101D00001F920F920FB60F9211242F933F934F9370
:101D10005F936F937F938F939F93AF93BF93EF9353
:101D2000FF938BE192E00E94AD14FF91EF91BF9180
:101D3000AF919F918F917F916F915F914F913F9163
:101D40002F910F900FBE0F901F9018951F920F921A
:101D50000FB60F9211242F938F939F93EF93FF93BE
:101D6000E0912B02F0912C028081E0913102F09100
:101D7000320282FD12C09081809134028F5F8F7396
:101D800020913502821751F0E0913402F0E0E55ED7
:101D9000FD4F958F8093340201C08081FF91EF91B8
:101DA0009F918F912F910F900FBE0F901F901895BC
:101DB0005F926F927F928F929F92AF92BF92CF92DB
:101DC000DF92EF92FF920F931F93CF93DF93CDB7E4
:101DD000DEB729970FB6F894DEBF0FBECDBF6C01FA
:101DE0005B013A01522E480119821A821B821C8221
:101DF0001E821D8218861F8219868DE197E00E943F
:101E00007B168501005F11090830110540F4F801C7
:101E1000EE0FFF1FEB58FE4F8081918102C08CE7CF
:101E200096E00E947B1688E197E00E949C16D601FE
:101E30001296ED91FC9113978091F0019281981385
:101E400002C00E94861B94819430C1F0B3EFAB16A0
:101E5000B104A1F00230110588F083EE96E00E94F3
:101E60007B16B501BB0C880B990B97FF03C00E9432
:101E7000E61668C04AE00E94271664C08983611490
:101E80007104C9F087EC96E00E947B16C3010E94A2
:101E9000D4167E826D82C6010E941806882331F016
:101EA000D6011296ED91FC91139707C087E896E052
:101EB0000E949C1647C01E821D82828193819C8352
:101EC0008B83D6011296ED91FC91139780819181BD
:101ED0009A838983B886AF82598650960D911C915A
:101EE00051970115110581F48B81A090F101B090FB
:101EF000F201F50103C00280F381E02D309769F013
:101F000095819813F8CF8F019701A401BE016F5FEF
:101F10007F4FC6010E94A50612C0A114B10491F022
:101F200085019701A401BE016F5F7F4FC6010E942A
:101F3000A506F501A280B380A114B10489F78D81B3
:101F40009E8102C080E090E029960FB6F894DEBF33
:101F50000FBECDBFDF91CF911F910F91FF90EF90FA
:101F6000DF90CF90BF90AF909F908F907F906F90B9
:101F70005F900895CF92DF92EF92FF920F931F939D
:101F8000CF93DF938C01C091C002D091C1027C013C
:101F900082E0E80EF11C209761F18E819F81892BF0
:101FA00021F188859985892B01F16E0182E0C80EA7
:101FB000D11CB801C6010E949806811106C0B70164
:101FC000C6010E949806882381F06E0184E0C80E45
:101FD000D11CB801C6010E94980681110DC0B7013D
:101FE000C6010E949806811107C00A84DB85C02DB6
:101FF000D2CF80E090E001C0CE01DF91CF911F9160
:102000000F91FF90EF90DF90CF90089590E0FC014A
:10201000E859F94F3491FC01EC5AF94F2491FC0135
:10202000E05CF94FE491EE2309F43BC0332339F12E
:10203000333091F038F43130A9F0323001F584B505
:102040008F7D12C0373091F03830A1F03430B9F4C0
:10205000809180008F7D03C0809180008F77809376
:1020600080000DC084B58F7784BD09C08091B00019
:102070008F7703C08091B0008F7D8093B000F0E037
:10208000EE0FFF1FEA5CF94FA591B4918FB7F8945A
:10209000EC91611103C020952E2301C02E2B2C93AF
:1020A0008FBF08952FB7F8946091EC017091ED0106
:1020B0008091EE019091EF012FBF08958F929F9232
:1020C000AF92BF92CF92DF92EF92FF920F931F9346
:1020D000CF93DF93C091F501D091F601209729F4B9
:1020E0008091F3019091F40107C080E00E94C01636
:1020F000892B39F48E859F859093F6018093F501A5
:1021000056C088899989892B79F0EE85FF85F093EF
:10211000F601E093F50180899189DC01ED91FC9154
:102120000684F785E02D42C00E946615EC01892BDC
:10213000F1F18A819B81892BD1F1E881F9810088B5
:10214000F189E02DCE010995892B89F58D810E94B9
:10215000C016892B61F50E945210088519852A85C1
:102160003B85DC01CB01801B910BA20BB30B893C9F
:102170009105A105B105D8F00A80DB81C02D20971B
:1021800021F4C091F101D091F2012097E1F1E881B1
:10219000F9810480F581E02DCE010995019761F761
:1021A000E881F9810684F785E02DCE0109958091BB
:1021B000F5019091F601892B41F48091F301909102
:1021C000F4019093F6018093F50182ED98E00E946E
:1021D0007B16E091F501F091F6010280F381E02D8C
:1021E00081810E946816C091F501D091F601209777
:1021F00061F489EA98E00E949C160E94DA198BE14A
:1022000092E00E94140E0E94861B0E9452104B0105
:102210005C0188859985AA85BB850097A105B105D4
:1022200071F0A5019401281B390B4A0B5B0BDA01F5
:10223000C901883E9340A105B10508F496C0CE01BE
:102240000E941806811103C08EE798E056C1EA810A
:10225000FB818581882309F46DC06C857D8588EBC1
:1022600092E00E942C068C01892BC9F10E94521029
:10227000D8011996CD90DD90ED90FC901C97DC0173
:10228000CB018C199D09AE09BF09813A9F40A10578
:10229000B10508F44FC08BEC97E00E947B16EA81F1
:1022A000FB8181810E94AA168CEB97E00E947B162D
:1022B0000E945210D8011996CD90DD90ED90FC90BF
:1022C0001C976C197D098E099F090E94B116F801AF
:1022D0006081718188EB92E00E943C060CC10E94F3
:1022E00052100C811D812E813F81DC01CB01801BAE
:1022F000910BA20BB30B813A9F40A105B105D0F021
:1023000084E897E00E947B16EA81FB8181810E942C
:10231000AA1680E897E00E947B160E9452100C815A
:102320001D812E813F81601B710B820B930B0E94DC
:10233000B116E1C0EA81FB818581882391F00E947A
:1023400052100C811D812E813F81DC01CB01801B4D
:10235000910BA20BB30B893B9B40A105B10508F083
:10236000D2C088869986AA86BB860091F101109119
:10237000F2010115110509F446CFFF24F394D801A9
:102380001696ED91FC91179784819581892B09F41C
:102390003ACFED91FC910088F189E02DC8010995B3
:1023A0001816190664F1F80102811381011511054F
:1023B00031F7DF91CF911F910F91FF90EF90DF9058
:1023C000CF90BF90AF909F908F900895D8011696B0
:1023D000ED91FC911797C481D581209709F413CF13
:1023E0008E819F81009709F40ECFDC01ED91FC9165
:1023F0000088F189E02D0995181619065CF0D801BE
:10240000ED91FC910088F189E02DC8010995892B97
:10241000E9F6C9CF8985843008F0F5CE8885843007
:1024200008F0F1CE8E819F81DC01ED91FC91068058
:10243000F781E02D09958F879C859923D9F02A850E
:1024400030E04D855E852417350750F44C815D8161
:10245000FA01E20FF31F80838A858F5F8A870AC0A3
:1024600085E397E00E947B168D859E8504970E94E8
:10247000D4161C869F858885E82FF0E0EC5FFE4F20
:102480002081921309C0833021F41886FC861A86B5
:1024900009C08F5F888706C0188680910401981351
:1024A00001C0F8868985E82FF0E0E050FF4F2081D9
:1024B00092131AC08330A9F46A8564506B87EA814D
:1024C000FB81309709F49FCE8C85882331F04E81B3
:1024D0005F8170E08C819D81099519861C861A8622
:1024E0008ECF8F5F89878BCF1986809100019813DB
:1024F00086CFF98684CF8EE498E00E949C16CE01A8
:102500000E9452052ECF86E597E00E947B16EA8155
:10251000FB8181810E94AA1682E597E00E947B16CA
:102520000E9452100C811D812E813F81601B710B16
:10253000820B930B0E94B1166C857D8588EB92E02F
:102540000E942C068C0181E298E00E947B168C850B
:102550009D850E94D416012B69F4E12CF12C00E03A
:1025600010E020E040E050E062EF70E0CE010E9419
:10257000D80EF7CE8AEF97E00E949C16F2CEFC01AF
:10258000918D228D892F90E0805C9F4F821B910955
:102590008F739927089580E090E0892B29F00E949D
:1025A000C30D81110C9400000895209119023091FF
:1025B0001A022817390771F49091180280911702B6
:1025C000981741F0E0911802F0E0E950FE4F808149
:1025D00090E008958FEF9FEF089508951F93CF9394
:1025E000DF93DC015C962D913C915D9721153105BF
:1025F00039F481E090E013969C938E9312973DC03E
:102600005196ED91FC91529750969C915097892F3D
:1026100080951FB75E964C915E9741FB772770F9C6
:1026200041FD6095F8944081772311F0492B01C05A
:1026300048234083E9012197F1F748E0508160FF8A
:1026400002C0592B01C058235083E9012197F1F7AB
:102650006695415099F7772321F0908189238083F3
:1026600003C08081982B90831FBF5C968D919C91B5
:102670005D970197F1F721E030E0C901DF91CF913B
:102680001F9108952091190230911A0228173907D5
:1026900069F4809117022091180290E08096821BC5
:1026A000910960E270E00E94171B089580E090E0BD
:1026B00008952091190230911A0228173907B9F4A8
:1026C0009091180280911702981789F0E0911802F2
:1026D000F0E0E950FE4F80812091180230E02F5F3A
:1026E0003F4F2F7133272093180290E008958FEF0A
:1026F0009FEF0895CF93DF93FC01828D938D892BFB
:1027000031F1A0911902B0911A02AE17BF07F9F08A
:10271000109751F05396CD91DC915497988155962E
:102720008C91809589238883868D8E7F868F1092E9
:10273000170210921802F0931A02E0931902A3896B
:10274000B4899C918589892B8C9381E001C080E0BC
:10275000DF91CF910895089580E090E0089521E001
:10276000FC01448555858091190290911A02481701
:10277000590709F020E0822F0895DC011C968D9105
:102780009C911D97DC01ED91FC910084F185E02D79
:102790000994CF93DF939A01AB01FC01C485D585E1
:1027A0001B8E1A8E198E188E1F8A1E8A60E079E0A1
:1027B0008DE390E00E944D1BF9012430310518F0A3
:1027C000C901039702C081E090E09D8F8C8F6C85DA
:1027D000663108F069C0C9019695879584319105E5
:1027E00010F0439702C081E090E09F8B8E8B36976C
:1027F00018F0C901059702C081E090E0998F888F99
:10280000C901880F991F280F391F369527953695CE
:1028100027952D30310518F02C50310902C021E0E8
:1028200030E03B8F2A8F90916800683050F021E0B3
:102830006E3008F420E081E001C0880F2A95EAF7A5
:1028400001C084E0892B809368008C85883038F043
:102850008E3040F0863148F020E030E008C02DE6B0
:1028600030E005C02BE630E002C02CE630E03C8BC7
:102870002B8B883030F491E001C0990F8A95EAF7EC
:102880000EC0282F30E08E3018F42850310902C0D5
:102890002E50310991E001C0990F2A95EAF79D8BDE
:1028A0008C8D9D8D0197F1F7CE01DF91CF910C9426
:1028B0007A13DC011C968D919C911D97DC01ED91A2
:1028C000FC910280F381E02D0994DC011C968D912E
:1028D0009C911D97DC01ED91FC910190F081E02D20
:1028E000099521E0892B09F420E0822F0895DC016D
:1028F0001C968D919C911D97DC01ED91FC910284B9
:10290000F385E02D0995089581E090E00895CF9337
:10291000DF93EC01E881F9810288F389E02D0995C4
:10292000811113C00E945210688779878A879B871C
:1029300086E299E00E947B168D810E9468168C8544
:102940009D85DF91CF910C947A1380E0DF91CF9138
:1029500008950C947F1A0C947F1AFC01848DDF017A
:10296000A80FB11DA35ABF4F2C91848D90E0019602
:102970008F739927848FA689B7892C93A089B189F1
:102980008C9180648C93938D848D981306C00288FB
:10299000F389E02D80818F7D808308951F920F92AF
:1029A0000FB60F9211242F933F934F935F936F9322
:1029B0007F938F939F93AF93BF93EF93FF93E09198
:1029C0001902F0911A02309709F451C0968DA6852C
:1029D000B785858591FF04C09C91892329F447C060
:1029E0009C91892309F043C0A389B4899C9185896E
:1029F000809589238C93868997890197F1F7608D5B
:102A0000718DA685B785558538E020E0CB0101970B
:102A1000F1F7822F90E095958795282F4C914523CB
:102A200009F02068315091F7868D81FD20958091C5
:102A3000170290E001968F7199273091180238178C
:102A400049F0A0911702B0E0A950BE4F2C9380939B
:102A5000170203C0868D8160868F828D938D0197CA
:102A6000F1F7A389B4899C918589892B8C93FF9177
:102A7000EF91BF91AF919F918F917F916F915F91F6
:102A80004F913F912F910F900FBE0F901F9018956F
:102A900027E331E0DC0111963C932E9316968D913D
:102AA0009C911797009739F0DC01ED91FC91028021
:102AB000F381E02D09940895CF93DF93EC010E94F8
:102AC0004815CE01DF91CF910C947F1ACF93DF93FD
:102AD000C091F101D091F2012097B1F0E881F98124
:102AE0000480F581E02DCE010995019749F4E88134
:102AF000F9810288F389E02DCE01099581112BC05F
:102B00000A80DB81C02DE8CFC091F101D091F201A4
:102B10002097A9F0E881F9810480F581E02DCE01AC
:102B20000995019741F4E881F9810684F785E02D44
:102B3000CE01099510C00A80DB81C02DE9CF87E165
:102B400099E00E949C160E94DA198BE192E00E94A3
:102B5000140E0E94861BCE01DF91CF910895DC01F7
:102B600012968D919C911397DC01ED91FC9102845A
:102B7000F385E02D44E050E060E071E00994DC0171
:102B800012968D919C911397DC01ED91FC9102843A
:102B9000F385E02D44E050E064E071E00994DC014D
:102BA00012968D919C911397DC01ED91FC9102841A
:102BB000F385E02D099408950895CF93DF93EC01F8
:102BC0008FE291E0998388838C819D81009739F011
:102BD000DC01ED91FC910280F381E02D09958E815D
:102BE0009F81009749F0DC01ED91FC910280F38117
:102BF000E02DDF91CF910994DF91CF910895CF938C
:102C0000DF93EC010E94DD15CE01DF91CF910C9492
:102C10007F1ADC011696ED91FC91179786819781BA
:102C2000009711F40E94861B0895009769F0FC013B
:102C300001900020E9F73197AF01481B590BBC0107
:102C40008BE192E00C94650D80E090E008958F9206
:102C50009F92AF92BF920F931F93CF93DF93CDB705
:102C6000DEB7A1970FB6F894DEBF0FBECDBF19A295
:102C7000423008F44AE08E010F5D1F4F842E912CE4
:102C8000A12CB12CA50194010E942B1BE62FB901A8
:102C9000CA0101501109EA3014F4E05D01C0E95C99
:102CA000D801EC93232B242B252B61F7C8010E941C
:102CB0001516A1960FB6F894DEBF0FBECDBFDF91FB
:102CC000CF911F910F91BF90AF909F908F900895DB
:102CD000CF93DF93682F70E080E090E04AE00E949D
:102CE0002716EC0185EC91E00E9415168C0F9D1FB4
:102CF000DF91CF9108950F931F93CF93DF938C01B2
:102D0000C0E0D0E0F801EC0FFD1F6491662371F084
:102D1000E0911B02F0911C020190F081E02D8BE10B
:102D200092E00995892B11F02196ECCFCE01DF912D
:102D3000CF911F910F910895CF93DF930E947B163F
:102D4000EC0185EC91E00E9415168C0F9D1FDF9120
:102D5000CF910895682F70E080E090E04AE00C94F5
:102D60002716CF93DF934AE00E942716EC0185ECEB
:102D700091E00E9415168C0F9D1FDF91CF91089551
:102D8000282FE091BC02F091BD0280E090E03097E6
:102D900051F0211105C001960584F685E02DF7CF8D
:102DA00030853217C1F30895CF93DF93BC0180E0E3
:102DB00090E04AE00E942716EC0185EC91E00E9429
:102DC00015168C0F9D1FDF91CF910895CF92DF9242
:102DD000EF92FF92CF93DF936B017C01E0911B0296
:102DE000F0911C020190F081E02D6DE28BE192E008
:102DF0000995EC0166277727CB016C197D098E09AF
:102E00009F094AE00E9427168C0F9D1FDF91CF91EA
:102E1000FF90EF90DF90CF900895CF93DF93BC01A8
:102E2000990F880B990B97FF03C00E94E61603C009
:102E30004AE00E942716EC0185EC91E00E941516ED
:102E40008C0F9D1FDF91CF910895CF93DF9300D01A
:102E5000CDB7DEB7789484B5826084BD84B58160D7
:102E600084BD85B5826085BD85B5816085BD809155
:102E70006E00816080936E001092810080918100CD
:102E800082608093810080918100816080938100C5
:102E9000809180008160809380008091B100846087
:102EA0008093B1008091B00081608093B0008091E8
:102EB0007A00846080937A0080917A0082608093A7
:102EC0007A0080917A00816080937A0080917A0004
:102ED000806880937A001092C100E0912B02F091FB
:102EE0002C0282E08083E0912702F0912802108278
:102EF000E0912902F0912A028FEC80831092330234
:102F0000E0912F02F091300286E08083E0912D0263
:102F1000F0912E02808180618083E0912D02F091FA
:102F20002E02808188608083E0912D02F0912E0234
:102F3000808180688083E0912D02F0912E02808153
:102F40008F7D80838CEC95E00E949C1685EB95E04C
:102F50000E949C168BE08093F0018EE090E00E942E
:102F6000EA198C0187E391E0D80111969C938E9326
:102F700013961C921E92129714961C9214971796F1
:102F80001C921E921697F8011086118612861386DF
:102F90008AE08583E091F101F091F201309729F404
:102FA0001093F2010093F10108C082819381009790
:102FB00011F0FC01FACF1383028388E090E00E94B5
:102FC000EA196C018FE291E0D6018D939C9380E128
:102FD00090E00E94EA197C018FE191E0F701918372
:102FE00080831582148210861186128613861486B9
:102FF00016861586178613821282D6011596FC92C4
:10300000EE92149784E090E00E94EA19FC0187E2B6
:1030100091E09183808313821282D6011796FC93EC
:10302000EE931697D70117961C930E9316970115DA
:10303000110511F40E94861B13830283F60113838A
:10304000028389EE9BE0D70113969C938E9312978F
:10305000F801D782C6828DE090E01E969C938E93F5
:103060001D970E94EA19D70115969C938E93149789
:1030700081E691E0F801918380838FE190E00E94E6
:10308000EA197C01DC0113961C921E92129788EEBD
:1030900093E0A0E0B0E0F70184839583A683B78333
:1030A0008FE491E091838083178A168A118E108EA7
:1030B000138E128E158E148E668D6E7F6D7F668FC9
:1030C0006695617081E068278BE00E940610EFE54D
:1030D000F6E02491EBE4F6E08491882399F090E007
:1030E000880F991FFC01EC56FA4FA591B491FC0191
:1030F000EA5CF94F859194918FB7F894EC91E22BAB
:10310000EC938FBFEFE5F6E0E491D7015096EC9396
:10311000EBE4F6E0E491F0E0EE0FFF1FEA5CF94F1C
:1031200085919491F701928B818BEEE5F6E02491E5
:10313000EAE4F6E084918823C9F090E0880F991FB3
:10314000FC01EC56FA4FA591B491FC01EA5CF94FF1
:10315000459154919FB7F8948C91E22FE0958E237E
:103160008C93DA018C91E823EC939FBFF701868D55
:1031700081FD04C061E08AE00E9406108AE0D70168
:103180001C968C931C97EEE5F6E0E4911D96EC936B
:10319000EAE4F6E0E491F0E0EE0FFF1FE256FA4FAA
:1031A00085919491F70197878687D8011D96FC92A7
:1031B000EE921C971093E5010093E4011696ED91B1
:1031C000FC911797E480F58081E190E0F701968704
:1031D000858784819581009711F00E947F1AD7011D
:1031E0001D968D919C911E970E94EA19F701958377
:1031F0008483D801ED91FC910484F585E02D40E8AD
:1032000055E260E070E0C801099580ED94E090938C
:10321000DB018093DA0183EE94E09093DD018093EB
:10322000DC0182E190E00E94EA196C01E12CF12CB2
:1032300001E02AE040E061E00E949E05D092E301B7
:10324000C092E20182E190E00E94EA196C0102E082
:103250002AE040E062E00E949E05D092E101C09227
:10326000E00182E190E00E94EA196C0103E02AE0AB
:1032700040E063E00E949E05D092DF01C092DE0133
:1032800088EA95E00E947B162091D3023091D40207
:103290002115310511F427ED32E0CE010196821B94
:1032A000930B0E940D17FF24F3940E945E1000916F
:1032B000F3011091F40181E00115110549F0882313
:1032C00019F0C8010E941806F80106851785F4CF89
:1032D000882359F08091E601811109C08DEC95E0B9
:1032E0000E949C16F092E60102C01092E6010E9434
:1032F000CB12DBCF88EB92E00C947A06EBE1F2E0A4
:103300001382128288EE93E0A0E0B0E0848395837C
:10331000A683B78389E891E09183808385EC90E070
:103320009587848784EC90E09787868780EC90E08F
:10333000918B808B81EC90E0938B828B82EC90E080
:10334000958B848B86EC90E0978B868B118E128EFA
:10335000138E148EE1EDF2E010821182EFECF2E0B8
:1033600010821182EEEBF2E081EC91E09183808398
:1033700013821282E8EBF2E089EB91E09183808383
:103380001582148213821282E6ECF2E0108211821E
:1033900012821382158214821782168210860E946E
:1033A00052106093C2027093C3028093C402909340
:1033B000C5020895CF93DF9388EC91E00E94151623
:1033C000EC0185EC91E00E9415168C0F9D1FDF919A
:1033D000CF910895CF93DF938230910510F482E06E
:1033E00090E0E091D502F091D60220E030E0C0E01C
:1033F000D0E0309711F14081518148175907C0F052
:103400004817590761F482819381209719F09B83B3
:103410008A832BC09093D6028093D50226C02115B3
:10342000310519F04217530718F49A01BE01DF0164
:10343000EF010280F381E02DDCCF2115310509F188
:10344000281B390B2430310590F412968D919C91F4
:1034500013976115710521F0FB019383828304C0EA
:103460009093D6028093D502FD01329644C0FD01AF
:10347000E20FF31F81939193225031092D933C93D6
:103480003AC02091D3023091D402232B41F42091F1
:103490000A0130910B013093D4022093D302209182
:1034A0000801309109012115310541F42DB73EB7CE
:1034B00040910C0150910D01241B350BE091D3027A
:1034C000F091D402E217F307A0F42E1B3F0B28174C
:1034D000390778F0AC014E5F5F4F2417350748F08D
:1034E0004E0F5F1F5093D4024093D3028193919368
:1034F00002C0E0E0F0E0CF01DF91CF9108950F939B
:103500001F93CF93DF93009709F48CC0FC0132978F
:10351000138212820091D5021091D6020115110575
:1035200081F420813181820F931F2091D302309149
:10353000D4022817390779F5F093D402E093D30227
:1035400071C0D80140E050E0AE17BF0750F41296AA
:103550002D913C911397AD012115310509F1D90148
:10356000F3CF9D01DA013383228360817181860F5D
:10357000971F8217930769F4EC0128813981260F80
:10358000371F2E5F3F4F318320838A819B81938336
:103590008283452B29F4F093D602E093D50242C0F2
:1035A0001396FC93EE931297ED01499159919E0168
:1035B000240F351FE217F30771F480819181840F86
:1035C000951F029611969C938E93828193811396F8
:1035D0009C938E931297E0E0F0E0D80112968D91C3
:1035E0009C911397009719F0F8018C01F6CF8D91FB
:1035F0009C9198012E5F3F4F820F931F2091D30221
:103600003091D4022817390769F4309729F41092C1
:10361000D6021092D50202C0138212821093D402F5
:103620000093D302DF91CF911F910F91089597FBE3
:10363000072E16F4009407D077FD09D00E946C1B6A
:1036400007FC05D03EF4909581959F4F08957095A5
:1036500061957F4F0895A1E21A2EAA1BBB1BFD01A5
:103660000DC0AA1FBB1FEE1FFF1FA217B307E40761
:10367000F50720F0A21BB30BE40BF50B661F771FB9
:10368000881F991F1A9469F7609570958095909599
:103690009B01AC01BD01CF010895052E97FB1EF4DF
:1036A00000940E94641B57FD07D00E942B1B07FC4F
:1036B00003D04EF40C94641B5095409530952195A1
:1036C0003F4F4F4F5F4F089590958095709561954E
:1036D0007F4F8F4F9F4F0895AA1BBB1B51E107C01F
:1036E000AA1FBB1FA617B70710F0A61BB70B881F92
:1036F000991F5A95A9F780959095BC01CD01089521
:10370000EE0FFF1F0590F491E02D099481E090E009
:10371000F8940C948B1B14E0C5EAD4E004C0FE01BD
:103720000E94801B2196C63AD107C9F7F894FFCFB3
:1037300060574E450E1720290000D7028000000078
:1037400000001F054605010100000100000000DC2B
:1037500015AB1400000000DB15A91400000000DD0B
:1037600015FF150000000000000000C10DC10DC1D3
:103770000DC10DC10DC10DC10DC10D00000000EE48
:1037800012650DAC13ED1242135913D5120000004F
:103790000048155C158414771465145914C91387EF
:1037A00014BD13AF1332062E06290626067C062208
:1037B000061E061A0600000000CD0D650D900D14C2
:1037C0000EBF129F0DB30D00000000C10D650DACC2
:1037D00013AB13C10DC10DC10D00000000C10D657B
:1037E0000DAC13AB13000000007A068E060000003B
:1037F000002B0650050D0A005B70726F6772616DD9
:0A3800002061626F727465645D0060
:00000001FF
