:100000000C94B5010C94DD010C94DD010C944C0FA3
:100010000C944C0F0C944C0F0C94DD010C94DD01EE
:100020000C94DD010C94DD010C94DD010C94DD01D8
:100030000C94DD010C94DD010C94DD010C94DD01C8
:100040000C94480D0C94DD010C94E40A0C94BE0A47
:100050000C94DD010C94DD010C94DD010C94DD01A8
:100060000C94DD010C94DD014152500041525100CD
:10007000414344004352004C4956450041434B0024
:100080004E414B0075736572206D657373616765D2
:10009000206461746120202020203A00757365720D
:1000A000206D657373616765207265636569766548
:1000B00064203A00706C656173652063616C6C202C
:1000C00053797374656D2E696E697428796F7572D2
:1000D00053797374656D496429206265666F726532
:1000E00020796F7520637265617465206E6F646539
:1000F000732E0066726565207372616D203A200070
:1001000053657269616C4E6F64653A3A6F6E4D6506
:1001100073736167653E20726F756E6420747269D7
:10012000702074696D65203A2000203C3C3C3C20E6
:100130000020203C3C3C200053657269616C4E6F8E
:1001400064653A3A6F6E4D6573736167653E206E04
:100150006F6465203A2000554E4B4F574E5F434D1C
:1001600044002077616974656420666F72203A20CC
:100170000053657269616C4E6F64653A3A777269D3
:100180007465546F506F72743E2077616974696E44
:100190006720656E642C206E6F6465203A200053E2
:1001A000657269616C4E6F64653A3A77726974651D
:1001B000546F506F72743E77616974696E67207412
:1001C0006F6F206C6F6E67202C64656C6574696E50
:1001D000672061636220616B746964203A20006665
:1001E000726565207372616D203A20002061636240
:1001F00020636F756E743A200053657269616C4EAE
:100200006F64653A3A7772697465546F506F7274AF
:100210003E2077616974696E6720666F722072652F
:10022000706C696573206F6E20706F72743A200075
:1002300053657269616C4E6F64653A3A777269749E
:1002400065546F506F72743E2077616974696E6790
:1002500020666F72207265706C696573206F6E2006
:100260006F7468657220736F66742073657269615C
:100270006C20706F72742C202063616E63656C2C2F
:100280002061636220636F756E743A20005365725B
:1002900069616C4E6F64653A3A7772697465546F40
:1002A000506F72743E20474C454943484552204C9C
:1002B000495354454E4552203F00203E3E3E20705B
:1002C0006F72743A200020203E3E3E20006E6F6424
:1002D00065203A200000000000240027002A0000CA
:1002E00000000023002600290066726565207372F5
:1002F000616D203A200053657269616C4E6F6465D0
:100300003A3A70726F636573734E6F6465733E2023
:100310006E6F206E6F64657320666F756E6400008B
:10032000000000250028002B000404040404040439
:100330000402020202020203030303030301020494
:100340000810204080010204081020010204081057
:100350002000000008000201000003040700000064
:10036000000000000000B814B41411241FBECFEF29
:10037000D8E0DEBFCDBF11E0A0E0B1E0E4EAFDE2ED
:1003800002C005900D92AA3DB107D9F722E0AAED6F
:10039000B1E001C01D92A73FB207E1F711E0C4EB45
:1003A000D1E004C02197FE010E94BA16C33BD107D9
:1003B000C9F70E9409110C94C5160C940000DC01C9
:1003C0001296ED91FC91139782E084830895CF9269
:1003D000DF92EF92FF920F931F93CF93DF936C0105
:1003E0008B017A01E9018CE990E00E94780BEA81A7
:1003F000FB81618170E080E090E04AE00E94280B80
:1004000085EC91E00E94160B84E890E00E94780B46
:10041000D8016D917D918D919C910E94690BF6019F
:1004200086819781863F910569F4EA81FB81D60137
:1004300014964D915C911597218167EF70E0CE0184
:100440000E94060CDF91CF911F910F91FF90EF90CA
:10045000DF90CF9008950C94B915DC0182E191E012
:1004600011969C938E931E962D913C911F9721156A
:10047000310589F0E0912402F0912502309759F07E
:1004800086859785009729F08A179B0711F0FC0154
:10049000F5CF3787268712968D919C9113970097F9
:1004A00011F00C94B9150895CF93DF93EC010E94DD
:1004B0002D02CE01DF91CF910C94B915EF92FF92EE
:1004C0000F931F93CF93DF93EC01EA81FB8181E0CF
:1004D0008483EA81FB8185818823C9F0E0911E0233
:1004E000F0911F02309711F0CE010995EA81FB814E
:1004F0008481823061F4E12CF12C00E010E020E0F6
:1005000040E050E063EF70E0CE010E94060CDF9106
:10051000CF911F910F91FF90EF900895CF92DF92AE
:10052000EF92FF920F931F93CF93DF9300D01F9210
:10053000CDB7DEB76C0182E191E0D60111969C93B4
:100540008E9313961C921E921297F60114821582B6
:100550001682178218961D921D921D921C921B974F
:100560001D961C921E921C971F961C921E921E97FF
:1005700051961C921E9250971091310211110CC08D
:1005800084EB90E00E94F80B0E94141582E392E045
:100590000E94780A0E94C016F601F18AE08A86E07D
:1005A00090E02B834A8369830E942415FC0186E036
:1005B000DF011D928A95E9F7D6011396FC93EE931D
:1005C00012971083698161832B81228303834A817F
:1005D0004583E0912402F0912502309731F0868521
:1005E0009785009739F0FC01F8CFD0922502C09290
:1005F000240202C0D786C6860F900F900F90DF911D
:10060000CF911F910F91FF90EF90DF90CF900895C1
:10061000DC0150962D913C915197232B41F012967D
:10062000ED91FC91139781E09481943009F080E082
:1006300008950895FC0184819581009751F0FC0193
:10064000208131812617370721F0FC0185859685A9
:10065000F4CF0895CF93DF93EC010E941A03009723
:1006600099F1FC0145855685EC81FD8141155105C7
:10067000A1F08E179F0721F45D834C8321C0F901FF
:100680003097F1F02585368521153105C9F02817F9
:100690003907A9F75687458713C08E179F0721F49E
:1006A0001D821C820DC0F901309751F025853685D9
:1006B0002115310529F028173907A9F7168615865F
:1006C0000E94B91581E001C080E0DF91CF910895CB
:1006D000CF93DF93EC0189EB91E099838883EC81E0
:1006E000FD81309731F060817181CE010E942A0333
:1006F000F6CFDF91CF910895CF93DF93EC010E9465
:100700006803CE01DF91CF910C94B915FC01908163
:10071000DB018C91981305C081E0218111969C9199
:10072000291380E008952F923F924F925F926F922B
:100730007F928F929F92AF92BF92CF92DF92EF9271
:10074000FF920F931F93CF93DF93CDB7DEB72C9714
:100750000FB6F894DEBF0FBECDBF2C017B015C83CA
:100760004B833E832D838DEC92E00E94780BD70162
:1007700011966C9170E080E090E04AE00E94280BB6
:1007800086EC92E00E94780BF70186819781805F6A
:1007900091098830910540F4880F991FFC01EA5EA9
:1007A000FE4F8081918102C087E591E00E94780B25
:1007B0008AEB92E00E94780BD80115966C9170E05C
:1007C00080E090E04AE00E94280B85EC91E00E94D6
:1007D000160BD801ED91FC910480F581E02DC80144
:1007E0000995019799F4D801ED91FC910288F3895C
:1007F000E02DC8010995811109C025C1F601858147
:100800000E94AB0B3C01892B09F02FC1D801ED915F
:10081000FC910288F389E02DC8010995811116C069
:10082000F70186819781825F91098530910570F487
:10083000FC01EA5DFE4F8081882341F0D801ED91F3
:10084000FC910684F785E02DC8010995E114F104B7
:1008500011F40E94C016F701928180819817C9F3A4
:1008600084819581892B09F0C3C08091D102909138
:10087000D202019621F41092D2021092D10220905D
:10088000D1023090D2022FEF221A320A3092D202D5
:100890002092D102D70115963C922E92149716966B
:1008A000AD90BC901797C501825F91098530910585
:1008B00008F09EC0FC01EA5DFE4F2081222309F46E
:1008C00097C02091D3022F832091D40228870397C9
:1008D00008F0A5C1CF80D22E370182E0680E711CCE
:1008E000C114D10409F49BC1D60112968C9190E0F9
:1008F0008A159B0571F4B701C60103960E94860311
:10090000882339F0B301C60105960E948603811140
:1009100081C1F601C584D684E3CFD3011D968D91A4
:100920009C911E97009721F03C0161147104A9F776
:100930008FE090E00E9424156C018FE0F601119287
:100940008A95E9F7D60113961C92139714961C9278
:10095000149715961C92159716961C9261147104A3
:1009600009F060C1D092D402C092D302D60112968F
:10097000AC921297F7018081918114969C938E938B
:1009800013978281938116969C938E9315972320BB
:10099000209421F41092D2021092D1028091D102BF
:1009A0009091D20201969093D2028093D102D60107
:1009B0008D939C93F701958384830E943C0DD6010F
:1009C00019966D937D938D939C931C97F701848169
:1009D00095818D939C93D80115968C91F601808713
:1009E000D70114968D919C911597F2019587848774
:1009F000C8010E94FD100E943410C8010E94FD1021
:100A000049E050E0B7010E9444108B819C81892B02
:100A100069F0AD81BE81AB2B49F0C8010E94FD1089
:100A20004D815E816B817C810E944410C8010E94CF
:100A3000FD100E9424105092230240922202F701DE
:100A400084819581F3C00E94E40F6C0180179107A7
:100A500009F0D4CE8DE892E00E94F80B0E941415A4
:100A600082E392E00E94780AF4CED70116968D9127
:100A70009C911797823F910551F480E392E00E9488
:100A8000780BC3010E94990B80E090E0CFC0863FB5
:100A9000910509F0BBCE89EF91E00E94780BF60139
:100AA000658170E080E090E04AE00E94280B8CEEC7
:100AB00091E00E94780BC3010E94990B8FED91E0A9
:100AC0000E94780B2091F3023091F4022115310538
:100AD00011F427EF32E0CE010196821B930B0E94A6
:100AE000BF0B0E943C0D4B015C01D601ED91FC91C6
:100AF0000684F785E02DC6010995D601ED91FC919C
:100B00000088F189E02DC60109951816190654F4DC
:100B1000D6011696ED91FC911797848195810E94DC
:100B20005110EBCFF60185810E94AB0B3C010E9476
:100B30003C0DDC01CB0188199909AA09BB09813355
:100B40009547A105B105F0F1D60115967C900E945C
:100B50003C0DE091D302F091D402309739F08085BA
:100B6000871521F00584F685E02DF7CF6F013097CA
:100B7000C1F08085871111C04185528563857485D8
:100B8000D60119968D919D910D90BC91A02D48177D
:100B900059076A077B0708F46F010584F685E02D85
:100BA000E6CF8FE991E00E94780BF6018081918178
:100BB0000E94990BD6016D917C918FEC92E00E947E
:100BC0002A0303C0672809F098CF81E791E00E94CB
:100BD000780BD2011296ED91FC911397618170E030
:100BE00080E090E04AE00E94280B82E691E00E94BB
:100BF000780B0E943C0D681979098A099B090E94AB
:100C0000690BD801ED91FC910684F785E02DC801B0
:100C10000995FCCD82E0D60117968C93CECE6F80DD
:100C2000788483CEF301D686C586A0CE2C960FB6E7
:100C3000F894DEBF0FBECDBFDF91CF911F910F9112
:100C4000FF90EF90DF90CF90BF90AF909F908F90EC
:100C50007F906F905F904F903F902F9008952F92CC
:100C60003F924F925F926F927F928F929F92AF923C
:100C7000BF92CF92DF92EF92FF920F931F93CF9389
:100C8000DF9300D0CDB7DEB76C015B012A013901DB
:100C90004801672B11F40E94C016452B19F0232B35
:100CA00019F4F9CF232BB9F781149104A1F3D601DC
:100CB0001296ED91FC9113979281809131029817D1
:100CC00051F30E943C0DF6016483758386839783FC
:100CD000D5011696ED90FC901797C6010E94080367
:100CE000182F88E391E00E94780BD6011296ED91BF
:100CF000FC911397618170E080E090E04AE00E94EF
:100D0000280B81E391E00E94780B1701B0EF2B1ABA
:100D10003108E8E02E16310440F4F101EE0FFF1F18
:100D2000EA5EFE4F8081918102C087E591E00E94DA
:100D3000780B8AE291E00E94F80B111109C0F2E0F1
:100D40002F16310428F083EFE816F10409F065C18D
:100D5000A3EFEA16F10431F1ACF4E0EFEE16F10482
:100D600009F4F2C024F4EF2809F457C153C181EF0C
:100D7000E816F10409F49DC0A2EFEA16F10409F4A3
:100D80007DC048C1B7EFEB16F10434F4E5EFEE1681
:100D9000F1040CF461C0F5C0F7EFEF16F10409F4AB
:100DA0007CC038C1D6011296ED91FC9113978581D4
:100DB000811144C0E0911E02F0911F02309711F0A2
:100DC000C6010995D6011296ED91FC911397848185
:100DD000823009F022C18281811106C0D5018D9136
:100DE0009C919383828314C0B501CF0102960E9427
:100DF000860381110DC0F50144815581E12CF12C50
:100E000000E010E020E060EF70E0C6010E94060CF8
:100E1000D60151969C928E9250971296ED91FC912C
:100E2000139784E084831296ED91FC911397D5017A
:100E30008D919C9111979383828323C0F501448106
:100E40005581E12CF12C00E010E020E060EF70E033
:100E5000C6010E94060CA2C0112381F3D50114968D
:100E60004D915C911597E12CF12C00E010E020E011
:100E700061EF70E0C6010E94060C5FC01123F1F221
:100E8000D50114964D915C911597E12CF12C00E061
:100E900010E020E061EF70E0DBCFF5016481758147
:100EA0008FEC92E00E941A037C01892B09F06BC041
:100EB000B4C0D50114966D917C9115978FEC92E09A
:100EC0000E941A037C01009709F4A7C0FC018281EB
:100ED000843F99F1863F09F456C0833F09F05EC014
:100EE000D60151969C928E92509712966D907C905E
:100EF0001397F3018581882309F450C0C6010E942D
:100F0000080381114BC0D30114968C911497823041
:100F100009F044C0F5018081918113969C938E93D2
:100F20001297D6011296ED91FC91139784E0848379
:100F300051969C928E92509731C0F601118A108A78
:100F40000280F381E02D1AC0D50114966D917C9139
:100F500015978FEC92E00E941A037C01009709F428
:100F60005CC0FC018281833F21F0863F61F0823FBB
:100F7000A9F4D6011296ED91FC91139783E0848336
:100F80000DC0E12CF12CE0912002F091210230976C
:100F900029F09601A301B201C5010995E114F104FC
:100FA000E1F180E091E00E94780B0E943C0DF70196
:100FB000C184D284E384F4846C197D098E099F096D
:100FC0000E94690B80E00E94AB0B7C01D501149656
:100FD0006D917C9115978FEC92E00E942A0380E03E
:100FE0000E94AB0B8E159F0508F055CE83EF90E065
:100FF0000E94780B2091F3023091F4022115310503
:1010000011F427EF32E0CE010196821B930B0E9470
:10101000BF0B03C0E12CF12CC1CF0F900F90DF91DB
:10102000CF911F910F91FF90EF90DF90CF90BF90E5
:10103000AF909F908F907F906F905F904F903F9078
:101040002F9008954F925F926F927F928F929F920E
:10105000AF92BF92CF92DF92EF92FF920F931F93C6
:10106000CF93DF9300D0CDB7DEB72C016B018A019F
:10107000892B11F40E94C0166930710520F09B0184
:101080002950310902C020E030E0D20112968C9143
:101090001297882309F43FC190913102891342C00D
:1010A000E0902402F0902502E114F10419F3139664
:1010B0008C918823C9F06201B2E0CB0ED11CB6013D
:1010C000F7018281938129833A830E9486032981D3
:1010D0003A8181118BC0D7011E96ED90FC901F972D
:1010E000E114F10461F717C1F20186819781833F12
:1010F000910509F010C1D7011296ED91FC9113975B
:101100008581811169C08481823009F065C0828146
:10111000882321F0D2019C9189135EC083818111C3
:101120005BC064C0F2012081291709F4F4C0E0908B
:101130002F02F0903002F701309739F0958198171F
:1011400059F10280F381E02DF7CFC2010E94A40C77
:101150005C01892B09F45EC04501F2E08F0E911C01
:10116000B201C4010E94860395012C5F3F4F3901F3
:10117000882309F449C0B2016E5F7F4FC9010E9404
:101180008603882309F440C0D5011896ED91FC919F
:101190001997309709F43EC0CF010E94FD108C01D1
:1011A0000E943410A601B201C8010E944410C80177
:1011B0000F900F90DF91CF911F910F91FF90EF90C3
:1011C000DF90CF90BF90AF909F908F907F906F9067
:1011D0005F904F900C942410D7011E96ED90FC90D8
:1011E0001F97E114F10409F086CF95C02115310550
:1011F00041F0A201475F5F4FB201C7010E942F0675
:101200008AC040E050E0F8CFB201C3010E948603DB
:1012100081116DC0D20116968D919C911797833FD5
:10122000910509F078C08090D7029090D802F4011F
:10123000309721F00284F385E02DFACFA114B10498
:1012400061F0F20184819581D50111969C938E9372
:1012500019961C921E9218972EC08CE090E00E9466
:101260002415FC018CE0DF011D928A95E9F71282BA
:101270001382148215828114910409F447C0D401A9
:101280001A968D919C911B97009711F04C01F3CF0A
:10129000D4011B96FC93EE931A97D2018D919C91E9
:1012A0001197938382831783068314968D919C9163
:1012B000159791838083E114F10469F1D7011596A4
:1012C0009C91F8018581981731F1C7010E94FD10AA
:1012D0005C010E943410A601B201C5010E944410B5
:1012E000C5010E942410F701E280F380E4CFB2012F
:1012F0006E5F7F4FC4010E948603882309F48ACF62
:10130000D5011696ED91FC91179743CFF093D80233
:10131000E093D702C2CF0F900F90DF91CF911F9132
:101320000F91FF90EF90DF90CF90BF90AF909F9084
:101330008F907F906F905F904F900895CF92DF9243
:10134000EF92FF920F931F93CF93DF936C017A017B
:101350008B01C0E0D0E0CE15DF0589F0D8016D919A
:101360008D01D601ED91FC910190F081E02DC60137
:101370000995892B11F47E0102C02196ECCFC7019B
:10138000DF91CF911F910F91FF90EF90DF90CF9061
:101390000895FC01538D448D252F30E0842F90E07B
:1013A000821B930B541710F0CF9608950197089560
:1013B000FC01918D828D981761F0828DDF01A80F5D
:1013C000B11D5D968C91928D9F5F9F73928F90E07F
:1013D00008958FEF9FEF0895FC01918D828D9817EE
:1013E00031F0828DE80FF11D858D90E008958FEF2B
:1013F0009FEF0895FC01918D228D892F90E0805CF4
:101400009F4F821B91098F739927089582E392E081
:101410000E94FA0921E0892B09F420E0822F089527
:10142000FC01848DDF01A80FB11DA35ABF4F2C9181
:10143000848D90E001968F739927848FA689B78950
:101440002C93A089B1898C9180648C93938D848D29
:10145000981306C00288F389E02D80818F7D8083F8
:101460000895EF92FF920F931F93CF93DF93EC01B8
:1014700081E0888F9B8D8C8D981305C0E889F98950
:10148000808185FD24C0F62E0B8D10E00F5F1F4F6D
:101490000F731127E02E8C8DE8120CC00FB607FCDD
:1014A000FACFE889F989808185FFF5CFCE010E94C6
:1014B000100AF1CF8B8DFE01E80FF11DE35AFF4FAB
:1014C000F0820B8FEA89FB898081806207C0EE89F8
:1014D000FF896083E889F98980818064808381E065
:1014E00090E0DF91CF911F910F91FF90EF900895C1
:1014F000CF93DF93EC01888D8823C9F0EA89FB89BB
:10150000808185FD05C0A889B9898C9186FD0FC0B1
:101510000FB607FCF5CF808185FFF2CFA889B98986
:101520008C9185FFEDCFCE010E94100AE7CFDF91AD
:10153000CF91089580E090E0892B29F00E94060A5F
:1015400081110C940000089520911C0230911D021D
:101550002817390771F490911B0280911A0298178D
:1015600041F0E0911B02F0E0E652FE4F808190E0F6
:1015700008958FEF9FEF08950E94C0161F920F925B
:101580000FB60F9211242F933F934F935F936F9356
:101590007F938F939F93AF93BF93EF93FF9382E3D8
:1015A00092E00E94100AFF91EF91BF91AF919F913D
:1015B0008F917F916F915F914F913F912F910F90FC
:1015C0000FBE0F901F9018951F920F920FB60F929B
:1015D00011242F938F939F93EF93FF93E0914202F7
:1015E000F09143028081E0914802F091490282FD2E
:1015F00012C0908180914B028F5F8F7320914C02BB
:10160000821751F0E0914B02F0E0EE5CFD4F958FB8
:1016100080934B0201C08081FF91EF919F918F9148
:101620002F910F900FBE0F901F901895009769F0A3
:10163000FC0101900020E9F73197AF01481B590BDD
:10164000BC0182E392E00C949E0980E090E0089552
:101650008F929F92AF92BF920F931F93CF93DF937E
:10166000CDB7DEB7A1970FB6F894DEBF0FBECDBFE2
:1016700019A2423008F44AE08E010F5D1F4F842EFC
:10168000912CA12CB12CA50194010E946516E62F86
:10169000B901CA0101501109EA3014F4E05D01C03A
:1016A000E95CD801EC93232B242B252B61F7C8018F
:1016B0000E94160BA1960FB6F894DEBF0FBECDBFE9
:1016C000DF91CF911F910F91BF90AF909F908F901E
:1016D0000895CF93DF934AE00E94280BEC0185EC3C
:1016E00091E00E94160B8C0F9D1FDF91CF91089502
:1016F0000F931F93CF93DF938C01C0E0D0E0F801EC
:10170000EC0FFD1F6491662371F0E0913202F091BD
:1017100033020190F081E02D82E392E00995892B5C
:1017200011F02196ECCFCE01DF91CF911F910F9157
:101730000895CF93DF93BC0180E090E04AE00E94DF
:10174000280BEC0185EC91E00E94160B8C0F9D1F7D
:10175000DF91CF910895282FE091D302F091D40228
:1017600080E090E0309751F0222319F03085321359
:1017700001C001960584F685E02DF4CF0895CF923F
:10178000DF92EF92FF92CF93DF936C01990FEE08F7
:10179000FF08F7FE1AC0E0913202F0913302019087
:1017A000F081E02D6DE282E392E00995EC0166277D
:1017B0007727CB016C197D098E099F094AE00E94A9
:1017C000280B7C01EC0EFD1E06C04AE0C701B601E5
:1017D0000E94280B7C0185EC91E00E94160B8E0D77
:1017E0009F1DDF91CF91FF90EF90DF90CF900895F4
:1017F000CF93DF930E94780BEC0185EC91E00E947F
:10180000160B8C0F9D1FDF91CF9108956F927F92E1
:101810008F929F92AF92BF92CF92DF92EF92FF9200
:101820000F931F93CF93DF93CDB7DEB72A970FB6F1
:10183000F894DEBF0FBECDBF5C013B0148011982A9
:101840001A821B821C821E821D8218861F821986A4
:10185000FC01C280D38080913102F60192819813FD
:1018600002C00E94C016F6019481943059F0633F83
:10187000710541F0605F71096230710518F080E018
:1018800090E04DC089834115510549F05E834D8339
:10189000C5012A870E9408032A85882381F3F6015F
:1018A000828193819C838B83F601808191819A83CD
:1018B000898378866F822987F5010089118901154E
:1018C000110581F48B81C0902F02D0903002F60177
:1018D00003C00280F381E02D309769F09581981361
:1018E000F8CF8F019701A401BE016F5F7F4FC50143
:1018F0000E94930312C0C114D10409F2860197011A
:10190000A401BE016F5F7F4FC5010E949303F601E2
:10191000C280D380C114D10489F78D819E812A961B
:101920000FB6F894DEBF0FBECDBFDF91CF911F91F0
:101930000F91FF90EF90DF90CF90BF90AF909F906E
:101940008F907F906F900895CF92DF92EF92FF92E9
:101950000F931F93CF93DF938C01C091D702D09147
:10196000D8027C0182E0E80EF11C209761F18E81A3
:101970009F81892B21F188859985892B01F16E0141
:1019800082E0C80ED11CB801C6010E9486038111F5
:1019900006C0B701C6010E948603882381F06E014C
:1019A00084E0C80ED11CB801C6010E9486038111D3
:1019B0000DC0B701C6010E948603811107C00A84C9
:1019C000DB85C02DD2CF80E090E001C0CE01DF9159
:1019D000CF911F910F91FF90EF90DF90CF900895DE
:1019E00090E0FC01EF5AFC4F3491FC01E35CFC4FAA
:1019F0002491FC01E75DFC4FE491EE2309F43BC028
:101A0000332339F1333091F038F43130A9F03230EA
:101A100001F584B58F7D12C0373091F03830A1F0D8
:101A20003430B9F4809180008F7D03C080918000B4
:101A30008F77809380000DC084B58F7784BD09C0F7
:101A40008091B0008F7703C08091B0008F7D80932C
:101A5000B000F0E0EE0FFF1FE15EFC4FA591B491E6
:101A60008FB7F894EC91611103C020952E2301C02B
:101A70002E2B2C938FBF08952FB7F8946091DE0220
:101A80007091DF028091E0029091E1022FBF0895F2
:101A90001F920F920FB60F9211242F933F938F93A3
:101AA0009F93AF93BF938091DE029091DF02A0914C
:101AB000E002B091E1023091DD0223E0230F2D37E7
:101AC00020F40196A11DB11D05C026E8230F029642
:101AD000A11DB11D2093DD028093DE029093DF02F1
:101AE000A093E002B093E1028091D9029091DA02D2
:101AF000A091DB02B091DC020196A11DB11D809383
:101B0000D9029093DA02A093DB02B093DC02BF917A
:101B1000AF919F918F913F912F910F900FBE0F909A
:101B20001F90189508951F93CF93DF93DC015C9667
:101B30002D913C915D972115310539F481E090E0BC
:101B400013969C938E9312973DC05196ED91FC9104
:101B5000529750969C915097892F80951FB75E960B
:101B60004C915E9741FB772770F941FD6095F894A1
:101B70004081772311F0492B01C048234083E901BC
:101B80002197F1F748E0508160FF02C0592B01C056
:101B900058235083E9012197F1F76695415099F751
:101BA000772321F090818923808303C08081982B43
:101BB00090831FBF5C968D919C915D970197F1F783
:101BC00021E030E0C901DF91CF911F91089520916C
:101BD0001C0230911D022817390771F480911A02F6
:101BE00020911B0290E0805C9F4F821B910960E472
:101BF00070E00E945116089580E090E008952091D1
:101C00001C0230911D0228173907B9F490911B026C
:101C100080911A02981789F0E0911B02F0E0E652D9
:101C2000FE4F808120911B0230E02F5F3F4F2F73CA
:101C3000332720931B0290E008958FEF9FEF0895C4
:101C4000CF93DF93FC01828D938D892B31F1A0918D
:101C50001C02B0911D02AE17BF07F9F0109751F0AA
:101C60005396CD91DC915497988155968C9180959F
:101C700089238883868D8E7F868F10921A02109218
:101C80001B02F0931D02E0931C02A389B4899C916E
:101C90008589892B8C9381E001C080E0DF91CF9111
:101CA0000895089580E090E0089521E0FC014485C6
:101CB000558580911C0290911D024817590709F023
:101CC00020E0822F0895DC011C968D919C911D9738
:101CD000DC01ED91FC910084F185E02D0994CF9316
:101CE000DF939A01AB01FC01C485D5851B8E1A8E4A
:101CF000198E188E1F8A1E8A60E079E08DE390E0CD
:101D00000E948716F9012430310518F0C9010397A4
:101D100002C081E090E09D8F8C8F6C85663108F069
:101D200069C0C901969587958431910510F0439754
:101D300002C081E090E09F8B8E8B369718F0C9012E
:101D4000059702C081E090E0998F888FC901880FC4
:101D5000991F280F391F36952795369527952D30D1
:101D6000310518F02C50310902C021E030E03B8FE2
:101D70002A8F90916800683050F021E06E3008F4AE
:101D800020E081E001C0880F2A95EAF701C084E0D5
:101D9000892B809368008C85883038F08E3040F035
:101DA000863148F020E030E008C02DE630E005C084
:101DB0002BE630E002C02CE630E03C8B2B8B8830E9
:101DC00030F491E001C0990F8A95EAF70EC0282FF0
:101DD00030E08E3018F42850310902C02E503109FD
:101DE00091E001C0990F2A95EAF79D8B8C8D9D8D0E
:101DF0000197F1F7CE01DF91CF910C94200EDC0119
:101E00001C968D919C911D97DC01ED91FC910280B7
:101E1000F381E02D0994DC011C968D919C911D9716
:101E2000DC01ED91FC910190F081E02D099521E01C
:101E3000892B09F420E0822F0895DC011C968D91F6
:101E40009C911D97DC01ED91FC910284F385E02DBE
:101E50000995089581E090E00895CF93DF93EC0118
:101E6000E881F9810288F389E02D099581110CC080
:101E70000E943C0D688779878A879B878C859D8522
:101E8000DF91CF910C94200E80E0DF91CF910895E7
:101E90000C94B9150C94B9151F920F920FB60F92AE
:101EA00011242F933F934F935F936F937F938F935F
:101EB0009F93AF93BF93EF93FF93E0911C02F09138
:101EC0001D02309709F451C0968DA685B78585858A
:101ED00091FF04C09C91892329F447C09C918923D8
:101EE00009F043C0A389B4899C9185898095892391
:101EF0008C93868997890197F1F7608D718DA685FE
:101F0000B785558538E020E0CB010197F1F7822FA6
:101F100090E095958795282F4C91452309F02068EE
:101F2000315091F7868D81FD209580911A0290E0C5
:101F300001968F73992730911B02381749F0A091B1
:101F40001A02B0E0A652BE4F2C9380931A0203C02F
:101F5000868D8160868F828D938D0197F1F7A3899D
:101F6000B4899C918589892B8C93FF91EF91BF91C6
:101F7000AF919F918F917F916F915F914F913F9121
:101F80002F910F900FBE0F901F90189527E431E00E
:101F9000DC0111963C932E9316968D919C91179788
:101FA000009739F0DC01ED91FC910280F381E02D86
:101FB00009940895CF93DF93EC010E94C60FCE01E0
:101FC000DF91CF910C94B915CF93DF93C0912F027D
:101FD000D09130022097B1F0E881F9810480F58139
:101FE000E02DCE010995019749F4E881F981028835
:101FF000F389E02DCE010995811122C00A80DB8191
:10200000C02DE8CFC0912F02D09130022097A9F0C7
:10201000E881F9810480F581E02DCE0109950197D1
:1020200041F4E881F9810684F785E02DCE01099518
:1020300007C00A80DB81C02DE9CF80E090E001C0BD
:10204000CE01DF91CF910895DC0112968D919C9184
:102050001397DC01ED91FC910284F385E02D44E0BF
:1020600050E064E071E00994DC0112968D919C913E
:102070001397DC01ED91FC910284F385E02D44E09F
:1020800050E060E071E00994DC0112968D919C9122
:102090001397DC01ED91FC910284F385E02D099406
:1020A0000895CF93DF93EC018E819F81009711F407
:1020B0000E94C016DC01ED91FC910088F189E02DB1
:1020C0000995181619060CF067C08985843080F7C9
:1020D0008885843068F78E819F81DC01ED91FC91C9
:1020E0000680F781E02D09958F879C85992391F0D3
:1020F0002A8530E04D855E852417350750F44C81E4
:102100005D81FA01E20FF31F80838A858F5F8A87E2
:1021100001C01C869F858885E82FF0E0E050FF4FC6
:102120002081921309C0833029F4188681E08C87BE
:102130001A8609C08F5F06C0188680910001981327
:1021400002C081E088878985E82FF0E0EC5FFE4FD0
:10215000208192131AC08330B1F46A8564506B8772
:10216000EA81FB81309709F4A3CF8C85882331F075
:102170004E815F8170E08C819D81099519861C8656
:102180001A8681E00AC08F5F06C01986809104011B
:10219000981302C081E0898780E0DF91CF91089594
:1021A0000895CF93DF93EC018FE391E099838883C7
:1021B0008C819D81009739F0DC01ED91FC910280CA
:1021C000F381E02D09958E819F81009749F0DC0114
:1021D000ED91FC910280F381E02DDF91CF91099484
:1021E000DF91CF910895CF93DF93EC010E94D1103E
:1021F000CE01DF91CF910C94B915DC011696ED91CB
:10220000FC91179786819781009711F40E94C01660
:102210000895CF93DF9300D0CDB7DEB7789484B51F
:10222000826084BD84B5816084BD85B5826085BDD2
:1022300085B5816085BD80916E00816080936E0060
:102240001092810080918100826080938100809152
:102250008100816080938100809180008160809303
:1022600080008091B10084608093B1008091B000C3
:1022700081608093B00080917A00846080937A00BE
:1022800080917A00826080937A0080917A008160E8
:1022900080937A0080917A00806880937A0010920F
:1022A000C100E0914202F091430282E08083E0911C
:1022B0003E02F0913F021082E0914002F091410213
:1022C0008FEC808310924A02E0914602F09147021F
:1022D00086E08083E0914402F09145028081806134
:1022E0008083E0914402F091450280818860808380
:1022F000E0914402F0914502808180688083E09102
:102300004402F091450280818F7D80838BE0809331
:1023100031028EE090E00E9424158C0187E491E068
:10232000D80111969C938E9313961C921E9212972D
:1023300014961C92149717961C921E921697F801E9
:1023400010861186128613868AE08583E0912F021B
:10235000F0913002309729F41093300200932F024D
:1023600008C082819381009711F0FC01FACF13839A
:10237000028388E090E00E9424156C018FE391E0D5
:10238000D6018D939C9380E190E00E9424157C01FE
:102390008FE291E0F7019183808315821482108689
:1023A0001186128613861486168615861786138262
:1023B0001282D6011596FC92EE92149784E090E07A
:1023C0000E942415FC0187E391E0918380831382AE
:1023D0001282D6011796FC93EE931697D7011796A3
:1023E0001C930E9316970115110509F4C1C11383AF
:1023F0000283F6011383028382E298E0D7011396E9
:102400009C938E931297F801D782C6828DE090E05C
:102410001E969C938E931D970E942415D7011596A6
:102420009C938E93149781E791E0F80191838083C8
:102430008FE190E00E9424157C01DC0113961C9230
:102440001E92129788EE93E0A0E0B0E0F70184833B
:102450009583A683B7838FE591E091838083178A64
:10246000168A118E108E138E128E158E148E668D16
:102470006E7F6D7F668F6695617081E068278BE067
:102480000E94F00CE8E4F3E02491E4E3F3E08491AB
:10249000882399F090E0880F991FFC01EB52FD4FC3
:1024A000A591B491FC01E15EFC4F859194918FB7A9
:1024B000F894EC91E22BEC938FBFE8E4F3E0E49125
:1024C000D7015096EC93E4E3F3E0E491F0E0EE0FF3
:1024D000FF1FE15EFC4F85919491F701928B818BF8
:1024E000E7E4F3E02491E3E3F3E084918823C9F087
:1024F00090E0880F991FFC01EB52FD4FA591B4911C
:10250000FC01E15EFC4F459154919FB7F8948C918A
:10251000E22FE0958E238C93DA018C91E823EC93E3
:102520009FBFF701868D81FD04C061E08AE00E94B3
:10253000F00C8AE0D7011C968C931C97E7E4F3E03B
:10254000E4911D96EC93E3E3F3E0E491F0E0EE0F09
:10255000FF1FE152FD4F85919491F7019787868780
:10256000D8011D96FC92EE921C9710932D020093B9
:102570002C021696ED91FC911797E480F58081E18D
:1025800090E0F7019687858784819581009711F007
:102590000E94B915D7011D968D919C911E970E949E
:1025A0002415F70195838483D801ED91FC9104846F
:1025B000F585E02D40E855E260E070E0C80109953E
:1025C0008FED91E090931F0280931E0287EE91E0C1
:1025D000909321028093200282E190E00E942415D2
:1025E0006C01E12CF12C01E02AE040E061E00E9466
:1025F0008E02D0922B02C0922A0282E190E00E94C9
:1026000024156C0102E02AE040E062E00E948E02A4
:10261000D0922902C092280282E190E00E94241503
:102620006C0103E02AE040E063E00E948E02D09259
:102630002702C092260289EE92E00E94780B209138
:10264000F3023091F4022115310511F427EF32E045
:10265000CE010196821B930B0E94BF0BBB24B39447
:102660008091220290912302892B41F480912402CF
:10267000909125029093230280932202E0912F02F1
:10268000F091300280E0309729F08F5F0280F38173
:10269000E02DF9CF8230A0F10E94E40FFC0185818A
:1026A0000E94AB0BA0912202B0912302882319F162
:1026B000AD01609124027091250250968D919C91FC
:1026C0005197FD010684F785E02D309709F4FB0151
:1026D000009761F0208931892115310539F02817DB
:1026E000390709F424C1EA17FB0761F74093220276
:1026F000509323020FC01E968D919C911F9706C088
:10270000E0912202F091230286859785909323021F
:10271000809322028091220290912302892B41F41E
:1027200080912402909125029093230280932202AB
:10273000E0912202F091230280899189009739F07B
:10274000DC01ED91FC910684F785E02D0995C090A0
:102750002202D0902302C114D10461F486EF92E0EA
:102760000E94F80B0E94141582E392E00E94780AFE
:102770000E94C0160E943C0D2B013C01F601808591
:102780009185A285B3850097A105B10571F0A301DC
:102790009201281B390B4A0B5B0BDA01C901883EF9
:1027A0009340A105B10508F46AC0C6010E94080360
:1027B000882309F4BEC0D6011296ED91FC911397BF
:1027C00085818823C1F11C966D917C911D978FECBA
:1027D00092E00E941A038C01892BD1F00E943C0DDB
:1027E000F8012185328543855485DC01CB01821BAC
:1027F000930BA40BB50B81349F41A105B105D8F013
:10280000D8016D917C918FEC92E00E942A0391C0D7
:102810000E943C0DF6010481158126813781DC017F
:10282000CB01801B910BA20BB30B81319742A10509
:10283000B10508F07EC0D6011296ED91FC91139778
:1028400085818823A9F00E943C0DD60114960D9134
:102850001D912D913C911797DC01CB01801B910BB1
:10286000A20BB30B813A9F40A105B10508F065C0EA
:10287000D60118964D925D926D927C921B970091B5
:102880002F02109130020115110509F471CFD80102
:102890001696ED91FC91179784819581892B09F407
:1028A00067CFED91FC910088F189E02DC801099571
:1028B00018161906C4F0F8010281138101151105DB
:1028C00031F7009124021091250281E01FC0D80148
:1028D0001696ED91FC91179784819581009709F4E4
:1028E00047CF0E945110D801ED91FC910088F189E9
:1028F000E02DC8010995892B51F7DDCF882319F008
:10290000C8010E940803F801068517850115110505
:10291000A9F7882339F080912E02811105C0B09269
:102920002E0202C010922E020E949A0A99CEAF0186
:10293000DDCEC6010E945E029BCFF60164857585DF
:102940008FEC92E00E941A03892B09F091CFE12CC1
:10295000F12C00E010E020E040E050E062EF70E099
:10296000C6010E94060C84CF8FEC92E00C946803A1
:10297000E2E3F2E01382128288EE93E0A0E0B0E09E
:1029800084839583A683B78389E891E091838083CC
:1029900085EC90E09587848784EC90E09787868724
:1029A00080EC90E0918B808B81EC90E0938B828B1C
:1029B00082EC90E0958B848B86EC90E0978B868BF5
:1029C000118E128E138E148EE1EFF2E010821182BE
:1029D000EFEEF2E010821182E5EDF2E081EC91E0A1
:1029E0009183808313821282EFECF2E089EB91E015
:1029F000918380831582148213821282E6EEF2E0C4
:102A0000108211821282138215821482178216821A
:102A100010860E943C0D6093E2027093E302809363
:102A2000E4029093E5020895CF93DF9388EC91E060
:102A30000E94160BEC0185EC91E00E94160B8C0FA6
:102A40009D1FDF91CF910895CF93DF938230910541
:102A500010F482E090E0E091F502F091F60220E0BF
:102A600030E0C0E0D0E0309711F14081518148174B
:102A70005907C0F04817590761F482819381209764
:102A800019F09B838A832BC09093F6028093F50202
:102A900026C02115310519F04217530718F49A0181
:102AA000BE01DF01EF010280F381E02DDCCF2115B3
:102AB000310509F1281B390B2430310590F41296A9
:102AC0008D919C9113976115710521F0FB01938302
:102AD000828304C09093F6028093F502FD01329642
:102AE00044C0FD01E20FF31F8193919322503109FD
:102AF0002D933C933AC02091F3023091F402232BA2
:102B000041F420910A0130910B013093F40220939B
:102B1000F30220910801309109012115310541F49A
:102B20002DB73EB740910C0150910D01241B350B80
:102B3000E091F302F091F402E217F307A0F42E1BE8
:102B40003F0B2817390778F0AC014E5F5F4F241711
:102B5000350748F04E0F5F1F5093F4024093F30285
:102B60008193919302C0E0E0F0E0CF01DF91CF913B
:102B700008950F931F93CF93DF93009709F48CC0B0
:102B8000FC013297138212820091F5021091F60235
:102B90000115110581F420813181820F931F20914D
:102BA000F3023091F4022817390779F5F093F40213
:102BB000E093F30271C0D80140E050E0AE17BF07C8
:102BC00050F412962D913C911397AD0121153105CA
:102BD00009F1D901F3CF9D01DA01338322836081AA
:102BE0007181860F971F8217930769F4EC01288182
:102BF0003981260F371F2E5F3F4F318320838A8113
:102C00009B8193838283452B29F4F093F602E09312
:102C1000F50242C01396FC93EE931297ED01499191
:102C200059919E01240F351FE217F30771F480813B
:102C30009181840F951F029611969C938E938281A9
:102C4000938113969C938E931297E0E0F0E0D80165
:102C500012968D919C911397009719F0F8018C01B1
:102C6000F6CF8D919C9198012E5F3F4F820F931F5D
:102C70002091F3023091F4022817390769F4309754
:102C800029F41092F6021092F50202C01382128209
:102C90001093F4020093F302DF91CF911F910F91F3
:102CA000089597FB072E16F4009407D077FD09D0FE
:102CB0000E94A61607FC05D03EF4909581959F4F83
:102CC0000895709561957F4F0895A1E21A2EAA1B71
:102CD000BB1BFD010DC0AA1FBB1FEE1FFF1FA217CC
:102CE000B307E407F50720F0A21BB30BE40BF50BC9
:102CF000661F771F881F991F1A9469F76095709552
:102D0000809590959B01AC01BD01CF010895052EE2
:102D100097FB1EF400940E949E1657FD07D00E9458
:102D2000651607FC03D04EF40C949E165095409502
:102D3000309521953F4F4F4F5F4F08959095809567
:102D4000709561957F4F8F4F9F4F0895AA1BBB1BB6
:102D500051E107C0AA1FBB1FA617B70710F0A61B9B
:102D6000B70B881F991F5A95A9F780959095BC01BC
:102D7000CD010895EE0FFF1F0590F491E02D099409
:102D800081E090E0F8940C94C51611E0C4EBD1E01A
:102D900004C0FE010E94BA162196C53BD107C9F7AF
:042DA000F894FFCFD5
:102DA4000E17202960574E450000F70280000000EE
:102DB40000002D02540280007C007700740057014B
:102DC40070006C006800010100000100000000D0E8
:102DD400104A0F000000005010480F00000000D1FE
:102DE40010F3100000000000000000BC0ABC0ABC84
:102DF4000ABC0ABC0ABC0ABC0ABC0A000000009354
:102E04000D9E09520E920DE70DFF0DA40A0000005D
:102E140000C60FDA0F2A0F1D0F0B0FFF0E6F0E2DBA
:102E24000F630E550E00000000310A9E09C909788F
:102E34000AFA09D809EC0900000000BC0A9E0952EC
:102E44000E510EBC0ABC0ABC0A00000000BC0A9E5B
:102E540009520E510E0000000068037C03000000BC
:102E64000019032B020D0A005B70726F6772616DAB
:0A2E74002061626F727465645D00F6
:00000001FF
