:100000000C94E0060C9408070C9408070C94E41771
:100010000C94E4170C94E4170C9408070C9408074C
:100020000C9408070C9408070C9408070C94080714
:100030000C9408070C9408070C9408070C94080704
:100040000C94B61A0C9408070C944B150C942515B7
:100050000C9408070C9408070C9408070C940807E4
:100060000C9408070C94080753657269616C4E6F15
:1000700064654E65743A3A5570646174653E2066F5
:100080006F727761726420666F72204352206661DE
:10009000696C65643A2000002E0053657269616CDA
:1000A0004E6F64654E65743A3A5570646174653E8E
:1000B000204C494E4B20637265617465643A2000A0
:1000C00053657269616C4E6F64654E65743A3A555A
:1000D00070646174653E206E6F206C696E6B206683
:1000E0006F756E6420746F2073797374656D3A2038
:1000F00000207061723A200020636D643A20002075
:10010000616B7449643A2000002E0020746F200057
:100110002E0053657269616C4E6F64654E65743A6A
:100120003A666F72776172643E0053657269616C02
:100130004E6F64654E65743A3A7570646174653EDD
:100140002072656D6F74652073797374656D2068B6
:100150006173207468652073616D65206964206136
:1001600073206C6F63616C2073797374656D202CE0
:10017000206D657373616765206469736361726480
:1001800065640053657269616C4E6F64654E657499
:100190003A3A7570646174653E206D65737361678A
:1001A0006520776974686F7574206E6F6465496443
:1001B00020696E20746F41646472207265636569A2
:1001C0007665640053657269616C4E6F64654E6557
:1001D000743A3A7570646174653E206E6F20726582
:1001E000616479206E6F646520666F7220435220CF
:1001F000666F756E640053657269616C4E6F6465FD
:100200004E65743A3A7570646174653E206E6F2075
:100210006E6F64657320666F756E640053657269F6
:10022000616C4E6F64654E65743A3A7570646174C2
:10023000653E2073797374656D4964206D757374C0
:10024000206265203E2030200053657269616C4E4B
:100250006F64654E65743A3A7570646174653E20EA
:100260006D6573736167652068617320636F727277
:1002700075707465642073697A652C206578706583
:1002800063746564203A2000736572506F73746103
:100290006D626C6520434F4D504C45544520706F46
:1002A0007274203A2000736572507265616D626CE1
:1002B0006520434F4D504C45544520706F7274205B
:1002C0003A2000425546464552204F564552464C2C
:1002D0004F573A206461746153697A65203E20006B
:1002E000203A20002053657269616C4E6F64653A54
:1002F0003A69734C696665436865636B4C61746504
:100300003E206E6F6465206C6174653A2000203A6F
:1003100020002053657269616C4E6F64653A3A69DA
:10032000734C696665436865636B4C6174653E2018
:100330006E6F64652076657279206C617465202C1F
:10034000657870697265643A200053657269616C02
:100350004E6F64654E65743A3A636865636B436FCC
:100360006E6E656374696F6E3E2061636220666FB6
:10037000756E642C2077616974696E6720666F7290
:10038000207265706C79200053657269616C4E6FE4
:1003900064654E65743A3A636865636B436F6E6E6D
:1003A000656374696F6E3E206C61737453656E642F
:1003B000416B7449643A200053657269616C4E6FF9
:1003C00064654E65743A3A636865636B436F6E6E3D
:1003D000656374696F6E3E20435220616C72656183
:1003E00064792073656E742C2077616974696E6717
:1003F00020666F72207265706C7920005365726997
:10040000616C4E6F64654E65743A3A636865636B00
:10041000436F6E6E656374696F6E3E2069734C69DD
:100420006665436865636B457870697265640053FF
:10043000657269616C4E6F64654E65743A3A6368C3
:1004400065636B436F6E6E656374696F6E3E2043C8
:100450005220616C72656164792073656E742C2022
:1004600077616974696E6720666F72207265706C5F
:1004700079200053657269616C4E6F64654E6574D6
:100480003A3A636865636B436F6E6E656374696F58
:100490006E3E206E6F7420636F6E6E65637465646C
:1004A0000053657269616C4E6F64654E65743A3ACB
:1004B000636865636B436F6E6E656374696F6E3EF0
:1004C00020636865636B206163627320656E642CD2
:1004D00020636F756E74203A200020726F756E6411
:1004E00020747269702074696D65203A2000206F55
:1004F0006E206E6F64653A200053657269616C4EC0
:100500006F64654E65743A3A636865636B436F6EFA
:100510006E656374696F6E3A3A69734C69666543D8
:100520006865636B457870697265643E20726570BA
:100530006C792074696D65206578706972656420D6
:10054000666F7220616B7469643A2000536572694A
:10055000616C4E6F64654E65743A3A636865636BAF
:10056000436F6E6E656374696F6E3E20636865638A
:100570006B20616362732073746172742C20636FEB
:10058000756E74203A2000207061723A200020635A
:100590006D643A200020616B7449643A2000002E9B
:1005A0000020746F20002E0053657269616C4E6FDD
:1005B00064653A3A7772697465546F506F72743E2D
:1005C0002073756363657373202C206865616465AF
:1005D000722E2E2E002077616974656420666F721A
:1005E000203A200053657269616C4E6F64653A3A37
:1005F0007772697465546F506F72743E20776169C9
:1006000074696E6720656E642C206E6F6465203A95
:10061000200066726565207372616D203A200020AB
:1006200061636220636F756E743A2000536572696E
:10063000616C4E6F64653A3A7772697465546F50B5
:100640006F72743E2077616974696E6720666F729D
:10065000207265706C696573206F6E20706F7274A4
:100660003A200053657269616C4E6F64653A3A775F
:1006700072697465546F506F72743E20776169744B
:10068000696E6720666F72207265706C6965732091
:100690006F6E206F7468657220736F667420736567
:1006A0007269616C20706F72742C202063616E63BC
:1006B000656C2C2061636220636F756E743A200054
:1006C00053657269616C4E6F64653A3A777269740A
:1006D00065546F506F72743E20474C4549434845FE
:1006E00052204C495354454E4552203F00203E3E37
:1006F0003E20706F72743A200020203E3E3E200063
:1007000053657269616C4E6F64653A3A77726974C9
:1007100065546F506F72743E206E6F6465203A208E
:100720000020203E3E3E20006E6F6465203A20008F
:100730004D794D65737361676548616E646C657270
:100740003A3A6F6E4D6573736167653E20666F72EE
:10075000206E6F6465203A20004D79507265436FBA
:100760006E6E65637448616E646C65723A3A6F6E62
:10077000507265436F6E6E6563743E206E6F646584
:10078000203A20004163624C6973743A3A416362D3
:100790004C6973742829206672656520006672654D
:1007A00065207372616D203A200053657269616C37
:1007B0004E6F64653A3A6F6E4D6573736167653E5F
:1007C00020726F756E6420747269702074696D6533
:1007D000203A200053657269616C4E6F64653A3A45
:1007E0006F6E4D6573736167653E20616362206E55
:1007F0006F7420666F756E64202D20616B74696460
:100800003A00002E0053657269616C4E6F64653A60
:100810003A6F6E4D6573736167653E20434F4E4E70
:10082000454354494F4E5F5354415455535F434FD2
:100830004E4E4543544544206E6F646520286163E5
:100840007469766529203A200053657269616C4E9F
:100850006F64653A3A6F6E4D6573736167653E41CB
:10086000434B204F4E204352206E6F6465206973C6
:10087000206E6F742072656164793A20005365724E
:1008800069616C4E6F64653A3A6F6E4D6573736162
:1008900067653E6E6F646520697320616C72656187
:1008A000647920636F6E6E65637465643A200053EB
:1008B000657269616C4E6F64653A3A6F6E4D65732F
:1008C000736167653E41434B204F4E204352206E7B
:1008D0006F6465206973206E6F742061637469763C
:1008E000653A200020203C3C3C2000536572696141
:1008F0006C4E6F64653A3A6F6E4D657373616765F0
:100900003E20434D445F414344203A2000536572EA
:1009100069616C4E6F64653A3A6F6E4D65737361D1
:1009200067653E20434F4E4E454354494F4E5F53FB
:1009300054415455535F434F4E4E45435445442014
:100940006E6F6465203A2000002E00536572696165
:100950006C4E6F64653A3A6F6E4D6573736167658F
:100960003E20756E6B6E6F776E2072656D6F74656D
:10097000206E6F64652077616E747320746F2063DE
:100980006F6E6E6563743A2000002E007063622003
:1009900072656D6F746520616464726573733A008B
:1009A00053657269616C4E6F64653A3A6F6E4D655E
:1009B00073736167653E206E6F6465206E6F74208F
:1009C0007265616479203A0053657269616C4E6F9B
:1009D00064653A3A6F6E4D6573736167653E207565
:1009E0006E616C6C6F776564206D657373616765AC
:1009F0002C20737461747573203C3E20636F6E6E9F
:100A000065637465642C20616B74696420203A000E
:100A1000207061723A200020636D643A20002061EA
:100A20006B7449643A2000002E0020746F20002E61
:100A300000203C3C3C3C200020203C3C3C2000531F
:100A4000657269616C4E6F64653A3A6F6E4D65739D
:100A5000736167653E206E6F6465203A20005365C0
:100A60007269616C4E6F64653A7265636F6E6E6534
:100A7000637428293E2073656E6420435220666F9C
:100A800072206E6F6465200053657269616C4E6FF1
:100A900064653A7265636F6E6E6563743E206E6F57
:100AA0006465206E6F742072656164793A2000532A
:100AB000657269616C4E6F64653A7265636F6E6EE4
:100AC00065637428293E2077616974696E672066C2
:100AD0006F72204352206D6573736167652C206EC1
:100AE0006F64653A200053657269616C52783A3AD6
:100AF00053657269616C5278282920667265652099
:100B00000053657269616C54783A3A536572696151
:100B10006C547828292066726565200053657269D7
:100B2000616C506F7274527854784D617070657258
:100B30003A3A53657269616C506F727452785478A6
:100B40004D617070657228292066726565200053BA
:100B5000657269616C506F72743A3A53657269617B
:100B60006C506F7274282920667265652000000041
:100B70000000240027002A000000000023002600B7
:100B80002900536F66747761726553657269616C91
:100B90003A3A536F66747761726553657269616C36
:100BA000282920667265652000536F66745365724C
:100BB00069616C506F72743A3A536F667453657220
:100BC00069616C506F727420667265652000706C8C
:100BD000656173652063616C6C2053797374656D16
:100BE0002E696E697428796F757253797374656DA7
:100BF000496429206265666F726520796F7520638C
:100C00007265617465206E6F6465732E006672652F
:100C100065207372616D203A200023232323232350
:100C20002323232323232323232323232323232394
:100C30002323232323232323232320736574757005
:100C40002053657269616C54657374436C69656E99
:100C500074202831312920232323232323232323F2
:100C60002323232323232323232323232323232354
:100C7000232323232323232323232323230000535A
:100C80006F667453657269616C506F72743A3A6C36
:100C9000697374656E3E206F6E20706F7274203AB7
:100CA0000041525000415251004143440043520020
:100CB0004C4956450041434B004E414B000000005B
:100CC00000250028002B000404040404040404028A
:100CD00002020202020303030303030102040810D9
:100CE00020408001020408102001020408102000A6
:100CF00000000800020100000304070000000000DB
:100D0000000000554E4B4F574E5F434D4400536516
:100D10007269616C4E6F64653A3A73656E643E2029
:100D20006E6F64652C206E6F7420636F6E6E6563EA
:100D3000746564202C20756E6B6E6F776E20726503
:100D40006D6F746520616464726573733A005365F6
:100D50007269616C4E6F64653A3A73656E643E20E9
:100D60007265706C7920746F3A0053657269616CBA
:100D70004E6F64653A3A73656E64203E206E6F7400
:100D800020636F6E6E65637465642C20636D6420F0
:100D90006E6F7420616C6C6F776564203A20002060
:100DA0003E3E3E0053657269616C4E6F64653A3A2F
:100DB00073656E643E20203E3E3E2000DB1DDA1D42
:100DC00011241FBECFEFD8E0DEBFCDBF12E0A0E000
:100DD000B1E0E6EEFFE302C005900D92AA30B10744
:100DE000D9F723E0AAE0B2E001C01D92A931B20711
:100DF000E1F716E0CFEDD6E004C02197FE010E9496
:100E0000DB1FCE3DD107C9F70E94001B0C94E61FE3
:100E10000C9400002F923F924F925F926F927F92BC
:100E20008F929F92AF92BF92CF92DF92EF92FF92FA
:100E30000F931F93CF93DF93CDB7DEB760970FB6B5
:100E4000F894DEBF0FBECDBF9C838B83788B6F87FA
:100E50005E834D8338872F83480168E277E08AE517
:100E600092E00E947A14AF85B88911968C910E9405
:100E70003A1961E277E08AE592E00E947A1460E034
:100E800077E08AE592E00E947A14EF85F889818103
:100E90000E943A1969EF76E08AE592E00E947A149E
:100EA000AF85B88916968D919C911797805F9109AF
:100EB0008830910540F4880F991FFC01E357FE4FDD
:100EC0006081718102C063E07DE08AE592E00E946A
:100ED0007A146DEE76E08AE592E00E947A14F401CD
:100EE00085810E942319D401ED91FC910480F58144
:100EF000E02DC40109950197C1F4D401ED91FC9155
:100F00000288F389E02DC401099581110EC0A6C1A4
:100F1000D10115966C916D870E94B3106D850E946A
:100F2000C40F8C01892B09F0E7C1D401ED91FC912C
:100F30000288F389E02DC4010995811117C0EF855E
:100F4000F88986819781825F91098530910570F4D7
:100F5000FC01E25FFE4F8081882341F0D401ED91D6
:100F6000FC910684F785E02DC4010995EF85F88989
:100F7000309711F40E94E11F928180819817D1F37C
:100F800084819581892B09F0CDC00E94B310FC01AA
:100F900082819381019611F413821282228133811E
:100FA0002F5F3F4F33832283AF85B88915963C93DB
:100FB0002E93149716968D919C911797825F9109A5
:100FC0008530910508F0AEC0FC01E25FFE4F8081E4
:100FD000882309F4A7C00E94B3107C01EF85F8892B
:100FE000C680D780C601825F9109D70114966C90A4
:100FF000149715967C90039708F0C6C683015F018D
:10100000B2E0AB0EB11C0115110509F4BDC6F80123
:10101000828190E08C159D0579F46F857889C801EF
:1010200003960E944410882339F0B501C801059643
:101030000E9444108111A4C6D8011D960D911C91E7
:101040001E97E1CFF50185859685009721F05C011B
:10105000A114B104B9F78FE090E00E94451E8C0105
:101060008FE0D8011D928A95E9F7F8011382148266
:1010700015821682A114B10409F088C6D70115960D
:101080001C930E931497D8011296CC921297EF8569
:10109000F8898081918114969C938E931397828115
:1010A000938116969C938E93159717961C92D70151
:1010B00012968D919C911397019619F4F701138262
:1010C0001282D70112968D919C91139701961396D7
:1010D0009C938E931297F80191838083AF85B88992
:1010E00015969C938E9314970E94AA1AF801618713
:1010F000728783879487AF85B88914968D919C9168
:10110000159791838083F4018581D80118968C937B
:10111000EF85F88984819581AB81BC811D969C9374
:101120008E931C97C4010E94D6180E948C18C4018B
:101130000E94D61849E050E06F8578890E949C187B
:10114000ED81FE81EF2B69F02F813885232B49F04B
:10115000C4010E94D6184F8158856D817E810E94FE
:101160009C18C4010E94D6180E947C18E091560277
:10117000F09157024B815C815383428388EA95E06A
:101180000E941019AF85B8898C910E943A1966EABD
:1011900075E08AE592E00E947A14EF85F8898181F2
:1011A0000E943A1961EA75E08AE592E00E947A1499
:1011B000AF85B88912968C910E943A196FE975E053
:1011C0008AE592E00E947A14EF85F88983810E9473
:1011D0003A198EE995E00E94101965E975E08AE5F3
:1011E00092E00E947A14AF85B88914964D915C9173
:1011F000159760E070E02AE08AE592E00E94B3145F
:101200006EE875E08AE592E00E947A14EF85F8892D
:1012100086819781805F91098830910540F4880F1D
:10122000991FFC01E357FE4F6081718102C063E0AA
:101230007DE08AE592E00E947A1467E875E08AE52D
:1012400092E00E947A14AF85B88918968C910E941A
:101250002319EF85F88984819581A2C520905802D1
:101260003090590221143104C1F0D101ED91FC916B
:101270000480F581E02DC1010995019751F4D10158
:10128000ED91FC910288F389E02DC101099581114E
:1012900024C0F10122803380E5CF209058023090A5
:1012A000590221143104B9F0D101ED91FC9104806F
:1012B000F581E02DC1010995019749F4D101ED9126
:1012C000FC910684F785E02DC101099506C0F10166
:1012D00022803380E6CF212C312C2814390409F0E8
:1012E00017CE80EC96E00E9410190E94311E8AE50C
:1012F00092E00E94C2173ECEEF85F88986819781E1
:10130000823F910561F463E676E08AE592E00E940F
:101310007A14C8010E94581980E090E041C5863FC8
:10132000910509F002CE6CE276E08AE592E00E9437
:101330007A14D10115968C910E943A196FE176E0EA
:101340008AE592E00E947A14C8010E94581962E16D
:1013500076E08AE592E00E947A140E949C10BC011B
:101360008AE592E00E94F2180E94AA1A69877A8799
:101370008B879C87D101ED91FC910684F785E02D48
:10138000C1010995D101ED91FC910088F189E02D11
:10139000C1010995181619060CF000C2D101169664
:1013A000ED91FC911797E480F580F7018481958198
:1013B000009709F4DFCDDC01ED91FC910088F18903
:1013C000E02D099518161906ECF6F701878184308F
:1013D00008F0D0CD8681843008F0CCCD8481958111
:1013E000DC01ED91FC910680F781E02D0995F70174
:1013F00085879285992321F1208530E043855485A6
:101400002417350770F442815381FA01E20FF31F6C
:101410008083D70118968C9118978F5F18968C93BC
:101420000FC063EC72E08AE592E00E947A14F70143
:101430008385948504970E945819D7011A961C92A7
:10144000F70195858681E82FF0E0E050FF4F20817D
:1014500092131BC08330A1F466EA72E08AE592E041
:101460000E947A14D7011496ED91FC91159785810D
:101470000E942319F701168221E0228710860DC0F1
:101480008F5FD70116968C9308C0F7011682809162
:101490000001981302C021E02683D7011D969C917C
:1014A0001D9717968C91E82FF0E0EC5FFE4F20819E
:1014B000921368C1833009F061C168E872E08AE57F
:1014C00092E00E947A14D7011496ED91FC91159741
:1014D00085810E942319F701808584508187928538
:1014E000992309F441C144805580282F30E03A8384
:1014F0002983C280D380C114D10409F43BCD893043
:1015000018F02950310902C020E030E0D6011696CB
:101510008D919C911797AC01405F51094530510561
:1015200070F42115310559F069E472E08AE592E022
:101530000E947A1489E090E00E94581915C1F601C2
:101540005281511103C08CE192E055C06090560267
:1015500070905702D30114964C911497541345C0C0
:101560001596AD90BC901697A114B10429F486EF9E
:1015700091E00E941019FECCF60143814423C1F092
:1015800086010E5F1F4FB801D50112968D919C9177
:1015900013972D873E870E9444102D853E8581112B
:1015A000D7C0F501A684B784A114B10461F7DCC0EB
:1015B000833F9105B9F4D5011296ED91FC911397F3
:1015C0008581811161C28481823009F05DC282818E
:1015D000882321F0D6019C91891356C28381811101
:1015E00053C2B6C083E891E006C0F601808184133F
:1015F00005C08AE291E00E941019B6C082E191E034
:101600000E941019D6018C910E943A1960E171E094
:101610008AE592E00E947A14F60181810E943A19CB
:101620006BE071E08AE592E00E947A14D60112968E
:101630008C910E943A1969E071E08AE592E00E947B
:101640007A14F60183810E943A1988E091E00E94A1
:1016500010196FEF70E08AE592E00E947A14D601CB
:1016600014964D915C91159760E070E02AE08AE550
:1016700092E00E94B31468EF70E08AE592E00E9465
:101680007A14F60186819781805F910988309105EF
:1016900040F4880F991FFC01E357FE4F6081718170
:1016A00002C063E07DE08AE592E00E947A1461EF77
:1016B00070E08AE592E00E947A14D60118968C9127
:1016C0000E942319F60122818091580290915902BB
:1016D000009759F0DC0115963C911597321749F1A6
:1016E00012968D919C911397F3CFB601C301079683
:1016F0000E9451108C01892B09F4D9C15801B2E024
:10170000AB0EB11CB601C5010E944410882309F438
:10171000C7C1B6016E5F7F4FC80104960E94441096
:10172000882309F4BDC1F80180859185009709F4EB
:10173000BEC10E94D6188C010E948C1849815A8122
:10174000B601C8010E949C18C8010E947C180CC0F8
:101750002115310509F495C1A601475F5F4F82014C
:10176000B601C5010E94E010D70117961C92179789
:101770001A961C921A9718961C9204CE8F5FF70146
:10178000878300CED70117961C921797809104018A
:101790009813F8CDE1E01796EC93F4CDF1011581A3
:1017A0000E94B310FC01A481B581109751F01896E6
:1017B0008C911897811729F01D960D90BC91A02D42
:1017C000F4CFFD011097D1F018968C9118978113E2
:1017D00010C01996CD90DD90ED90FC901C9741853E
:1017E000528563857485C416D506E606F70608F4A7
:1017F000FD011D960D90BC91A02DE4CF309709F40A
:101800000AC120915602309157023A832983D901A7
:101810001596ED90FC9016978F010D5F1F4FE11408
:10182000F10409F4F8C0B801F701828193810E94A4
:1018300044108823E1F00E94AA1A2B013C010E9467
:10184000B31060E00E94C40F6C01892B09F4AFC093
:101850000E94B310FC01048115816CE475E08AE5F7
:1018600092E00E947A14C6010E94581977C0D701ED
:101870001E96ED90FC901F97D2CF0E94AA1AD80115
:1018800019962D913D914D915C911C97DC01CB01F6
:10189000821B930BA40BB50B893B9B40A105B105A3
:1018A00008F472C0A981BA811596CD90DC90169784
:1018B0005801B3E0AB0EB11CC114D10409F053C000
:1018C000C12CD12C69EF74E08AE592E00E947A1471
:1018D000F8014081518160E070E02AE08AE592E001
:1018E0000E94B3146EEE74E08AE592E00E947A14CE
:1018F000C114D10409F445C0D6011296ED91FC91B2
:101900001397418150E0052E000C660B770B2AE0FF
:101910008AE592E00E94B3146AED74E08AE592E0F1
:101920000E947A140E94AA1AF80121853285438503
:101930005485621B730B840B950B0E944319D801CD
:101940001D96CC901D971E96DC901E970D911C91B4
:101950000E94B310B8010E94E80F8601011511051D
:1019600009F08BCF15C0B501F601828193810E94E9
:1019700044108111A7CFD6011E96CD90DC901F9701
:101980009BCF40E050E0BFCFF80105851685E6CF3C
:101990000E94B31060E00E94C40F8C0161EA74E001
:1019A0008AE592E00E947A14C8010E945819F70152
:1019B00080859185A285B3850097A105B10569F061
:1019C000A3019201281B390B4A0B5B0BDA01C901F9
:1019D000843F9140A105B105F0F0F701048515851C
:1019E0000E94B310B8010E94D80F8C01C7010E9459
:1019F000B20F81111AC183E794E00E9410190115FA
:101A0000110509F009C1C7010E94370FF70140868F
:101A1000518662867386D10115966C916D870E94FE
:101A2000B3106D850E94C40F892B09F0ABCC64EE16
:101A300075E08AE592E00E947A14AB81BC8112962F
:101A4000ED91FC91139781810E943A1965ED75E043
:101A50008AE592E00E947A140E94AA1A29853A85A2
:101A60004B855C85621B730B840B950B0E9443199D
:101A7000D401ED91FC910684F785E02DC401099510
:101A800054CA40E050E06BCED5011E96AD90BC909C
:101A90001F97A114B10409F08ECD84EC91E0ABCD79
:101AA000B601C80104960E9444108111A6C0F60137
:101AB00086819781833F910561F060EC70E08AE553
:101AC00092E00E947A14D60112968C910E943A19E3
:101AD0004BCED3011996ED91FC911A97309721F0D6
:101AE0000284F385E02DFACF0115110561F0F601AE
:101AF00084819581D80111969C938E9319961C929E
:101B00001E92189735C08CE090E00E94451EFC01A3
:101B1000DC012CE01D922A95E9F7128213821482CF
:101B20001582D30119962D913C911A9721153105F3
:101B300009F430C1D9011A968D919C911B97009799
:101B400011F09C01F3CFD9011B96FC93EE931A97E9
:101B5000D6018D919C9111979383828357824682FF
:101B600014968D919C91159791838083EF2BC9F0EA
:101B70006AE970E08AE592E00E947A14F6018081B9
:101B80000E943A1968E970E08AE592E00E947A14AE
:101B9000D60111968C910E943A1987E990E00E9433
:101BA00010190091580210915902712C011511055C
:101BB000D9F0F8019581D20115968C91981781F092
:101BC000C8010E94D6185C010E948C1849815A8174
:101BD000B601C5010E949C18C5010E947C1873942F
:101BE000F80102811381E2CF7110BECD68E670E08A
:101BF0008AE592E00E947A14B7CDB6016E5F7F4FFE
:101C0000C5010E944410882309F451CFD8011696CB
:101C10008D919C9117978ACDD80112968C91833F14
:101C200009F0F1CE8FE294E04FC0D7011296ED910A
:101C3000FC9113978581882309F449C00E94AA1A50
:101C4000F7012481358146815781DC01CB01821B5C
:101C5000930BA40BB50B81319742A105B105B8F1E7
:101C600062E173E08AE592E00E947A14D70112964D
:101C7000ED91FC91139781810E943A196EE073E017
:101C80008AE592E00E947A140E94AA1AF701248140
:101C9000358146815781621B730B840B950B0E9423
:101CA00043198CEF93E00E9410190115110509F4F6
:101CB000AACED80112968C91833F09F0A4CE88EB6E
:101CC00093E002C08AE493E00E9410199FCED701EE
:101CD0001296ED91FC9113978581882309F496CE95
:101CE0000E94AA1AF7012481358146815781DC01BF
:101CF000CB01821B930BA40BB50B813A9F40A1052E
:101D0000B10508F483CE64EE72E08AE592E00E94A9
:101D10007A14D7011296ED91FC91139781810E945C
:101D20003A1960EE72E08AE592E00E947A140E940D
:101D3000AA1AF7012481358146815781621B730BF2
:101D4000840B950B0E94431968E873E08AE592E0E2
:101D50000E947A14D7011C968D919C911D970E9428
:101D60005819012B09F0AECF00E010E020E030E080
:101D700040E050E062EF70E0C7010E946E1946CE6D
:101D800082E0F8018783B0C9530162C9F501168763
:101D9000058779C9D3011A96FC93EE931997D8CE8B
:101DA00060960FB6F894DEBF0FBECDBFDF91CF9126
:101DB0001F910F91FF90EF90DF90CF90BF90AF9069
:101DC0009F908F907F906F905F904F903F902F905B
:101DD0000895CF93DF93EB0169E577E08AE592E020
:101DE0000E947A14EA81FB8181810E942319EA8191
:101DF000FB8182E08483DF91CF910895AF92BF92FF
:101E0000CF92DF92EF92FF920F931F93CF93DF93C6
:101E10007B016A015901E80160E377E08AE592E01D
:101E20000E947A14EA81FB8181810E942319F701C3
:101E300086819781863F910549F4448155818501CA
:101E4000960167EF70E0CE010E946E19DF91CF918D
:101E50001F910F91FF90EF90DF90CF90BF90AF90C8
:101E600008950C94DA1E0C94DA1E0C94DA1E0F936B
:101E70001F93CF93DF93EC01EA81FB8181E08483A0
:101E8000EA81FB818581882339F1BE018091560268
:101E9000909157020E94E218EA81FB81848182308E
:101EA000F1F46EE57AE08AE592E00E947A14EA8124
:101EB000FB8181810E94231900E010E020E030E0E6
:101EC00040E050E063EF70E0CE010E946E19DF91B8
:101ED000CF911F910F9108956FEA7AE002C068E8F0
:101EE0007AE08AE592E00E947A14EA81FB8181819E
:101EF000DF91CF911F910F910C942319DC0189E898
:101F000091E011969C938E931E962D913C911F9774
:101F100021153105A1F0E0915602F091570205809C
:101F2000F681E02D309759F086859785009729F046
:101F30008A179B0711F0FC01F5CF37872687129689
:101F40008D919C911397009711F00C94DA1E0895CF
:101F5000CF93DF93EC010E947E0FCE01DF91CF91F2
:101F60000C94DA1EDC0150962D913C915197232B55
:101F700041F01296ED91FC91139781E09481943099
:101F800009F080E008950895DC011496ED91FC912C
:101F9000159780E090E0309751F0662319F0208586
:101FA000261301C001960584F685E02DF4CF08952F
:101FB000FC0184819581009751F0FC0120813181E1
:101FC0002617370721F0FC0185859685F4CF089503
:101FD000CF93DF93EC010E94D80F009799F1FC0199
:101FE00045855685EC81FD8141155105A1F08E177F
:101FF0009F0721F45D834C8321C0F9013097F1F0F4
:102000002585368521153105C9F028173907A9F727
:102010005687458713C08E179F0721F41D821C82A7
:102020000DC0F901309751F0258536852115310510
:1020300029F028173907A9F7168615860E94DA1E97
:1020400081E001C080E0DF91CF910895CF93DF93CD
:10205000EC0187E191E099838883EC81FD813097E1
:1020600031F060817181CE010E94E80FF6CFDF91DF
:10207000CF910895CF93DF93EC010E942610CE01FB
:10208000DF91CF910C94DA1EFC019081DB018C91E1
:10209000981305C081E0218111969C91291380E05D
:1020A0000895CF92DF92EF92FF920F931F93CF93F9
:1020B000DF938B01FC01C281D3817B01F2E0EF0E43
:1020C000F11C209761F18E819F81892B21F18885F8
:1020D0009985892B01F16E0182E0C80ED11CB801EF
:1020E000C6010E944410811106C0B701C6010E94BA
:1020F0004410882381F06E01E4E0CE0ED11CB801BB
:10210000C6010E94441081110DC0B701C6010E9492
:102110004410811107C00A84DB85C02DD2CF80E036
:1021200090E001C0CE01DF91CF911F910F91FF9000
:10213000EF90DF90CF900895CF93DF9300D0CDB78D
:10214000DEB720911503309116032115310511F4E6
:1021500029E133E0CE010196821B930B0F900F9083
:10216000DF91CF910895CF93DF9380910A029091F0
:102170000B02892BF1F486E090E00E94451EEC01F1
:1021800087E191E0998388831D821C821B821A82D9
:1021900064E877E08AE592E00E947A140E949C103D
:1021A000BC018AE592E00E94F218D0930B02C09322
:1021B0000A0280910A0290910B02DF91CF9108955B
:1021C0005F926F927F928F929F92AF92BF92CF92C7
:1021D000DF92EF92FF920F931F93CF93DF93EC0167
:1021E0007B013A0149015801672B11F40E94E11F5C
:1021F000452B19F0232B19F4F9CF232BB9F7A11490
:10220000B104A1F3AA81BB81E0915602F09157027B
:1022100012969C918481981749F30E94AA1A6C83A4
:102220007D838E839F83D7011696CD90DC90179780
:10223000CE010E94B20F582E6FE37AE08AE592E059
:102240000E947A14EA81FB8181810E943A1968E335
:102250007AE08AE592E00E947A148601005F110913
:102260000830110540F4F801EE0FFF1FE357FE4F51
:102270006081718102C063E07DE08AE592E00E94A6
:102280007A1481E39AE00E941019F70180810E947C
:102290003A196FE27AE08AE592E00E947A14D70157
:1022A00011968C910E943A196AE27AE08AE592E0EE
:1022B0000E947A14F70182810E943A1968E27AE05A
:1022C0008AE592E00E947A14D70113968C910E94BD
:1022D0003A1987E29AE00E9410196EE17AE08AE5E5
:1022E00092E00E947A14F7014481558160E070E029
:1022F0002AE08AE592E00E94B31467E17AE08AE579
:1023000092E00E947A14D70116962D913C9117976E
:10231000205F31092830310540F4220F331FF901C5
:10232000E357FE4F6081718102C063E07DE08AE582
:1023300092E00E947A1460E17AE08AE592E00E94DD
:102340007A14F70180850E942319511013C00230BE
:10235000110580F0F3EFCF16D10461F068EC79E05D
:102360008AE592E00E947A14D70114968D919C918F
:1023700015971FC2B3EFCB16D10441F1ACF4F0EFC7
:10238000CF16D10409F48EC124F4CD2809F422C259
:1023900004C2A1EFCA16D10409F40EC1B2EFCB16E4
:1023A000D10409F4D9C0F9C1E5EFCE16D10409F47E
:1023B000E2C00CF4BAC086EFC816D10409F48CC18F
:1023C000A7EFCA16D10409F4E8C0E7C1EA81FB818E
:1023D00085818111A0C0BE01809156029091570263
:1023E0000E94E218EA81FB8184818230D1F060EAA8
:1023F00079E08AE592E00E947A14EA81FB8181818A
:10240000DF91CF911F910F91FF90EF90DF90CF90D0
:10241000BF90AF909F908F907F906F905F900C9443
:102420002319828181111EC0D7018D919C919383C4
:1024300082838CE899E00E941019EA81FB818281F5
:102440000E943A196AE879E08AE592E00E947A14DB
:10245000EA81FB8183810E943A1989E899E00E9410
:10246000101932C0B701CF0102960E9444108111A9
:102470002BC06BE479E08AE592E00E947A14EA814D
:10248000FB8181810E943A19EA81FB8182810E944D
:102490003A1969E479E08AE592E00E947A14EA81C7
:1024A000FB8183810E943A1988E499E00E94101907
:1024B000F7014481558100E010E020E030E060EF5A
:1024C00070E0CE010E946E19B98AA88AEA81FB8168
:1024D00084E08483EA81FB81D7018D919C911197DF
:1024E0009383828314964D915C91159700E010E0E0
:1024F00020E030E061EF70E0CE010E946E196DE0E7
:1025000079E08AE592E00E947A14EA81FB81818178
:102510000E94231942C1F7014481558100E010E077
:1025200020E030E060EF70E022C05520A1F3D70139
:1025300014964D915C91159700E010E020E030E09A
:1025400061EF70E0CE010E946E19198A188AEA8143
:10255000FB8183E0848321C15520E9F2F7014481A6
:10256000558100E010E020E030E061EF70E0CE0146
:102570000E946E1912C16BEE78E08AE592E00E942B
:102580007A14EA81FB8181810E943A1964EE78E035
:102590008AE592E00E947A149FC0D70114960D91AB
:1025A0001C9115970E94B310B8010E94D80F6C01BE
:1025B000892B09F093C0F4C0F701048115810E94B2
:1025C000B310B8010E94D80F6C01009709F4E8C05D
:1025D000DC0112968C91843F09F461C0863F09F4B6
:1025E0007DC0833F09F08DC0B98AA88A0A811B810A
:1025F000F8018581811103C06FEA78E018C0CE012F
:102600000E94B20F882361F06DE778E08AE592E0DE
:102610000E947A14EA81FB8181810E94231971C092
:10262000D80114968C91823061F069E478E08AE5F3
:1026300092E00E947A14EA81FB8181810E943A191A
:1026400060C0F70180819181D80113969C938E938D
:102650001297EA81FB8184E08483B98AA88A65E0C5
:1026600078E08AE592E00E947A14EA81FB81818118
:102670000E942319EA81FB8180810E943A1963E05C
:1026800078E08AE592E00E947A14EA81FB818181F8
:102690000E943A1982E098E00E94101932C0198A0B
:1026A000188A15C0F701048115810E94B310B80182
:1026B0000E94D80F6C01009709F472C0DC011296D9
:1026C0008C91833F21F0863F49F0823FD1F4EA812B
:1026D000FB8183E0848315C0C12CD12CE09156028C
:1026E000F091570283859485009759F0DC01ED91B4
:1026F000FC910480F581E02D8E019401A301B701C6
:102700000995C114D10409F465C06AEA77E08AE545
:1027100092E00E947A140E94AA1AF601018512859D
:1027200023853485601B710B820B930B0E94431928
:102730000E94B31060E00E94C40FEC01D701149610
:102740000D911C9115970E94B310B8010E94E80FDB
:102750000E94B31060E00E94C40F8C179D0708F020
:1027600045CD6DE977E08AE592E00E947A140E94F7
:102770009C10BC018AE592E0DF91CF911F910F91EF
:10278000FF90EF90DF90CF90BF90AF909F908F9091
:102790007F906F905F900C94F218C12CD12CB1CF28
:1027A00064ED77E08AE592E00E947A14F701848173
:1027B0009581DF91CF911F910F91FF90EF90DF9066
:1027C000CF90BF90AF909F908F907F906F905F90D1
:1027D0000C945819DF91CF911F910F91FF90EF90BA
:1027E000DF90CF90BF90AF909F908F907F906F9031
:1027F0005F90089508950895CF92DF92EF92FF922F
:102800000F931F93CF93DF936C017A018B01C0E08C
:10281000D0E0CE15DF0589F0D8016D918D01D6018C
:10282000ED91FC910190F081E02DC6010995892B75
:1028300011F47E0102C02196ECCFC701DF91CF9148
:102840001F910F91FF90EF90DF90CF9008950E941D
:10285000E11F8AE592E00E94AE1521E0892B09F480
:1028600020E0822F0895EF92FF920F931F93CF9352
:10287000DF93EC0181E0888F9B8D8C8D981305C0D0
:10288000E889F989808185FD24C0F62E0B8D10E042
:102890000F5F1F4F0F731127E02E8C8DE8120CC0B5
:1028A0000FB607FCFACFE889F989808185FFF5CF5B
:1028B000CE010E94A117F1CF8B8DFE01E80FF11D13
:1028C000E35AFF4FF0820B8FEA89FB898081806297
:1028D00007C0EE89FF896083E889F9898081806477
:1028E000808381E090E0DF91CF911F910F91FF9065
:1028F000EF900895EF92FF920F931F93CF93DF9382
:102900008C017B01C0E0D0E0F701EC0FFD1F64916A
:10291000662361F0D801ED91FC910190F081E02DEA
:10292000C8010995892B11F02196EECFCE01DF91D8
:10293000CF911F910F91FF90EF9008956115710550
:1029400079F0FB0101900020E9F73197AF01461BB8
:10295000570BDC01ED91FC910280F381E02D09948D
:1029600080E090E008954F925F926F927F92EF9295
:10297000FF920F931F93CF93DF93CDB7DEB7A1974D
:102980000FB6F894DEBF0FBECDBF7C01FA01CB01BC
:1029900019A2223008F42AE08E010F5D1F4F422E4B
:1029A000512C612C712CBF01A30192010E94861F42
:1029B000F901CA01015011096A3014F4605D01C0C7
:1029C000695CD8016C93232B242B252B61F7B8016C
:1029D000C7010E949E14A1960FB6F894DEBF0FBEE9
:1029E000CDBFDF91CF911F910F91FF90EF907F901E
:1029F0006F905F904F900895CF92DF92EF92FF9289
:102A00000F931F93CF93DF93EC016A017B01E88161
:102A1000F9810190F081E02D6DE209958C01442748
:102A20005527BA014C195D096E097F092AE0CE01CC
:102A30000E94B314800F911FDF91CF911F910F91CE
:102A4000FF90EF90DF90CF9008951F920F920FB6F6
:102A50000F9211242F933F934F935F936F937F9324
:102A60008F939F93AF93BF93EF93FF938AE592E089
:102A70000E94A117FF91EF91BF91AF919F918F910C
:102A80007F916F915F914F913F912F910F900FBE6A
:102A90000F901F9018951F920F920FB60F9211244E
:102AA0002F938F939F93EF93FF93E0916A02F0919E
:102AB0006B028081E0917002F091710282FD12C080
:102AC0009081809173028F5F8F73209174028217BF
:102AD00051F0E0917302F0E0E65AFD4F958F80933C
:102AE000730201C08081FF91EF919F918F912F918F
:102AF0000F900FBE0F901F901895FC01538D448DC1
:102B0000252F30E0842F90E0821B930B541710F098
:102B1000CF96089501970895FC01918D828D9817A5
:102B200061F0828DDF01A80FB11D5D968C91928DB1
:102B30009F5F9F73928F90E008958FEF9FEF0895AE
:102B4000FC01918D828D981731F0828DE80FF11D77
:102B5000858D90E008958FEF9FEF0895FC01918D92
:102B6000228D892F90E0805C9F4F821B91098F738B
:102B70009927089580E090E0892B29F00E9429147C
:102B800081110C9400000895209154023091550257
:102B90002817390771F490915302809152029817C7
:102BA00041F0E0915302F0E0EE5EFD4F808190E055
:102BB00008958FEF9FEF089508951F93CF93DF93AC
:102BC000DC015C962D913C915D972115310539F41E
:102BD00081E090E013969C938E9312973DC051969E
:102BE000ED91FC91529750969C915097892F80952A
:102BF0001FB75E964C915E9741FB772770F941FDB8
:102C00006095F8944081772311F0492B01C0482347
:102C10004083E9012197F1F748E0508160FF02C04D
:102C2000592B01C058235083E9012197F1F766958C
:102C3000415099F7772321F090818923808303C045
:102C40008081982B90831FBF5C968D919C915D979E
:102C50000197F1F721E030E0C901DF91CF911F9199
:102C6000089520915402309155022817390771F4C4
:102C7000809152022091530290E0805C9F4F821B12
:102C8000910960E470E00E94721F089580E090E076
:102C90000895209154023091550228173907B9F44C
:102CA0009091530280915202981789F0E09153025B
:102CB000F0E0EE5EFD4F80812091530230E02F5F07
:102CC0003F4F2F7333272093530290E008958FEFE7
:102CD0009FEF0895CF93DF93FC01828D938D892B15
:102CE00031F1A0915402B0915502AE17BF07F9F02F
:102CF000109751F05396CD91DC9154979881559649
:102D00008C91809589238883868D8E7F868F109203
:102D1000520210925302F0935502E0935402A38999
:102D2000B4899C918589892B8C9381E001C080E0D6
:102D3000DF91CF910895089580E090E0089521E01B
:102D4000FC014485558580915402909155024817A5
:102D5000590709F020E0822F0895DC011C968D911F
:102D60009C911D97DC01ED91FC910084F185E02D93
:102D70000994CF93DF939A01AB01FC01C485D585FB
:102D80001B8E1A8E198E188E1F8A1E8A60E079E0BB
:102D90008DE390E00E94A81FF9012430310518F05E
:102DA000C901039702C081E090E09D8F8C8F6C85F4
:102DB000663108F069C0C9019695879584319105FF
:102DC00010F0439702C081E090E09F8B8E8B369786
:102DD00018F0C901059702C081E090E0998F888FB3
:102DE000C901880F991F280F391F369527953695E9
:102DF00027952D30310518F02C50310902C021E003
:102E000030E03B8F2A8F90916800683050F021E0CD
:102E10006E3008F420E081E001C0880F2A95EAF7BF
:102E200001C084E0892B809368008C85883038F05D
:102E30008E3040F0863148F020E030E008C02DE6CA
:102E400030E005C02BE630E002C02CE630E03C8BE1
:102E50002B8B883030F491E001C0990F8A95EAF706
:102E60000EC0282F30E08E3018F42850310902C0EF
:102E70002E50310991E001C0990F2A95EAF79D8BF8
:102E80008C8D9D8D0197F1F7CE01DF91CF910C9440
:102E90006A16DC011C968D919C911D97DC01ED91C9
:102EA000FC910280F381E02D0994DC011C968D9148
:102EB0009C911D97DC01ED91FC910190F081E02D3A
:102EC000099521E0892B09F420E0822F0895DC0187
:102ED0001C968D919C911D97DC01ED91FC910284D3
:102EE000F385E02D0995089581E090E00895CF9352
:102EF000DF93EC01E881F9810288F389E02D0995DF
:102F0000811115C00E94AA1A688779878A879B87D2
:102F10006FE77CE08AE592E00E947A148D810E943E
:102F200023198C859D85DF91CF910C946A1680E0E2
:102F3000DF91CF9108950C94DA1E0C94DA1E0C9454
:102F4000DA1EFC01848DDF01A80FB11DA35ABF4F0B
:102F50002C91848D90E001968F739927848FA68998
:102F6000B7892C93A089B1898C9180648C93938DBF
:102F7000848D981306C00288F389E02D80818F7DAF
:102F800080830895CF93DF93EC01888D8823C9F067
:102F9000EA89FB89808185FD05C0A889B9898C9162
:102FA00086FD0FC00FB607FCF5CF808185FFF2CFFD
:102FB000A889B9898C9185FFEDCFCE010E94A11718
:102FC000E7CFDF91CF9108951F920F920FB60F9226
:102FD00011242F933F934F935F936F937F938F931E
:102FE0009F93AF93BF93EF93FF93E0915402F091BF
:102FF0005502309709F451C0968DA685B785858511
:1030000091FF04C09C91892329F447C09C91892396
:1030100009F043C0A389B4899C918589809589234F
:103020008C93868997890197F1F7608D718DA685BC
:10303000B785558538E020E0CB010197F1F7822F65
:1030400090E095958795282F4C91452309F02068AD
:10305000315091F7868D81FD20958091520290E04C
:1030600001968F73992730915302381749F0A09138
:103070005202B0E0AE5EBD4F2C938093520203C06B
:10308000868D8160868F828D938D0197F1F7A3895C
:10309000B4899C918589892B8C93FF91EF91BF9185
:1030A000AF919F918F917F916F915F914F913F91E0
:1030B0002F910F900FBE0F901F90189527E431E0CD
:1030C000DC0111963C932E9316968D919C91179747
:1030D000009739F0DC01ED91FC910280F381E02D45
:1030E00009940895CF93DF93EC010E945E18CE01FE
:1030F000DF91CF910C94DA1EDC0112968D919C9198
:103100001397DC01ED91FC910284F385E02D44E0FE
:1031100050E064E071E00994DC0112968D919C917D
:103120001397DC01ED91FC910284F385E02D44E0DE
:1031300050E060E071E00994DC0112968D919C9161
:103140001397DC01ED91FC910284F385E02D099445
:1031500008950895CF93DF93EC018FE391E0998375
:1031600088838C819D81009739F0DC01ED91FC9181
:103170000280F381E02D09958E819F81009749F0AF
:10318000DC01ED91FC910280F381E02DDF91CF9184
:103190000994DF91CF910895CF93DF93EC010E94C2
:1031A000AA18CE01DF91CF910C94DA1EDC0116969D
:1031B000ED91FC91179786819781009711F40E94F9
:1031C000E11F0895DC011D968D919C911E9700973B
:1031D00039F0DC01ED91FC910480F581E02D09943A
:1031E000089508950F931F93CF93DF93EC01AB01E4
:1031F000770F660B770B77FF03C00E94FC1403C0A8
:103200002AE00E94B3148C0165EF71E0CE010E94A8
:103210009E14800F911FDF91CF911F910F91089500
:10322000CF93DF93BC018AE592E00E947A14EC010F
:1032300065EF71E08AE592E00E949E148C0F9D1F5D
:10324000DF91CF910895CF93DF93482F50E060E056
:1032500070E02AE08AE592E00E94B314EC0165EF89
:1032600071E08AE592E00E949E148C0F9D1FDF9111
:10327000CF910895482F50E060E070E02AE08AE5A1
:1032800092E00C94B314CF93DF93AB01BC012AE01E
:103290008AE592E00E94B314EC0165EF71E08AE5E3
:1032A00092E00E949E148C0F9D1FDF91CF91089594
:1032B000CF93DF93AC0160E070E02AE08AE592E012
:1032C0000E94B314EC0165EF71E08AE592E00E9480
:1032D0009E148C0F9D1FDF91CF9108956F927F9266
:1032E0008F929F92AF92BF92CF92DF92EF92FF9216
:1032F0000F931F93CF93DF93CDB7DEB729970FB608
:10330000F894DEBF0FBECDBF7C016B013A015901BD
:10331000480119821A821B821C821E821D82188615
:103320001F82198664EA7DE08AE592E00E947A14A1
:103330008601005F11090830110540F4F801EE0F15
:10334000FF1FE357FE4F6081718102C063E07DE0A3
:103350008AE592E00E947A148FE99DE00E9410199C
:10336000D7011296ED91FC911397A0915602B0915E
:10337000570214968C919281981302C00E94E11F0B
:1033800094819430F1F0B3EFCB16D104D1F0023038
:103390001105B8F06AE67DE08AE592E00E947A14B1
:1033A000A601DD0C660B770B77FF05C08AE592E07E
:1033B0000E94FC146CC02AE08AE592E00E94B314DB
:1033C00066C0898361147104D9F06EE47DE08AE5FA
:1033D00092E00E947A14C3010E9458197E826D8285
:1033E000C7010E94B20F882331F0D7011296ED91E8
:1033F000FC91139707C08EE09DE00E94101947C012
:103400001E821D82828193819C838B83D7011296B9
:10341000ED91FC911397808191819A838983D8865D
:10342000CF82198650960D911C9151970115110567
:1034300081F48B81C0905802D0905902F60103C0EC
:103440000280F381E02D309769F095819813F8CFD1
:103450008F019401A501BE016F5F7F4FC7010E94DC
:103460000A0712C0C114D10491F086019401A5018C
:10347000BE016F5F7F4FC7010E940A07F601C2803D
:10348000D380C114D10489F78D819E8102C080E070
:1034900090E029960FB6F894DEBF0FBECDBFDF9146
:1034A000CF911F910F91FF90EF90DF90CF90BF9041
:1034B000AF909F908F907F906F90089590E0FC0167
:1034C000E151F34F3491FC01E552F34F2491FC019B
:1034D000E953F34FE491EE2309F43BC0332339F170
:1034E000333091F038F43130A9F0323001F584B541
:1034F0008F7D12C0373091F03830A1F03430B9F4FC
:10350000809180008F7D03C0809180008F778093B1
:1035100080000DC084B58F7784BD09C08091B00054
:103520008F7703C08091B0008F7D8093B000F0E072
:10353000EE0FFF1FE354F34FA591B4918FB7F894AA
:10354000EC91611103C020952E2301C02E2B2C93EA
:103550008FBF08952FB7F894609100037091010315
:1035600080910203909103032FBF08951F920F9241
:103570000FB60F9211242F933F938F939F93AF9386
:10358000BF938091000390910103A0910203B09139
:1035900003033091FF0223E0230F2D3720F401961F
:1035A000A11DB11D05C026E8230F0296A11DB11D66
:1035B0002093FF028093000390930103A0930203E2
:1035C000B09303038091FB029091FC02A091FD0255
:1035D000B091FE020196A11DB11D8093FB02909354
:1035E000FC02A093FD02B093FE02BF91AF919F91A8
:1035F0008F913F912F910F900FBE0F901F901895B4
:10360000789484B5826084BD84B5816084BD85B5BD
:10361000826085BD85B5816085BD80916E008160C9
:1036200080936E001092810080918100826080936F
:103630008100809181008160809381008091800071
:103640008160809380008091B10084608093B1009C
:103650008091B00081608093B00080917A00846096
:1036600080937A0080917A00826080937A008091C2
:103670007A00816080937A0080917A0080688093DC
:103680007A001092C100E0916A02F0916B0282E030
:103690008083E0916602F09167021082E0916802F7
:1036A000F09169028FEC808310927202E0916E02B9
:1036B000F0916F0286E08083E0916C02F0916D02E0
:1036C000808180618083E0916C02F0916D02808145
:1036D00088608083E0916C02F0916D028081806847
:1036E0008083E0916C02F0916D0280818F7D8083F8
:1036F0008EE79CE00E9410198AE19CE00E9410195C
:103700008091560290915702009739F0DC01ED91BB
:10371000FC910280F381E02D09958FE090E00E94FA
:10372000451EFC0187E291E091838083138212821F
:10373000168215828FE191E0908787831286118629
:1037400014861386168615868BE08483F0935702C1
:10375000E0935602F0931102E09310028EE090E0A5
:103760000E94451EEC0187E491E0998388831B82C7
:103770001A821C821F821E82188619861A861B8650
:103780008AE08D83E0915802F0915902309729F434
:10379000D0935902C093580208C082819381009748
:1037A00011F0FC01FACFD383C28388E090E00E943D
:1037B000451E7C018FE391E0F701918380838EE0C9
:1037C00090E00E94451E8C018FE291E0D801119695
:1037D0009C938E9313961C921E92129715961C9290
:1037E0001E92149716961C92169717961C9217976E
:1037F00018961C92189719961C9219971A961C9253
:103800001A971C961C921E921B971D961C9266EE90
:103810007AE08AE592E00E947A140E949C10BC0132
:103820008AE592E00E94F218F7011583048384E090
:1038300090E00E94451E8C0187E391E0D80111962B
:103840009C938E9313961C921E92129761E07BE0DC
:103850008AE592E00E947A140E949C10BC018AE5DD
:1038600092E00E94F218F701178306830480F58125
:10387000E02DD583C483D8011396DC93CE931297A1
:10388000F701D383C2836CE17BE08AE592E00E947A
:103890007A140E949C10BC018AE592E00E94F21802
:1038A000FF82EE82D70114960D911C9115978DE041
:1038B00090E0F8019487838782819381009711F0CB
:1038C0000E94DA1ED8011B968D919C911C970E9434
:1038D000451EF801938382836FE47BE08AE592E0E2
:1038E0000E947A140E949C10BC018AE592E00E941A
:1038F000F21881E791E0998388838FE190E00E943C
:10390000451E8C01DC0113961C921E92129788EEC4
:1039100093E0A0E0B0E0F80184839583A683B783A9
:103920008FE591E091838083178A168A118E108E1D
:10393000138E128E158E148E668D6E7F6D7F668F40
:103940006695617081E068278BE00E945E1AE6EE62
:10395000FCE02491E2EDFCE08491882399F090E072
:10396000880F991FFC01E259F44FA591B491FC0115
:10397000E354F34F859194918FB7F894EC91E22B37
:10398000EC938FBFE6EEFCE0E491D8015096EC9307
:10399000E2EDFCE0E491F0E0EE0FFF1FE354F34FA3
:1039A00085919491F801928B818BE5EEFCE0249156
:1039B000E1EDFCE084918823C9F090E0880F991F25
:1039C000FC01E259F44FA591B491FC01E354F34F8B
:1039D000459154919FB7F8948C91E22FE0958E23F6
:1039E0008C93DA018C91E823EC939FBFF801868DCC
:1039F00081FD04C061E08AE00E945E1A8AE0D8017D
:103A00001C968C931C97E5EEFCE0E4911D96EC93DC
:103A1000E1EDFCE0E491F0E0EE0FFF1FE858F44F19
:103A200085919491F8019787868762E87BE08AE523
:103A300092E00E947A140E949C10BC018AE592E0F8
:103A40000E94F2181D870C8769EA7BE08AE592E004
:103A50000E947A140E949C10BC018AE592E00E94A8
:103A6000F218D0930F02C0930E02EE81FF81048101
:103A7000158181E190E0D8011C969C938E931B9751
:103A800012968D919C911397009711F00E94DA1E67
:103A9000F801838594850E94451ED80113969C9356
:103AA0008E931297E881F9810484F585E02D40E832
:103AB00055E260E070E0CE010995E0911002F091CE
:103AC000110289EF92E09487838787EF92E09687CF
:103AD000858782E190E00E94451EEC0189E891E033
:103AE000998388831B821A821C821D821E821F82F8
:103AF000188619861A861B861D861C861F861E86BA
:103B0000198A188A0091560210915702F80184818F
:103B100081110CC08EEC9BE00E9410190E94311E96
:103B20008AE592E00E94C2170E94E11F86E090E0C1
:103B30000E94451EFC0186E0DF011D928A95E9F78F
:103B40001082118212821382FB83EA83D8011496B9
:103B50008C911497808381E081839AE092838383A0
:103B60001596ED91FC911697309731F086859785E3
:103B70000097E9F0FC01F8CFF801D683C583D09314
:103B80000D02C0930C026DE07CE08AE592E00E9499
:103B90007A140E949C10BC018AE592E00E94F218FF
:103BA0008AE592E00E94C2170E94BA15FDCFD7871E
:103BB000C687E5CF0895EAE5F2E01382128288EE27
:103BC00093E0A0E0B0E084839583A683B78381EA85
:103BD00091E09183808385EC90E09587848784ECE5
:103BE00090E09787868780EC90E0918B808B81ECCA
:103BF00090E0938B828B82EC90E0958B848B86ECAB
:103C000090E0978B868B118E128E138E148EE3E1CB
:103C1000F3E010821182E1E1F3E010821182E8E02A
:103C2000F3E01082118212821382158214821782AD
:103C3000168210868BED91E09093FA028093F90240
:103C40008FEE91E09093F8028093F7020E94AA1AF7
:103C50006093040370930503809306039093070316
:103C60000895CF93DF9368EF71E08AE592E00E94B8
:103C70009E14EC0165EF71E08AE592E00E949E14CB
:103C80008C0F9D1FDF91CF910895CF93DF938230EA
:103C9000910510F482E090E0E0911703F091180391
:103CA00020E030E0C0E0D0E0309711F14081518158
:103CB00048175907C0F04817590761F4828193816A
:103CC000209719F09B838A832BC0909318038093CD
:103CD000170326C02115310519F04217530718F4B0
:103CE0009A01BE01DF01EF010280F381E02DDCCFFC
:103CF0002115310509F1281B390B2430310590F4C9
:103D000012968D919C9113976115710521F0FB011D
:103D10009383828304C09093180380931703FD015B
:103D2000329644C0FD01E20FF31F8193919322501C
:103D300031092D933C933AC020911503309116031D
:103D4000232B41F420910A0130910B01309316038B
:103D500020931503209108013091090121153105A7
:103D600041F42DB73EB740910C0150910D01241B39
:103D7000350BE0911503F0911603E217F307A0F459
:103D80002E1B3F0B2817390778F0AC014E5F5F4FB1
:103D90002417350748F04E0F5F1F509316034093CA
:103DA00015038193919302C0E0E0F0E0CF01DF9131
:103DB000CF9108950F931F93CF93DF93009709F44A
:103DC0008CC0FC013297138212820091170310916C
:103DD00018030115110581F420813181820F931F91
:103DE00020911503309116032817390779F5F093C0
:103DF0001603E093150371C0D80140E050E0AE1700
:103E0000BF0750F412962D913C911397AD012115E7
:103E1000310509F1D901F3CF9D01DA013383228302
:103E200060817181860F971F8217930769F4EC01F7
:103E300028813981260F371F2E5F3F4F3183208322
:103E40008A819B8193838283452B29F4F093180305
:103E5000E093170342C01396FC93EE931297ED0183
:103E6000499159919E01240F351FE217F30771F410
:103E700080819181840F951F029611969C938E9359
:103E80008281938113969C938E931297E0E0F0E0E9
:103E9000D80112968D919C911397009719F0F80113
:103EA0008C01F6CF8D919C9198012E5F3F4F820F30
:103EB000931F20911503309116032817390769F4D1
:103EC000309729F4109218031092170302C013823E
:103ED00012821093160300931503DF91CF911F9167
:103EE0000F91089597FB072E16F4009407D077FDE5
:103EF00009D00E94C71F07FC05D03EF4909581951C
:103F00009F4F0895709561957F4F0895A1E21A2EF5
:103F1000AA1BBB1BFD010DC0AA1FBB1FEE1FFF1F6D
:103F2000A217B307E407F50720F0A21BB30BE40BBD
:103F3000F50B661F771F881F991F1A9469F7609504
:103F40007095809590959B01AC01BD01CF010895BE
:103F5000052E97FB1EF400940E94BF1F57FD07D04B
:103F60000E94861F07FC03D04EF40C94BF1F50958F
:103F70004095309521953F4F4F4F5F4F0895909555
:103F80008095709561957F4F8F4F9F4F0895AA1B25
:103F9000BB1B51E107C0AA1FBB1FA617B70710F034
:103FA000A61BB70B881F991F5A95A9F78095909566
:103FB000BC01CD010895EE0FFF1F0590F491E02D97
:103FC000099481E090E0F8940C94E61F16E0CFEDA0
:103FD000D6E004C0FE010E94DB1F2196C03ED1073F
:063FE000C9F7F894FFCFC1
:103FE6000E17202960574E45000019038000010175
:103FF6000000010000000026103A1000000000C377
:104006000F310F00000000F1189F1700000000A9F3
:10401600189D1700000000A8189B1700000000AAB2
:1040260018CC1800000000000000002714271427F1
:10403600142714271427142714271400000000DD62
:1040460015FC139C16DC1531164916C41500000024
:10405600005E1872187417671755174917B916773F
:1040660017AD169F16000000007E0FA80FB90CB5FD
:104076000CB00CAD0C030DA90CA50CA10C00000096
:10408600003314FC137D15C217AE158C15A0150050
:104096000000002714FC139C169B162714271427D0
:1040A60014000000002714FC139C169B1600000049
:1040B6000000000000271400000000FB13350FFE6F
:1040C6000E0000000000000000271400000000FAA7
:1040D60013330FE90E0D0A005B70726F6772616D24
:0A40E6002061626F727465645D0072
:00000001FF
