:100000000C9438040C9460040C9460040C94A80EB6
:100010000C94A80E0C94A80E0C9460040C9460042C
:100020000C9460040C9460040C9460040C946004C0
:100030000C9460040C9460040C9460040C946004B0
:100040000C94060E0C9460040C94760E0C94500ED6
:100050000C9460040C9460040C9460040C94600490
:100060000C9460040C9460046F6E507265436F6E64
:100070006E656374203A0075736572206D657373E5
:10008000616765206461746120202020203A00753A
:10009000736572206D657373616765207265636552
:1000A00069766564203A00706C65617365206361F0
:1000B0006C6C2053797374656D2E696E6974287940
:1000C0006F757253797374656D4964292062656632
:1000D0006F726520796F7520637265617465206E3B
:1000E0006F6465732E0066726565207372616D20A2
:1000F0003A200053657269616C4E6F64653A3A6FDD
:100100006E4D6573736167653E20726F756E642016
:10011000747269702074696D65203A2000002E00A9
:1001200053657269616C4E6F64653A3A6F6E4D65E6
:1001300073736167653E20434F4E4E454354494FAC
:100140004E5F5354415455535F434F4E4E454354B5
:100150004544206E6F646520286163746976652963
:10016000203A200053657269616C4E6F64653A3ABB
:100170006F6E4D6573736167653E41434B204F4E13
:10018000204352206E6F6465206973206E6F742067
:1001900072656164793A200053657269616C4E6FD3
:1001A00064653A3A6F6E4D6573736167653E6E6F55
:1001B000646520697320616C726561647920636F86
:1001C0006E6E65637465643A200053657269616C94
:1001D0004E6F64653A3A6F6E4D6573736167653E45
:1001E00041434B204F4E204352206E6F646520697F
:1001F00073206E6F74206163746976653A20002005
:10020000203C3C3C200053657269616C4E6F646514
:100210003A3A6F6E4D6573736167653E20434D4496
:100220005F414344203A200053657269616C4E6F10
:1002300064653A3A6F6E4D6573736167653E20433E
:100240004F4E4E454354494F4E5F535441545553BE
:100250005F434F4E4E4543544544206E6F646520C6
:100260003A2000002E0053657269616C4E6F646520
:100270003A3A6F6E4D6573736167653E20756E6BBC
:100280006E6F776E2072656D6F7465206E6F64653A
:100290002077616E747320746F20636F6E6E656378
:1002A000743A2000002E007063622072656D6F74D6
:1002B0006520616464726573733A005365726961A5
:1002C0006C4E6F64653A3A6F6E4D65737361676526
:1002D0003E206E6F6465206E6F7420726561647974
:1002E000203A0053657269616C4E6F64653A3A6FEB
:1002F0006E4D6573736167653E20756E616C6C6FE2
:10030000776564206D6573736167652C2073746114
:10031000747573203C3E20636F6E6E656374656414
:100320002C20616B74696420203A00207061723A5D
:10033000200020636D643A200020616B7449643AA8
:100340002000002E0020746F20002E00203C3C3C3A
:100350003C200020203C3C3C200053657269616CCD
:100360004E6F64653A3A6F6E4D6573736167653EB3
:10037000206E6F6465203A200053657269616C4E8F
:100380006F64653A7265636F6E6E6563743E206E6E
:100390006F6465206E6F742072656164793A200025
:1003A00053657269616C4E6F64653A7265636F6E16
:1003B0006E65637428293E2073656E642043522065
:1003C000666F72206E6F6465200053657269616CA0
:1003D0004E6F64653A7265636F6E6E65637428294B
:1003E0003E2077616974696E6720666F72204352A0
:1003F000206D6573736167652C206E6F64653A20AC
:1004000000506F7274206E6F7420666F756E64009A
:10041000536F667453657269616C506F72743A3AC7
:100420006C697374656E3E206F6E20706F727420FD
:100430003A0000000000240027002A00000000000D
:1004400023002600290066726565207372616D20A5
:100450003A200073657475702053657269616C543D
:100460006573744D61737465720000205365726921
:10047000616C4E6F64653A3A617265416C6C4E6FA7
:10048000646573436F6E6E656374656428293E20EE
:100490002A2A2A20414C4C204E4F44455320434F9A
:1004A0004E4E454354454420574954482052454DEB
:1004B0004F5445202A2A2A00425546464552204F8D
:1004C000564552464C4F573A206461746153697ADD
:1004D00065203E2000203A20002053657269616C3F
:1004E0004E6F64653A3A69734C6966654368656343
:1004F0006B4C6174653E206E6F6465206C61746541
:100500003A200020726F756E642074726970203A10
:10051000200053657269616C4E6F64653A3A697385
:100520004C696665436865636B457870697265649C
:100530003E206E6F646520657870697265643A204C
:100540000053657269616C4E6F64653A3A63686521
:10055000636B436F6E6E656374696F6E3E2061639B
:100560006220666F756E640053657269616C4E6FD0
:1005700064653A3A636865636B436F6E6E65637476
:10058000696F6E3E206C61737453656E64416B7469
:1005900049643A200053657269616C4E6F64653A34
:1005A0003A70726F636573734E6F6465733E206E4D
:1005B0006F206E6F64657320666F756E640053659F
:1005C0007269616C4E6F64653A3A70726F636573FD
:1005D000734E6F6465203A200041525000415251E1
:1005E00000414344004352004C4956450041434BAF
:1005F000004E414B0000000000250028002B0004A5
:1006000004040404040404020202020202030303B9
:1006100003030301020408102040800102040810B3
:100620002001020408102000000008000201000060
:1006300003040700000000000000005365726961B8
:100640006C4E6F64653A3A73656E643E206E6F64FB
:10065000652C206E6F7420636F6E6E6563746564C5
:10066000202C20756E6B6E6F776E2072656D6F74C7
:100670006520616464726573733A005365726961E1
:100680006C4E6F64653A3A73656E643E20726570B5
:100690006C7920746F3A0053657269616C4E6F64B7
:1006A000653A3A73656E64203E206E6F7420636F06
:1006B0006E6E65637465642C20636D64206E6F7468
:1006C00020616C6C6F776564203A20005365726915
:1006D000616C4E6F64653A3A73656E643E20203EED
:1006E0003E3E2000554E4B4F574E5F434D44002039
:1006F0007061723A200020636D643A200020616BC3
:100700007449643A2000002E0020746F20002E00EF
:1007100053657269616C4E6F64653A3A77726974B9
:1007200065546F506F72743E2073756363657373A5
:10073000202C206865616465722E2E2E0053657230
:1007400069616C4E6F64653A3A7772697465546F8B
:10075000506F72743E2077616974696E6720656EB0
:10076000642C2077616974656420666F72203A207A
:100770000053657269616C4E6F64653A3A777269CD
:100780007465546F506F72743E2077616974696E3E
:100790006720666F72207265706C696573206F6E7A
:1007A000206F7468657220736F6674207365726958
:1007B000616C20706F72742E2E2E00536572696109
:1007C0006C4E6F64653A3A7772697465546F506F16
:1007D00072743E2077616974696E6720666F72205B
:1007E0007265706C696573206F6E206F74686572D6
:1007F00020736F66742073657269616C20706F720C
:10080000742C202063616E63656C005365726961AE
:100810006C4E6F64653A3A7772697465546F506FC5
:1008200072743E20474C454943484552204C495339
:1008300054454E4552203F00203E3E3E20706F7290
:10084000743A200020203E3E3E20005365726961CC
:100850006C4E6F64653A3A7772697465546F506F85
:1008600072743E206E6F6465203A20003918351886
:1008700011241FBECFEFD8E0DEBFCDBF11E0A0E056
:10088000B1E0E6EAF4E302C005900D92AA3DB1079B
:10089000D9F722E0AAEDB1E001C01D92A73DB20751
:1008A000E1F714E0C7E3D4E004C02197FE010E9401
:1008B0003B1AC633D107C9F70E94E0150C94461ABB
:1008C0000C94000021E0FC01448555858091DA01FB
:1008D0009091DB014817590709F020E0822F089515
:1008E000DC011C968D919C911D97DC01ED91FC9192
:1008F0000084F185E02D0994DC011C968D919C917A
:100900001D97DC01ED91FC910280F381E02D0994AB
:10091000DC011C968D919C911D97DC01ED91FC9161
:100920000190F081E02D099521E0892B09F420E068
:10093000822F0895DC011C968D919C911D97DC01FE
:10094000ED91FC910284F385E02D0995089581E0F5
:1009500090E00895CF93DF939A01AB01FC01C48529
:10096000D5851B8E1A8E198E188E1F8A1E8A60E0FE
:1009700079E08DE390E00E94081AF90124303105F6
:1009800018F0C901039702C081E090E09D8F8C8F21
:100990006C85663108F069C0C901969587958431E8
:1009A000910510F0439702C081E090E09F8B8E8B01
:1009B000369718F0C901059702C081E090E0998F41
:1009C000888FC901880F991F280F391F36952795E1
:1009D000369527952D30310518F02C50310902C07D
:1009E00021E030E03B8F2A8F90916800683050F012
:1009F00021E06E3008F420E081E001C0880F2A95E4
:100A0000EAF701C084E0892B809368008C858830E8
:100A100038F08E3040F0863148F020E030E008C0F9
:100A20002DE630E005C02BE630E002C02CE630E0D9
:100A30003C8B2B8B883030F491E001C0990F8A9564
:100A4000EAF70EC0282F30E08E3018F42850310914
:100A500002C02E50310991E001C0990F2A95EAF7A2
:100A60009D8B8C8D9D8D0197F1F7CE01DF91CF91FC
:100A70000C94220FCF93DF93EC01E881F981028877
:100A8000F389E02D0995811113C00E941B1368871B
:100A900079878A879B8780E194E00E94B90F8D81D6
:100AA0000E94A60F8C859D85DF91CF910C94220F1B
:100AB00080E0DF91CF910895CF93DF93EC0188E63A
:100AC00090E00E94B90FEA81FB8181810E94A60F0C
:100AD000EA81FB8182E08483DF91CF9108950C94B9
:100AE0003A190C943A19DC0182E191E011969C9339
:100AF0008E931E962D913C911F972115310589F0FB
:100B0000E0911202F0911302309759F08685978593
:100B1000009729F08A179B0711F0FC01F5CF378762
:100B2000268712968D919C911397009711F00C9443
:100B30003A190895CF93DF93EC010E947305CE011B
:100B4000DF91CF910C943A190C943A19EF92FF92DD
:100B50000F931F93CF93DF938C017B01E9018FE803
:100B600090E00E94B90FEA81FB8181810E94A60F6B
:100B700087E790E00E94B90FF7016081718182815F
:100B800093810E94EF0FF8014481558161EF70E07D
:100B9000CE01DF91CF911F910F91FF90EF900C94B8
:100BA000251522E331E0DC0111963C932E93169635
:100BB0008D919C911797009739F0DC01ED91FC9194
:100BC0000280F381E02D09940895CF93DF93EC0127
:100BD0000E94D105CE01DF91CF910C943A19CF93A9
:100BE000DF93C0911002D09111022097B1F0E881FB
:100BF000F9810480F581E02DCE010995019749F432
:100C0000E881F9810288F389E02DCE0109958111EF
:100C10002BC00A80DB81C02DE8CFC0911002D0919B
:100C200011022097A9F0E881F9810480F581E02D77
:100C3000CE010995019741F4E881F9810684F78591
:100C4000E02DCE01099510C00A80DB81C02DE9CFCF
:100C500081E094E00E94DA0F0E94951884E192E00E
:100C60000E942F0D0E94411ACE01DF91CF9108956D
:100C7000DC0112968D919C911397DC01ED91FC9112
:100C80000284F385E02D44E050E060E071E00994D7
:100C9000DC0112968D919C911397DC01ED91FC91F2
:100CA0000284F385E02D44E050E064E071E00994B3
:100CB0000F931F93CF93DF9300D000D0CDB7DEB753
:100CC0008C014B835C8369837A830E944806D80138
:100CD00012968D919C911397DC01ED91FC91028409
:100CE000F385E02D4B815C8169817A810995C8018A
:100CF0000F900F900F900F90DF91CF911F910F9158
:100D00000C94380608950895CF93DF93EC018AE29E
:100D100091E0998388838C819D81009739F0DC0173
:100D2000ED91FC910280F381E02D09958E819F81E8
:100D3000009749F0DC01ED91FC910280F381E02DF8
:100D4000DF91CF910994DF91CF910895CF93DF93F5
:100D5000EC010E948406CE01DF91CF910C943A19E8
:100D6000DC011696ED91FC9117978681978100978B
:100D700011F40E94411A0895CF93DF93EC01EA81A8
:100D8000FB8181E08483EA81FB818581882349F0AE
:100D9000E091DC01F091DD01309731F0CE01099551
:100DA00003C08AEC93E019C0EA81FB818481823020
:100DB00091F480EA93E00E94B90FEA81FB8181817E
:100DC0000E94A60F40E050E063EF70E0CE01DF919B
:100DD000CF910C94251589E793E00E94B90FEA8121
:100DE000FB818181DF91CF910C94A60FCF92DF928E
:100DF000EF92FF920F931F93CF93DF9300D01F9238
:100E0000CDB7DEB76C0182E191E0D60111969C93DB
:100E10008E9313961C921E921297F60114821582DD
:100E20001682178218961D921D921D921C921B9776
:100E30001D961C921E921C971F961C921E921E9726
:100E400051961C921E9250971091D20211110CC013
:100E500087EA90E00E94DA0F0E94951884E192E000
:100E60000E942F0D0E94411AF601F18AE08A86E065
:100E700090E02B834A8369830E94A518FC0186E0D9
:100E8000DF011D928A95E9F7D6011396FC93EE9344
:100E900012971083698161832B81228303834A81A6
:100EA0004583E0911202F0911302309731F086856C
:100EB0009785009739F0FC01F8CFD0921302C092C9
:100EC000120202C0D786C6860F900F900F90DF9156
:100ED000CF911F910F91FF90EF90DF90CF900895E9
:100EE000DC0150962D913C915197232B41F01296A5
:100EF000ED91FC91139781E09481943009F080E0AA
:100F000008950895FC0184819581009751F0FC01BA
:100F1000208131812617370721F0FC0185859685D0
:100F2000F4CF0895CF93DF93EC010E9482070097DE
:100F300099F1FC0145855685EC81FD8141155105EE
:100F4000A1F08E179F0721F45D834C8321C0F90126
:100F50003097F1F02585368521153105C9F0281720
:100F60003907A9F75687458713C08E179F0721F4C5
:100F70001D821C820DC0F901309751F02585368500
:100F80002115310529F028173907A9F71686158686
:100F90000E943A1981E001C080E0DF91CF9108956D
:100FA000CF93DF93EC0184EA91E099838883EC810D
:100FB000FD81309731F060817181CE010E949207EE
:100FC000F6CFDF91CF910895CF93DF93EC010E948C
:100FD000D007CE01DF91CF910C943A19FC0190819A
:100FE000DB018C91981305C081E0218111969C91C1
:100FF000291380E008953F924F925F926F927F9203
:101000008F929F92AF92BF92CF92DF92EF92FF9218
:101010000F931F93CF93DF9300D0CDB7DEB77C0142
:101020006B012A014901672B11F40E94411A452BDB
:1010300019F0232B19F4F9CF232BB9F7011511055A
:10104000A1F3D7011296ED91FC91139792818091B3
:10105000D202981751F30E941B13F7016483758322
:1010600086839783D6011696AD90BC901797C701DB
:101070000E947007382E8AE593E00E94B90FD701CD
:101080001296ED91FC91139781810E94E80F83E500
:1010900093E00E94B90F3501B0EF6B1A7108E8E0D8
:1010A0006E16710440F4F301EE0FFF1FEB54FE4F78
:1010B0008081918102C084EE96E00E94B90F8CE499
:1010C00093E00E94DA0FD6018C910E94E80F8AE427
:1010D00093E00E94B90FF60181810E94E80F85E438
:1010E00093E00E94B90FD60112968C910E94E80FEE
:1010F00083E493E00E94B90FF60183810E94E80F18
:1011000082E493E00E94DA0F89E393E00E94B90F32
:10111000D60114966D917C91159780E090E04AE09D
:101120000E94650F82E393E00E94B90FF601868169
:101130009781805F91098830910540F4880F991F4D
:10114000FC01EB54FE4F8081918102C084EE96E059
:101150000E94B90F8BE293E00E94B90FD601189656
:101160008C910E94A60F311014C0B2E06B1671046E
:1011700080F0E3EFAE16B10461F083EE92E00E94DE
:10118000B90FD60114968D919C9115970E9412105B
:101190000CC2B3EFAB16B10441F1ACF4F0EFAF16F3
:1011A000B10409F499C124F4AB2809F4FEC1FAC1D1
:1011B000A1EFAA16B10409F405C1B2EFAB16B10450
:1011C00009F4D6C0EFC1E5EFAE16B10409F4DDC0F5
:1011D0000CF4B9C086EFA816B10409F49AC1A7EFC0
:1011E000AA16B10409F4E2C0DDC1D7011296ED914F
:1011F000FC91139785818111A0C0E091DC01F091F1
:10120000DD01309711F0C7010995D7011296ED91D4
:10121000FC9113978481823069F08BEB92E00E94FD
:10122000B90FD7011296ED91FC91139781810E941D
:10123000A60FBBC18281811122C0D6018D919C91E4
:101240009383828387EA92E00E94DA0FD701129695
:10125000ED91FC91139782810E94E80F85EA92E05C
:101260000E94B90FD7011296ED91FC9113978381DB
:101270000E94E80F84EA92E00E94DA0F33C0B601C0
:10128000CF0102960E94EE0781112CC086E692E003
:101290000E94B90FD7011296ED91FC9113978181AD
:1012A0000E94E80FD7011296ED91FC91139782816D
:1012B0000E94E80F84E692E00E94B90FD7011296CF
:1012C000ED91FC91139783810E94E80F83E692E0F1
:1012D0000E94DA0FF6014481558160EF70E0C7018A
:1012E0000E942515D70151961C930E935097129684
:1012F000ED91FC91139784E084831296ED91FC911B
:101300001397D6018D919C911197938382831496A4
:101310004D915C91159761EF70E0C7010E94251512
:1013200088E292E00E94B90FD7011296ED91FC91EC
:10133000139781810E94A60F35C1F6014481558122
:1013400060EF70E01EC03320C1F3D60114964D91BA
:101350005C91159761EF70E0C7010E942515F701B8
:10136000118A108A0280F381E02D83E084831AC100
:10137000332019F3D60114964D915C91159761EFC6
:1013800070E0C7010E9425150DC186E092E00E9421
:10139000B90FD7011296ED91FC91139781810E94AC
:1013A000E80F8FEF91E00E94B90FB3C0F60164819E
:1013B000758181EB92E00E9482075C01892B09F024
:1013C000AAC0F3C0D60114966D917C91159781EB5C
:1013D00092E00E9482075C01009709F4E6C0FC01DC
:1013E0008281843F09F471C0863F09F494C0833F31
:1013F00009F09CC0D70151961C930E9350971296FA
:101400008D909C901397F4018581811103C08AEC23
:1014100091E018C0C7010E947007882369F088E92D
:1014200091E00E94B90FD7011296ED91FC911397AC
:1014300081810E94A60F7AC0F4018481823069F014
:1014400084E691E00E94B90FD7011296ED91FC91CC
:10145000139781810E94E80F69C0F6018081918114
:10146000D40113969C938E931297D7011296ED9107
:10147000FC91139784E0848351961C930E935097AC
:1014800080E291E00E94B90FD7011296ED91FC9194
:10149000139781810E94A60FD7011296ED91FC91BE
:1014A000139780810E94E80F8EE191E00E94B90FAE
:1014B000D7011296ED91FC91139781810E94E80F5C
:1014C0008DE191E00E94DA0F31C0F701118A108A94
:1014D0000280F381E02D1AC0D60114966D917C91A3
:1014E000159781EB92E00E9482075C01009709F456
:1014F0005CC0FC018281833F21F0863F61F0823F26
:10150000A9F4D7011296ED91FC91139783E084839F
:101510000DC0A12CB12CE091DE01F091DF013097DC
:1015200029F09701A401B201C6010995A114B104E3
:10153000E1F183EF90E00E94B90F0E941B13F501C7
:101540000185128523853485601B710B820B930BFB
:101550000E94EF0F80E00E94FE0F8C01D6011496CE
:101560006D917C91159781EB92E00E94920780E04B
:101570000E94FE0F8017910708F057CD86EE90E08D
:101580000E94B90F2091D3023091D4022115310568
:1015900011F427ED32E0CE010196821B930B0E94DD
:1015A0006B1203C0A12CB12CC1CF0F900F90DF9113
:1015B000CF911F910F91FF90EF90DF90CF90BF9050
:1015C000AF909F908F907F906F905F904F903F90E3
:1015D00008954F925F926F927F928F929F92AF92F7
:1015E000BF92CF92DF92EF92FF920F931F93CF9310
:1015F000DF9300D0CDB7DEB72C016B018A01892BB8
:1016000011F40E94411A6930710520F09B012950A4
:10161000310902C020E030E0D20112968C9112977D
:10162000882309F42FC19091D202891342C0E0901F
:101630001202F0901302E114F10419F313968C9145
:101640008823C9F06201B2E0CB0ED11CB601F701CC
:101650008281938129833A830E94EE0729813A810E
:10166000811182C0D7011E96ED90FC901F97E11466
:10167000F10461F707C1F20186819781833F9105EB
:1016800009F000C1D7011296ED91FC911397858165
:10169000811160C08481823009F05CC0828188231E
:1016A00021F0D2019C91891355C08381811152C0D0
:1016B0005BC0F2012081291709F4E4C0E090100218
:1016C000F0901102F701309739F09581981749F1A0
:1016D0000280F381E02DF7CFC2010E9483125C01EA
:1016E000892B09F455C04501F2E08F0E911CB2011F
:1016F000C4010E94EE0795012C5F3F4F39018823FA
:1017000009F440C0B2016E5F7F4FC9010E94EE072D
:101710008823C1F1D5011896ED91FC911997309766
:10172000B9F1CF010E94B006A601B2010F900F904F
:10173000DF91CF911F910F91FF90EF90DF90CF90AD
:10174000BF90AF909F908F907F906F905F904F90E1
:101750000C945806D7011E96ED90FC901F97E1144B
:10176000F10409F08FCF8EC02115310541F0A2019F
:10177000475F5F4FB201C7010E94FB0783C040E093
:1017800050E0F8CFB201C3010E94EE07811166C09C
:10179000D20116968D919C911797833F910509F080
:1017A00071C08090B9029090BA02F401309721F094
:1017B0000284F385E02DFACFA114B10461F0F201A7
:1017C00084819581D50111969C938E9319961C92D4
:1017D0001E9218972EC08CE090E00E94A518FC0184
:1017E0008CE0DF011D928A95E9F712821382148240
:1017F00015828114910409F440C0D4011A968D9188
:101800009C911B97009711F04C01F3CFD4011B96CC
:10181000FC93EE931A97D2018D919C91119793832B
:1018200082831783068314968D919C9115979183DB
:101830008083E114F10431F1D70115969C91F801F0
:1018400085819817F9F0C7010E94B006A601B20180
:101850000E945806F701E280F380EBCFB2016E5F81
:101860007F4FC4010E94EE07882309F491CFD50170
:101870001696ED91FC91179752CFF093BA02E09330
:10188000B902C9CF0F900F90DF91CF911F910F91A7
:10189000FF90EF90DF90CF90BF90AF909F908F9090
:1018A0007F906F905F904F900895CF92DF92EF926C
:1018B000FF920F931F93CF93DF936C017A018B01FB
:1018C000C0E0D0E0CE15DF0589F0D8016D918D0123
:1018D000D601ED91FC910190F081E02DC6010995B2
:1018E000892B11F47E0102C02196ECCFC701DF9154
:1018F000CF911F910F91FF90EF90DF90CF900895BF
:10190000FC01538D448D252F30E0842F90E0821B05
:10191000930B541710F0CF96089501970895FC018A
:10192000918D828D981761F0828DDF01A80FB11D16
:101930005D968C91928D9F5F9F73928F90E008953A
:101940008FEF9FEF0895FC01918D828D981731F0F4
:10195000828DE80FF11D858D90E008958FEF9FEF48
:101960000895FC01918D228D892F90E0805C9F4F1E
:10197000821B91098F739927089584E192E00E9458
:10198000B10C21E0892B09F420E0822F0895FC019D
:10199000848DDF01A80FB11DA35ABF4F2C91848DF8
:1019A00090E001968F739927848FA689B7892C932D
:1019B000A089B1898C9180648C93938D848D9813C8
:1019C00006C00288F389E02D80818F7D8083089591
:1019D000EF92FF920F931F93CF93DF93EC0181E07F
:1019E000888F9B8D8C8D981305C0E889F98980813B
:1019F00085FD24C0F62E0B8D10E00F5F1F4F0F7377
:101A00001127E02E8C8DE8120CC00FB607FCFACF20
:101A1000E889F989808185FFF5CFCE010E94C70C46
:101A2000F1CF8B8DFE01E80FF11DE35AFF4FF082DD
:101A30000B8FEA89FB898081806207C0EE89FF896C
:101A40006083E889F98980818064808381E090E007
:101A5000DF91CF911F910F91FF90EF900895CF9359
:101A6000DF93EC01888D8823C9F0EA89FB898081A6
:101A700085FD05C0A889B9898C9186FD0FC00FB678
:101A800007FCF5CF808185FFF2CFA889B9898C91B9
:101A900085FFEDCFCE010E94C70CE7CFDF91CF913C
:101AA000089580E090E0892B29F00E94BD0C8111FF
:101AB0000C94000008952091DA013091DB01281781
:101AC000390771F49091010280910002981741F05A
:101AD000E0910102F0E0E052FE4F808190E0089535
:101AE0008FEF9FEF089508951F93CF93DF93DC014D
:101AF0005C962D913C915D972115310539F481E07B
:101B000090E013969C938E9312973DC05196ED9161
:101B1000FC91529750969C915097892F80951FB7B2
:101B20005E964C915E9741FB772770F941FD609579
:101B3000F8944081772311F0492B01C0482340835A
:101B4000E9012197F1F748E0508160FF02C0592B6D
:101B500001C058235083E9012197F1F76695415060
:101B600099F7772321F090818923808303C08081B6
:101B7000982B90831FBF5C968D919C915D970197E8
:101B8000F1F721E030E0C901DF91CF911F91089575
:101B90002091DA013091DB012817390769F480912F
:101BA00000022091010290E08096821B910960E280
:101BB00070E00E94D219089580E090E0089520918D
:101BC000DA013091DB0128173907B9F4909101024D
:101BD00080910002981789F0E0910102F0E0E05254
:101BE000FE4F80812091010230E02F5F3F4F2F7127
:101BF00033272093010290E008958FEF9FEF08951F
:101C0000089580E090E008950E94411A1F920F927B
:101C10000FB60F9211242F933F938F939F93AF93FF
:101C2000BF938091CE029091CF02A091D002B0914B
:101C3000D10230910F0223E0230F2D3720F40196BB
:101C4000A11DB11D05C026E8230F0296A11DB11DDF
:101C500020930F028093CE029093CF02A093D002E4
:101C6000B093D10280910B0290910C02A0910D02D1
:101C7000B0910E020196A11DB11D80930B029093AD
:101C80000C02A0930D02B0930E02BF91AF919F91F1
:101C90008F913F912F910F900FBE0F901F9018952D
:101CA0001F920F920FB60F9211242F933F934F93D1
:101CB0005F936F937F938F939F93AF93BF93EF93B4
:101CC000FF9384E192E00E94C70CFF91EF91BF91D6
:101CD000AF919F918F917F916F915F914F913F91C4
:101CE0002F910F900FBE0F901F9018951F920F927B
:101CF0000FB60F9211242F938F939F93EF93FF931F
:101D0000E0912402F09125028081E0912A02F09175
:101D10002B0282FD12C0908180912D028F5F8F7304
:101D200020912E02821751F0E0912D02F0E0EC5E3E
:101D3000FD4F958F80932D0201C08081FF91EF911F
:101D40009F918F912F910F900FBE0F901F9018951C
:101D50001F920F920FB60F9211242F933F934F9320
:101D60005F936F937F938F939F93AF93BF93EF9303
:101D7000FF93E091DA01F091DB01309709F451C053
:101D8000968DA685B785858591FF04C09C91892392
:101D900029F447C09C91892309F043C0A389B489E1
:101DA0009C918589809589238C9386899789019751
:101DB000F1F7608D718DA685B785558538E020E0F7
:101DC000CB010197F1F7822F90E095958795282F09
:101DD0004C91452309F02068315091F7868D81FDA3
:101DE00020958091000290E001968F7199273091A3
:101DF0000102381749F0A0910002B0E0A052BE4F96
:101E00002C938093000203C0868D8160868F828D23
:101E1000938D0197F1F7A389B4899C918589892BCA
:101E20008C93FF91EF91BF91AF919F918F917F9193
:101E30006F915F914F913F912F910F900FBE0F9037
:101E40001F901895CF93DF93FC01828D938D892B82
:101E500031F1A091DA01B091DB01AE17BF07F9F0C3
:101E6000109751F05396CD91DC91549798815596E7
:101E70008C91809589238883868D8E7F868F1092A2
:101E8000000210920102F093DB01E093DA01A389D2
:101E9000B4899C918589892B8C9381E001C080E075
:101EA000DF91CF910895009769F0FC010190002027
:101EB000E9F73197AF01481B590BBC0184E192E06F
:101EC0000C94550C80E090E008958F929F92AF9211
:101ED000BF920F931F93CF93DF93CDB7DEB7A19738
:101EE0000FB6F894DEBF0FBECDBF19A2423008F482
:101EF0004AE08E010F5D1F4F842E912CA12CB12C36
:101F0000A50194010E94E619E62FB901CA0101500A
:101F10001109EA3014F4E05D01C0E95CD801EC93EA
:101F2000232B242B252B61F7C8010E94530FA19668
:101F30000FB6F894DEBF0FBECDBFDF91CF911F91DA
:101F40000F91BF90AF909F908F900895CF93DF93A4
:101F5000682F70E080E090E04AE00E94650FEC019D
:101F600085EC91E00E94530F8C0F9D1FDF91CF9164
:101F700008950F931F93CF93DF938C01C0E0D0E0BF
:101F8000F801EC0FFD1F6491662371F0E0911402DB
:101F9000F09115020190F081E02D84E192E0099525
:101FA000892B11F02196ECCFCE01DF91CF911F91BB
:101FB0000F910895CF93DF930E94B90FEC0185EC48
:101FC00091E00E94530F8C0F9D1FDF91CF910895D8
:101FD000682F70E080E090E04AE00C94650FCF93AA
:101FE000DF934AE00E94650FEC0185EC91E00E94CE
:101FF000530F8C0F9D1FDF91CF910895282FE091F3
:10200000B502F091B60280E090E0309751F02111D6
:1020100005C001960584F685E02DF7CF308532178F
:10202000C1F30895CF93DF93BC0180E090E04AE0D4
:102030000E94650FEC0185EC91E00E94530F8C0F1C
:102040009D1FDF91CF910895CF92DF92EF92FF9283
:10205000CF93DF936B017C01E0911402F0911502A4
:102060000190F081E02D6DE284E192E00995EC01B0
:1020700066277727CB016C197D098E099F094AE0F5
:102080000E94650F8C0F9D1FDF91CF91FF90EF9005
:10209000DF90CF9008958F929F92AF92BF92CF9290
:1020A000DF92EF92FF920F931F93CF93DF93C09134
:1020B000BB02D091BC02209729F48091120290912A
:1020C00013020BC080E00E94FE0F892B21F088894B
:1020D0009989892B31F08E859F859093BC028093DE
:1020E000BB028091BB029091BC02892B41F480918C
:1020F0001202909113029093BC028093BB028EEB6C
:1021000095E00E94B90FE091BB02F091BC02028001
:10211000F381E02D81810E94A60F8091BB029091F6
:10212000BC02892B59F485E995E00E94DA0F0E94E0
:10213000951884E192E00E942F0D75C00E94EF0572
:10214000EC01892B09F43FC08A819B81892BD9F14D
:10215000E881F9810088F189E02DCE010995892B6C
:1021600091F58D810E94FE0F892B69F50E941B134A
:10217000088519852A853B85DC01CB01801B910BE5
:10218000A20BB30B893C9105A105B105E0F00A80D3
:10219000DB81C02D209721F4C0911002D091110253
:1021A000209709F440C0E881F9810480F581E02D91
:1021B000CE010995019759F7E881F9810684F785E1
:1021C000E02DCE010995C091BB02D091BC020E94C6
:1021D0001B136B017C0188859985AA85BB850097B7
:1021E000A105B10511F1A7019601281B390B4A0B76
:1021F0005B0BDA01C901883E9340A105B105A8F443
:1022000000911002109111020115110561F0FF24D7
:10221000F394D8011696ED91FC91179784819581DE
:10222000892B09F06EC00E94411ACE010E947007EE
:10223000882309F446C0EA81FB818581882309F45B
:1022400044C06C857D8581EB92E00E9482078C0101
:10225000892BD9F10E941B13D80119968D909D905E
:10226000AD90BC901C97DC01CB0188199909AA0993
:10227000BB09813D9740A105B10538F182E195E0A8
:102280000E94B90FEA81FB8181810E94E80F83E0FF
:1022900095E00E94B90F0E941B13D80119968D90EA
:1022A0009D90AD90BC901C97681979098A099B098B
:1022B0000E94EF0FF8016081718181EB92E00E9432
:1022C0009207CE010E94BC0617C0EA81FB8185817E
:1022D000882391F00E941B130C811D812E813F8168
:1022E000DC01CB01801B910BA20BB30B893B9B4004
:1022F000A105B10508F0B8C0C886D986EA86FB8674
:102300007FCFED91FC910088F189E02DC8010995FE
:10231000181619066CF1F8010281138101151105D7
:1023200009F077CFDF91CF911F910F91FF90EF9040
:10233000DF90CF90BF90AF909F908F900895D8017D
:102340001696ED91FC911797C481D581209709F4D9
:102350006ACF8E819F81009709F465CFDC01ED91F2
:10236000FC910088F189E02D0995181619065CF09A
:10237000D801ED91FC910088F189E02DC801099503
:10238000892BE9F6C8CF8985843008F04CCF888541
:10239000843008F048CF8E819F81DC01ED91FC9163
:1023A0000680F781E02D09958F879C859923D9F0C8
:1023B0002A8530E04D855E852417350750F44C8121
:1023C0005D81FA01E20FF31F80838A858F5F8A8720
:1023D0000AC088EB94E00E94B90F8D859E85049712
:1023E0000E9412101C869F858885E82FF0E0EC5F24
:1023F000FE4F2081921309C0833021F41886FC8699
:102400001A8609C08F5F888706C0188680910401EC
:10241000981301C0F8868985E82FF0E0E050FF4F5F
:10242000208192131AC08330A9F46A8564506B87A7
:10243000EA81FB81309709F4F6CE8C85882331F050
:102440004E815F8170E08C819D81099519861C8683
:102450001A868ECF8F5F89878BCF19868091000176
:10246000981386CFF98684CF89ED94E00E94B90F46
:10247000EA81FB8181810E94E80F85ED94E00E9452
:10248000B90F0E941B130C811D812E813F81601B9F
:10249000710B820B930B0E94EF0F6C857D8581EB96
:1024A00092E00E9482078C0188E695E00E94B90FB5
:1024B0008C859D850E941210012B41F440E050E074
:1024C00062EF70E0CE010E94251516CF81E495E001
:1024D0000E94DA0F11CFCF93DF93BC01990F880BC5
:1024E000990B97FF03C00E94241003C04AE00E948A
:1024F000650FEC0185EC91E00E94530F8C0F9D1F3E
:10250000DF91CF910895CF92DF92EF92FF920F93D8
:102510001F93CF93DF938C01C091B902D091BA027F
:102520007C0182E0E80EF11C209761F18E819F8191
:10253000892B21F188859985892B01F16E0182E033
:10254000C80ED11CB801C6010E94EE07811106C059
:10255000B701C6010E94EE07882381F06E0184E076
:10256000C80ED11CB801C6010E94EE0781110DC032
:10257000B701C6010E94EE07811107C00A84DB85FE
:10258000C02DD2CF80E090E001C0CE01DF91CF918D
:102590001F910F91FF90EF90DF90CF90089590E002
:1025A000FC01E95DF94F3491FC01ED5EF94F249196
:1025B000FC01E150FA4FE491EE2309F43BC03323D0
:1025C00039F1333091F038F43130A9F0323001F57F
:1025D00084B58F7D12C0373091F03830A1F034309F
:1025E000B9F4809180008F7D03C0809180008F7747
:1025F000809380000DC084B58F7784BD09C0809121
:10260000B0008F7703C08091B0008F7D8093B000C1
:10261000F0E0EE0FFF1FEB50FA4FA591B4918FB78A
:10262000F894EC91611103C020952E2301C02E2B4C
:102630002C938FBF08952FB7F8946091CE027091BC
:10264000CF028091D0029091D1022FBF08954F9276
:102650005F926F927F928F929F92AF92BF92CF9232
:10266000DF92EF92FF920F931F93CF93DF934C0172
:10267000EB018A018BE498E00E94B90F89810E94E6
:10268000E80F84E498E00E94B90F8E819F81805FFB
:1026900091098830910540F4880F991FFC01EB5493
:1026A000FE4F8081918102C084EE96E00E94B90FB6
:1026B00088E398E00E94B90FD80115968C910E948A
:1026C000A60FD801ED91FC910480F581E02DC801A1
:1026D0000995019791F4D801ED91FC910288F38955
:1026E000E02DC8010995811108C04FC1F70185810E
:1026F0000E94FE0F892B09F05AC1D801ED91FC917F
:102700000288F389E02DC8010995811115C08E81D9
:102710009F81825F91098530910570F4FC01E0553D
:10272000FE4F8081882341F0D801ED91FC91068411
:10273000F785E02DC8010995209711F40E94411AF0
:102740009A8188819817D1F38C819D81892B09F01A
:10275000B6C08091B3029091B402019621F4109218
:10276000B4021092B302C090B302D090B402EFEF63
:10277000CE1ADE0AD092B402C092B302DD82CC82BD
:10278000AE80BF80C501825F91098530910508F058
:1027900096C0FC01E055FE4F8081882309F48FC06C
:1027A000E090B502F090B60237012E01F2E04F0E34
:1027B000511C6114710409F1D30112968C9190E0BF
:1027C0008A159B0571F4BE01C30103960E94EE07B2
:1027D000882339F0B201C30105960E94EE078111EA
:1027E0001FC1F30165847684E4CFD7011D968D91D6
:1027F0009C911E97009721F07C01E114F104A9F748
:102800008FE090E00E94A5183C018FE0F301119247
:102810008A95E9F7D30113961C92139714961C928C
:10282000149715961C92159716961C92E114F104B4
:1028300029F47092B6026092B50203C0F701768661
:102840006586D3011296AC9212978881998114966D
:102850009C938E9313978A819B8116969C938E935B
:102860001597CD20C09421F41092B4021092B302B7
:102870008091B3029091B40201969093B402809338
:10288000B302F301918380839D838C830E941B1389
:10289000D30119966D937D938D939C931C978C8196
:1028A0009D8111969C938E93F801858118968C9347
:1028B0008C819D81D4011D969C938E931C97C80199
:1028C0000E94B0060E944806C8010E94B006FC01A2
:1028D00082819381DC01ED91FC910284F385E02DEE
:1028E00049E050E0BE010995C8010E94B0060E946F
:1028F000380680E197E00E94DA0F88810E94E80F95
:102900008EE097E00E94B90F89810E94E80F89E06C
:1029100097E00E94B90F8A810E94E80F87E097E054
:102920000E94B90F8B810E94E80F86E097E00E9419
:10293000DA0F8DEF96E00E94B90F6C817D8180E007
:1029400090E04AE00E94650F86EF96E00E94B90F82
:102950008E819F81805F91098830910540F4880FB6
:10296000991FFC01EB54FE4F8081918102C084EEDF
:1029700096E00E94B90F8FEE96E00E94B90F88850D
:102980000E94A60F8C819D814FC00E94EF057C01A3
:102990008017910709F0AACE8BE098E00E94DA0F29
:1029A0000E94951884E192E00E942F0DC7CE8E817F
:1029B0009F819C01225F31092230310538F48BEB75
:1029C00097E00E94DA0F80E090E02EC0863F9105EC
:1029D00009F093CE81E797E00E94DA0F0E941B1363
:1029E0002B013C010E944B10D70115968C910E943F
:1029F000FE0F892BB9F78DE397E00E94B90F0E9473
:102A00001B1364197509860997090E94EF0FD801F5
:102A1000ED91FC910684F785E02DC80109956DCEF6
:102A200082E0F301878332CFDF91CF911F910F9125
:102A3000FF90EF90DF90CF90BF90AF909F908F90DE
:102A40007F906F905F904F900895CF92DF92EF92BA
:102A5000FF920F931F93CF93DF93CDB7DEB72997E4
:102A60000FB6F894DEBF0FBECDBF8C016B017A01AB
:102A700019821A821B821C821E821D8218861F8266
:102A800019868CEC96E00E94B90FD8011296ED9150
:102A9000FC9113978091D2029281981302C00E94F8
:102AA000411A94819430D9F0B3EFCB16D104B9F028
:102AB0009601205F31092230310588F087E996E0E0
:102AC0000E94B90FB601DD0C880B990B97FF03C06C
:102AD0000E94241064C04AE00E94650F60C0898390
:102AE000E114F104C9F08BE796E00E94B90FC70129
:102AF0000E941210FE82ED82C8010E947007882396
:102B000031F0D8011296ED91FC91139707C08BE339
:102B100096E00E94DA0F43C01E821D82828193815B
:102B20009C838B83D8011296ED91FC911397808141
:102B300091819A838983D886CF82198650964D9148
:102B40005C9151974115510539F48B81E090100249
:102B5000F0901102A7010DC0BE016F5F7F4FC80149
:102B60000E94271319C0FA0195819817A9F3428191
:102B7000538141155105B9F7E114F10481F0A70122
:102B8000BE016F5F7F4FC8010E942713F701E280EB
:102B9000F380E114F10499F78D819E8102C080E0F9
:102BA00090E029960FB6F894DEBF0FBECDBFDF913F
:102BB000CF911F910F91FF90EF90DF90CF900895EC
:102BC000CF93DF9300D0CDB7DEB7789484B5826021
:102BD00084BD84B5816084BD85B5826085BD85B5C1
:102BE000816085BD80916E00816080936E0010923F
:102BF00081008091810082608093810080918100BA
:102C0000816080938100809180008160809380004A
:102C10008091B10084608093B1008091B0008160A8
:102C20008093B00080917A00846080937A008091D4
:102C30007A00826080937A0080917A00816080932C
:102C40007A0080917A00806880937A001092C100A7
:102C5000E0912402F091250282E08083E09120023D
:102C6000F09121021082E0912202F09123028FEC78
:102C7000808310922C02E0912802F091290286E0D4
:102C80008083E0912602F091270280818061808319
:102C9000E0912602F0912702808188608083E09194
:102CA0002602F0912702808180688083E0912602CD
:102CB000F091270280818F7D80838AE694E00E94D4
:102CC000DA0F83E594E00E94DA0F8BE08093D20262
:102CD0008EE090E00E94A5188C0182E391E0D8017B
:102CE00011969C938E9313961C921E921297149693
:102CF0001C92149717961C921E921697F801108634
:102D00001186128613868AE08583E0911002F09185
:102D10001102309729F4109311020093100208C099
:102D200082819381009711F0FC01FACF1383028313
:102D300088E090E00E94A5186C018AE291E0D6013B
:102D40008D939C9380E190E00E94A5187C018AE11C
:102D500091E0F70191838083158214821086118699
:102D6000128613861486168615861786138212829B
:102D7000D6011596FC92EE92149784E090E00E94A2
:102D8000A518FC0182E291E0918380831382128274
:102D9000D6011796FC93EE931697D70117961C93BE
:102DA0000E9316970115110511F40E94411A138311
:102DB0000283F6011383028389EE9AE0D70113960A
:102DC0009C938E931297F801D782C6828DE090E093
:102DD0001E969C938E931D970E94A518D701159659
:102DE0009C938E9314978CE591E0F80191838083F6
:102DF0008FE190E00E94A5187C01DC0113961C92E3
:102E00001E92129788EE93E0A0E0B0E0F701848371
:102E10009583A683B7838AE491E091838083178AA0
:102E2000168A118E108E138E128E158E148E668D4C
:102E30006E7F6D7F668F6695617081E068278BE09D
:102E40000E94CF12EEE1F6E02491EAE0F6E08491F0
:102E5000882399F090E0880F991FFC01EE5CFB4FEE
:102E6000A591B491FC01EB50FA4F859194918FB7E5
:102E7000F894EC91E22BEC938FBFEEE1F6E0E49155
:102E8000D7015096EC93EAE0F6E0E491F0E0EE0F23
:102E9000FF1FEB50FA4F85919491F701928B818B34
:102EA000EDE1F6E02491E9E0F6E084918823C9F0B1
:102EB00090E0880F991FFC01EE5CFB4FA591B49147
:102EC000FC01EB50FA4F459154919FB7F8948C91C7
:102ED000E22FE0958E238C93DA018C91E823EC931A
:102EE0009FBFF701868D81FD04C061E08AE00E94EA
:102EF000CF128AE0D7011C968C931C97EDE1F6E087
:102F0000E4911D96EC93E9E0F6E0E491F0E0EE0F39
:102F1000FF1FE45CFB4F85919491F70197878687AB
:102F2000D8011D96FC92EE921C9710930902009313
:102F300008021696ED91FC911797E480F58081E1E7
:102F400090E0F7019687858784819581009711F03D
:102F50000E943A19D7011D968D919C911E970E944F
:102F6000A518F70195838483D801ED91FC91048421
:102F7000F585E02D40E855E260E070E0C801099574
:102F80008CE595E09093DD018093DC0186EA95E085
:102F90009093DF018093DE0182E190E00E94A5180A
:102FA0006C01E12CF12C01E02AE040E061E00E949C
:102FB000F606D0920702C092060282E190E00E94DB
:102FC000A5186C0102E02AE040E062E00E94F606EB
:102FD000D0920502C092040282E190E00E94A518FE
:102FE0006C0103E02AE040E063E00E94F606D09224
:102FF0000302C092020286E494E00E94B90F20917D
:10300000D3023091D4022115310511F427ED32E0BD
:10301000CE010196821B930B0E946B12FF24F39446
:103020000E944B10009112021091130281E00115D1
:10303000110549F0882319F0C8010E947007F801B2
:1030400006851785F4CF882359F080910A028111F3
:1030500009C08BE694E00E94DA0FF0920A0202C0E7
:1030600010920A020E94510DDBCF81EB92E00C948A
:10307000D007E4E1F2E01382128288EE93E0A0E050
:10308000B0E084839583A683B78384E791E091833E
:10309000808385EC90E09587848784EC90E0978727
:1030A000868780EC90E0918B808B81EC90E0938B15
:1030B000828B82EC90E0958B848B86EC90E0978BF2
:1030C000868B118E128E138E148EECECF2E0108231
:1030D0001182EAECF2E010821182E7EBF2E08CEA76
:1030E00091E09183808313821282E1EBF2E084EA23
:1030F00091E0918380831582148213821282E1EC25
:10310000F2E01082118212821382158214821782D9
:10311000168210860E941B136093BD027093BE023C
:103120008093BF029093C0020895CF93DF9388EC01
:1031300091E00E94530FEC0185EC91E00E94530F47
:103140008C0F9D1FDF91CF910895CF93DF93823035
:10315000910510F482E090E0E091D502F091D60262
:1031600020E030E0C0E0D0E0309711F140815181A3
:1031700048175907C0F04817590761F482819381B5
:10318000209719F09B838A832BC09093D60280935B
:10319000D50226C02115310519F04217530718F43E
:1031A0009A01BE01DF01EF010280F381E02DDCCF47
:1031B0002115310509F1281B390B2430310590F414
:1031C00012968D919C9113976115710521F0FB0169
:1031D0009383828304C09093D6028093D502FD012D
:1031E000329644C0FD01E20FF31F81939193225068
:1031F00031092D933C933AC02091D3023091D402EF
:10320000232B41F420910A0130910B013093D40219
:103210002093D30220910801309109012115310535
:1032200041F42DB73EB740910C0150910D01241B84
:10323000350BE091D302F091D402E217F307A0F42A
:103240002E1B3F0B2817390778F0AC014E5F5F4FFC
:103250002417350748F04E0F5F1F5093D402409358
:10326000D3028193919302C0E0E0F0E0CF01DF91BF
:10327000CF9108950F931F93CF93DF93009709F495
:103280008CC0FC013297138212820091D5021091FA
:10329000D6020115110581F420813181820F931F1F
:1032A0002091D3023091D4022817390779F5F09391
:1032B000D402E093D30271C0D80140E050E0AE17D1
:1032C000BF0750F412962D913C911397AD01211533
:1032D000310509F1D901F3CF9D01DA01338322834E
:1032E00060817181860F971F8217930769F4EC0143
:1032F00028813981260F371F2E5F3F4F318320836E
:103300008A819B8193838283452B29F4F093D60293
:10331000E093D50242C01396FC93EE931297ED0111
:10332000499159919E01240F351FE217F30771F45B
:1033300080819181840F951F029611969C938E93A4
:103340008281938113969C938E931297E0E0F0E034
:10335000D80112968D919C911397009719F0F8015E
:103360008C01F6CF8D919C9198012E5F3F4F820F7B
:10337000931F2091D3023091D4022817390769F4A2
:10338000309729F41092D6021092D50202C013820F
:1033900012821093D4020093D302DF91CF911F9138
:1033A0000F91089597FB072E16F4009407D077FD30
:1033B00009D00E94271A07FC05D03EF4909581950C
:1033C0009F4F0895709561957F4F0895A1E21A2E41
:1033D000AA1BBB1BFD010DC0AA1FBB1FEE1FFF1FB9
:1033E000A217B307E407F50720F0A21BB30BE40B09
:1033F000F50B661F771F881F991F1A9469F7609550
:103400007095809590959B01AC01BD01CF01089509
:10341000052E97FB1EF400940E941F1A57FD07D03B
:103420000E94E61907FC03D04EF40C941F1A509525
:103430004095309521953F4F4F4F5F4F08959095A0
:103440008095709561957F4F8F4F9F4F0895AA1B70
:10345000BB1B51E107C0AA1FBB1FA617B70710F07F
:10346000A61BB70B881F991F5A95A9F780959095B1
:10347000BC01CD010895EE0FFF1F0590F491E02DE2
:10348000099481E090E0F8940C94461A14E0C7E3A4
:10349000D4E004C0FE010E943B1A2196C833D10734
:0634A000C9F7F894FFCF0C
:1034A60060574E450E1720290000D7028000000005
:1034B600000073059A0500000000830671050000F0
:1034C600000082066F05000000008406A6060000C4
:1034D600000000000000040E040E040E040E040E8C
:1034E600040E040E040E00000000740D550C010EAF
:1034F600730DC80DDF0D5B0D00000000D105E5055D
:10350600A7049A0488047C04AA043A057004620499
:1035160000000000E80C550C800C2F0DB10C8F0C30
:10352600A30C00000000040E550C010E000E040E44
:10353600040E040E00000000040E550C010E000ED1
:1035460000000000D007E407000000008107A40582
:103556000101000001F105ED05E805E505E406E1D8
:1035660005DD05D9050D0A005B70726F6772616D26
:0A3576002061626F727465645D00ED
:00000001FF
