:100000000C94CE030C94F6030C94F6030C94951107
:100010000C9495110C9495110C94F6030C94F60322
:100020000C94F6030C94F6030C94F6030C94F6036C
:100030000C94F6030C94F6030C94F6030C94F6035C
:100040000C94400E0C94F6030C9463110C943D1127
:100050000C94F6030C94F6030C94F6030C94F6033C
:100060000C94F6030C94F6036F6E507265436F6E3A
:100070006E656374203A0075736572206D657373E5
:10008000616765206461746120202020203A00753A
:10009000736572206D657373616765207265636552
:1000A00069766564203A00706C65617365206361F0
:1000B0006C6C2053797374656D2E696E6974287940
:1000C0006F757253797374656D4964292062656632
:1000D0006F726520796F7520637265617465206E3B
:1000E0006F6465732E0066726565207372616D20A2
:1000F0003A200053657269616C4E6F64653A3A6FDD
:100100006E4D6573736167653E20726F756E642016
:10011000747269702074696D65203A2000002E00A9
:1001200053657269616C4E6F64653A3A6F6E4D65E6
:1001300073736167653E20434F4E4E454354494FAC
:100140004E5F5354415455535F434F4E4E454354B5
:100150004544206E6F646520286163746976652963
:10016000203A200053657269616C4E6F64653A3ABB
:100170006F6E4D6573736167653E41434B204F4E13
:10018000204352206E6F6465206973206E6F742067
:1001900072656164793A200053657269616C4E6FD3
:1001A00064653A3A6F6E4D6573736167653E6E6F55
:1001B000646520697320616C726561647920636F86
:1001C0006E6E65637465643A200053657269616C94
:1001D0004E6F64653A3A6F6E4D6573736167653E45
:1001E00041434B204F4E204352206E6F646520697F
:1001F00073206E6F74206163746976653A20002005
:10020000203C3C3C200053657269616C4E6F646514
:100210003A3A6F6E4D6573736167653E20434D4496
:100220005F414344203A200053657269616C4E6F10
:1002300064653A3A6F6E4D6573736167653E20433E
:100240004F4E4E454354494F4E5F535441545553BE
:100250005F434F4E4E4543544544206E6F646520C6
:100260003A2000002E0053657269616C4E6F646520
:100270003A3A6F6E4D6573736167653E20756E6BBC
:100280006E6F776E2072656D6F7465206E6F64653A
:100290002077616E747320746F20636F6E6E656378
:1002A000743A2000002E007063622072656D6F74D6
:1002B0006520616464726573733A005365726961A5
:1002C0006C4E6F64653A3A6F6E4D65737361676526
:1002D0003E206E6F6465206E6F7420726561647974
:1002E000203A0053657269616C4E6F64653A3A6FEB
:1002F0006E4D6573736167653E20756E616C6C6FE2
:10030000776564206D6573736167652C2073746114
:10031000747573203C3E20636F6E6E656374656414
:100320002C20616B74696420203A00207061723A5D
:10033000200020636D643A200020616B7449643AA8
:100340002000002E0020746F20002E00203C3C3C3A
:100350003C200020203C3C3C200053657269616CCD
:100360004E6F64653A3A6F6E4D6573736167653EB3
:10037000206E6F6465203A200053657269616C4E8F
:100380006F64653A7265636F6E6E65637428293EAB
:100390002073656E6420435220666F72206E6F6416
:1003A00065200053657269616C4E6F64653A7265D1
:1003B000636F6E6E6563743E206E6F6465206E6F52
:1003C000742072656164793A200053657269616CCA
:1003D0004E6F64653A7265636F6E6E65637428294B
:1003E0003E2077616974696E6720666F72204352A0
:1003F000206D6573736167652C206E6F64653A20AC
:1004000000415250004152510041434400435200C8
:100410004C4956450041434B004E414B0000000003
:1004200000250028002B0004040404040404040232
:100430000202020202030303030303010204081081
:10044000204080010204081020010204081020004E
:100450000000080002010000030407000000000083
:1004600000000053657269616C4E6F64653A3A73BF
:10047000656E643E206E6F64652C206E6F74206321
:100480006F6E6E6563746564202C20756E6B6E6F85
:10049000776E2072656D6F74652061646472657338
:1004A000733A0053657269616C4E6F64653A3A73D2
:1004B000656E643E207265706C7920746F3A0053EB
:1004C000657269616C4E6F64653A3A73656E64205B
:1004D0003E206E6F7420636F6E6E65637465642C6E
:1004E00020636D64206E6F7420616C6C6F7765643F
:1004F000203A200053657269616C4E6F64653A3A28
:1005000073656E643E20203E3E3E2000554E4B4FAC
:10051000574E5F434D440053657269616C4E6F6482
:10052000653A3A7772697465546F506F72743E2001
:100530002D2D2D2D2D2D2D2D2D2D2D2D2D2D2D2DEB
:100540002D2D2D2D2D20656E64202D2D2D2D2D2D45
:100550002D2D2D2D2D2D2D2D2D2D6E6F64653A20D9
:1005600000207061723A200020636D643A20002000
:10057000616B7449643A2000002E0020746F2000E3
:100580002E0053657269616C4E6F64653A3A7772FA
:10059000697465546F506F72743E20776169746935
:1005A0006E6720666F72207265706C696573206F6C
:1005B0006E206F7468657220736F66742073657245
:1005C00069616C20706F72742C20666F7263652095
:1005D0006C697374656E2C2064617461206D61793F
:1005E000206265206C6F73740053657269616C4E94
:1005F0006F64653A3A7772697465546F506F7274BC
:100600003E2077616974696E6720666F722072653B
:10061000706C696573206F6E206F746865722073EB
:100620006F66742073657269616C20706F72742CD0
:10063000202063616E63656C0053657269616C4E66
:100640006F64653A3A7772697465546F506F72746B
:100650003E20474C454943484552204C4953544558
:100660004E4552203F00203E3E3E20706F72743A4D
:10067000200020203E3E3E200053657269616C4E92
:100680006F64653A3A7772697465546F506F72742B
:100690003E206E6F6465203A2000000000002400B8
:1006A00027002A00000000002300260029006672AF
:1006B0006565207372616D203A20007365747570F2
:1006C0002053657269616C546573744D6173746510
:1006D000720000425546464552204F564552464C00
:1006E0004F573A206461746153697A65203E200057
:1006F00053657269616C4E6F64653A3A70726F63EC
:100700006573734E6F6465733E206E6F206E6F6409
:10071000657320666F756E64002053657269616C45
:100720004E6F64653A3A617265416C6C4E6F6465F8
:1007300073436F6E6E656374656428293E202A2AB0
:100740002A20414C4C204E4F44455320434F4E4E9F
:10075000454354454420574954482052454D4F5431
:1007600045202A2A2A00506F7274206E6F7420660A
:100770006F756E6400536F667453657269616C5077
:100780006F72743A3A6C697374656E3E206F6E20B6
:10079000706F7274203A0000FE12FA1211241FBE0C
:1007A000CFEFD8E0DEBFCDBF11E0A0E0B1E0EAE9D5
:1007B000F2E302C005900D92AA3DB107D9F722E0FD
:1007C000AAEDB1E001C01D92A53DB207E1F713E02B
:1007D000CDECD3E004C02197FE010E943519CC3C3A
:1007E000D107C9F70E946A130C9440190C940000B9
:1007F000FC0184819581009751F0FC0120813181B9
:100800002617370721F0FC0185859685F4CF0895DA
:10081000CF93DF93EC0188E690E00E946B0AEC81B5
:10082000FD8181810E94580AEC81FD8182E08483F0
:10083000DF91CF9108950F931F93CF93DF93EB0137
:1008400089018FE890E00E946B0AD8011496ED911F
:10085000FC91159781810E94580A87E790E00E94D9
:100860006B0A688179818A819B814AE00E94F00944
:1008700085EC91E0DF91CF911F910F910C94DE09EF
:10088000DC0182E191E011969C938E9312962D915A
:100890003C9113972115310589F0E0919D02F0916B
:1008A0009E02309759F082819381009729F08A1730
:1008B0009B0711F0FC01F5CF3383228314968D91B1
:1008C0009C911597009711F00C9434180895CF93CC
:1008D000DF93EC010E944004CE01DF91CF910C9494
:1008E00034180C943418CF93DF93EC010E94F80372
:1008F000009799F1FC0145855685EC81FD814115F4
:100900005105A1F08E179F0721F45D834C8321C010
:10091000F9013097F1F02585368521153105C9F0AB
:1009200028173907A9F75687458713C08E179F07E1
:1009300021F41D821C820DC0F901309751F02585EC
:1009400036852115310529F028173907A9F71686AC
:1009500015860E94341881E001C080E0DF91CF91BC
:100960000895CF93DF93EC018FE591E0998388831D
:10097000EC81FD81309731F060817181CE010E9460
:100980007304F6CFDF91CF910895CF93DF93EC01FD
:100990000E94B104CE01DF91CF910C943418CF9313
:1009A000DF93EC01EC81FD818581882349F0E091A2
:1009B0009902F0919A02309731F0CE01099503C067
:1009C0008AEC93E019C0EC81FD818481823091F43E
:1009D00089E793E00E946B0AEC81FD8181810E948E
:1009E000580A40E050E063EF70E0CE01DF91CF9114
:1009F0000C94650D83EA93E00E946B0AEC81FD8103
:100A00008181DF91CF910C94580ACF92DF92EF92BF
:100A1000FF920F931F93CF93DF9300D01F92CDB718
:100A2000DEB76C0182E191E0D60111969C938E9322
:100A300013961C921E92129715961C921E92149752
:100A400017961C921E921697F60110861186128632
:100A500013861C961D921D921D921C921F97109139
:100A6000E00111110CC087EA90E00E94A40A0E94E4
:100A70005A1381EE91E00E94390F0E943B19F60152
:100A8000F782E68286E090E02B834A8369830E94A6
:100A90009F17FC0186E0DF011D928A95E9F7D601D8
:100AA0001596FC93EE9314971083698161832B81D3
:100AB000228303834A814583E0919D02F0919E0247
:100AC000309731F082819381009739F0FC01F8CFA3
:100AD000D0929E02C0929D0202C0D382C2820F9029
:100AE0000F900F90DF91CF911F910F91FF90EF909A
:100AF000DF90CF900895DC011496ED91FC9115974D
:100B0000309751F016968D919C911797892B21F073
:100B100081E09481943009F080E008950895FC010B
:100B20009081DB018C91981305C081E021811196A1
:100B30009C91291380E008953F924F925F926F92AB
:100B40007F928F929F92AF92BF92CF92DF92EF925D
:100B5000FF920F931F93CF93DF9300D0CDB7DEB7F3
:100B60007C016B012A014901672B11F40E943B199A
:100B7000452B19F0232B19F4F9CF232BB9F70115C5
:100B80001105A1F3D7011496ED91FC91159792816F
:100B90008091E001981751F30E94810BF701608763
:100BA000718782879387D6011696AD90BC90179770
:100BB000C7010E947B05382E8AE593E00E946B0AEC
:100BC000D7011496ED91FC91159781810E94CE0A70
:100BD00083E593E00E946B0A3501B0EF6B1A710850
:100BE000E8E06E16710440F4F301EE0FFF1FE55EBE
:100BF000FE4F8081918102C08CE095E00E946B0ADB
:100C00008CE493E00E94A40AD6018C910E94CE0A43
:100C10008AE493E00E946B0AF60181810E94CE0A69
:100C200085E493E00E946B0AD60112968C910E9493
:100C3000CE0A83E493E00E946B0AF60183810E944E
:100C4000CE0A82E493E00E94A40A89E393E00E9422
:100C50006B0AD60114966D917C91159780E090E017
:100C60004AE00E94F00982E393E00E946B0AF601D9
:100C7000868197810E94C40A8BE293E00E946B0AEE
:100C8000D60118968C910E94580A311014C0B2E017
:100C90006B16710480F0E3EFAE16B10461F083EEE1
:100CA00092E00E946B0AD60114968D919C91159743
:100CB0000E94B20A03C2B2EFAB16B10409F4E0C05D
:100CC0005CF4F0EFAF16B10409F48EC10CF002C170
:100CD000AB2809F4F3C1A5C1A4EFAA16B10409F425
:100CE000BAC05CF0E5EFAE16B10409F4D6C0F7EF78
:100CF000AF16B10409F4E2C094C1D7011496ED9186
:100D0000FC91159785818111A0C0E0919902F09125
:100D10009A02309711F0C7010995D7011496ED9109
:100D2000FC9115978481823069F08BEB92E00E94F0
:100D30006B0AD7011496ED91FC91159781810E9461
:100D4000580ABCC18281811122C0D6018D919C912B
:100D50009383828387EA92E00E94A40AD7011496C3
:100D6000ED91FC91159782810E94CE0A85EA92E06E
:100D70000E946B0AD7011496ED91FC91159783811F
:100D80000E94CE0A84EA92E00E94A40A33C0B6010F
:100D9000CF0102960E948F0581112CC086E692E059
:100DA0000E946B0AD7011496ED91FC9115978181F1
:100DB0000E94CE0AD7011496ED91FC91159782817D
:100DC0000E94CE0A84E692E00E946B0AD701149634
:100DD000ED91FC91159783810E94CE0A83E692E003
:100DE0000E94A40AF6014481558160EF70E0C701BA
:100DF0000E94650DD70117961C930E9316971496B3
:100E0000ED91FC91159784E084831496ED91FC910B
:100E10001597D6018D919C91119793838283149697
:100E20004D915C91159761EF70E0C7010E94650DCF
:100E300088E292E00E946B0AD7011496ED91FC9132
:100E4000159781810E94580AECC0F60144815581B2
:100E500060EF70E01EC03320C1F3D60114964D91AF
:100E60005C91159761EF70E0C7010E94650DF70175
:100E7000178216820480F581E02D83E08483D1C03F
:100E8000332019F3D60114964D915C91159761EFBB
:100E900070E0C7010E94650DC4C086E092E00E9428
:100EA0006B0AD7011496ED91FC91159781810E94F0
:100EB000CE0A8FEF91E00E946B0AB3C0F601648105
:100EC00075818EE792E00E94F8035C01892B09F09E
:100ED000AAC0F4C0D60114966D917C9115978EE747
:100EE00092E00E94F8035C01009709F4E7C0FC015E
:100EF0008281833F39F0843F09F46FC0823F09F05B
:100F000092C09CC0D70117961C930E931697149607
:100F10008D909C901597F4018581811103C08AEC16
:100F200091E018C0C7010E947B05882369F088E919
:100F300091E00E946B0AD7011496ED91FC911597F0
:100F400081810E94580A7DC0F4018481823069F059
:100F500084E691E00E946B0AD7011496ED91FC9112
:100F6000159781810E94CE0A6CC0F6018081918123
:100F7000D40113969C938E931297D7011496ED91FA
:100F8000FC91159784E0848317961C930E93169713
:100F900080E291E00E946B0AD7011496ED91FC91DA
:100FA000159781810E94580AD7011496ED91FC9102
:100FB000159780810E94CE0A8EE191E00E946B0A13
:100FC000D7011496ED91FC91159781810E94CE0A6C
:100FD0008DE191E00E94A40A34C0F70117821682C5
:100FE0000480F581E02D1AC0D60114966D917C9194
:100FF00015978EE792E00E94F8035C01009709F4D0
:101000005DC0FC018281833F21F0843FB9F0823FC3
:1010100051F4D7011496ED91FC91159783E08483E8
:1010200010C0A12CB12CE0919B02F0919C02309752
:1010300029F09701A401B201C6010995A114B104D8
:10104000E9F183EF90E00E946B0A0E94810BF501A9
:101050000185128523853485601B710B820B930BF0
:101060004AE00E94F00985EC91E00E94DE0980E0F0
:101070000E94D50A8C01D60114966D917C9115972A
:101080008EE792E00E94730480E00E94D50A8017E8
:10109000910708F06BCD86EE90E00E946B0A2091DC
:1010A000D1023091D2022115310511F425ED32E043
:1010B000CE010196821B930B0E948C0A0F900F9019
:1010C000DF91CF911F910F91FF90EF90DF90CF9024
:1010D000BF90AF909F908F907F906F905F904F9058
:1010E0003F9008954F925F926F927F928F929F925E
:1010F000AF92BF92CF92DF92EF92FF920F931F9326
:10110000CF93DF9300D0CDB7DEB72C016B018A01FE
:10111000892B11F40E943B196930710520F09B0165
:101120002950310902C020E030E0D20112968C91A2
:101130001297882309F42FC19091E001891342C0CE
:10114000E0909D02F0909E02E114F10419F31396D1
:101150008C918823C9F06201B2E0CB0ED11CB6019C
:10116000F7018481958129833A830E948F05298123
:101170003A81811182C0D7011296ED90FC901397AD
:10118000E114F10461F707C1F20186819781833F81
:10119000910509F000C1D7011496ED91FC911597C6
:1011A0008581811160C08481823009F05CC08281B8
:1011B000882321F0D2019C91891355C0838181112C
:1011C00052C05BC0F2012081291709F4E4C0E0900D
:1011D000DE01F090DF01F701309739F09581981723
:1011E00049F10280F381E02DF7CFC2010E94E90AA4
:1011F0005C01892B09F455C04501F2E08F0E911C6A
:10120000B201C4010E948F0595012C5F3F4F390147
:10121000882309F440C0B2016E5F7F4FC9010E946C
:101220008F058823C1F1D5011896ED91FC9119978E
:101230003097B9F1CF010E94EE12A601B2010F90D2
:101240000F90DF91CF911F910F91FF90EF90DF9062
:10125000CF90BF90AF909F908F907F906F905F9056
:101260004F900C949612D7011296ED90FC90139724
:10127000E114F10409F08FCF8EC02115310541F042
:10128000A201475F5F4FB201C7010E949C0583C066
:1012900040E050E0F8CFB201C3010E948F058111F8
:1012A00066C0D20116968D919C911797833F910548
:1012B00009F071C08090860290908702F401309707
:1012C00021F00284F385E02DFACFA114B10461F07E
:1012D000F20184819581D50111969C938E93199684
:1012E0001C921E9218972EC08CE090E00E949F17CF
:1012F000FC018CE0DF011D928A95E9F712821382CE
:10130000148215828114910409F440C0D4011A9604
:101310008D919C911B97009711F04C01F3CFD40154
:101320001B96FC93EE931A97D2018D919C91119785
:10133000938382831783068314968D919C911597CE
:1013400091838083E114F10431F1D70115969C91CA
:10135000F80185819817F9F0C7010E94EE12A601E5
:10136000B2010E949612F701E280F380EBCFB20146
:101370006E5F7F4FC4010E948F05882309F491CFCF
:10138000D5011696ED91FC91179752CFF0938702F5
:10139000E0938602C9CF0F900F90DF91CF911F91FC
:1013A0000F91FF90EF90DF90CF90BF90AF909F9004
:1013B0008F907F906F905F904F900895009769F0A5
:1013C000FC0101900020E9F73197AF01481B590B50
:1013D000BC0181EE91E00C94130E80E090E0089542
:1013E0008F929F92AF92BF920F931F93CF93DF93F1
:1013F000CDB7DEB7A1970FB6F894DEBF0FBECDBF55
:1014000019A2423008F44AE08E010F5D1F4F842E6E
:10141000912CA12CB12CA50194010E94E018E62F7B
:10142000B901CA0101501109EA3014F4E05D01C0AC
:10143000E95CD801EC93232B242B252B61F7C80101
:101440000E94DE09A1960FB6F894DEBF0FBECDBF95
:10145000DF91CF911F910F91BF90AF909F908F9090
:101460000895CF92DF92EF92FF92CF93DF936B01BB
:101470007C01E091E101F091E2010190F081E02D29
:101480006DE281EE91E00995EC0166277727CB01AB
:101490006C197D098E099F094AE00E94F0098C0FA2
:1014A0009D1FDF91CF91FF90EF90DF90CF90089537
:1014B000CF93DF93682F70E080E090E04AE00E94D5
:1014C000F009EC0185EC91E00E94DE098C0F9D1F74
:1014D000DF91CF9108950F931F93CF93DF938C01EA
:1014E000C0E0D0E0F801EC0FFD1F6491662371F0BD
:1014F000E091E101F091E2010190F081E02D81EEB7
:1015000091E00995892B11F02196ECCFCE01DF9166
:10151000CF911F910F910895CF93DF93BC01990F45
:10152000880B990B97FF03C00E94310A03C04AE061
:101530000E94F009EC0185EC91E00E94DE098C0F1D
:101540009D1FDF91CF910895CF93DF930E946B0A87
:10155000EC0185EC91E00E94DE098C0F9D1FDF916C
:10156000CF910895CF93DF93BC0180E090E04AE0F3
:101570000E94F009EC0185EC91E00E94DE098C0FDD
:101580009D1FDF91CF910895BC01990F880B990B96
:1015900097FD0C94310A4AE00C94F009682F70E032
:1015A00080E090E04AE00C94F009282FE09182025C
:1015B000F091830280E090E0309751F0211105C056
:1015C00001960584F685E02DF7CF30853217C1F3FB
:1015D0000895CF92DF92EF92FF920F931F93CF93D4
:1015E000DF938C01C0918602D09187027C0182E05A
:1015F000E80EF11C209761F18E819F81892B21F1EA
:1016000088859985892B01F16E0182E0C80ED11C75
:10161000B801C6010E948F05811106C0B701C6013D
:101620000E948F05882381F06E0184E0C80ED11CD2
:10163000B801C6010E948F0581110DC0B701C60116
:101640000E948F05811107C00A84DB85C02DD2CF8F
:1016500080E090E001C0CE01DF91CF911F910F910A
:10166000FF90EF90DF90CF90089590E0FC01E15B58
:10167000FB4F3491FC01E55CFB4F2491FC01E95DDB
:10168000FB4FE491EE2309F43BC0332339F13330AF
:1016900091F038F43130A9F0323001F584B58F7D06
:1016A00012C0373091F03830A1F03430B9F4809165
:1016B00080008F7D03C0809180008F7780938000B1
:1016C0000DC084B58F7784BD09C08091B0008F773D
:1016D00003C08091B0008F7D8093B000F0E0EE0FEA
:1016E000FF1FE35EFB4FA591B4918FB7F894EC9187
:1016F000611103C020952E2301C02E2B2C938FBF88
:1017000008952FB7F8946091DA017091DB01809110
:10171000DC019091DD012FBF08956F927F928F922F
:101720009F92AF92BF92CF92DF92EF92FF920F9370
:101730001F93CF93DF93EC017B0189E796E00E9432
:101740006B0A89810E94CE0A82E796E00E946B0AAA
:101750008E819F81805F91098830910540F4880FC8
:10176000991FFC01E55EFE4F8081918102C08CE0F3
:1017700095E00E946B0A86E696E00E946B0AD7010C
:1017800015968C910E94580AD701ED91FC91048026
:10179000F581E02DC7010995019791F4D701ED91ED
:1017A000FC910288F389E02DC7010995811108C0D9
:1017B00048C1FC0185810E94D50A892B09F052C1DC
:1017C000D701ED91FC910288F389E02DC7010995BD
:1017D000811115C08E819F81825F910985309105AD
:1017E00070F4FC01EA5EFE4F8081882341F0D7014E
:1017F000ED91FC910684F785E02DC70109952097AE
:1018000011F40E943B199A8188819817D1F38C8139
:101810009D81892B09F0AFC0809180029091810257
:10182000019621F41092810210928002A090800211
:10183000B0908102EFEFAE1ABE0AB0928102A09280
:101840008002BD82AC828E809F80C401825F91093C
:101850008530910508F08FC0FC01EA5EFE4F808163
:10186000882309F488C0C0908202D0908302860148
:101870003E01F2E06F0E711C0115110509F1D8014E
:1018800012968C9190E08815990571F4BE01C801FB
:1018900003960E948F05882339F0B301C80105968D
:1018A0000E948F058111FEC0F80105851685E4CFE1
:1018B000D6011D968D919C911E97009721F06C0189
:1018C000C114D104A9F78FE090E00E949F178C010A
:1018D0008FE0F80111928A95E9F7D80113961C92CE
:1018E000139714961C92149715961C92159716969A
:1018F0001C92C114D10429F4109383020093820234
:1019000003C0F60116870587D80112968C921297AC
:101910008881998114969C938E9313978A819B81D9
:1019200016969C938E931597AB20A09421F4109259
:101930008102109280028091800290918102019632
:101940009093810280938002F801918380839D832C
:101950008C830E94810BD80119966D937D938D9392
:101960009C931C978C819D8111969C938E93F7017B
:10197000858118968C93C7010E94EE120E948612F0
:10198000C7010E94EE12DC0112968D919C91139773
:10199000DC01ED91FC910284F385E02D49E050E0FB
:1019A000BE010995C7010E94EE120E94761288813D
:1019B0000E94CE0A80E895E00E946B0A89810E940D
:1019C000CE0A8BE795E00E946B0A8A810E94CE0ABC
:1019D00089E795E00E946B0A8B810E94CE0A88E716
:1019E00095E00E94A40A8FE695E00E946B0A6C8144
:1019F0007D8180E090E04AE00E94F00988E695E071
:101A00000E946B0A8E819F810E94C40A81E695E044
:101A10000E946B0A88850E94580AE0918202F09128
:101A20008302309721F00584F685E02DFACF87E117
:101A300095E00E946B0A89810E94580A8C819D81E1
:101A400035C00E942D128E159F0509F0B2CE89E394
:101A500096E00E94A40A0E945A1381EE91E00E942F
:101A6000390FCFCE8E819F819C01225F31092230B8
:101A7000310538F489EE95E00E94A40A80E090E0F8
:101A800015C0863F910509F09BCE82E895E00E9443
:101A9000A40AD701ED91FC910684F785E02DC701DA
:101AA00009958ECE82E0F801878353CFDF91CF91E5
:101AB0001F910F91FF90EF90DF90CF90BF90AF906C
:101AC0009F908F907F906F900895CF92DF92EF92CA
:101AD000FF920F931F93CF93DF93CDB7DEB7299774
:101AE0000FB6F894DEBF0FBECDBF8C017B016A013B
:101AF00019821A821B821C821E821D8218861F82F6
:101B0000198684EF94E00E946B0AD8011496ED9137
:101B1000FC9115978091E0019281981302C00E9478
:101B20003B199481943091F0B3EFEB16F10471F00E
:101B30009701205F31092230310540F08FEB94E0AE
:101B40000E946B0AC7010E94C40A5CC08983C11449
:101B5000D104C9F083EA94E00E946B0AC6010E9496
:101B6000B20ADE82CD82C8010E947B05882331F053
:101B7000D8011496ED91FC91159707C083E694E087
:101B80000E94A40A3FC01E821D82828193819C8391
:101B90008B83D8011496ED91FC91159780819181EA
:101BA0009A838983F886EF82198616966D917C91C7
:101BB00017976115710539F48B810091DE01109141
:101BC000DF01B8010BC0CE0101960E948D0B17C03A
:101BD000FB0195819817B9F36281738161157105D5
:101BE000B9F70115110571F0B801CE0101960E94F7
:101BF0008D0BF8010281138101151105A9F78D8163
:101C00009E8102C080E090E029960FB6F894DEBF76
:101C10000FBECDBFDF91CF911F910F91FF90EF903D
:101C2000DF90CF900895CF92DF92EF92FF920F93C3
:101C30001F93CF93DF936C017A018B01C0E0D0E05A
:101C4000CE15DF0589F0D8016D918D01D601ED919A
:101C5000FC910190F081E02DC6010995892B11F4CA
:101C60007E0102C02196ECCFC701DF91CF911F9179
:101C70000F91FF90EF90DF90CF9008950E943B1955
:101C80001F920F920FB60F9211242F933F938F93B1
:101C90009F93AF93BF938091DA019091DB01A09164
:101CA000DC01B091DD013091AC0223E0230F2D3730
:101CB00020F40196A11DB11D05C026E8230F029650
:101CC000A11DB11D2093AC028093DA019093DB013A
:101CD000A093DC01B093DD018091A8029091A9024C
:101CE000A091AA02B091AB020196A11DB11D8093F3
:101CF000A8029093A902A093AA02B093AB02BF914D
:101D0000AF919F918F913F912F910F900FBE0F90A8
:101D10001F901895FC01538D448D252F30E0842FA2
:101D200090E0821B930B541710F0CF960895019703
:101D30000895FC01918D828D981761F0828DDF01ED
:101D4000A80FB11D5D968C91928D9F5F9F73928FAE
:101D500090E008958FEF9FEF0895FC01918D828DA3
:101D6000981731F0828DE80FF11D858D90E0089570
:101D70008FEF9FEF0895FC01918D228D892F90E0C8
:101D8000805C9F4F821B91098F739927089581EE84
:101D900091E00E94BB0E21E0892B09F420E0822F04
:101DA0000895FC01848DDF01A80FB11DA35ABF4F18
:101DB0002C91848D90E001968F739927848FA6894A
:101DC000B7892C93A089B1898C9180648C93938D71
:101DD000848D981306C00288F389E02D80818F7D61
:101DE00080830895EF92FF920F931F93CF93DF9319
:101DF000EC0181E0888F9B8D8C8D981305C0E8895C
:101E0000F989808185FD24C0F62E0B8D10E00F5FCF
:101E10001F4F0F731127E02E8C8DE8120CC00FB6E8
:101E200007FCFACFE889F989808185FFF5CFCE01DB
:101E30000E94D10EF1CF8B8DFE01E80FF11DE35A08
:101E4000FF4FF0820B8FEA89FB898081806207C097
:101E5000EE89FF896083E889F989808180648083C5
:101E600081E090E0DF91CF911F910F91FF90EF9073
:101E70000895CF93DF93EC01888D8823C9F0EA8918
:101E8000FB89808185FD05C0A889B9898C9186FD73
:101E90000FC00FB607FCF5CF808185FFF2CFA88970
:101EA000B9898C9185FFEDCFCE010E94D10EE7CF8D
:101EB000DF91CF91089580E090E0892B29F00E9476
:101EC000C70E81110C94000008952091CF0230912B
:101ED000D0022817390771F49091CE028091CD027B
:101EE000981741F0E091CE02F0E0E355FD4F80817C
:101EF00090E008958FEF9FEF089508951F93CF937B
:101F0000DF93DC015C962D913C915D9721153105A5
:101F100039F481E090E013969C938E9312973DC024
:101F20005196ED91FC91529750969C915097892F24
:101F300080951FB75E964C915E9741FB772770F9AD
:101F400041FD6095F8944081772311F0492B01C041
:101F500048234083E9012197F1F748E0508160FF71
:101F600002C0592B01C058235083E9012197F1F792
:101F70006695415099F7772321F0908189238083DA
:101F800003C08081982B90831FBF5C968D919C919C
:101F90005D970197F1F721E030E0C901DF91CF9122
:101FA0001F9108952091CF023091D0022817390750
:101FB00069F48091CD022091CE0290E08096821B40
:101FC000910960E270E00E94CC18089580E090E0F2
:101FD00008952091CF023091D00228173907B9F423
:101FE0009091CE028091CD02981789F0E091CE02B7
:101FF000F0E0E355FD4F80812091CE0230E02F5F6D
:102000003F4F2F7133272093CE0290E008958FEF3A
:102010009FEF0895CF93DF93FC01828D938D892BE1
:1020200031F1A091CF02B091D002AE17BF07F9F005
:10203000109751F05396CD91DC9154979881559615
:102040008C91809589238883868D8E7F868F1092D0
:10205000CD021092CE02F093D002E093CF02A3897A
:10206000B4899C918589892B8C9381E001C080E0A3
:10207000DF91CF910895089580E090E0089521E0E8
:10208000FC01448555858091CF029091D00248177C
:10209000590709F020E0822F0895DC011C968D91EC
:1020A0009C911D97DC01ED91FC910084F185E02D60
:1020B0000994CF93DF939A01AB01FC01C485D585C8
:1020C0001B8E1A8E198E188E1F8A1E8A60E079E088
:1020D0008DE390E00E940219F9012430310518F0D7
:1020E000C901039702C081E090E09D8F8C8F6C85C1
:1020F000663108F069C0C9019695879584319105CC
:1021000010F0439702C081E090E09F8B8E8B369752
:1021100018F0C901059702C081E090E0998F888F7F
:10212000C901880F991F280F391F369527953695B5
:1021300027952D30310518F02C50310902C021E0CF
:1021400030E03B8F2A8F90916800683050F021E09A
:102150006E3008F420E081E001C0880F2A95EAF78C
:1021600001C084E0892B809368008C85883038F02A
:102170008E3040F0863148F020E030E008C02DE697
:1021800030E005C02BE630E002C02CE630E03C8BAE
:102190002B8B883030F491E001C0990F8A95EAF7D3
:1021A0000EC0282F30E08E3018F42850310902C0BC
:1021B0002E50310991E001C0990F2A95EAF79D8BC5
:1021C0008C8D9D8D0197F1F7CE01DF91CF910C940D
:1021D0000A10DC011C968D919C911D97DC01ED91FC
:1021E000FC910280F381E02D0994DC011C968D9115
:1021F0009C911D97DC01ED91FC910190F081E02D07
:10220000099521E0892B09F420E0822F0895DC0153
:102210001C968D919C911D97DC01ED91FC9102849F
:10222000F385E02D0995089581E090E00895CF931E
:10223000DF93EC01E881F9810288F389E02D0995AB
:10224000811113C00E94810B688779878A879B87D9
:1022500085E797E00E946B0A8D810E94580A8C8561
:102260009D85DF91CF910C940A1080E0DF91CF9192
:1022700008950C9434180C9434181F920F920FB6D2
:102280000F9211242F933F934F935F936F937F93FC
:102290008F939F93AF93BF93EF93FF9381EE91E062
:1022A0000E94D10EFF91EF91BF91AF919F918F91BD
:1022B0007F916F915F914F913F912F910F900FBE42
:1022C0000F901F9018951F920F920FB60F92112426
:1022D0002F938F939F93EF93FF93E091F101F091F0
:1022E000F2018081E091F701F091F80182FD12C0C6
:1022F00090818091FA018F5F8F732091FB0182178B
:1023000051F0E091FA01F0E0EF51FE4F958F80938C
:10231000FA0101C08081FF91EF919F918F912F91E0
:102320000F900FBE0F901F9018951F920F920FB62F
:102330000F9211242F933F934F935F936F937F934B
:102340008F939F93AF93BF93EF93FF93E091CF024F
:10235000F091D002309709F451C0968DA685B785CB
:10236000858591FF04C09C91892329F447C09C91E5
:10237000892309F043C0A389B4899C9185898095FC
:1023800089238C93868997890197F1F7608D718DE8
:10239000A685B785558538E020E0CB010197F1F798
:1023A000822F90E095958795282F4C91452309F031
:1023B0002068315091F7868D81FD20958091CD0266
:1023C00090E001968F7199273091CE02381749F02D
:1023D000A091CD02B0E0A355BD4F2C938093CD02C8
:1023E00003C0868D8160868F828D938D0197F1F772
:1023F000A389B4899C918589892B8C93FF91EF9156
:10240000BF91AF919F918F917F916F915F914F910C
:102410003F912F910F900FBE0F901F90189527E8B6
:1024200031E0DC0111963C932E9316968D919C9190
:102430001797009739F0DC01ED91FC910280F38150
:10244000E02D09940895CF93DF93EC010E940F12C1
:10245000CE01DF91CF910C943418CF93DF93C091CC
:10246000DE01D091DF012097B1F0E881F98104808D
:10247000F581E02DCE010995019749F4E881F981B4
:102480000288F389E02DCE01099581112BC00A80C5
:10249000DB81C02DE8CFC091DE01D091DF01209714
:1024A000A9F0E881F9810480F581E02DCE0109953C
:1024B000019741F4E881F9810684F785E02DCE018A
:1024C000099510C00A80DB81C02DE9CF86E697E030
:1024D0000E94A40A0E945A1381EE91E00E94390FD3
:1024E0000E943B19CE01DF91CF910895DC01129635
:1024F0008D919C911397DC01ED91FC910284F38501
:10250000E02D44E050E060E071E00994DC011296B7
:102510008D919C911397DC01ED91FC910284F385E0
:10252000E02D44E050E064E071E009940F931F93C4
:10253000CF93DF9300D000D0CDB7DEB78C014B83B3
:102540005C8369837A830E948612D80112968D91EA
:102550009C911397DC01ED91FC910284F385E02DB1
:102560004B815C8169817A810995C8010F900F9038
:102570000F900F90DF91CF911F910F910C947612D5
:1025800008950895CF93DF93EC018FE791E099834D
:1025900088838C819D81009739F0DC01ED91FC915D
:1025A0000280F381E02D09958E819F81009749F08B
:1025B000DC01ED91FC910280F381E02DDF91CF9160
:1025C0000994DF91CF910895CF93DF93EC010E949E
:1025D000C212CE01DF91CF910C943418DC01169613
:1025E000ED91FC91179786819781009711F40E94D5
:1025F0003B1908958EE792E00C94B104E1EEF1E00E
:102600001382128288EE93E0A0E0B0E08483958389
:10261000A683B7838FE291E09183808385EC90E07D
:102620009587848784EC90E09787868780EC90E09C
:10263000918B808B81EC90E0938B828B82EC90E08D
:10264000958B848B86EC90E0978B868B118E128E07
:10265000138E148EE7E9F2E010821182E5E9F2E0D0
:1026600010821182E4E8F2E087E691E091838083B2
:1026700013821282EEE7F2E08FE591E0918380838E
:102680001582148213821282ECE8F2E01082118229
:1026900012821382158214821782168210860E947B
:1026A000810B609388027093890280938A029093D1
:1026B0008B020895CF93DF9388EC91E00E94DE09AE
:1026C000EC0185EC91E00E94DE098C0F9D1FDF91EB
:1026D000CF910895CF93DF9300D0CDB7DEB7789434
:1026E00084B5826084BD84B5816084BD85B5826017
:1026F00085BD85B5816085BD80916E0081608093C8
:102700006E00109281008091810082608093810030
:102710008091810081608093810080918000816040
:10272000809380008091B10084608093B10080919B
:10273000B00081608093B00080917A0084608093C3
:102740007A0080917A00826080937A0080917A008A
:10275000816080937A0080917A00806880937A000B
:102760001092C100E091F101F091F20182E08083CA
:10277000E091ED01F091EE011082E091EF01F09116
:10278000F0018FEC80831092F901E091F501F09156
:10279000F60186E08083E091F301F091F4018081FD
:1027A00080618083E091F301F091F4018081886081
:1027B0008083E091F301F091F4018081806880834F
:1027C000E091F301F091F40180818F7D808382EDAF
:1027D00096E00E94A40A8BEB96E00E94A40A8BE08C
:1027E0008093E0018EE090E00E949F178C0187E8C3
:1027F00091E0D80111969C938E9313961C921E9291
:10280000129714961C92149717961C921E92169764
:10281000F80110861186128613868AE08583E0917E
:10282000DE01F091DF01309729F41093DF0100936E
:10283000DE0108C082819381009711F0FC01FACF7C
:102840001383028388E090E00E949F176C018FE75A
:1028500091E0D6018D939C9380E190E00E949F17B8
:102860007C018FE691E0F7019183808315821482C9
:10287000108611861286138614861686158617868C
:1028800013821282D6011596FC92EE92149784E080
:1028900090E00E949F17FC0187E791E0918380837D
:1028A00013821282D6011796FC93EE931697D701E6
:1028B00017961C930E9316970115110509F462C122
:1028C00013830283F6011383028382E798E0D70122
:1028D00013969C938E931297F801D782C6828DE04F
:1028E00090E01E969C938E931D970E949F17D70190
:1028F00015969C938E93149781EB91E0F801918348
:1029000080838FE190E00E949F177C01DC01139689
:102910001C921E92129788EE93E0A0E0B0E0F701BF
:1029200084839583A683B7838FE991E09183808325
:10293000178A168A118E108E138E128E158E148E93
:10294000668D6E7F6D7F668F6695617081E068270A
:102950008BE00E94350BE6E4F4E02491E2E3F4E03E
:102960008491882399F090E0880F991FFC01E65626
:10297000F94FA591B491FC01E35EFB4F85919491D1
:102980008FB7F894EC91E22BEC938FBFE6E4F4E080
:10299000E491D7015096EC93E2E3F4E0E491F0E0A7
:1029A000EE0FFF1FE35EFB4F85919491F701928B31
:1029B000818BE5E4F4E02491E1E3F4E08491882361
:1029C000C9F090E0880F991FFC01E656F94FA591D8
:1029D000B491FC01E35EFB4F459154919FB7F8948D
:1029E0008C91E22FE0958E238C93DA018C91E82371
:1029F000EC939FBFF701868D81FD04C061E08AE002
:102A00000E94350B8AE0D7011C968C931C97E5E455
:102A1000F4E0E4911D96EC93E1E3F4E0E491F0E05E
:102A2000EE0FFF1FEC55F94F85919491F7019787B1
:102A30008687D8011D96FC92EE921C971093A402F3
:102A40000093A3021696ED91FC911797E480F58010
:102A500081E190E0F70196878587848195810097D1
:102A600011F00E943418D7011D968D919C911E97EC
:102A70000E949F17F70195838483D801ED91FC9103
:102A80000484F585E02D40E855E260E070E0C8017F
:102A9000099588E094E090939A02809399028BE1E3
:102AA00094E090939C0280939B0280E190E00E94CE
:102AB0009F176C01E12CF12C01E02AE040E061E07D
:102AC0000E940505D092A202C092A10280E190E08E
:102AD0000E949F176C0102E02AE040E062E00E9441
:102AE0000505D092A002C0929F028EEA96E00E9455
:102AF0006B0A2091D1023091D2022115310511F4D7
:102B000025ED32E0CE010196821B930B0E948C0AC8
:102B1000DD24D394CC24C3940091A5021091A60285
:102B20000115110529F480919D0290919E0208C023
:102B300080E00E94D50A892B39F4F80182819381C3
:102B40009093A6028093A5028091A5029091A6027F
:102B5000892B41F480919D0290919E029093A60250
:102B60008093A5028091A5029091A602892B61F421
:102B700080EF96E00E94A40A0E945A1381EE91E031
:102B80000E94390F0E943B190E942D128C01009760
:102B900009F44DC0DC0112968D919C911397892BFD
:102BA00009F445C0ED91FC910088F189E02DC80140
:102BB0000995892BE1F5F80185810E94D50A892BB9
:102BC000B1F50E94810BD80118968D909D90AD9023
:102BD000BC901B97DC01CB0188199909AA09BB0994
:102BE000893C9105A105B10508F08AC120C0F80112
:102BF000028113810115110521F40091DE0110916C
:102C0000DF010115110509F4BDCFD801ED91FC914B
:102C10000480F581E02DC8010995019741F7D8019D
:102C2000ED91FC910684F785E02DC801099500918E
:102C3000A5021091A6020E94810B4B015C01F801D4
:102C400084859585A685B785A5019401281B390B38
:102C50004A0B5B0BDA01C901883E9340A105B1051F
:102C600008F44EC0C8010E947B05882329F1D801D1
:102C70001496ED91FC9115978581882309F10E94A6
:102C8000810BF8014084518462847384DC01CB01A0
:102C900084199509A609B709813A9F40A105B10594
:102CA00078F0D8011696ED91FC91179785810E94D6
:102CB000D50A892B09F434C1C8010E94CF041BC076
:102CC000D8011496ED91FC9115978581882399F090
:102CD0000E94810BF8014084518462847384DC017A
:102CE000CB0184199509A609B709893B9B40A10529
:102CF000B10508F00BC1F80184869586A686B786D3
:102D0000E090DE01F090DF01E114F10409F43ACF24
:102D1000D7011696ED91FC91179784819581892BA7
:102D200009F430CFED91FC910088F189E02DC701C5
:102D30000995181619063CF1F701E280F380E114B9
:102D4000F10431F700919D0210919E0281E0C6C00E
:102D5000D7011696ED91FC91179704811581011505
:102D6000110509F40FCFF80186819781009709F4C6
:102D700009CFDC01ED91FC910088F189E02D0995E6
:102D8000181619065CF0D701ED91FC910088F189C5
:102D9000E02DC7010995892BD9F6CECFF8018185A1
:102DA000843008F0EFCE8085843008F0EBCE868149
:102DB0009781DC01ED91FC910680F781E02D09956A
:102DC000F80187879485992311F1228530E04585A4
:102DD00056852417350770F444815581FA01E20FB6
:102DE000F31F8083D8011A968C911A978F5F1A96D9
:102DF0008C930DC083ED96E00E946B0AF8018585E7
:102E0000968504970E94B20AD8011C961C92F8017C
:102E100097858085E82FF0E0EC5FFE4F20819213CC
:102E200010C0833051F4D80118961C9218971C9644
:102E3000DC921C971A961C920EC08F5FF801808757
:102E40000AC0D80118961C92189780910401981313
:102E500002C01896DC92F8018185E82FF0E0E0507E
:102E6000FF4F208192132AC0833019F5D8011A969A
:102E70006C911A9764501B966C931B971296ED9168
:102E8000FC911397309709F47DCE1C968C911C977A
:102E9000882351F016964D915C91179770E0149627
:102EA0008D919C9115970995F801118614861286CB
:102EB0006ACF8F5FD80119968C9365CFF801118680
:102EC0008091000198135FCFD1865DCF882319F0E0
:102ED000C8010E947B05F8010281138101151105CB
:102EE000A9F7882351F08091A702811106C089E1DA
:102EF00097E00E94A40AC092A7020E945B0F0CCE2A
:102F0000D80112960D911C91139774CED801169684
:102F1000ED91FC91179785810E94D50A892B39F490
:102F2000D80118968D929D92AD92BC921B9740E06D
:102F300050E062EF70E0C8010E94650DDCCECF93D7
:102F4000DF938230910510F482E090E0E091D302AB
:102F5000F091D40220E030E0C0E0D0E0309711F1F1
:102F60004081518148175907C0F04817590761F44B
:102F700082819381209719F09B838A832BC0909341
:102F8000D4028093D30226C02115310519F04217CF
:102F9000530718F49A01BE01DF01EF010280F381AB
:102FA000E02DDCCF2115310509F1281B390B243028
:102FB000310590F412968D919C91139761157105CE
:102FC00021F0FB019383828304C09093D402809309
:102FD000D302FD01329644C0FD01E20FF31F81933D
:102FE0009193225031092D933C933AC02091D10204
:102FF0003091D202232B41F420910A0130910B0130
:103000003093D2022093D10220910801309109011E
:103010002115310541F42DB73EB740910C01509177
:103020000D01241B350BE091D102F091D202E21781
:10303000F307A0F42E1B3F0B2817390778F0AC01DB
:103040004E5F5F4F2417350748F04E0F5F1F5093B8
:10305000D2024093D1028193919302C0E0E0F0E06C
:10306000CF01DF91CF9108950F931F93CF93DF93FB
:10307000009709F48CC0FC013297138212820091F0
:10308000D3021091D4020115110581F42081318100
:10309000820F931F2091D1023091D2022817390755
:1030A00079F5F093D202E093D10271C0D80140E0EB
:1030B00050E0AE17BF0750F412962D913C91139734
:1030C000AD012115310509F1D901F3CF9D01DA01D7
:1030D0003383228360817181860F971F8217930744
:1030E00069F4EC0128813981260F371F2E5F3F4F8D
:1030F000318320838A819B8193838283452B29F4AA
:10310000F093D402E093D30242C01396FC93EE9363
:103110001297ED01499159919E01240F351FE21735
:10312000F30771F480819181840F951F02961196A7
:103130009C938E938281938113969C938E93129786
:10314000E0E0F0E0D80112968D919C9113970097E2
:1031500019F0F8018C01F6CF8D919C9198012E5FAA
:103160003F4F820F931F2091D1023091D202281736
:10317000390769F4309729F41092D4021092D302DF
:1031800002C0138212821093D2020093D102DF9107
:10319000CF911F910F91089597FB072E16F400947D
:1031A00007D077FD09D00E94211907FC05D03EF415
:1031B000909581959F4F0895709561957F4F0895E3
:1031C000A1E21A2EAA1BBB1BFD010DC0AA1FBB1F2B
:1031D000EE1FFF1FA217B307E407F50720F0A21B9D
:1031E000B30BE40BF50B661F771F881F991F1A940A
:1031F00069F760957095809590959B01AC01BD0134
:10320000CF010895052E97FB1EF400940E94191912
:1032100057FD07D00E94E01807FC03D04EF40C9431
:10322000191950954095309521953F4F4F4F5F4F5D
:10323000089590958095709561957F4F8F4F9F4F22
:103240000895AA1BBB1B51E107C0AA1FBB1FA617ED
:10325000B70710F0A61BB70B881F991F5A95A9F73F
:1032600080959095BC01CD010895EE0FFF1F05904C
:10327000F491E02D099481E090E0F8940C944019C9
:1032800013E0CDECD3E004C0FE010E943519219675
:0A329000CE3CD107C9F7F894FFCF38
:10329A0060574E450E1720290000D5028000000015
:1032AA00000040046704010100000119041504101C
:1032BA00040D040C0509040504010400000000F2D1
:1032CA000E130E8A0E390FBB0E990EAD0E000000BA
:1032DA00003E0E130E3C103B103E0E3E0E3E0E00FC
:1032EA000000003E0E130E3C103B1000000000B11F
:1032FA0004C504000000008E05710400000000C12E
:10330A00123B1100000000C012391100000000C277
:10331A0012E41200000000000000003E0E3E0E3EC5
:10332A000E3E0E3E0E3E0E3E0E3E0E000000007E8B
:10333A000F130E3C107D0FD20FE90F650F0000002E
:10334A00000F12231214110711F510E91059101762
:10335A00114D103F100D0A005B70726F6772616D3C
:0A336A002061626F727465645D00FB
:00000001FF
