:100000000C948D010C94B5010C94B5010C948011E5
:100010000C9480110C9480110C94B5010C94B501D2
:100020000C94B5010C94B5010C94B5010C94B50178
:100030000C94B5010C94B5010C94B5010C94B50168
:100040000C94EE010C94B5010C94E0020C94BA02ED
:100050000C94B5010C94B5010C94B5010C94B50148
:100060000C94B5010C94B50100000000230026009B
:100070002900536F66747761726553657269616CAC
:100080003A3A536F66747761726553657269616C51
:100090002829206672656520006672656520737286
:1000A000616D203A200053657269616C4E6F646522
:1000B0004E65743A3A70726F636573734E6F646520
:1000C000733E206E6F206E6F64657320666F756E71
:1000D0006400202D2D2D2D2D2D2D2D2D2D2D2D2D53
:1000E0002D2D2D2D2D2D2D2D2D2D2D2D2D2D2D2D40
:1000F0002D2D2D200053657269616C4E6F64654E25
:1001000065743A3A70726F636573734E6F646520FD
:100110003A2D2D2D2D2D2D2D2D2D6D736563203A0E
:10012000200053657269616C4E6F64653A3A77726C
:10013000697465546F506F72743E20474C45494353
:10014000484552204C495354454E4552203F005398
:10015000657269616C506F72743A3A73656E644D82
:10016000657373616765206D657373616765203CB6
:10017000206865616465722073697A65004D795005
:100180007265436F6E6E65637448616E646C657210
:100190003A3A6F6E507265436F6E6E6563743E20BF
:1001A0006E6F6465203A2000706C65617365206332
:1001B000616C6C2053797374656D2E696E69742857
:1001C000796F757253797374656D4964292062651E
:1001D000666F726520796F75206372656174652042
:1001E0006E6F6465732E00203C3C3C3C2000202058
:1001F0003C3C3C200053657269616C4E6F64653A0B
:100200003A6F6E4D6573736167653E206E6F64650E
:10021000203A2000415250004152510041434400D5
:100220004352004C4956450041434B004E414B0060
:1002300000000000240027002A0000000000250024
:1002400028002B0004040404040404040202020233
:100250000202030303030303010204081020408089
:100260000102040810200102040810200000000808
:10027000000201000003040700000000000000006D
:10028000554E4B4F574E5F434D4400203E3E3E007F
:1002900053657269616C4E6F64653A3A73656E645A
:1002A0003E20203E3E3E2000203A20002053657232
:1002B00069616C4E6F64653A3A69734C696665436F
:1002C0006865636B4C6174653E206E6F6465206C7D
:1002D0006174653A2000203A2000205365726961FC
:1002E0006C4E6F64653A3A69734C6966654368653C
:1002F000636B457870697265643E206E6F6465203B
:1003000076657279206C617465202C6578706972ED
:1003100065643A200000F516F41611241FBECFEFD5
:10032000D8E0DEBFCDBF12E0A0E0B1E0EAE1F2E349
:1003300002C005900D92AA30B107D9F723E0AAE0D8
:10034000B2E001C01D92AA31B207E1F711E0CCE89A
:10035000D1E004C02197FE010E94F518CB38D107E7
:10036000C9F70E9459120C9400190C940000CF9206
:10037000DF92EF92FF920F931F93CF93DF936C0165
:100380007A018B01C0E0D0E0CE15DF0589F0D801FD
:100390006D918D01D601ED91FC910190F081E02DE0
:1003A000C6010995892B11F47E0102C02196ECCF7C
:1003B000C701DF91CF911F910F91FF90EF90DF90D8
:1003C000CF9008950E94FB1880E292E00E94100FE7
:1003D00021E0892B09F420E0822F08951F920F92CB
:1003E0000FB60F9211242F933F938F939F93AF9348
:1003F000BF938091180290911902A0911A02B091B6
:100400001B023091170223E0230F2D3720F40196B1
:10041000A11DB11D05C026E8230F0296A11DB11D27
:10042000209317028093180290931902A0931A0246
:10043000B0931B028091130290911402A0911502B7
:10044000B09116020196A11DB11D809313029093E5
:100450001402A0931502B0931602BF91AF919F9121
:100460008F913F912F910F900FBE0F901F90189575
:10047000EF92FF920F931F93CF93DF938C017B0139
:10048000C0E0D0E0F701EC0FFD1F6491662361F03E
:10049000D801ED91FC910190F081E02DC801099502
:1004A000892B11F02196EECFCE01DF91CF911F91D4
:1004B0000F91FF90EF9008956115710579F0FB01A0
:1004C00001900020E9F73197AF01461B570BDC0183
:1004D000ED91FC910280F381E02D099480E090E0A1
:1004E00008954F925F926F927F92EF92FF920F93D7
:1004F0001F93CF93DF93CDB7DEB7A1970FB6F894D4
:10050000DEBF0FBECDBF7C01FA01CB0119A22230A4
:1005100008F42AE08E010F5D1F4F422E512C612CF2
:10052000712CBF01A30192010E94A018F901CA0118
:10053000015011096A3014F4605D01C0695CD80192
:100540006C93232B242B252B61F7B801C7010E9444
:100550005C02A1960FB6F894DEBF0FBECDBFDF914F
:10056000CF911F910F91FF90EF907F906F905F90D0
:100570004F9008951F920F920FB60F9211242F9350
:100580003F934F935F936F937F938F939F93AF931B
:10059000BF93EF93FF9380E292E00E94F610FF91E9
:1005A000EF91BF91AF919F918F917F916F915F91EB
:1005B0004F913F912F910F900FBE0F901F90189564
:1005C0001F920F920FB60F9211242F938F939F9328
:1005D000EF93FF93E0913002F09131028081E0913E
:1005E0003602F091370282FD12C09081809139026B
:1005F0008F5F8F7320913A02821751F0E091390298
:10060000F0E0E05EFD4F958F8093390201C080815C
:10061000FF91EF919F918F912F910F900FBE0F90AF
:100620001F9018950C94F4170C94F4172F923F9286
:100630004F925F926F927F928F929F92AF92BF92F2
:10064000CF92DF92EF92FF920F931F93CF93DF939E
:100650007C01EB015A0149018C819D81892B89F430
:100660000E94660AFC0184819581019611F415822D
:100670001482248135812F5F3F4F358324833D834E
:100680002C838E819F81825F91098530910508F0CE
:10069000A1C0FC01E858FE4F8081882309F49AC06C
:1006A00061E088810E94210A8C01CE80DF80C60132
:1006B000825F9109D80117963C90179718962C9055
:1006C000039708F00DC1632C722C2E01B2E04B0E83
:1006D000511C6114710409F403C1F301828190E09B
:1006E0008C159D0571F4BE01C30103960E946E0A2C
:1006F000882339F0B201C30105960E946E0A811168
:10070000DDC0D3011D966D907C901E97E2CFF20163
:1007100085859685009721F02C0141145104B9F785
:100720008FE090E00E945F173C018FE0D3011D92A3
:100730008A95E9F7F3011382148215821682411417
:10074000510409F0D0C0D80118967C926E92179788
:10075000D3011296CC9212978881998114969C931A
:100760008E9313978A819B8116969C938E931597EF
:1007700017961C928C819D81009709F0B8C0F801F2
:1007800084819581019629F4D80115961C921E92B8
:100790001497F80184819581019695838483D30110
:1007A0008D939C939D838C830E94E70DD3011996B2
:1007B0006D937D938D939C931C97F7018385D30153
:1007C00018968C930190F081E02D0684F785E02D3A
:1007D000C7010995D7011296ED91FC9113970680F8
:1007E000F781E02D309711F40E94FB1882819381EC
:1007F000DC01ED91FC910284F385E02D44E050E0B2
:1008000064E071E00995D7011296ED91FC91139780
:100810000680F781E02D309739F382819381DC01E6
:10082000ED91FC910284F385E02D49E050E0BE019A
:100830000995A114B104C1F081149104A9F0D70164
:100840001296ED91FC9113970680F781E02D309779
:1008500059F282819381DC01ED91FC910284F38550
:10086000E02DA401B5010995D7011296ED91FC91F7
:1008700013970680F781E02D309709F4B5CF828178
:100880009381DC01ED91FC910284F385E02D44E03D
:1008900050E060E071E0DF91CF911F910F91FF90E8
:1008A000EF90DF90CF90BF90AF909F908F907F9010
:1008B0006F905F904F903F902F90099482E0F301EA
:1008C00087838E81828388819981948383838A81BF
:1008D0009B81968385838C819D819183808364CF66
:1008E000432C522C1ACFF2017686658631CFF30164
:1008F000F4CF0895CF93DF93EC0182E391E09983E5
:1009000088838C819D81009739F0DC01ED91FC9109
:100910000280F381E02D09958E819F81009749F037
:10092000DC01ED91FC910280F381E02DDF91CF910C
:100930000994DF91CF910895CF93DF93EC010E944A
:100940007A04CE01DF91CF910C94F417E0911E024E
:10095000F0911F02309739F09385981739F0008491
:10096000F185E02DF7CF80E090E00895CF01089564
:100970002F923F924F925F926F927F928F929F92AF
:10098000AF92BF92CF92DF92EF92FF920F931F939D
:10099000CF93DF9300D000D01F92CDB7DEB77C019C
:1009A000DC0114968D919C911597009711F40E948B
:1009B000FB18DC01ED91FC910088F189E02D09958F
:1009C000181619060CF025C2F7018781843078F7D4
:1009D0008681843060F784819581DC01ED91FC9102
:1009E0000680F781E02D0995F70185879285992387
:1009F000B9F0208530E0438554852417350770F41D
:100A000042815381FA01E20FF31F8083D7011896C8
:100A10008C9118978F5F18968C9302C0F7011286FD
:100A2000D7011D969C911D9716968C911697E82FCD
:100A3000F0E0EC5FFE4F2081921310C0833051F440
:100A400016961C92169781E01A968C931A97189610
:100A50001C920FC08F5FF70186830BC0D7011696DB
:100A60001C92169780910401981303C081E016969A
:100A70008C93F7018781E82FF0E0E050FF4F208151
:100A80009213BCC1833009F0B5C1D70118968C917F
:100A900018978450898319968C9319971A968C917C
:100AA0001A97882309F49BC114960D911C911597F0
:100AB000B9814B2E512CF7010280F381E02DFD838B
:100AC000EC83EF2B09F473CFB93020F09201295059
:100AD000310902C020E030E0AC81BD8116968D91D5
:100AE0009C911797AC01405F51094530510520F4A6
:100AF0002115310509F073C1EC81FD815281552327
:100B000009F46DC1C0901C02D0901D02D60114964C
:100B10004C911497541340C01596CD90DC901697C5
:100B2000C114D10409F443CF43814423C9F05F01C8
:100B3000B2E0AB0EB11CB501F601828193812A832C
:100B40003B830E946E0A2A813B8181113CC1D60100
:100B50001E96CD90DC901F97C114D10461F73FC160
:100B6000833F910509F03BC1D6011296ED91FC91AE
:100B70001397858181114FC18481823009F04BC167
:100B80008281882329F0AC81BD819C91891343C166
:100B90008381811140C117C1EC81FD81B080B41601
:100BA00009F41DC1813F910579F4BF01C601079683
:100BB0000E943216009741F0DC011396BC92139705
:100BC00017961C930E931697EC81FD8182810E94EB
:100BD000A6045C01AC81BD818C910E94A6041C011D
:100BE000EC81FD8186819781825F91098530910535
:100BF000D8F4FC01E858FE4F80818823A9F0D80181
:100C0000ED91FC910480F581E02DC80109950197D3
:100C100059F480910A0290910B028017910721F0FC
:100C200010930B0200930A02A114B10449F5460186
:100C3000B7E08B0E911C6C817D81C4010E9464160B
:100C4000FC01892B09F47EC08281AC81BD819C911D
:100C50002381891307C012963C91231303C0A680F9
:100C6000B7800AC029136EC0AC81BD8112969C91D9
:100C7000891368C0A480B580A114B10409F462C0CE
:100C8000EC81FD8186819781825F91098530910594
:100C900030F4FC01E858FE4F8081811117C060E0FC
:100CA000AC81BD8112968C910E94210A4C01009763
:100CB00069F0EC81FD8164807580B3010E94B50903
:100CC000892B21F0B301C4010E94C509AC81BD810B
:100CD00016968D919C911797833F9105C9F423280F
:100CE000B9F4B7E0CB0ED11C6C817D81C6010E94A6
:100CF0006416892B69F46C817D81C6010E943216CD
:100D0000892B31F4A8016C817D81C6010E94901667
:100D1000E981E93010F40E94261692012950310928
:100D20004C815D81475F5F4F6C817D81C5010E9471
:100D30001603D501ED91FC910684F785E02DC501E0
:100D400009954DC0EC81FD8186819781833F910596
:100D500009F045C0BF01C4010E943216892B31F44D
:100D6000A8016C817D81C4010E949016C0901E0272
:100D7000D0901F02F9E04F1A5108AC80BD8089E085
:100D8000A80EB11CC114D10451F1D6011B969C913F
:100D9000F8018385981799F0F981F93008F4BBCFF1
:100DA0009201A5016C817D81C6010E941603D601C6
:100DB000ED91FC910684F785E02DC6010995F601B9
:100DC000C084D184DFCF2115310569F14C815D816B
:100DD000475F5F4F6C817D81C6010E947B0AD7010E
:100DE00017961C9217971A961C921A9718961C928F
:100DF00081E01CC08F5FF70187830BC0D701179676
:100E00001C92179780910001981303C081E01796F8
:100E10008C9380E00BC0F601C684D784C114D10442
:100E200009F0A2CEDCCF40E050E0D4CF0F900F907D
:100E30000F900F900F90DF91CF911F910F91FF9026
:100E4000EF90DF90CF90BF90AF909F908F907F906A
:100E50006F905F904F903F902F900895DC011D960A
:100E60008D919C911E97009739F0DC01ED91FC91DA
:100E70000480F581E02D0994089508952F923F9202
:100E80004F925F926F927F928F929F92AF92BF929A
:100E9000CF92DF92EF92FF920F931F93CF93DF9346
:100EA0005C017B011A014901E801E881F9810480B4
:100EB000F581E02DC8010995019791F4E881F98148
:100EC0000288F389E02DC8010995811109C047C046
:100ED000D8011B968C910E949109892B09F051C071
:100EE000E881F9810288F389E02DCE01099581110D
:100EF00015C0F70186819781825F91098530910540
:100F000068F4FC01E858FE4F8081882339F0E881BD
:100F1000F9810684F785E02DCE010995E114F104ED
:100F200011F40E94FB18D70112969C9112978C9194
:100F30009817B9F39401A101B701CE010E941603DD
:100F4000F70184819581D5011D969C938E931C9702
:100F5000E0911C02F0911D02B382A2829BC00E940C
:100F600018128C018C179D0709F0B2CF82E291E034
:100F70000E944F0C0E944B1780E292E00E945E118B
:100F8000D0CFF70186819781823F910509F480C017
:100F9000863F910509F0A4CF0E94E70DD801ED919D
:100FA000FC910684F785E02DC8010995D801ED91E3
:100FB000FC910088F189E02DC801099518161906E1
:100FC00054F4D8011296ED91FC9113978481958188
:100FD0000E94B804EBCFF801D3840E94660ADC01BA
:100FE0001796ED91FC911897309739F080858D1503
:100FF00021F00584F685E02DF7CFDF013097B9F0B9
:1010000080858D1110C04184528463847484199644
:101010004D915D916D917C911C9744165506660625
:10102000770608F4DF010584F685E02DE7CF1097F9
:10103000F9F0E0911C02F0911D02658076806D014F
:10104000E3E0CE0ED11C6114710491F0B601D3011E
:1010500012968D919C9113970E946E0A882321F01D
:10106000C3010E94F30D04C0F30166847784EBCFC3
:10107000D8011B968C910E949109892B09F096CF7B
:10108000E881F9810684F785E02DCE01099528CF06
:1010900080E090E0DF91CF911F910F91FF90EF9052
:1010A000DF90CF90BF90AF909F908F907F906F9088
:1010B0005F904F903F902F9008950F931F93FB01E7
:1010C00086819781863F910549F4C80189019A017B
:1010D0004481558167EF70E00E94620C1F910F916F
:1010E00008950C94F417DC0189E891E011969C9323
:1010F0008E931E962D913C911F9721153105A1F0DD
:10110000E0911C02F0911D020580F681E02D3097E0
:1011100059F086859785009729F08A179B0711F06B
:10112000FC01F5CF3787268712968D919C911397F6
:10113000009711F00C94F4170895CF93DF93EC010E
:101140000E947308CE01DF91CF910C94F4170C9498
:10115000F4170C94F417CF93DF93EB016DE771E074
:1011600080E292E00E943802EA81FB81418150E0F6
:1011700060E070E02AE080E292E00E94710265EF98
:1011800071E080E292E00E945C02EA81FB8182E0F1
:101190008483DF91CF9108950F931F93CF93DF93B3
:1011A000EC01EA81FB8181E08483EA81FB81858116
:1011B0008823B9F0BE0180911C0290911D020E940B
:1011C0002E07EA81FB818481823059F400E010E02F
:1011D00020E030E040E050E063EF70E0CE010E949C
:1011E000620CDF91CF911F910F910895AF92BF9242
:1011F000CF92DF92EF92FF920F93CF93DF9300D0C5
:101200001F92CDB7DEB75C0189E891E0D501119658
:101210009C938E9313961C921E921297F501148242
:1012200015821682178218961D921D921D921C928D
:101230001B971D961C921E921C971F961C921E9225
:101240001E9751961C921E925097C0901C02D090EF
:101250001D02F601848181110CC088EA91E00E9490
:101260004F0C0E944B1780E292E00E945E110E9498
:10127000FB18D5015196FC92EE92509786E090E0D3
:101280002B834A8369830E945F17FC0186E0DF019C
:101290001D928A95E9F71082118212821382D5017C
:1012A0001396FC93EE931297D60114968C91149793
:1012B0008083698161832B81228303834A814583F3
:1012C0001596ED91FC911697309731F086859785AC
:1012D000009731F0FC01F8CFF601B682A58202C07A
:1012E000B786A6860F900F900F90DF91CF910F9148
:1012F000FF90EF90DF90CF90BF90AF900895DC010A
:1013000050962D913C915197232B41F01296ED91DF
:10131000FC91139781E09481943009F080E0089566
:101320000895482FE0910C02F0910D0280E090E0CA
:101330003097D1F0A781B08520E030E0109771F0B0
:10134000442329F018965C911897541302C02F5F1C
:101350003F4F1D960D90BC91A02DF0CF820F931F93
:101360000280F381E02DE4CF0895FC018781908510
:10137000009751F0FC01208131812617370721F0B9
:10138000FC0185859685F4CF0895CF93DF93EC011A
:101390000E94B509009799F1FC0145855685EF81BA
:1013A000F88541155105A1F08E179F0721F4588744
:1013B0004F8321C0F9013097F1F02585368521153D
:1013C0003105C9F028173907A9F75687458713C093
:1013D0008E179F0721F418861F820DC0F9013097E0
:1013E00051F0258536852115310529F02817390753
:1013F000A9F7168615860E94F41781E001C080E0E7
:10140000DF91CF910895CF93DF93EC0181E891E0D4
:1014100099838883EF81F885309731F060817181FD
:10142000CE010E94C509F6CFDF91CF910895CF93E9
:10143000DF93EC010E94030ACE01DF91CF910C945F
:10144000F4171F93CF93DF93182FC0910C02D09104
:101450000D022097D9F489E090E00E945F17FC010B
:1014600081E891E091838083138212821086178233
:10147000168315821482F0930D02E0930C02CF01C3
:1014800021C08A819B81009729F0EC018E81811314
:10149000F8CF17C0662391F089E090E00E945F17B3
:1014A000FC0181E891E0918380831382128210868F
:1014B0001782168315821482FB83EA838A819B81BB
:1014C00001C0CE01DF91CF911F910895E0911C02E0
:1014D000F0911D0261E084810C94210AFC0190814D
:1014E000DB018C91981305C081E0218111969C91BC
:1014F000291380E008954F925F926F927F928F92AE
:101500009F92AF92BF92CF92DF92EF92FF920F9392
:101510001F93CF93DF93EC017B013A0149015801FE
:10152000672B11F40E94FB18452B19F0232B19F49B
:10153000F9CF232BB9F7A114B104A1F3AA81BB8180
:10154000E0911C02F0911D0212969C9184819817E3
:1015500049F30E94E70D6C837D838E839F83D701BF
:101560001696CD90DC901797CE010E947F09182F18
:1015700065EF71E080E292E00E943802EA81FB812F
:10158000418150E060E070E02AE080E292E00E9459
:1015900071026EEE71E080E292E00E943802260154
:1015A000B0EF4B1A5108E8E04E16510440F4F20136
:1015B000EE0FFF1FE357FE4F6081718102C060E8AC
:1015C00072E080E292E00E94380287EE91E00E9491
:1015D0004F0C111109C0F2E04F16510428F083EFAF
:1015E000C816D10409F048C1A3EFCA16D10431F1DD
:1015F000ACF4E0EFCE16D10409F4DDC024F4CD281C
:1016000009F43AC136C181EFC816D10409F496C075
:10161000A2EFCA16D10409F476C02BC1B7EFCB16DE
:10162000D10434F4E5EFCE16D1040CF455C0DEC07D
:10163000F7EFCF16D10409F472C01BC1EA81FB8118
:10164000858181113CC0BE0180911C0290911D02D8
:101650000E942E07EA81FB818481823009F00CC14F
:101660008281811106C0D7018D919C9193838283E1
:1016700013C0B701CF0102960E946E0A81110CC0FF
:10168000F7014481558100E010E020E030E060EF98
:1016900070E0CE010E94620CB98AA88AEA81FB81BF
:1016A00084E08483EA81FB81D7018D919C9111971D
:1016B0009383828314964D915C91159729C0F7010D
:1016C0004481558100E010E020E030E060EF70E000
:1016D000CE010E94620CCDC0112389F3D70114966C
:1016E0004D915C91159700E010E020E030E061EF53
:1016F00070E0CE010E94620C198A188AEA81FB818F
:1017000083E08483B6C01123D1F2F701448155816F
:1017100000E010E020E030E061EF70E0D9CFD701C9
:101720001496CD90DC9015970E94660AB6010E942F
:10173000B5096C01892B09F05BC09EC0F701C4801C
:10174000D5800E94660AB6010E94B5096C01009717
:1017500009F492C0DC0112968C91843F49F1863FD6
:1017600009F446C0833F09F056C0B98AA88A8A8026
:101770009B80F4018581882309F44DC0CE010E942D
:101780007F09811148C0D40114968C91149782303E
:1017900009F041C0F7018081918113969C938E934B
:1017A0001297EA81FB8184E08483B98AA88A33C0D6
:1017B000198A188A16C0D7011496CD90DC90159717
:1017C0000E94660AB6010E94B5096C01009709F4EF
:1017D00053C0FC018281833F21F0863F49F0823F64
:1017E000D1F4EA81FB8183E0848315C0C12CD12C24
:1017F000E0911C02F0911D0283859485009759F0B9
:10180000DC01ED91FC910480F581E02D8E019401C5
:10181000A301B7010995CD2879F10E94660ADC0180
:101820001796ED91FC911897C0E0D0E0309729F021
:1018300021960584F685E02DF9CFF701E480F58047
:101840000E94660AB7010E94C5090E94660ADC016F
:101850001796ED91FC91189780E090E0309729F071
:1018600001960584F685E02DF9CF8C179D0720F0B1
:1018700059CEC12CD12CCFCFDF91CF911F910F9199
:10188000FF90EF90DF90CF90BF90AF909F908F90A0
:101890007F906F905F904F90089508950895CF9333
:1018A000DF93BC0180E292E00E943802EC0165EF18
:1018B00071E080E292E00E945C028C0F9D1FDF913C
:1018C000CF9108954F925F926F927F928F929F92E5
:1018D000AF92BF92CF92DF92EF92FF920F931F933E
:1018E000CF93DF93CDB7DEB729970FB6F894DEBF5D
:1018F0000FBECDBF7C016B013A015901480119822D
:101900001A821B821C821E821D8218861F821986E3
:1019100060E972E080E292E00E943802260180EFE6
:10192000481A510898E04916510440F4F201EE0FAC
:10193000FF1FE357FE4F6081718102C060E872E0D3
:1019400080E292E00E9438028BE892E00E944F0C05
:10195000F70102811381E0911C02F0911D02848144
:10196000F8019281981302C00E94FB18F80194813B
:10197000943059F0F3EFCF16D10439F092E04916C4
:10198000510418F080E090E048C08983611471042C
:1019900041F07E826D82C7010E947F09811103C0E0
:1019A000F1CF1E821D82F801828193819C838B83FB
:1019B000F801808191819A838983D886CF821986A4
:1019C000F701008911890115110531F48B810E94FD
:1019D000A604009751F08C019401A501BE016F5F30
:1019E0007F4FC7010E943E0716C0C0901E02D090D4
:1019F0001F02C114D10431F286019401A501BE0178
:101A00006F5F7F4FC7010E943E07F601C084D184FB
:101A1000C114D10489F78D819E8129960FB6F8945F
:101A2000DEBF0FBECDBFDF91CF911F910F91FF9011
:101A3000EF90DF90CF90BF90AF909F908F907F906E
:101A40006F905F904F900895CF92DF92EF92FF9248
:101A50000F931F93CF93DF93EC016B01770FEE0889
:101A6000FF08F7FE16C0E881F9810190F081E02DB2
:101A70006DE209958C0144275527BA014C195D097F
:101A80006E097F092AE0CE010E947102080F191F1A
:101A900006C02AE0B701A6010E9471028C0165EF21
:101AA00071E0CE010E945C02800F911FDF91CF9107
:101AB0001F910F91FF90EF90DF90CF90089590E0ED
:101AC000FC01E459FD4F3491FC01E85AFD4F24918B
:101AD000FC01EC5BFD4FE491EE2309F43BC03323A2
:101AE00039F1333091F038F43130A9F0323001F56A
:101AF00084B58F7D12C0373091F03830A1F034308A
:101B0000B9F4809180008F7D03C0809180008F7731
:101B1000809380000DC084B58F7784BD09C080910B
:101B2000B0008F7703C08091B0008F7D8093B000AC
:101B3000F0E0EE0FFF1FE65CFD4FA591B4918FB76B
:101B4000F894EC91611103C020952E2301C02E2B37
:101B50002C938FBF0895CF93DF9390E0FC01E85A58
:101B6000FD4F2491FC01EC5BFD4F8491882361F1D2
:101B700090E0880F991FFC01E05DFD4FC591D49165
:101B8000FC01E65CFD4FA591B491611109C09FB7BE
:101B9000F8948881209582238883EC912E230BC0B2
:101BA000623061F49FB7F8943881822F8095832347
:101BB0008883EC912E2B2C939FBF06C08FB7F8948F
:101BC000E8812E2B28838FBFDF91CF9108952FB707
:101BD000F894609118027091190280911A02909104
:101BE0001B022FBF08958F929F92AF92BF92CF9208
:101BF000DF92EF92FF920F931F93CF93DF93EC014D
:101C00000E94E70D6B017C0188859985AA85BB85BB
:101C10000097A105B10571F0A7019601281B390BAA
:101C20004A0B5B0BDA01C901843F9140A105B10564
:101C300008F4B8C00C851D850E94660AB8010E9490
:101C4000B5098C01CE010E947F09811108C00115E0
:101C5000110509F04AC0CE010E94CC0862C0EA8199
:101C6000FB818581882309F446C00E94E70D8C80A2
:101C70009D80AE80BF80DC01CB0188199909AA093B
:101C8000BB09893B9B40A105B105A8F16AED72E053
:101C900080E292E00E943802EA81FB81418150E0BB
:101CA00060E070E02AE080E292E00E94710266ED5E
:101CB00072E080E292E00E9438020E94E70D8C8080
:101CC0009D80AE80BF80AB01BC01481959096A09EB
:101CD0007B092AE080E292E00E94710265EF71E0E8
:101CE00080E292E00E945C02B2CFF8018281833FE1
:101CF00009F0B1CF16C0EA81FB818581882389F084
:101D00000E94E70D8C809D80AE80BF80DC01CB01FE
:101D100088199909AA09BB0981329340A105B10527
:101D200028F4C886D986EA86FB863CC06CEA72E055
:101D300080E292E00E943802EA81FB81418150E01A
:101D400060E070E02AE080E292E00E94710268EABE
:101D500072E080E292E00E9438020E94E70D8C80DF
:101D60009D80AE80BF80AB01BC01481959096A094A
:101D70007B092AE080E292E00E94710265EF71E047
:101D800080E292E00E945C02012B59F600E010E034
:101D900020E030E040E050E062EF70E0CE010E94D1
:101DA000620CBFCFDF91CF911F910F91FF90EF9009
:101DB000DF90CF90BF90AF909F908F900895FC01DF
:101DC000538D448D252F30E0842F90E0821B930BA0
:101DD000541710F0CF96089501970895FC01918D46
:101DE000828D981761F0828DDF01A80FB11D5D967D
:101DF0008C91928D9F5F9F73928F90E008958FEFEB
:101E00009FEF0895FC01918D828D981731F0828D9E
:101E1000E80FF11D858D90E008958FEF9FEF0895F5
:101E2000FC01918D228D892F90E0805C9F4F821B59
:101E300091098F739927089580E090E0892B29F00C
:101E40000E94E40181110C94000008952091140374
:101E5000309115032817390771F49091130380917D
:101E60001203981741F0E0911303F0E0EE52FD4F9A
:101E7000808190E008958FEF9FEF089508951F935C
:101E8000CF93DF93DC015C962D913C915D972115FA
:101E9000310539F481E090E013969C938E9312976C
:101EA0003DC05196ED91FC91529750969C91509760
:101EB000892F80951FB75E964C915E9741FB7727DF
:101EC00070F941FD6095F8944081772311F0492B1A
:101ED00001C048234083E9012197F1F748E0508190
:101EE00060FF02C0592B01C058235083E90121979C
:101EF000F1F76695415099F7772321F09081892376
:101F0000808303C08081982B90831FBF5C968D9146
:101F10009C915D970197F1F721E030E0C901DF91D5
:101F2000CF911F9108952091140330911503281724
:101F3000390771F4809112032091130390E0805CC3
:101F40009F4F821B910960E470E00E948C180895F5
:101F500080E090E008952091140330911503281734
:101F60003907B9F49091130380911203981789F0FF
:101F7000E0911303F0E0EE52FD4F808120911303B6
:101F800030E02F5F3F4F2F7333272093130390E0F0
:101F900008958FEF9FEF0895CF93DF93FC01828D1B
:101FA000938D892B31F1A0911403B0911503AE17D5
:101FB000BF07F9F0109751F05396CD91DC915497EB
:101FC000988155968C91809589238883868D8E7F04
:101FD000868F1092120310921303F0931503E0936F
:101FE0001403A389B4899C918589892B8C9381E002
:101FF00001C080E0DF91CF910895089580E090E0E6
:10200000089521E0FC014485558580911403909149
:1020100015034817590709F020E0822F0895DC01C5
:102020001C968D919C911D97DC01ED91FC91008493
:10203000F185E02D0994CF93DF939A01AB01FC0168
:10204000C485D5851B8E1A8E198E188E1F8A1E8AFE
:1020500060E079E08DE390E00E94C218F90124303D
:10206000310518F0C901039702C081E090E09D8F0F
:102070008C8F6C85663108F069C0C901969587958B
:102080008431910510F0439702C081E090E09F8B6E
:102090008E8B369718F0C901059702C081E090E059
:1020A000998F888FC901880F991F280F391F36957E
:1020B0002795369527952D30310518F02C5031098C
:1020C00002C021E030E03B8F2A8F90916800683099
:1020D00050F021E06E3008F420E081E001C0880F6C
:1020E0002A95EAF701C084E0892B809368008C85EB
:1020F000883038F08E3040F0863148F020E030E013
:1021000008C02DE630E005C02BE630E002C02CE62A
:1021100030E03C8B2B8B883030F491E001C0990F7C
:102120008A95EAF70EC0282F30E08E3018F4285038
:10213000310902C02E50310991E001C0990F2A9552
:10214000EAF79D8B8C8D9D8D0197F1F7CE01DF9184
:10215000CF910C94CC0FDC011C968D919C911D9716
:10216000DC01ED91FC910280F381E02D0994DC010A
:102170001C968D919C911D97DC01ED91FC91019035
:10218000F081E02D099521E0892B09F420E0822FD0
:102190000895DC011C968D919C911D97DC01ED91B9
:1021A000FC910284F385E02D0995089581E090E08B
:1021B0000895CF93DF93EC01E881F9810288F389D8
:1021C000E02D099581110CC00E94E70D6C837D8381
:1021D0008E839F838C859D85DF91CF910C94CC0F4E
:1021E00080E0DF91CF9108950C94F417FC01848D69
:1021F000DF01A80FB11DA35ABF4F2C91848D90E031
:1022000001968F739927848FA689B7892C93A0890B
:10221000B1898C9180648C93938D848D981306C0C2
:102220000288F389E02D80818F7D80830895EF926D
:10223000FF920F931F93CF93DF93EC0181E0888F80
:102240009B8D8C8D981305C0E889F989808185FD67
:1022500024C0F62E0B8D10E00F5F1F4F0F73112758
:10226000E02E8C8DE8120CC00FB607FCFACFE8897F
:10227000F989808185FFF5CFCE010E94F610F1CF5C
:102280008B8DFE01E80FF11DE35AFF4FF0820B8F9B
:10229000EA89FB898081806207C0EE89FF896083BB
:1022A000E889F98980818064808381E090E0DF9112
:1022B000CF911F910F91FF90EF900895CF93DF93EF
:1022C000EC01888D8823C9F0EA89FB89808185FD2E
:1022D00005C0A889B9898C9186FD0FC00FB607FC8F
:1022E000F5CF808185FFF2CFA889B9898C9185FFD0
:1022F000EDCFCE010E94F610E7CFDF91CF91089588
:102300001F920F920FB60F9211242F933F934F936A
:102310005F936F937F938F939F93AF93BF93EF934D
:10232000FF93E0911403F0911503309709F451C025
:10233000968DA685B785858591FF04C09C918923DC
:1023400029F447C09C91892309F043C0A389B4892B
:102350009C918589809589238C938689978901979B
:10236000F1F7608D718DA685B785558538E020E041
:10237000CB010197F1F7822F90E095958795282F53
:102380004C91452309F02068315091F7868D81FDED
:1023900020958091120390E001968F7399273091D8
:1023A0001303381749F0A0911203B0E0AE52BD4FAD
:1023B0002C938093120303C0868D8160868F828D5B
:1023C000938D0197F1F7A389B4899C918589892B15
:1023D0008C93FF91EF91BF91AF919F918F917F91DE
:1023E0006F915F914F913F912F910F900FBE0F9082
:1023F0001F9018952AE331E0DC0111963C932E934F
:1024000012968D919C911397009739F0DC01ED9114
:10241000FC910280F381E02D09940895CF93DF931E
:10242000EC010E94FA11CE01DF91CF910C94F417C8
:10243000CF93DF93C0911E02D0911F022097B1F07D
:10244000E881F9810480F581E02DCE01099501979D
:1024500049F4E881F9810288F389E02DCE010995DC
:10246000811122C00884D985C02DE8CFC0911E02F9
:10247000D0911F022097A9F0E881F9810480F581AD
:10248000E02DCE010995019741F4E881F981068498
:10249000F785E02DCE01099507C00884D985C02DA8
:1024A000E9CF80E090E001C0CE01DF91CF910895A7
:1024B0000895CF93DF9300D0CDB7DEB7789484B57D
:1024C000826084BD84B5816084BD85B5826085BD30
:1024D00085B5816085BD80916E00816080936E00BE
:1024E00010928100809181008260809381008091B0
:1024F0008100816080938100809180008160809361
:1025000080008091B10084608093B1008091B00020
:1025100081608093B00080917A00846080937A001B
:1025200080917A00826080937A0080917A00816045
:1025300080937A0080917A00806880937A0010926C
:10254000C100E0913002F091310282E08083E0919D
:102550002C02F0912D021082E0912E02F0912F02B8
:102560008FEC808310923802E0913402F0913502B2
:1025700086E08083E0913202F091330280818061B5
:102580008083E0913202F091330280818860808301
:10259000E0913202F0913302808180688083E09183
:1025A0003202F091330280818F7D808361E082E08E
:1025B0000E94AB0D60E082E00E945F0D80911C02E2
:1025C00090911D02009739F0DC01ED91FC910280A1
:1025D000F381E02D09958FE090E00E945F17FC01E8
:1025E0008AE191E0918380831382128216821582A0
:1025F00082E191E090878783128611861486138684
:102600001686158687E08483F0931D02E0931C02F2
:10261000F0931202E09311028EE090E00E945F17A7
:102620008C018AE391E0F801918380831382128206
:10263000148215821682178211861086128686E011
:102640008387E0911E02F0911F02309729F41093C6
:102650001F0200931E0208C080859185009711F02B
:10266000FC01FACF1187008788E090E00E945F1795
:102670006C0182E391E0F601918380838EE090E02B
:102680000E945F177C0182E291E0D70111969C9332
:102690008E9316961C92169717961C92179718965B
:1026A0001C92189719961C9219971A961C921A97B1
:1026B0001D961C92F601F582E48284E090E00E946F
:1026C0005F172AE231E0DC012D933C93F6019783FA
:1026D0008683D70115961C930E931497FC011383E0
:1026E0000283D60113961C930E931297F801D3829E
:1026F000C2828DE090E0D7011C969C938E931B972D
:102700000E945F17F7019383828384E691E0D801EA
:102710008D939C938FE190E00E945F177C01FC01F8
:102720001382128288EE93E0A0E0B0E08483958368
:10273000A683B78382E591E091838083178A168A06
:10274000118E108E138E128E158E148E668D6E7FE6
:102750006D7F668F6695617081E0682789E00E94D1
:102760005F0D61E089E00E94AB0DE1E6F2E0E491EB
:10277000D7015096EC93EDE4F2E0E491F0E0EE0F37
:10278000FF1FE65CFD4F85919491F701928B818B41
:1027900060E088E00E94AB0DD7015E968C9181FDD0
:1027A00004C061E088E00E945F0D88E0F701848743
:1027B000E0E6F2E0E491D7011D96EC93ECE4F2E060
:1027C000E491F0E0EE0FFF1FE859FF4F85919491DF
:1027D000F7019787868762E770E080E292E00E94C7
:1027E0003802CE0101966C01809116039091170377
:1027F000009711F48AE193E0B601681B790B80E23F
:1028000092E00E94240DD8011D96FC92EE921C9736
:1028100010930F0200930E021296ED91FC91139704
:10282000E480F58081E190E0F701948783878281DD
:102830009381009711F00E94F417D7011B968D9198
:102840009C911C970E945F17F70193838283D801A4
:10285000ED91FC910484F585E02D40E855E260E0BF
:1028600070E0C8010995E0911102F09112028FEB1E
:1028700092E0948783878DEB92E09687858782E14B
:1028800090E00E945F17E12CF12C01E024E040E091
:1028900061E00E94F60882E190E00E945F1702E08A
:1028A00024E040E062E00E94F60869E970E080E21E
:1028B00092E00E94380280911603909117030097CE
:1028C00011F48AE193E0B601681B790B80E292E093
:1028D0000E94240D80E292E00E945E11BB24B3941A
:1028E000E0901102F090120200911E0210911F025E
:1028F0000115110509F45EC1D8011296ED91FC9104
:10290000139784819581892B09F454C1ED91FC9131
:102910000088F189E02DC8010995181619069CF068
:10292000F801008511850115110531F717C0D8018F
:102930001296ED91FC91139784819581009709F48B
:1029400039C10E94B804D801ED91FC910088F18949
:10295000E02DC8010995892B51F7E2CFF70182815B
:102960009381892B21F485819681938382830E94B0
:10297000E70D683C71058105910578F4D701129641
:102980000D911C9113970115110509F0B2C0E0914A
:102990001E02F0911F0280E048C0C0900C02D0904F
:1029A0000D02C114D10451F3F60107811085F8011D
:1029B00080E090E0309729F001960584F685E02DBF
:1029C000F9CF892B71F10115110501F10E94E70D75
:1029D000D80119964D905D906D907C901C97DC010C
:1029E000CB0184199509A609B709F8019584A68435
:1029F000853F9140A105B10530F0D8016D917C91E2
:102A0000C6010E94C509092D1A2DDDCFD6011796E2
:102A1000ED91FC911897309721F00584F685E02D13
:102A2000FACFF601C280D380BCCF309729F08F5FF8
:102A30000084F185E02DF9CF823008F4BFC00E94F8
:102A400018128C01E0911E02F0911F0280E0309775
:102A500029F08F5F0084F185E02DF9CF813079F482
:102A600080910A0290910B02892B21F010920B02A7
:102A700010920A0280910A0290910B0232C0011555
:102A8000110509F49BC0D801ED91FC910088F189F2
:102A9000E02DC8010995892B09F090C0F8018385C4
:102AA0000E949109892B09F089C00E94E70DD80185
:102AB0001496CD90DD90ED90FC901797DC01CB0142
:102AC0008C199D09AE09BF09893C9105A105B10585
:102AD00008F474C080910A0290910B02009709F4E7
:102AE00094C0DC01ED91FC910684F785E02D0995F9
:102AF00065C080E00E949109892B41F4F801868528
:102B00009785D70113969C938E931297F701828134
:102B10009381892B21F48581968193838283D701C8
:102B20001296ED91FC91139780899189009739F065
:102B3000DC01ED91FC910684F785E02D099565EFA8
:102B400070E080E292E00E9438020E94E70DAB0143
:102B5000BC012AE080E292E00E94710262ED70E026
:102B600080E292E00E943802D7011296ED91FC912A
:102B700013970280F381E02D418150E060E070E026
:102B80002AE080E292E00E94710265EF71E080E24B
:102B900092E00E945C02F70182819381009761F4C8
:102BA00086EA90E00E944F0C0E944B1780E292E070
:102BB0000E945E110E94FB180E94F30DE0911C021E
:102BC000F0911D020581168181E00115110559F072
:102BD000882319F0C8010E947F09D8011E960D9123
:102BE0001C911F97F2CF882339F080911002811138
:102BF0002BC0B092100228C01092100260E082E058
:102C00000E945F0D0E941C0F6BCEF801008511859C
:102C10000115110521F400911E0210911F020115EA
:102C2000110541F2D801ED91FC910480F581E02D70
:102C3000C8010995019749F7D801ED91FC910684E7
:102C4000F785E02DC80153CF61E0D9CF8FE491E043
:102C50000E944F0C0E944B1780E292E00E945E118E
:102C60000E94FB18CF93DF93DB01EC01EA81FB812B
:102C7000309719F184819581892BD9F086819781CC
:102C8000892BB9F482819C91891307C016962D91E6
:102C90003C911797233F310599F012969C9112971A
:102CA000891307C016968D919C911797813F9105C6
:102CB00039F00084F185E02DDBCF80E090E001C0A9
:102CC000CF01DF91CF910895CF93DF93DB01EC012A
:102CD000EA81FB813097E9F084819581892BA9F005
:102CE00086819781892B89F082819C91891729F0AF
:102CF00012962C911297821308C08381891761F074
:102D000012969C911297891739F00084F185E02D75
:102D1000E1CF80E090E001C0CF01DF91CF91089535
:102D2000EF92FF920F931F93CF93DF93DB011696E1
:102D30002D913C911797233F310509F045C07A0149
:102D4000EB018C010E943216009731F02C813D81FD
:102D5000FC013183208341C0BE01C8010E9464167A
:102D6000FC01892B39F08C819D81918380831782AE
:102D7000168228C08AE090E00E945F17FC018AE07A
:102D8000DF011D928A95E9F7D80112962D913C91A9
:102D9000139721153105D9F0D90118968D919C9181
:102DA0001997009711F09C01F4CFD9011996FC9363
:102DB000EE93189788818283F582E4828C819D81CD
:102DC00091838083CF0109C080E090E006C0D801E4
:102DD0001396FC93EE931297EDCFDF91CF911F9155
:102DE0000F91FF90EF9008950895E0E2F2E01382D2
:102DF000128288EE93E0A0E0B0E084839583A683FE
:102E0000B78381EA91E09183808385EC90E0958798
:102E1000848784EC90E09787868780EC90E0918BA4
:102E2000808B81EC90E0938B828B82EC90E0958B91
:102E3000848B86EC90E0978B868B118E128E138E8E
:102E4000148EE0EDF2E010821182EEECF2E01082DE
:102E50001182E5ECF2E01082118212821382158257
:102E600014821782168210868BED91E09093C00237
:102E70008093BF028FEE91E09093BE028093BD02DB
:102E80000E94E70D6093C1027093C2028093C30257
:102E90009093C4020895CF93DF9368EF71E080E2CE
:102EA00092E00E945C02EC0165EF71E080E292E04A
:102EB0000E945C028C0F9D1FDF91CF910895CF93EC
:102EC000DF938230910510F482E090E0E0911803E6
:102ED000F091190320E030E0C0E0D0E0309711F12C
:102EE0004081518148175907C0F04817590761F4CC
:102EF00082819381209719F09B838A832BC09093C2
:102F000019038093180326C02115310519F04217C3
:102F1000530718F49A01BE01DF01EF010280F3812B
:102F2000E02DDCCF2115310509F1281B390B2430A8
:102F3000310590F412968D919C911397611571054E
:102F400021F0FB019383828304C090931903809343
:102F50001803FD01329644C0FD01E20FF31F819377
:102F60009193225031092D933C933AC0209116033E
:102F700030911703232B41F420910A0130910B016A
:102F80003093170320931603209108013091090113
:102F90002115310541F42DB73EB740910C015091F8
:102FA0000D01241B350BE0911603F0911703E21776
:102FB000F307A0F42E1B3F0B2817390778F0AC015C
:102FC0004E5F5F4F2417350748F04E0F5F1F509339
:102FD0001703409316038193919302C0E0E0F0E061
:102FE000CF01DF91CF9108950F931F93CF93DF937C
:102FF000009709F48CC0FC01329713821282009171
:103000001803109119030115110581F420813181F4
:10301000820F931F20911603309117032817390749
:1030200079F5F0931703E093160371C0D80140E0DF
:1030300050E0AE17BF0750F412962D913C911397B4
:10304000AD012115310509F1D901F3CF9D01DA0157
:103050003383228360817181860F971F82179307C4
:1030600069F4EC0128813981260F371F2E5F3F4F0D
:10307000318320838A819B8193838283452B29F42A
:10308000F0931903E093180342C01396FC93EE9358
:103090001297ED01499159919E01240F351FE217B6
:1030A000F30771F480819181840F951F0296119628
:1030B0009C938E938281938113969C938E93129707
:1030C000E0E0F0E0D80112968D919C911397009763
:1030D00019F0F8018C01F6CF8D919C9198012E5F2B
:1030E0003F4F820F931F209116033091170328172B
:1030F000390769F4309729F41092190310921803D4
:1031000002C0138212821093170300931603DF91FB
:10311000CF911F910F91089597FB072E16F40094FD
:1031200007D077FD09D00E94E11807FC05D03EF4D6
:10313000909581959F4F0895709561957F4F089563
:10314000A1E21A2EAA1BBB1BFD010DC0AA1FBB1FAB
:10315000EE1FFF1FA217B307E407F50720F0A21B1D
:10316000B30BE40BF50B661F771F881F991F1A948A
:1031700069F760957095809590959B01AC01BD01B4
:10318000CF010895052E97FB1EF400940E94D918D4
:1031900057FD07D00E94A01807FC03D04EF40C94F2
:1031A000D91850954095309521953F4F4F4F5F4F1F
:1031B000089590958095709561957F4F8F4F9F4FA3
:1031C0000895AA1BBB1B51E107C0AA1FBB1FA6176E
:1031D000B70710F0A61BB70B881F991F5A95A9F7C0
:1031E00080959095BC01CD010895EE0FFF1F0590CD
:1031F000F491E02D099481E090E0F8940C9400198A
:1032000011E0CCE8D1E004C0FE010E94F51821963F
:0A321000CD38D107C9F7F894FFCFBD
:10321A0060574E450E17202900001A03800000004F
:10322A00000090097108000000003D071403000027
:10323A00000079041203000000005812F410000084
:10324A0000007A049C040000000000000000E20173
:10325A00E201E201E201E201E201E201E20100002F
:10326A0000003F0FB701FE0F3E0F930FAB0F260F63
:10327A0000000000FA110E12D610C910B710AB10D8
:10328A001B10D9100F1001100101000001000000ED
:10329A0000030A170A0000000073089D082C022880
:1032AA00022302200280021C0218021402000000FB
:1032BA00001711B701DF0E5E11100FEE0E020F009C
:1032CA00000000E201B701FE0FFD0FE201E201E298
:1032DA000100000000E201B701FE0FFD0F0000002F
:1032EA000000000000E201000000004E0CA9085D89
:1032FA00080000000000000000E201000000004D8C
:10330A000CA708AB080D0A005B70726F6772616DDB
:0A331A002061626F727465645D004B
:00000001FF
