:100000000C94F2020C941A030C941A030C944A0EEA
:100010000C944A0E0C944A0E0C941A030C941A0376
:100020000C941A030C941A030C941A030C941A03DC
:100030000C941A030C941A030C941A030C941A03CC
:100040000C9426110C941A030C9444050C941E0570
:100050000C941A030C941A030C941A030C941A03AC
:100060000C941A030C941A03536F667453657269E7
:10007000616C506F72743A3A6C697374656E3E20AD
:100080006F6E20706F7274203A006672656520731F
:1000900072616D203A20007365747570205365722B
:1000A00069616C546573744D6173746572000042CC
:1000B0005546464552204F564552464C4F573A20DA
:1000C0006461746153697A65203E200062797465C9
:1000D0003A200053657269616C4E6F64653A3A70FC
:1000E000726F636573734E6F6465733E206E6F202D
:1000F0006E6F64657320666F756E640041525000C8
:1001000041525100414344004352004C495645007E
:1001100041434B004E414B00706C65617365206339
:10012000616C6C2053797374656D2E696E697428E7
:10013000796F757253797374656D496429206265AE
:10014000666F726520796F752063726561746520D2
:100150006E6F6465732E0066726565207372616DE3
:10016000203A200053657269616C4E6F64653A3ABB
:100170006F6E4D6573736167653E20726F756E6457
:1001800020747269702074696D65203A2000002E19
:100190000053657269616C4E6F64653A3A6F6E4DDB
:1001A0006573736167653E20434F4E4E4543544926
:1001B0004F4E5F5354415455535F434F4E4E45434A
:1001C000544544206E6F64652028616374697665C8
:1001D00029203A200053657269616C4E6F64653A5C
:1001E0003A6F6E4D6573736167653E41434B204FB7
:1001F0004E204352206E6F6465206973206E6F74C9
:100200002072656164793A200053657269616C4EB1
:100210006F64653A3A6F6E4D6573736167653E6EE4
:100220006F646520697320616C7265616479206315
:100230006F6E6E65637465643A2000536572696120
:100240006C4E6F64653A3A6F6E4D657373616765A6
:100250003E41434B204F4E204352206E6F64652039
:100260006973206E6F74206163746976653A20004B
:1002700053657269616C4E6F64653A3A6F6E4D6595
:1002800073736167653E20434F4E4E454354494F5B
:100290004E5F5354415455535F434F4E4E45435464
:1002A0004544206E6F6465203A2000002E0053659F
:1002B0007269616C4E6F64653A3A6F6E4D65737327
:1002C0006167653E20756E6B6E6F776E2072656D2F
:1002D0006F7465206E6F64652077616E747320742F
:1002E0006F20636F6E6E6563743A2000002E00709D
:1002F00063622072656D6F746520616464726573FA
:10030000733A00207061723A200020636D643A20D5
:100310000020616B7449643A2000002E0020746F45
:1003200020002E00203C3C3C200020203C3C3C2077
:100330000053657269616C4E6F64653A3A6F6E4D39
:100340006573736167653E206E6F6465203A2000B7
:10035000554E4B4F574E5F434D4400536572696194
:100360006C4E6F64653A3A7772697465546F506F7A
:1003700072743E202D2D2D2D2D2D2D2D2D2D2D2D1D
:100380002D2D2D2D2D2D2D2D2D20656E64202D2D07
:100390002D2D2D2D2D2D2D2D2D2D2D2D2D2D6E6F0A
:1003A00064653A2000207061723A200020636D6419
:1003B0003A200020616B7449643A2000002E00202E
:1003C000746F20002E0053657269616C4E6F646516
:1003D0003A3A7772697465546F506F72743E207741
:1003E000616974696E6720666F72207265706C69EE
:1003F0006573206F6E206F7468657220736F66740A
:100400002073657269616C20706F72742C20666F46
:10041000726365206C697374656E2C20646174610D
:10042000206D6179206265206C6F73740053657272
:1004300069616C4E6F64653A3A7772697465546F9E
:10044000506F72743E2077616974696E6720666FC1
:1004500072207265706C696573206F6E206F7468AE
:10046000657220736F66742073657269616C2070A9
:100470006F72742C202063616E63656C005365722B
:1004800069616C4E6F64653A3A7772697465546F4E
:10049000506F72743E20474C454943484552204CAA
:1004A000495354454E4552203F00203E3E3E207069
:1004B0006F72743A200020203E3E3E200053657249
:1004C00069616C4E6F64653A3A7772697465546F0E
:1004D000506F72743E206E6F6465203A20006E6F1C
:1004E00064652034207265616479006E6F646520F4
:1004F00033207265616479006E6F6465203220720A
:1005000065616479006E6F64652031207265616495
:1005100079007465737444617461203A20007465D5
:10052000737444617461206F6E206E6F64653A204D
:100530000000000000250028002B0004040404042F
:100540000404040202020202020303030303030180
:100550000204081020408001020408102001020457
:10056000081020000000080002010000030407003A
:1005700000000000000000506F7274206E6F742045
:10058000666F756E640072656D6F7465537973493B
:1005900064206D7573742062652064696666726597
:1005A0006E742066726F6D2073797374656D496423
:1005B0000072656D6F74655379734964206D75734E
:1005C00074206265203E20302021000000000024BD
:1005D0000027002A00000000002300260029000058
:1005E0006E176A1711241FBECFEFD8E0DEBFCDBF54
:1005F00011E0A0E0B1E0E6EEF2E302C005900D925A
:10060000AA3DB107D9F722E0AAEDB1E001C01D92E1
:10061000A53DB207E1F712E0C1EFD2E004C0219797
:10062000FE010E945B19C03FD107C9F70E948813E1
:100630000C9466190C940000CF92DF92EF92FF9217
:100640000F931F93CF93DF936C017A018B01C0E06E
:10065000D0E0CE15DF0589F0D8016D918D01D6016E
:10066000ED91FC910190F081E02DC6010995892B57
:1006700011F47E0102C02196ECCFC701DF91CF912A
:100680001F910F91FF90EF90DF90CF900895FC01A4
:10069000538D448D252F30E0842F90E0821B930BE7
:1006A000541710F0CF96089501970895FC01918D8D
:1006B000828D981761F0828DDF01A80FB11D5D96C4
:1006C0008C91928D9F5F9F73928F90E008958FEF32
:1006D0009FEF0895FC01918D828D981731F0828DE6
:1006E000E80FF11D858D90E008958FEF9FEF08953D
:1006F000FC01918D228D892F90E0805C9F4F821BA1
:1007000091098F73992708958DE192E00E947803F3
:1007100021E0892B09F420E0822F0895FC01848DCB
:10072000DF01A80FB11DA35ABF4F2C91848D90E01B
:1007300001968F739927848FA689B7892C93A089F6
:10074000B1898C9180648C93938D848D981306C0AD
:100750000288F389E02D80818F7D80830895EF9258
:10076000FF920F931F93CF93DF93EC0181E0888F6B
:100770009B8D8C8D981305C0E889F989808185FD52
:1007800024C0F62E0B8D10E00F5F1F4F0F73112743
:10079000E02E8C8DE8120CC00FB607FCFACFE8896A
:1007A000F989808185FFF5CFCE010E948E03F1CFBC
:1007B0008B8DFE01E80FF11DE35AFF4FF0820B8F86
:1007C000EA89FB898081806207C0EE89FF896083A6
:1007D000E889F98980818064808381E090E0DF91FD
:1007E000CF911F910F91FF90EF900895CF93DF93DA
:1007F000EC01888D8823C9F0EA89FB89808185FD19
:1008000005C0A889B9898C9186FD0FC00FB607FC79
:10081000F5CF808185FFF2CFA889B9898C9185FFBA
:10082000EDCFCE010E948E03E7CFDF91CF910895E7
:1008300080E090E0892B29F00E94840381110C94C0
:100840000000089521E0FC01448555858091DA017E
:100850009091DB014817590709F020E0822F089595
:10086000DC011C968D919C911D97DC01ED91FC9112
:100870000084F185E02D0994DC011C968D919C91FA
:100880001D97DC01ED91FC910280F381E02D09942C
:10089000DC011C968D919C911D97DC01ED91FC91E2
:1008A0000190F081E02D099521E0892B09F420E0E9
:1008B000822F0895DC011C968D919C911D97DC017F
:1008C000ED91FC910284F385E02D0995089581E076
:1008D00090E008950E946119CF93DF939A01AB01D4
:1008E000FC01C485D5851B8E1A8E198E188E1F8A21
:1008F0001E8A60E079E08DE390E00E942819F901FA
:100900002430310518F0C901039702C081E090E05E
:100910009D8F8C8F6C85663108F069C0C9019695F2
:1009200087958431910510F0439702C081E090E0F3
:100930009F8B8E8B369718F0C901059702C081E016
:1009400090E0998F888FC901880F991F280F391F50
:1009500036952795369527952D30310518F02C5072
:10096000310902C021E030E03B8F2A8F909168006E
:10097000683050F021E06E3008F420E081E001C0E2
:10098000880F2A95EAF701C084E0892B80936800DC
:100990008C85883038F08E3040F0863148F020E089
:1009A00030E008C02DE630E005C02BE630E002C0A4
:1009B0002CE630E03C8B2B8B883030F491E001C08A
:1009C000990F8A95EAF70EC0282F30E08E3018F480
:1009D0002850310902C02E50310991E001C0990F11
:1009E0002A95EAF79D8B8C8D9D8D0197F1F7CE01AD
:1009F000DF91CF910C94C40ECF93DF93EC01E8818B
:100A0000F9810288F389E02D0995811113C00E94B4
:100A10001A11688779878A879B8788E690E00E9409
:100A2000070F8D810E94770F8C859D85DF91CF9177
:100A30000C94C40E80E0DF91CF9108951F920F9225
:100A40000FB60F9211242F933F934F935F936F93A1
:100A50007F938F939F93AF93BF93EF93FF938DE11A
:100A600092E00E948E03FF91EF91BF91AF919F9111
:100A70008F917F916F915F914F913F912F910F9047
:100A80000FBE0F901F9018951F920F920FB60F92E6
:100A900011242F938F939F93EF93FF93E0912D0257
:100AA000F0912E028081E0913302F091340282FDB8
:100AB00012C09081809136028F5F8F732091370230
:100AC000821751F0E0913602F0E0E35EFD4F958F22
:100AD0008093360201C08081FF91EF919F918F91A9
:100AE0002F910F900FBE0F901F901895DC0182E19F
:100AF00091E011969C938E9312962D913C911397B1
:100B00002115310589F0E091E001F091E101309784
:100B100059F082819381009729F08A179B0711F081
:100B2000FC01F5CF3383228314968D919C91159708
:100B3000009711F00C945A180895CF93DF93EC01AD
:100B40000E947605CE01DF91CF910C945A182F9216
:100B50003F924F925F926F927F928F929F92AF924D
:100B6000BF92CF92DF92EF92FF920F931F93CF939A
:100B7000DF93EB015A0149018DEB94E00E94070FCE
:100B800089810E94C90F86EB94E00E94070F8E8135
:100B90009F81805F91098830910540F4880F991FEB
:100BA000FC01EA5EFE4F8081918102C080E593E006
:100BB0000E94070F8AEA94E00E94070FD801159659
:100BC0008C910E94770FD801ED91FC910480F58102
:100BD000E02DC8010995019791F4D801ED91FC91A0
:100BE0000288F389E02DC8010995811108C055C11B
:100BF000FC0185810E94D00F892B09F05FC1D801CB
:100C0000ED91FC910288F389E02DC80109958111CD
:100C100015C08E819F81825F91098530910570F4A6
:100C2000FC01EA5DFE4F8081882341F0D801ED91FF
:100C3000FC910684F785E02DC8010995209711F4F1
:100C40000E9461199A8188819817D1F38C819D81C6
:100C5000892B09F0AFC08091BC029091BD02019632
:100C600021F41092BD021092BC02C090BC02D09040
:100C7000BD02EFEFCE1ADE0AD092BD02C092BC02D6
:100C8000DD82CC824E805F80C201825F9109853017
:100C9000910508F08FC0FC01EA5DFE4F808188233A
:100CA00009F488C0E090BE02F090BF0237011E0137
:100CB000F2E02F0E311C6114710409F1D301129678
:100CC0008C9190E08415950571F4BE01C3010396E3
:100CD0000E94DB0C882339F0B101C30105960E9404
:100CE000DB0C81110BC1F30165847684E4CFD7015D
:100CF0001D968D919C911E97009721F07C01E11427
:100D0000F104A9F78FE090E00E94C5173C018FE045
:100D1000F30111928A95E9F7D30113961C92139768
:100D200014961C92149715961C92159716961C9261
:100D3000E114F10429F47092BF026092BE0203C074
:100D4000F70176866586D30112964C9212978881B8
:100D5000998114969C938E9313978A819B81169602
:100D60009C938E931597CD20C09421F41092BD02D0
:100D70001092BC028091BC029091BD0201969093AA
:100D8000BD028093BC02F301918380839D838C8399
:100D90000E941A11D30119966D937D938D939C93A4
:100DA0001C978C819D8111969C938E93F80185816F
:100DB00018968C93C8010E947C130E946013C8018E
:100DC0000E947C1349E050E0BE010E947013A11400
:100DD000B10451F08114910439F0C8010E947C13D0
:100DE000A401B5010E947013C8010E947C130E94E7
:100DF000501388810E94C90F84EC93E00E94070F72
:100E000089810E94C90F8FEB93E00E94070F8A81AE
:100E10000E94C90F8DEB93E00E94070F8B810E9407
:100E2000C90F8CEB93E00E94280F83EB93E00E94A4
:100E3000070F6C817D8180E090E04AE00E94360FD0
:100E40008CEA93E00E94070F6E817F81072E000CD1
:100E5000880B990B97FF03C00E948A0F03C04AE0DA
:100E60000E94360F85EA93E00E94070F88850E9452
:100E7000770FE091BE02F091BF02309721F0058418
:100E8000F685E02DFACF8BE593E00E94070F89816C
:100E90000E94770F8C819D8136C00E9407138017B6
:100EA000910709F0A5CE8DE794E00E94280F0E94DB
:100EB000B5178DE192E00E94F603C2CE8E819F812C
:100EC0009C01225F31092230310538F48DE294E033
:100ED0000E94280F80E090E016C0863F910509F03F
:100EE0008ECE86EC93E00E94280FD801ED91FC9104
:100EF0000684F785E02DC801099581CE82E0D301F3
:100F000017968C9345CFDF91CF911F910F91FF9052
:100F1000EF90DF90CF90BF90AF909F908F907F9099
:100F20006F905F904F903F902F900895CF93DF93F5
:100F3000DC011496ED91FC911597309729F02481EE
:100F4000223011F481E00FC0E091DE01F091DF0169
:100F5000309741F0EC010995EC81FD8181E09481AD
:100F6000923009F080E0DF91CF9108950F931F93A5
:100F7000CF93DF93EC01E091DE01F091DF01309738
:100F800011F0099506C00E949607EC81FD8182E070
:100F90008483CE010E949607882381F0EC81FD8135
:100FA0008581882359F000E010E020E030E040E047
:100FB00050E063EF70E0CE010E94E40FDF91CF912B
:100FC0001F910F9108953F924F925F926F927F927F
:100FD0008F929F92AF92BF92CF92DF92EF92FF9249
:100FE0000F931F93CF93DF9300D0CDB7DEB77C0173
:100FF0006B012A0139014801672B11F40E94611924
:10100000452B19F0232B19F4F9CF232BB9F78114B1
:101010009104A1F3D7011496ED91FC91159792815B
:1010200080911C02981751F30E941A11F7016087F2
:10103000718782879387D6011696AD90BC901797DB
:10104000C7010E945B0C382E81E393E00E94070FDA
:10105000D7011496ED91FC91159781810E94C90FDB
:101060008AE293E00E94070F8501005F11090830B2
:10107000110540F4F801EE0FFF1FEA5EFE4F80817C
:10108000918102C080E593E00E94070F84E293E023
:101090000E94280FF60180810E94C90F82E293E02E
:1010A0000E94070FD60111968C910E94C90F8DE105
:1010B00093E00E94070FF60182810E94C90F8BE125
:1010C00093E00E94070FD60113968C910E94C90FDE
:1010D0008AE193E00E94280F81E193E00E94070FCC
:1010E000F6016481758180E090E04AE00E94360F4D
:1010F0008AE093E00E94070FD60116966D917C91CD
:101100001797072E000C880B990B97FF03C00E94BE
:101110008A0F03C04AE00E94360F83E093E00E94EA
:10112000070FF60180850E94770F311008C002304A
:10113000110528F0F3EFAF16B10409F017C282EFE2
:10114000A816B10409F449C05CF4B0EFAB16B104C1
:1011500009F4ECC00CF05EC0AB2809F407C203C26E
:10116000F4EFAF16B104A9F034F0A7EFAA16B1045A
:1011700009F444C0F8C1D7011496ED91FC9115977C
:101180008581811196C1C7010E9496078111EDC02A
:1011900090C13320C1F0F6014481558100E010E098
:1011A00020E030E061EF70E0C7010E94E40FD7015A
:1011B00017961C921E9216971496ED91FC91159716
:1011C00083E0848329C1F6014481558100E010E069
:1011D00020E030E060EF70E00DC03320A1F3D601D5
:1011E00014964D915C91159700E010E020E030E0FE
:1011F00061EF70E0C7010E94E40F0EC1F601648147
:1012000075818AEB92E00E946F0C8C01892B09F0AA
:1012100003C1ACC1D60114966D917C9115978AEBF0
:1012200092E00E946F0C8C01009709F49FC1FC01B1
:101230008281833F39F0843F09F471C0823F09F015
:10124000EBC0F5C0D70117969C928E921697149614
:10125000ED91FC9115978581811103C08BE392E09C
:1012600019C0C7010E945B0C882369F089E092E0F5
:101270000E94070FD7011496ED91FC91159781817B
:101280000E94770FD8C0C7010E94960781110DC038
:1012900085ED91E00E94070FD7011496ED91FC9126
:1012A000159781810E94C90FC6C0D7011496ED9190
:1012B000FC911597D6018D919C9193838283D701E0
:1012C0001496ED91FC91159784E0848317969C9277
:1012D0008E92169781E991E00E94070FD70114962C
:1012E000ED91FC91159781810E94770FD70114969B
:1012F000ED91FC91159780810E94C90F8FE891E0D4
:101300000E94070FD7011496ED91FC9115978181EA
:101310000E94C90F8EE891E00E94280F8CC0F7014F
:10132000178216820480F581E02D1CC0D601149628
:101330006D917C9115978AEB92E00E946F0C8C0165
:10134000009709F413C1FC018281833F31F0843F8F
:1013500009F46DC0823F09F05FC0D7011496ED918A
:10136000FC91159783E0848366C0D7011496ED91B4
:10137000FC91159782818111BEC0D6018D919C91FF
:10138000938382838FEE92E00E94280FD7011496F8
:10139000ED91FC91159782810E94C90F8DEE92E02C
:1013A0000E94070FD7011496ED91FC911597838148
:1013B0000E94C90F8CEE92E00E94280FD701179669
:1013C0009C928E9216971496ED91FC91159784E05D
:1013D00084831496ED91FC911597D6018D919C9183
:1013E00011979383828314964D915C91159700E039
:1013F00010E020E030E061EF70E0C7010E94E40FF0
:1014000080E792E00E94070FD7011496ED91FC91BE
:10141000159781810E94770FE091DC01F091DD0149
:10142000309729F09701A301B201C6010995011572
:10143000110509F49BC084E691E00E94070F0E9409
:101440001A11F8010185128523853485601B710B03
:10145000820B930B4AE00E94360F85EC91E00E94CC
:10146000F50E80E00E94D00F8C01D60114966D918C
:101470007C9115978AEB92E00E947F0C80E00E949D
:10148000D00F8017910708F0B9CD87E591E00E9451
:10149000070F2091D1023091D2022115310511F4AC
:1014A00025ED32E0CE010196821B930B0E94B10F15
:1014B0005DC0F70104811581D80115968C918111C9
:1014C00014C0C7010E945B0C882361F0B8016E5FF5
:1014D0007F4FC6010E94DB0C882339F0F60144815E
:1014E000558182CEC7010E949607D60114964D9170
:1014F0005C9115976BCEB601CF0102960E94DB0C72
:1015000081115CCF8EEA92E00E94070FD7011496FA
:10151000ED91FC91159781810E94C90FD701149616
:10152000ED91FC91159782810E94C90F8CEA92E09F
:101530000E94070FD7011496ED91FC9115978381B6
:101540000E94C90F8BEA92E00E94280FF6014481A5
:10155000558100E010E020E030E060EF70E0C7016E
:101560000E94E40F2BCF00E010E056CF0F900F90B9
:10157000DF91CF911F910F91FF90EF90DF90CF906F
:10158000BF90AF909F908F907F906F905F904F90A3
:101590003F900895CF92DF92EF92FF920F931F93A7
:1015A000CF93DF9300D01F92CDB7DEB76C0182E1FD
:1015B00091E0D60111969C938E9313961C921E92E5
:1015C000129715961C921E92149717961C921E92B3
:1015D0001697F60110861186128613861C961D92A8
:1015E0001D921D921C921F9710911C0211110CC08C
:1015F00088E191E00E94280F0E94B5178DE192E0EA
:101600000E94F6030E946119F601F782E68286E0E5
:1016100090E02B834A8369830E94C517FC0186E012
:10162000DF011D928A95E9F7D6011596FC93EE939A
:1016300014971083698161832B81228303834A81FC
:101640004583E091E001F091E101309731F0828132
:101650009381009739F0FC01F8CFD092E101C0925C
:10166000E00102C0D382C2820F900F900F90DF91F1
:10167000CF911F910F91FF90EF90DF90CF90089541
:101680002091DA013091DB012817390771F490912C
:10169000190280911802981741F0E0911902F0E0C8
:1016A000E850FE4F808190E008958FEF9FEF0895FE
:1016B00008951F93CF93DF93DC015C962D913C91AD
:1016C0005D972115310539F481E090E013969C93E4
:1016D0008E9312973DC05196ED91FC915297509682
:1016E0009C915097892F80951FB75E964C915E977D
:1016F00041FB772770F941FD6095F894408177238D
:1017000011F0492B01C048234083E9012197F1F7EB
:1017100048E0508160FF02C0592B01C0582350831C
:10172000E9012197F1F76695415099F7772321F068
:1017300090818923808303C08081982B90831FBF71
:101740005C968D919C915D970197F1F721E030E0D7
:10175000C901DF91CF911F9108952091DA01309155
:10176000DB012817390769F48091180220911902CA
:1017700090E08096821B910960E270E00E94F2186E
:10178000089580E090E008952091DA013091DB0126
:1017900028173907B9F49091190280911802981707
:1017A00089F0E0911902F0E0E850FE4F808120912D
:1017B000190230E02F5F3F4F2F713327209319021A
:1017C00090E008958FEF9FEF0895089580E090E0F6
:1017D00008950C945A180F931F93CF93DF93452BC2
:1017E00009F18901EB018EE195E00E94070FD80114
:1017F0001496ED91FC91159781810E94770F82E1FB
:1018000095E00E94070F688179818A819B814AE077
:101810000E94360F85EC91E0DF91CF911F910F91DF
:101820000C94F50EDF91CF911F910F910895CF93F6
:10183000DF93EC018091E8019091E901C817D90785
:1018400041F4EC81FD8182E0848385E095E00E9493
:10185000280F8091E6019091E701C817D90741F45C
:10186000EC81FD8182E0848388EF94E00E94280F60
:101870008091E4019091E501C817D90741F4EC810A
:10188000FD8182E084838BEE94E00E94280F80919A
:10189000E2019091E301C817D90751F4EC81FD8171
:1018A00082E084838EED94E0DF91CF910C94280F39
:1018B000DF91CF910895DC011496ED91FC9115977D
:1018C000309751F016968D919C911797892B21F0A6
:1018D00081E09481943009F080E008950895FC013E
:1018E00084819581009751F0FC0120813181261778
:1018F000370721F0FC0185859685F4CF0895CF93B5
:10190000DF93EC010E946F0C009799F1FC01458573
:101910005685EC81FD8141155105A1F08E179F0779
:1019200021F45D834C8321C0F9013097F1F02585C6
:10193000368521153105C9F028173907A9F75687CB
:10194000458713C08E179F0721F41D821C820DC08E
:10195000F901309751F0258536852115310529F09B
:1019600028173907A9F7168615860E945A1881E0AC
:1019700001C080E0DF91CF910895CF93DF93EC0118
:101980008FE591E099838883EC81FD81309731F078
:1019900060817181CE010E947F0CF6CFDF91CF91E3
:1019A0000895CF93DF93EC010E94BD0CCE01DF912F
:1019B000CF910C945A18FC019081DB018C91981303
:1019C00005C081E0218111969C91291380E0089542
:1019D0006F927F928F929F92AF92BF92CF92DF923F
:1019E000EF92FF920F931F93CF93DF93EC016B0164
:1019F0008A01892B11F40E9461196930710528F060
:101A00005B0139E0A31AB10802C0A12CB12C8A8174
:101A1000882309F430C190911C02891342C0E090E0
:101A2000E001F090E101E114F10429F38B818823B6
:101A3000A9F06E0182E0C80ED11CB601D701149640
:101A40008D919C9115970E94DB0C811186C0F70146
:101A5000E280F380E114F10481F70DC18E819F8152
:101A6000833F910509F007C1D7011496ED91FC91D0
:101A700015978581811167C0C7010E949607882349
:101A800009F461C0D7011496ED91FC9115978281FC
:101A9000882319F09881891356C08381811153C01E
:101AA0005CC02881291709F4E6C0E0901A02F09082
:101AB0001B02F701309739F09581981741F10280A8
:101AC000F381E02DF7CFCE010E9482105C01892BBB
:101AD00009F458C04501B2E08B0E911CBE01C4014F
:101AE0000E94DB0CF50134963F01882309F444C0C1
:101AF000BE016E5F7F4FCF010E94DB0C8823E1F1B6
:101B0000D5011896ED91FC9119973097D9F1CF0135
:101B10000E947C138C010E946013A601BE01C801C3
:101B20000E947013C801DF91CF911F910F91FF9018
:101B3000EF90DF90CF90BF90AF909F908F907F906D
:101B40006F900C945013D7011296ED90FC90139760
:101B5000E114F10409F088CF8EC0A114B10449F05A
:101B6000AE01475F5F4F9501BE01C7010E94E307C9
:101B700082C040E050E0F7CFBE01C3010E94DB0C01
:101B8000811165C08E819F81833F910509F073C0EB
:101B90008090C2029090C302F401309721F0028439
:101BA000F385E02DFACFA114B10459F08C819D8109
:101BB000D50111969C938E9319961C921E9218979C
:101BC0002AC08CE090E00E94C517FC018CE0DF0188
:101BD0001D928A95E9F7128213821482158281146C
:101BE000910409F443C0D4011A968D919C911B97DE
:101BF000009711F04C01F3CFD4011B96FC93EE93A8
:101C00001A978881998193838283178306838C81B5
:101C10009D8191838083E114F10469F1D7011596C8
:101C20009C91F8018581981731F1C7010E947C13BE
:101C30005C010E946013A601BE01C5010E947013E1
:101C4000C5010E945013F701E280F380E4CFBE018A
:101C50006E5F7F4FC4010E94DB0C882309F492CF92
:101C6000D5011696ED91FC9117974FCFF093C302D3
:101C7000E093C202C6CFDF91CF911F910F91FF90E9
:101C8000EF90DF90CF90BF90AF909F908F907F901C
:101C90006F9008951F920F920FB60F9211242F93F9
:101CA0003F934F935F936F937F938F939F93AF93E4
:101CB000BF93EF93FF93E091DA01F091DB0130974E
:101CC00009F451C0968DA685B785858591FF04C01E
:101CD0009C91892329F447C09C91892309F043C032
:101CE000A389B4899C918589809589238C93868961
:101CF00097890197F1F7608D718DA685B785558518
:101D000038E020E0CB010197F1F7822F90E0959524
:101D10008795282F4C91452309F02068315091F781
:101D2000868D81FD20958091180290E001968F713B
:101D3000992730911902381749F0A0911802B0E0A4
:101D4000A850BE4F2C938093180203C0868D8160EB
:101D5000868F828D938D0197F1F7A389B4899C9129
:101D60008589892B8C93FF91EF91BF91AF919F91C2
:101D70008F917F916F915F914F913F912F910F9034
:101D80000FBE0F901F901895CF93DF93FC01828DAB
:101D9000938D892B31F1A091DA01B091DB01AE175F
:101DA000BF07F9F0109751F05396CD91DC915497FD
:101DB000988155968C91809589238883868D8E7F16
:101DC000868F1092180210921902F093DB01E093B3
:101DD000DA01A389B4899C918589892B8C9381E050
:101DE00001C080E0DF91CF910895009769F0FC0178
:101DF00001900020E9F73197AF01481B590BBC0156
:101E00008DE192E00C941C0380E090E008950F9324
:101E10001F93CF93DF938C01C0E0D0E0F801EC0F6B
:101E2000FD1F6491662371F0E0911D02F0911E0286
:101E30000190F081E02D8DE192E00995892B11F060
:101E40002196ECCFCE01DF91CF911F910F91089594
:101E5000CF93DF930E94070FEC0185EC91E00E9485
:101E6000F50E8C0F9D1FDF91CF9108958F929F9259
:101E7000AF92BF920F931F93CF93DF93CDB7DEB78F
:101E8000A1970FB6F894DEBF0FBECDBF19A24230A6
:101E900008F44AE08E010F5D1F4F842E912CA12C77
:101EA000B12CA50194010E940619E62FB901CA01BF
:101EB00001501109EA3014F4E05D01C0E95CD80179
:101EC000EC93232B242B252B61F7C8010E94F50EE0
:101ED000A1960FB6F894DEBF0FBECDBFDF91CF91B4
:101EE0001F910F91BF90AF909F908F900895CF93C7
:101EF000DF93682F70E080E090E04AE00E94360FA8
:101F0000EC0185EC91E00E94F50E8C0F9D1FDF9196
:101F1000CF910895CF92DF92EF92FF92CF93DF930C
:101F20006B017C01E0911D02F0911E020190F08195
:101F3000E02D6DE28DE192E00995EC0166277727AF
:101F4000CB016C197D098E099F094AE00E94360F6A
:101F50008C0F9D1FDF91CF91FF90EF90DF90CF907E
:101F60000895CF93DF93BC01990F880B990B97FFCE
:101F700003C00E948A0F03C04AE00E94360FEC01A2
:101F800085EC91E00E94F50E8C0F9D1FDF91CF91A3
:101F90000895682F70E080E090E04AE00C94360FDE
:101FA000282FE091BE02F091BF0280E090E03097D0
:101FB00051F0211105C001960584F685E02DF7CF7B
:101FC00030853217C1F308956F927F928F929F925E
:101FD000AF92BF92CF92DF92EF92FF920F931F9337
:101FE000CF93DF93CDB7DEB729970FB6F894DEBF56
:101FF0000FBECDBF6C013B015901480119821A8205
:102000001B821C821E821D8218861F821986FC017B
:10201000E480F58080911C02F7019281981302C040
:102020000E946119F7019481943061F0633F71055A
:1020300049F09B01205F31092230310518F080E022
:1020400090E04BC089834115510539F05E834D8383
:10205000C6010E945B0C882391F3F7018281938172
:102060009C838B83F701808191819A838983788611
:102070006F821986F601068117810115110581F419
:102080008B81E0901A02F0901B02F70103C00280DE
:10209000F381E02D309769F095819813F8CF8F0187
:1020A0009401A501BE016F5F7F4FC6010E94A70585
:1020B00012C0E114F10419F287019401A501BE01D7
:1020C0006F5F7F4FC6010E94A705F701E280F38092
:1020D000E114F10489F78D819E8129960FB6F89459
:1020E000DEBF0FBECDBFDF91CF911F910F91FF904B
:1020F000EF90DF90CF90BF90AF909F908F907F90A8
:102100006F900895CF92DF92EF92FF920F931F93FB
:10211000CF93DF938C01C091C202D091C3027C01A6
:1021200082E0E80EF11C209761F18E819F81892B5E
:1021300021F188859985892B01F16E0182E0C80E15
:10214000D11CB801C6010E94DB0C811106C0B70189
:10215000C6010E94DB0C882381F06E0184E0C80E6A
:10216000D11CB801C6010E94DB0C81110DC0B70162
:10217000C6010E94DB0C811107C00A84DB85C02DDB
:10218000D2CF80E090E001C0CE01DF91CF911F91CE
:102190000F91FF90EF90DF90CF90089590E0FC01B9
:1021A000ED59FA4F3491FC01E15BFA4F2491FC01A7
:1021B000E55CFA4FE491EE2309F43BC0332339F197
:1021C000333091F038F43130A9F0323001F584B574
:1021D0008F7D12C0373091F03830A1F03430B9F42F
:1021E000809180008F7D03C0809180008F778093E5
:1021F00080000DC084B58F7784BD09C08091B00088
:102200008F7703C08091B0008F7D8093B000F0E0A5
:10221000EE0FFF1FEF5CFA4FA591B4918FB7F894C2
:10222000EC91611103C020952E2301C02E2B2C931D
:102230008FBF08952FB7F8946091C9027091CA02B8
:102240008091CB029091CC022FBF08951F920F92E4
:102250000FB60F9211242F933F938F939F93AF93B9
:10226000BF938091C9029091CA02A091CB02B09114
:10227000CC023091C80223E0230F2D3720F40196C1
:10228000A11DB11D05C026E8230F0296A11DB11D99
:102290002093C8028093C9029093CA02A093CB02F4
:1022A000B093CC028091C4029091C502A091C60265
:1022B000B091C7020196A11DB11D8093C4029093F5
:1022C000C502A093C602B093C702BF91AF919F9180
:1022D0008F913F912F910F900FBE0F901F901895E7
:1022E00029E931E0DC0111963C932E9316968D91ED
:1022F0009C911797009739F0DC01ED91FC910280D9
:10230000F381E02D0994089508950895CF93DF9304
:10231000EC018FE791E0998388838C819D81009700
:1023200039F0DC01ED91FC910280F381E02D0995FB
:102330008E819F81009749F0DC01ED91FC91028034
:10234000F381E02DDF91CF910994DF91CF91089532
:10235000CF93DF93EC010E948611CE01DF91CF91E4
:102360000C945A18CF93DF93EC010E947011CE01A8
:10237000DF91CF910C945A180C945A180C945A1857
:10238000AF92BF92CF92DF92FF920F931F93CF93A2
:10239000DF938C01F62ED42E89E991E0D8011196B5
:1023A0009C938E9313961C921E92129714961C92D5
:1023B000149715961C92159717961C921E921697B5
:1023C000F8011086118612861386211103C081EB55
:1023D00095E006C080911C0228130CC086E895E0A9
:1023E0000E94280F0E94B5178DE192E00E94F6032B
:1023F0000E9461192583E0911A02F0911B02309727
:1024000029F410931B0200931A0208C08281938161
:10241000009711F0FC01FACF1383028388E090E06B
:102420000E94C5175C018FE791E0F50191838083DD
:1024300080E190E00E94C517EC018FE691E099835E
:1024400088831D821C82188619861A861B861C8624
:102450001E861D861F861B821A82D5011596DC9367
:10246000CE93149784E090E00E94C517FC0187E7A3
:1024700091E09183808313821282D5011796FC9399
:10248000EE9316971F830E830115110509F4B0CF43
:1024900013830283F5011383028388EE9CE09B8300
:1024A0008A83D8011796BC92AE9216978DE090E081
:1024B0009E878D870E94C5179D838C8381EB91E059
:1024C000F801918380838FE190E00E94C517EC01B1
:1024D0001B821A8288EE93E0A0E0B0E08C839D839B
:1024E000AE83BF8387E891E0998388831F8A1E8A21
:1024F000198E188E1B8E1A8E1D8E1C8E6E8D6E7F01
:102500006D7F6E8F6695617081E068278D2D0E94CA
:10251000CE104D2D50E09A01215B3A4FF9016491A4
:10252000455C5A4FFA018491882399F090E0880F16
:10253000991FFC01E553FA4FA591B4918F5C9A4F16
:10254000FC01C590D4908FB7F8949C91692B6C9343
:102550008FBFF9012491288BFA014491E42FF0E018
:10256000EE0FFF1FEF5CFA4F859194919A8B898B48
:102570008F2D90E09C01215B3A4F5901F901249184
:10258000AC01455C5A4F6A01FA0184918823C9F075
:1025900090E0880F991FFC01E553FA4FA591B49183
:1025A0008F5C9A4FFC01459154913FB7F8949C91F0
:1025B000822F809598239C93DA019C9189238C9398
:1025C0003FBF8E8D81FD04C061E08F2D0E94CE1033
:1025D000FC86F501A490AD86F601C490EC2DF0E0E8
:1025E000EE0FFF1FEB52FA4F859194919F878E87D4
:1025F000D8011D96DC93CE931C97DF91CF911F914C
:102600000F91FF90DF90CF90BF90AF900895CF9340
:10261000DF93C0911A02D0911B022097B1F0E8819C
:10262000F9810480F581E02DCE010995019749F4E7
:10263000E881F9810288F389E02DCE0109958111A5
:102640002BC00A80DB81C02DE8CFC0911A02D09147
:102650001B022097A9F0E881F9810480F581E02D23
:10266000CE010995019741F4E881F9810684F78547
:10267000E02DCE01099510C00A80DB81C02DE9CF85
:1026800087E795E00E94280F0E94B5178DE192E040
:102690000E94F6030E946119CE01DF91CF91089547
:1026A000DC0112968D919C911397DC01ED91FC91C8
:1026B0000284F385E02D44E050E060E071E009948D
:1026C000DC0112968D919C911397DC01ED91FC91A8
:1026D0000284F385E02D44E050E064E071E0099469
:1026E000DC0112968D919C911397DC01ED91FC9188
:1026F0000284F385E02D0994DC011696ED91FC919E
:10270000179786819781009711F40E9461190895A7
:10271000CF93DF9300D0CDB7DEB7789484B58260D5
:1027200084BD84B5816084BD85B5826085BD85B575
:10273000816085BD80916E00816080936E001092F3
:10274000810080918100826080938100809181006E
:1027500081608093810080918000816080938000FF
:102760008091B10084608093B1008091B00081605D
:102770008093B00080917A00846080937A00809189
:102780007A00826080937A0080917A0081608093E1
:102790007A0080917A00806880937A001092C1005C
:1027A000E0912D02F0912E0282E08083E0912902D7
:1027B000F0912A021082E0912B02F0912C028FEC12
:1027C000808310923502E0913102F091320286E06E
:1027D0008083E0912F02F0913002808180618083BC
:1027E000E0912F02F0913002808188608083E09137
:1027F0002F02F0913002808180688083E0912F0267
:10280000F091300280818F7D80838EEA90E00E947B
:10281000280F87E990E00E94280F8AE080931C022D
:102820008BEE9BE09093DD018093DC0187E19CE0DF
:102830009093DF018093DE018EE090E00E94C51747
:102840008C012BE04BE06AE00E94C0111093ED0177
:102850000093EC018EE090E00E94C5178C012CE003
:1028600049E068E00E94C0111093EB010093EA0177
:102870008091EC019091ED01DC01ED91FC910484DB
:10288000F585E02D40E855E260E070E00995809123
:10289000EA019091EB01DC01ED91FC910484F58556
:1028A000E02D40E855E260E070E0099580E190E0BD
:1028B0000E94C5175C01E12CF12C01E02BE041E006
:1028C00061E00E94CA0AB092E901A092E80180E1A9
:1028D00090E00E94C5175C0102E02BE040E062E05E
:1028E0000E94CA0AB092E701A092E60180E190E05E
:1028F0000E94C5175C0101E02CE041E063E00E940A
:10290000CA0AB092E501A092E40180E190E00E9441
:10291000C5175C0102E02CE040E064E00E94CA0AB6
:10292000B092E301A092E2018AE890E00E94070FD2
:102930002091D1023091D2022115310511F425EDFB
:1029400032E0CE010196821B930B0E94B10FDD2471
:10295000D3940091EE011091EF010115110529F4B6
:102960008091E0019091E10108C080E00E94D00FC9
:10297000892B39F4F801828193819093EF01809340
:10298000EE018091EE019091EF01892B41F480914D
:10299000E0019091E1019093EF018093EE0180912D
:1029A000EE019091EF01892B59F483ED90E00E94A4
:1029B000280F0E94B5178DE192E00E94F60340C0F7
:1029C0000E9407138C01009709F44EC0DC01129697
:1029D0008D919C911397892B09F446C0ED91FC9140
:1029E0000088F189E02DC8010995892BE9F5F801E6
:1029F00085810E94D00F892BB9F50E941A11D80148
:102A000018968D909D90AD90BC901B97DC01CB01EA
:102A100088199909AA09BB09893C9105A105B10545
:102A200008F035C221C0F80102811381011511059A
:102A300021F400911A0210911B020115110511F4E5
:102A40000E946119D801ED91FC910480F581E02D7F
:102A5000C8010995019739F7D801ED91FC910684D9
:102A6000F785E02DC8010995E090EE01F090EF01A7
:102A70000E941A114B015C01F70184859585A6859A
:102A8000B785A5019401281B390B4A0B5B0BDA01B2
:102A9000C901883E9340A105B10508F44EC0C701A5
:102AA0000E945B0C882329F1D7011496ED91FC91CB
:102AB00015978581882309F10E941A11F701008575
:102AC000118522853385DC01CB01801B910BA20B84
:102AD000B30B813A9F40A105B10578F0D701169656
:102AE000ED91FC91179785810E94D00F892B09F4F5
:102AF000DEC1C7010E94B6071BC0D7011496ED9135
:102B0000FC9115978581882399F00E941A11F7018D
:102B10000085118522853385DC01CB01801B910B5B
:102B2000A20BB30B893B9B40A105B10508F0B5C1D1
:102B3000F70184869586A686B786E0901A02F09003
:102B40001B02E114F10409F47BCFD7011696ED9135
:102B5000FC91179784819581892B09F471CFED91B0
:102B6000FC910088F189E02DC70109951816190616
:102B70003CF1F701E280F380E114F10431F70091B8
:102B8000E0011091E10181E0D9C0D7011696ED91E5
:102B9000FC911797048115810115110509F450CF97
:102BA000F80186819781009709F44ACFDC01ED9105
:102BB000FC910088F189E02D0995181619065CF042
:102BC000D701ED91FC910088F189E02DC7010995AD
:102BD000892BD9F6CECFF8018185843008F030CF2B
:102BE0008085843008F02CCF86819781DC01ED91BF
:102BF000FC910680F781E02D0995F80187878CEC20
:102C000090E00E94070FD8011F968C910E94770FC9
:102C1000F8018485882359F1828590E025853685E1
:102C20008217930778F4278544815581FA01E80FCC
:102C3000F91F2083D8011A968C911A978F5F1A96E4
:102C40008C9315C08FEA90E00E94070FF80165850C
:102C500076856450710980E090E04AE00E94360F6A
:102C600085EC91E00E94F50ED8011C961C92F801AB
:102C700097858085E82FF0E0EC5FFE4F208192136E
:102C800010C0833051F4D80118961C9218971C96E6
:102C9000DC921C971A961C920EC08F5FF8018087F9
:102CA0000AC0D80118961C921897809104019813B5
:102CB00002C01896DC92F8018185E82FF0E0E05020
:102CC000FF4F208192132AC0833019F5D8011A963C
:102CD0006C911A9764501B966C931B971296ED910A
:102CE000FC911397309709F4ABCE1C968C911C97EE
:102CF000882351F016964D915C91179770E01496C9
:102D00008D919C9115970995F8011186148612866C
:102D100057CF8F5FD80119968C9352CFF801118647
:102D20008091000198134CCFD1864ACF882319F0A7
:102D3000C8010E945B0CF801028113810115110585
:102D4000A9F7882309F4A0C00E941A110091F40188
:102D50001091F5012091F6013091F7010C591F4FA8
:102D60002F4F3F4F061717072807390708F088C06D
:102D70008091F0019091F101A091F201B091F301E5
:102D80000196A11DB11D8093F0019093F101A093D4
:102D9000F201B093F30104E010E020EF31E040E0F5
:102DA00050E065EF70E08091E8019091E9010E94A8
:102DB000E40F8091F0019091F101A091F201B091A6
:102DC000F3010196A11DB11D8093F0019093F101D3
:102DD000A093F201B093F30120EF31E040E050E026
:102DE00065EF70E08091E6019091E7010E94E40FA9
:102DF0008091F0019091F101A091F201B091F30165
:102E00000196A11DB11D8093F0019093F101A09353
:102E1000F201B093F30120EF31E040E050E065EFC4
:102E200070E08091E4019091E5010E94E40F8091AF
:102E3000F0019091F101A091F201B091F30101969E
:102E4000A11DB11D8093F0019093F101A093F201B7
:102E5000B093F30120EF31E040E050E065EF70E027
:102E60008091E2019091E3010E94E40F0E941A1107
:102E70006093F4017093F5018093F6019093F7014C
:102E80008DE192E00E94F6030E94180462CDD80101
:102E900012960D911C911397C9CDD7011696ED91FD
:102EA000FC91179785810E94D00F892B39F4D701A7
:102EB00018968D929D92AD92BC921B9700E010E007
:102EC00020E030E040E050E062EF70E0C7010E9497
:102ED000E40F2ECE8AEB92E00C94BD0CEDE1F2E013
:102EE0001382128288EE93E0A0E0B0E084839583A1
:102EF000A683B7838FE291E09183808385EC90E095
:102F00009587848784EC90E09787868780EC90E0B3
:102F1000918B808B81EC90E0938B828B82EC90E0A4
:102F2000958B848B86EC90E0978B868B118E128E1E
:102F3000138E148EEFECF2E010821182EDECF2E0D1
:102F400010821182E0ECF2E087E691E091838083C9
:102F500013821282EAEBF2E08FE591E091838083A5
:102F600015821482138212820895CF93DF9388EC26
:102F700091E00E94F50EEC0185EC91E00E94F50EC7
:102F80008C0F9D1FDF91CF910895CF93DF938230F7
:102F9000910510F482E090E0E091D302F091D40228
:102FA00020E030E0C0E0D0E0309711F14081518165
:102FB00048175907C0F04817590761F48281938177
:102FC000209719F09B838A832BC09093D40280931F
:102FD000D30226C02115310519F04217530718F402
:102FE0009A01BE01DF01EF010280F381E02DDCCF09
:102FF0002115310509F1281B390B2430310590F4D6
:1030000012968D919C9113976115710521F0FB012A
:103010009383828304C09093D4028093D302FD01F2
:10302000329644C0FD01E20FF31F81939193225029
:1030300031092D933C933AC02091D1023091D202B4
:10304000232B41F420910A0130910B013093D202DD
:103050002093D102209108013091090121153105F9
:1030600041F42DB73EB740910C0150910D01241B46
:10307000350BE091D102F091D202E217F307A0F4F0
:103080002E1B3F0B2817390778F0AC014E5F5F4FBE
:103090002417350748F04E0F5F1F5093D20240931C
:1030A000D1028193919302C0E0E0F0E0CF01DF9183
:1030B000CF9108950F931F93CF93DF93009709F457
:1030C0008CC0FC013297138212820091D3021091BE
:1030D000D4020115110581F420813181820F931FE3
:1030E0002091D1023091D2022817390779F5F09357
:1030F000D202E093D10271C0D80140E050E0AE1797
:10310000BF0750F412962D913C911397AD012115F4
:10311000310509F1D901F3CF9D01DA01338322830F
:1031200060817181860F971F8217930769F4EC0104
:1031300028813981260F371F2E5F3F4F318320832F
:103140008A819B8193838283452B29F4F093D40257
:10315000E093D30242C01396FC93EE931297ED01D5
:10316000499159919E01240F351FE217F30771F41D
:1031700080819181840F951F029611969C938E9366
:103180008281938113969C938E931297E0E0F0E0F6
:10319000D80112968D919C911397009719F0F80120
:1031A0008C01F6CF8D919C9198012E5F3F4F820F3D
:1031B000931F2091D1023091D2022817390769F468
:1031C000309729F41092D4021092D30202C01382D5
:1031D00012821093D2020093D102DF91CF911F91FE
:1031E0000F91089597FB072E16F4009407D077FDF2
:1031F00009D00E94471907FC05D03EF490958195AF
:103200009F4F0895709561957F4F0895A1E21A2E02
:10321000AA1BBB1BFD010DC0AA1FBB1FEE1FFF1F7A
:10322000A217B307E407F50720F0A21BB30BE40BCA
:10323000F50B661F771F881F991F1A9469F7609511
:103240007095809590959B01AC01BD01CF010895CB
:10325000052E97FB1EF400940E943F1957FD07D0DE
:103260000E94061907FC03D04EF40C943F195095A8
:103270004095309521953F4F4F4F5F4F0895909562
:103280008095709561957F4F8F4F9F4F0895AA1B32
:10329000BB1B51E107C0AA1FBB1FA617B70710F041
:1032A000A61BB70B881F991F5A95A9F78095909573
:1032B000BC01CD010895EE0FFF1F0590F491E02DA4
:1032C000099481E090E0F8940C94661912E0C1EF43
:1032D000D2E004C0FE010E945B192196C23FD107D3
:0632E000C9F7F894FFCFCE
:1032E60060574E450E1720290000D50280000000C9
:1032F600000076059D05140110010B01080150031D
:1033060004010001FC00010100000100000000AF03
:10331600031C034703F603780356036A0300000001
:10332600006A041C03E60BE50B6A046A046A0400DF
:103336000000006A041C03E60BE50B00000000BD5C
:103346000CD10C000000006E0CE90B00000000859B
:1033560011BE11000000008411BC1100000000869F
:1033660011A81100000000590B1C03E60B580BAD09
:103376000BC40B400B00000000000000006A046A4A
:10338600046A046A046A046A046A046A040000009F
:10339600007011B21167045A0448043C046C04FC22
:1033A60004300422040D0A005B70726F6772616D4F
:0A33B6002061626F727465645D00AF
:00000001FF
