:100000000C940B050C9433050C9433050C94950B50
:100010000C94950B0C94950B0C9433050C943305B0
:100020000C9433050C9433050C9433050C94330570
:100030000C9433050C9433050C9433050C94330560
:100040000C940E0E0C9433050C947E0E0C94580EEA
:100050000C9433050C9433050C9433050C94330540
:100060000C9433050C943305A4084108EE084407AA
:100070000109F60874077407C8084C63624C697379
:10008000743A3A676574546172676574506F72743C
:10009000204552524F5200002E00002E0053657230
:1000A00069616C4E6F64653A3A5570646174653E7F
:1000B00020666F727761726420666F7220435220EF
:1000C0006661696C65643A2000002E0053657269B0
:1000D000616C4E6F64653A3A5570646174653E2098
:1000E0004C494E4B20637265617465643A2000533D
:1000F000657269616C4E6F64653A3A5570646174FB
:10010000653E206E6F206C696E6B20666F756E6445
:1001100020746F2073797374656D3A2000207061CC
:10012000723A200020636D643A200020616B7449AC
:10013000643A2000002E0020746F20002E005365CA
:100140007269616C4E6F64653A3A666F727761727C
:10015000643E0053657269616C4E6F64653A3A752E
:1001600070646174653E206D6573736167652077A7
:100170006974686F7574206E6F6465496420696E78
:1001800020746F416464722072656365697665648A
:100190000053657269616C4E6F64653A3A757064BC
:1001A0006174653E206E6F207265616479206E6FA8
:1001B000646520666F7220435220666F756E64001E
:1001C000207061723A200020636D643A2000206143
:1001D0006B7449643A2000002E0020746F20002EBA
:1001E0000053657269616C4E6F64653A3A7570646C
:1001F0006174653E206E6F6465206E6F7420666F5B
:10020000756E64203A200053657269616C4E6F64AC
:10021000653A3A7570646174653E206E6F6465205E
:10022000666F756E640053657269616C4E6F6465CC
:100230003A3A7570646174653E206E6F206E6F642B
:10024000657320666F756E6400207061723A2000DD
:1002500020636D643A200020616B7449643A200089
:10026000002E0020746F20002E0053657269616CAF
:100270004E6F64653A3A7570646174653E207369C7
:100280007A653A20004163624C6973743A3A646556
:100290006C657465416362456E7472793E204E4FA1
:1002A0005420464F554E443A20004163624C6973D6
:1002B000743A3A64656C657465416362456E747244
:1002C000793E2000616362206E6F7420666F756EE8
:1002D00064202D20616B7469643A00536572696112
:1002E0006C4E6F64653A3A6F6E4D65737361676506
:1002F0003E204E414B204F4E204352203A200000DA
:100300002E0053657269616C4E6F64653A3A6F6E88
:100310004D6573736167653E206E6F646520646927
:1003200073636F6E6E6563746564203A2000002EFF
:100330000053657269616C4E6F64653A3A6F6E4D39
:100340006573736167653E20616374697665206ECD
:100350006F646520636F6E6E6563746564203A2018
:100360000053657269616C4E6F64653A3A6F6E4D09
:100370006573736167653E41434B204F4E20435286
:10038000206E6F6465206973206E6F7420726561E2
:1003900064793A200053657269616C4E6F64653A06
:1003A0003A6F6E4D6573736167653E41434B204FF5
:1003B0004E204352206E6F6465206973206E6F7407
:1003C000206163746976653A200053657269616CD7
:1003D0004E6F64653A3A6F6E4D6573736167653E43
:1003E000206E6F646520646973636F6E6E656374FD
:1003F0006564203A200053657269616C4E6F6465D4
:100400003A3A6F6E4D6573736167653E206E6F6437
:1004100065206973206E6F742072656164792C2089
:1004200073656E64204E414B203A2000536572691B
:10043000616C4E6F64653A3A6F6E4D6573736167B8
:10044000653E206E6F646520697320616374697610
:10045000652C2073656E64204E414B203A2000537A
:10046000657269616C4E6F64653A3A6F6E4D657383
:10047000736167653E206E6F646520636F6E6E65A5
:1004800063746564203A2000002E00434D445F41B0
:10049000434B202D3E2072656D6F7465206164644E
:1004A000726573733A00002E0053657269616C4E79
:1004B0006F64653A3A6F6E4D6573736167653E2090
:1004C000756E6B6E6F776E2072656D6F7465206EE2
:1004D0006F646520616464726573733A005365727A
:1004E00069616C4E6F64653A3A6F6E4D6573736106
:1004F00067653E20756E6B6E6F776E2072656D6FEF
:100500007465206E6F64652077616E747320746FFC
:10051000206E6F64653A2000002E007063622072C6
:10052000656D6F746520616464726573733A00531E
:10053000657269616C4E6F64653A3A6F6E4D6573B2
:10054000736167653E20434D445F435200536572BB
:1005500069616C4E6F64653A3A6F6E4D6573736195
:1005600067653E20756E616C6C6F776564206D65A4
:1005700073736167652C20737461747573203C3EDE
:1005800020636F6E6E65637465642C20616B7469A3
:100590006420203A00207061723A200020636D646C
:1005A0003A200020616B7449643A2000002E00203C
:1005B000746F20002E0053657269616C4E6F646524
:1005C0003A3A6F6E4D6573736167653E00536572AD
:1005D00069616C506F72743A3A53657269616C501C
:1005E0006F72743E20696E69746564006672656539
:1005F000207372616D203A200053657269616C50FE
:100600006F72743A3A53657269616C506F727431EB
:1006100028627974652072656D6F746553797349CA
:1006200064290000000000240027002A00000000C8
:100630000023002600290053657269616C4E6F64C7
:10064000653A3A496E69743E2073797374656D49F1
:10065000643A2000002E0053657269616C4E6F642D
:10066000653A53657269616C4E6F64653E206372D2
:100670006561746564203A200053657269616C4E4F
:100680006F64653A3A53657269616C4E6F64653E9A
:1006900020706C656173652063616C6C20537973A5
:1006A00074656D2E696E697428796F7572537973EC
:1006B00074656D4964292066697273740066726599
:1006C00065207372616D203A200020536572696164
:1006D0006C52783A3A726561644E6578743E206374
:1006E000616C6C2075706461746543616C6C6261EF
:1006F000636B00425546464552204F564552464C84
:100700004F573A20444154412053495A45203E3DD9
:100710000053657269616C52783A3A706F72742056
:10072000686173206E6F2072656365697665723AE1
:10073000200000000000250028002B000404040411
:10074000040404040202020202020303030303037B
:100750000102040810204080010204081020010258
:100760000408102000000008000201000003040734
:10077000000000000000000053657269616C4E6F5C
:1007800064653A3A73656E643E20746F20706F72D0
:100790007420696E206C697374202D2073756363F7
:1007A0006573730053657269616C4E6F64653A3AA4
:1007B00073656E643E2073656E6420746F20616C97
:1007C0006C20706F727473202E2E2E005365726928
:1007D000616C4E6F64653A3A73656E643E206E6F6D
:1007E00020706F727420696E206C69737420210010
:1007F00053657269616C4E6F64653A3A73656E64F5
:100800003E20746F2068656164657220746F416476
:10081000647220706F7274202D207375636365732A
:10082000730053657269616C4E6F64653A3A736523
:100830006E643E20746F206E6F6465277320706F46
:100840007274202D2073756363657373002070616B
:10085000723A200020636D643A200020616B744975
:10086000643A2000002E0020746F20002E00536593
:100870007269616C4E6F64653A3A73656E643E20CE
:100880006865616465723A0053657269616C4E6FA8
:1008900064653A3A73656E643E207265706C7920C7
:1008A000746F3A0053657269616C4E6F64653A3AD1
:1008B00073656E643E206E6F64652C206E6F7420CD
:1008C000636F6E6E6563746564202C20756E6B6E4D
:1008D0006F776E2072656D6F7465206164726573E9
:1008E000733A0049004800470041646472657373BD
:1008F000206F66206E6F64653A2000667265652021
:100900007372616D203A2000460044004300536535
:100910007269616C4E6F64653A3A73656E64203E2D
:10092000206E6F7420636F6E6E65637465642C2037
:10093000636D64206E6F7420616C6C6F77656420EA
:100940003A2000420041004163624C6973743A3AB4
:100950006372656174654163623E200073697A6504
:1009600020616362203A00202C206E657720616B45
:100970007469643A20004163624C6973743A3A6363
:1009800072656174654F725573654163623E207292
:1009900065757365206163623A2000536572696111
:1009A0006C4E6F64653A3A7772697465546F506F34
:1009B0007274207375636365737300667265652076
:1009C0007372616D203A2000207061723A2000201D
:1009D000636D643A200020616B7449643A20000022
:1009E0002E0020746F20002E0053657269616C4EDA
:1009F0006F64653A3A7772697465546F506F7274B8
:100A00003E2073656E6420746F20706F72743A209C
:100A10000000B115AD1511241FBECFEFD8E0DEBF29
:100A2000CDBF11E0A0E0B1E0E0E6FFE202C005903A
:100A30000D92A63CB107D9F722E0A6ECB1E001C0C7
:100A40001D92A33DB207E1F715E0CAE0D5E004C06E
:100A50002197FE010E948417C930D107C9F70E946F
:100A6000D0120C94A3170C940000DC011B968D91FE
:100A70009C911C97DC01ED91FC910280F381E02DAB
:100A80000994DC011B968D919C911C97DC01ED91E2
:100A9000FC910190F081E02D099521E0892B09F46A
:100AA00020E0822F0895DC011B968D919C911C976C
:100AB000DC01ED91FC910284F385E02D0995089508
:100AC000DC011496ED91FC911597309721F081E0AF
:100AD0009481923009F080E00895209108023091CD
:100AE00009022817390771F49091070280910602D4
:100AF000981741F0E0910702F0E0EA53FE4F808141
:100B000090E008958FEF9FEF089508951F93CF937E
:100B1000DF93DC015C962D913C915D9721153105A9
:100B200039F481E090E013969C938E9312973DC028
:100B30005196ED91FC91529750969C915097892F28
:100B400080951FB75E964C915E9741FB772770F9B1
:100B500041FD6095F8944081772311F0492B01C045
:100B600048234083E9012197F1F748E0508160FF75
:100B700002C0592B01C058235083E9012197F1F796
:100B80006695415099F7772321F0908189238083DE
:100B900003C08081982B90831FBF5C968D919C91A0
:100BA0005D970197F1F721E030E0C901DF91CF9126
:100BB0001F910895209108023091090228173907E2
:100BC00071F4809106022091070290E0805C9F4FB3
:100BD000821B910960E470E00E942F17089580E065
:100BE00090E00895209108023091090228173907F2
:100BF000B9F49091070280910602981789F0E0916C
:100C00000702F0E0EA53FE4F80812091070230E0B6
:100C10002F5F3F4F2F7333272093070290E00895F3
:100C20008FEF9FEF0895089580E090E008950C9471
:100C300097160C9497160C9497160C9497160C9480
:100C40009716CF93DF93EC0180EA91E09983888334
:100C5000EC81FD81309751F080859185009721F4DA
:100C6000CF010E949716F4CFFC01F4CFDF91CF9112
:100C70000895CF93DF93EC010E942106CE01DF910E
:100C8000CF910C9497160895DC0112968D919C914A
:100C90001397DC01ED91FC910084F185E02D44E097
:100CA00050E060E071E00994DC0112968D919C9116
:100CB0001397DC01ED91FC910084F185E02D44E077
:100CC00050E064E071E009940F931F93CF93DF939A
:100CD00000D000D0CDB7DEB78C014B835C83698335
:100CE0007A830E945406D80112968D919C91139795
:100CF000DC01ED91FC910084F185E02D4B815C815C
:100D000069817A810995C8010F900F900F900F901B
:100D1000DF91CF911F910F910C944406089508958F
:100D20000895DC0188E691E011969C938E931296CB
:100D30002D913C9113972115310589F0E0910A021C
:100D4000F0910B02309759F082819381009729F03E
:100D50008A179B0711F0FC01F5CF33832283149689
:100D60008D919C911597009711F00C94971608950A
:100D7000CF93DF93EC010E949106CE01DF91CF91DA
:100D80000C9497160895FC019081DB018C919813C7
:100D900005C081E0218111969C91291380E008957E
:100DA0006F927F928F929F92AF92BF92CF92DF927B
:100DB000EF92FF920F931F93CF93DF937C015B0120
:100DC0004A016901E80186EB95E00E94680FD701AE
:100DD0008C910E94760F84EB95E00E94470FF701FB
:100DE00081810E94760F8FEA95E00E94470FD7011C
:100DF00012968C910E94760F8DEA95E00E94470F23
:100E0000F70183810E94760F8CEA95E00E94680FBB
:100E100083EA95E00E94470FD70114968D919C912B
:100E200015970E94900F8CE995E00E94470FF701FB
:100E300086810E94760F85E995E00E94470FD701D1
:100E400017968C910E947D0FD7011696EC916C80BD
:100E50007D806114710449F088859985892B29F07A
:100E6000D30114968C918430B1F180E18E0F8230E1
:100E700008F404C1E33F41F08DE495E00E94470F80
:100E8000F7018481958168C08FE295E00E94680F28
:100E90000C811D81D80115968C91811108C0CE015D
:100EA0000E94600581116BC086EF93E002C08CE266
:100EB00094E00E94470FEC81FD8181810E947D0FAB
:100EC000D70114964D915C91159760EF70E0CE01BB
:100ED0000E943F1109C08E2F90E0FC01E05FF109F4
:100EE000E930F10508F476C100E010E0EE81FF8101
:100EF000309721F0A401B501C7010995012B09F430
:100F000098C1D7011496CD91DC911597CE010E941E
:100F1000E210DC01892B81F118962D913C911997F3
:100F20002115310589F0E091C102F091C20230979C
:100F300059F080859185009729F08A179B0711F059
:100F4000FC01F5CF31872087CD010E9497168AEAF0
:100F500092E00E94470FCE01DF91CF911F910F9138
:100F6000FF90EF90DF90CF90BF90AF909F908F90C9
:100F70007F906F900C94960F85E892E0EACFF8018D
:100F8000828181111FC0F70180819181D801139660
:100F90009C938E9312978BE195E00E94680FEC81F1
:100FA000FD8182810E94760F89E195E00E94470FC2
:100FB000EC81FD8183810E94760F88E195E00E949B
:100FC000680F2EC0B701C80102960E94C3068111A6
:100FD00027C08DED94E00E94470FEC81FD81818157
:100FE0000E94760F89EA94E00E94680FEC81FD81EF
:100FF00082810E94760F87EA94E00E94470FEC817D
:10100000FD8183810E94760F86EA94E00E94680F3A
:10101000F7014481558160EF70E0CE010E943F11DD
:10102000D986C886EC81FD8184E08483EC81FD81D2
:10103000D7018D919C91938382838BE894E00E94E9
:10104000680FEC81FD8182810E94760F89E894E02F
:101050000E94470FEC81FD8183810E94760F88E812
:1010600094E00E94680FF7014481558161EF70E0C0
:10107000CE010E943F118FE594E0D3C0E13F09F01B
:1010800063C0D70114968D919C9115970E94E21030
:101090008C01009709F485C0FC018281833F31F007
:1010A000843FA9F1823F09F021CF2BCFD986C88692
:1010B000D30115968C91811103C085E993E007C097
:1010C000CE010E94600581110AC081E693E00E9472
:1010D000470FEC81FD8181810E94760F12CF84E061
:1010E000F301848381E393E00E94470FEC81FD814B
:1010F00080810E94760F8FE293E00E94470FEC817F
:10110000FD8181810E94760F8EE293E01AC01986DC
:10111000188683E0D30114968C9382E093E00E94BA
:10112000470FEC81FD8180810E94760F80E093E083
:101130000E94470FEC81FD8181810E94760F8FEF25
:1011400092E00E94680FDDCEF701848195810E94B4
:10115000E2108C01009729F1DC0112968C91833FFB
:1011600049F0843F09F4CDCE823F09F0BFCE83E041
:10117000F3010CC08BED92E00E94470FEC81FD81E2
:1011800081810E94760FEC81FD8183E08483B9CE5A
:10119000F701848195810E94E2108C01892B09F06E
:1011A000A5CE84EC92E00E94470FD70114968D9152
:1011B0009C911597DF91CF911F910F91FF90EF9028
:1011C000DF90CF90BF90AF909F908F907F906F9067
:1011D0000C94900FEC5CFF4F0C948417D70114967D
:1011E0004D915C91159761EF70E071CEB301C7012D
:1011F00002960E94C3068111F1CFF7014481558107
:1012000064CEF7014481558161EF70E0C8010E940E
:101210003F1119861886EC81FD8183E084838AEC76
:1012200093E00E94470FEC81FD8181810E947D0F38
:101230005BCEDF91CF911F910F91FF90EF90DF90E8
:10124000CF90BF90AF909F908F907F906F900895B8
:101250008F929F92AF92BF92CF92DF92EF92FF92C6
:101260000F931F93CF93DF93EC018B017A018AE6F2
:1012700092E00E94470FC8010E94960F88810E9449
:10128000760F88E692E00E94470F89810E94760FD0
:1012900083E692E00E94470F8A810E94760F81E6E2
:1012A00092E00E94470F8B810E94760F80E692E0C9
:1012B0000E94680F87E592E00E94470F8C819D8114
:1012C0000E94900F80E592E00E94470F8E810E945D
:1012D000760F89E492E00E94470F8F810E947D0F74
:1012E0000830110528F0680128E0C21AD10802C0B0
:1012F000C12CD12C9A8180911B0298139CC0009123
:101300000A0210910B020115110521F486E292E008
:101310000E94680F8B81882309F45CC05E0132E073
:10132000A30EB11C0115110599F0B501D801149651
:101330008D919C9115970E94C306882329F087E020
:1013400092E00E94680F3FC1F80102811381EACF49
:1013500081EE91E00E94680F88810E94760F8FEDE8
:1013600091E00E94470F89810E94760F8AED91E0FB
:101370000E94470F8A810E94760F88ED91E00E94BB
:10138000470F8B810E94760F87ED91E00E94680FD6
:101390008EEC91E00E94470F8C819D810E94900FFE
:1013A00087EC91E00E94470F8E810E94760F80ECBF
:1013B00091E00E94470F8F81DF91CF911F910F9194
:1013C000FF90EF90DF90CF90BF90AF909F908F9065
:1013D0000C947D0F8E81833F59F500910A02109184
:1013E0000B020115110509F1D8011496AD90BC90BE
:1013F0001597F5018581811112C0C8010E94600511
:10140000882369F0D50112968C91882319F0988170
:10141000891305C0F5018381882309F4D4C0D8015C
:1014200012960D911C911397DCCF81E991E0BDC01C
:1014300083E591E0BAC08EE391E00E94680F888155
:101440000E94760F8CE391E00E94470F89810E94F1
:10145000760F87E391E00E94470F8A810E94760F02
:1014600085E391E00E94470F8B810E94760F84E311
:1014700091E00E94680F8BE291E00E94470F8C81FF
:101480009D810E94900F84E291E00E94470F8E811F
:101490000E94760F8DE191E00E94470F8F810E949C
:1014A0007D0F8A81E0911902F0911A02309739F08C
:1014B0009481981751F10280F381E02DF7CFCE018E
:1014C0000E94F3106C01892B09F496C04601B2E02A
:1014D0008B0E911CBE01C4010E94C306F601349616
:1014E0005F01882309F47EC0BE016E5F7F4FCF018C
:1014F0000E94C306882309F475C0D6011896ED91A1
:10150000FC911997309709F477C00184F285E02D9A
:10151000A801BE0186819781DF91CF911F910F9124
:10152000FF90EF90DF90CF90BF90AF909F908F9003
:101530000C946406D6011B96FC93EE931A9788814F
:10154000998193838283F782E6828C819D81918346
:101550008083EF2B09F09DC0C0901902D0901A0231
:10156000B12CC114D10409F0A7C0B110D1C08DE9CC
:1015700090E00E94470F88810E94760F8BE990E0EF
:101580000E94470F89810E94760F8AE990E00E94AD
:10159000680F8A810E94760F88E990E00E94470FC9
:1015A0008B810E94760F87E990E0DF91CF911F91A8
:1015B0000F91FF90EF90DF90CF90BF90AF909F90F2
:1015C0008F900C94680FC114D10449F0BE01685F7C
:1015D0007F4F9701A601CE010E94D00699C060E01E
:1015E00070E0F7CFBE01C5010E94C30681117CC027
:1015F0008AE790E00E94680F8E81833F99F08FEE1A
:1016000090E00E94470F8A81DF91CF911F910F9147
:10161000FF90EF90DF90CF90BF90AF909F908F9012
:101620000C94760FC090BB02D090BC02F6013097AC
:1016300021F00284F385E02DFACFCE010E94F31051
:10164000009759F02C813D81DC0111963C932E933B
:1016500019961C921E9218971CC08CE090E00E9474
:101660000216FC018CE0DF011D928A95E9F71282D7
:10167000138214821582C114D10409F444C0D60126
:101680001A968D919C911B97009709F453CF6C018A
:10169000F2CF8CEC90E00E94470F88810E94760F79
:1016A0008AEC90E00E94470F89810E94760F89ECB6
:1016B00090E00E94680F50CFD60114969C91F701DC
:1016C0008481981709F451CFD6011996ED91FC91B8
:1016D0001A97A801BE01868197810E946406F601CF
:1016E000C280D380B3943DCFBE016E5F7F4FC401F3
:1016F0000E94C306882309F47BCFD6011696ED918C
:10170000FC911797FFCEF093BC02E093BB0217CF7A
:10171000DF91CF911F910F91FF90EF90DF90CF90CD
:10172000BF90AF909F908F9008951F920F920FB629
:101730000F9211242F933F934F935F936F937F9357
:101740008F939F93AF93BF93EF93FF93E091080222
:10175000F0910902309709F451C0968DA685B7859E
:10176000858591FF04C09C91892329F447C09C91F1
:10177000892309F043C0A389B4899C918589809508
:1017800089238C93868997890197F1F7608D718DF4
:10179000A685B785558538E020E0CB010197F1F7A4
:1017A000822F90E095958795282F4C91452309F03D
:1017B0002068315091F7868D81FD20958091060239
:1017C00090E001968F73992730910702381749F0FE
:1017D000A0910602B0E0AA53BE4F2C93809306025C
:1017E00003C0868D8160868F828D938D0197F1F77E
:1017F000A389B4899C918589892B8C93FF91EF9162
:10180000BF91AF919F918F917F916F915F914F9118
:101810003F912F910F900FBE0F901F901895CF936F
:10182000DF93FC01828D938D892B31F1A091080209
:10183000B0910902AE17BF07F9F0109751F0539617
:10184000CD91DC915497988155968C918095892300
:101850008883868D8E7F868F1092060210920702F3
:10186000F0930902E0930802A389B4899C918589C9
:10187000892B8C9381E001C080E0DF91CF910895A6
:10188000CF93DF9300D0CDB7DEB72091CF02309158
:10189000D0022115310511F423ED32E0CE0101967D
:1018A000821B930B0F900F90DF91CF910895CF92F1
:1018B000DF92EF92FF920F931F93CF93DF936C0110
:1018C0007A018B01C0E0D0E0CE15DF0589F0D801A8
:1018D0006D918D01D601ED91FC910190F081E02D8B
:1018E000C6010995892B11F47E0102C02196ECCF27
:1018F000C701DF91CF911F910F91FF90EF90DF9083
:10190000CF900895FC01538D448D252F30E0842F16
:1019100090E0821B930B541710F0CF960895019717
:101920000895FC01918D828D981761F0828DDF0101
:10193000A80FB11D5D968C91928D9F5F9F73928FC2
:1019400090E008958FEF9FEF0895FC01918D828DB7
:10195000981731F0828DE80FF11D858D90E0089584
:101960008FEF9FEF0895FC01918D228D892F90E0DC
:10197000805C9F4F821B91098F73992708958CE19A
:1019800092E00E94B30C21E0892B09F420E0822F21
:101990000895FC01848DDF01A80FB11DA35ABF4F2C
:1019A0002C91848D90E001968F739927848FA6895E
:1019B000B7892C93A089B1898C9180648C93938D85
:1019C000848D981306C00288F389E02D80818F7D75
:1019D00080830895EF92FF920F931F93CF93DF932D
:1019E000EC0181E0888F9B8D8C8D981305C0E88970
:1019F000F989808185FD24C0F62E0B8D10E00F5FE4
:101A00001F4F0F731127E02E8C8DE8120CC00FB6FC
:101A100007FCFACFE889F989808185FFF5CFCE01EF
:101A20000E94C90CF1CF8B8DFE01E80FF11DE35A26
:101A3000FF4FF0820B8FEA89FB898081806207C0AB
:101A4000EE89FF896083E889F989808180648083D9
:101A500081E090E0DF91CF911F910F91FF90EF9087
:101A60000895CF93DF93EC01888D8823C9F0EA892C
:101A7000FB89808185FD05C0A889B9898C9186FD87
:101A80000FC00FB607FCF5CF808185FFF2CFA88984
:101A9000B9898C9185FFEDCFCE010E94C90CE7CFAB
:101AA000DF91CF91089580E090E0892B29F00E948A
:101AB000BF0C81110C940000089521E0FC014385C6
:101AC000548580910802909109024817590709F03E
:101AD00020E0822F0895DC011B968D919C911C972C
:101AE000DC01ED91FC910084F185E02D09940E94C8
:101AF0009E17CF93DF939A01AB01FC01C385D48578
:101B00001B8E1A8E198E188E1F8A1E8A60E079E04D
:101B10008DE390E00E946517F9012430310518F03B
:101B2000C901039702C081E090E09D8F8C8F6C8586
:101B3000663108F069C0C901969587958431910591
:101B400010F0439702C081E090E09F8B8E8B369718
:101B500018F0C901059702C081E090E0998F888F45
:101B6000C901880F991F280F391F3695279536957B
:101B700027952D30310518F02C50310902C021E095
:101B800030E03B8F2A8F90916800683050F021E060
:101B90006E3008F420E081E001C0880F2A95EAF752
:101BA00001C084E0892B809368008C85883038F0F0
:101BB0008E3040F0863148F020E030E008C02DE65D
:101BC00030E005C02BE630E002C02CE630E03C8B74
:101BD0002B8B883030F491E001C0990F8A95EAF799
:101BE0000EC0282F30E08E3018F42850310902C082
:101BF0002E50310991E001C0990F2A95EAF79D8B8B
:101C00008C8D9D8D0197F1F7CE01DF91CF910C94D2
:101C10000F0CFC01838594850C940F0C1F920F927E
:101C20000FB60F9211242F933F938F939F93AF93EF
:101C3000BF938091150290911602A0911702B09166
:101C400018023091140223E0230F2D3720F401965F
:101C5000A11DB11D05C026E8230F0296A11DB11DCF
:101C6000209314028093150290931602A0931702FA
:101C7000B09318028091100290911102A09112026B
:101C8000B09113020196A11DB11D80931002909393
:101C90001102A0931202B0931302BF91AF919F91D2
:101CA0008F913F912F910F900FBE0F901F9018951D
:101CB0001F920F920FB60F9211242F933F934F93C1
:101CC0005F936F937F938F939F93AF93BF93EF93A4
:101CD000FF938CE192E00E94C90CFF91EF91BF91BC
:101CE000AF919F918F917F916F915F914F913F91B4
:101CF0002F910F900FBE0F901F9018951F920F926B
:101D00000FB60F9211242F938F939F93EF93FF930E
:101D1000E0912C02F0912D028081E0913202F0914D
:101D2000330282FD12C09081809135028F5F8F73E4
:101D300020913602821751F0E0913502F0E0E45E26
:101D4000FD4F958F8093350201C08081FF91EF9107
:101D50009F918F912F910F900FBE0F901F9018950C
:101D6000009769F0FC0101900020E9F73197AF017D
:101D7000481B590BBC018CE192E00C94570C80E09D
:101D800090E008958F929F92AF92BF920F931F930E
:101D9000CF93DF93CDB7DEB7A1970FB6F894DEBF30
:101DA0000FBECDBF19A2423008F44AE08E010F5D8C
:101DB0001F4F842E912CA12CB12CA50194010E94BF
:101DC0004317E62FB901CA0101501109EA3014F492
:101DD000E05D01C0E95CD801EC93232B242B252B7B
:101DE00061F7C8010E94B00EA1960FB6F894DEBF4D
:101DF0000FBECDBFDF91CF911F910F91BF90AF90DC
:101E00009F908F900895CF92DF92EF92FF92CF93A1
:101E1000DF9397FF21C06B017C01E0911C02F091E0
:101E20001D020190F081E02D6DE28CE192E00995B8
:101E3000EC0166277727CB016C197D098E099F0974
:101E40004AE00E94C20E8C0F9D1FDF91CF91FF9040
:101E5000EF90DF90CF9008954AE0DF91CF91FF900F
:101E6000EF90DF90CF900C94C20ECF93DF93BC0124
:101E7000990F880B990B0E94030FEC018CEA91E0FB
:101E80000E94B00E8C0F9D1FDF91CF9108950F938C
:101E90001F93CF93DF938C01C0E0D0E0F801EC0FEB
:101EA000FD1F6491662371F0E0911C02F0911D0208
:101EB0000190F081E02D8CE192E00995892B11F0E1
:101EC0002196ECCFCE01DF91CF911F910F91089514
:101ED000CF93DF930E94470FEC018CEA91E00E94C0
:101EE000B00E8C0F9D1FDF91CF910895682F70E089
:101EF00080E090E04AE00C94C20ECF93DF93682F0D
:101F000070E080E090E04AE00E94C20EEC018CEAB2
:101F100091E00E94B00E8C0F9D1FDF91CF9108952C
:101F2000BC0180E090E04AE00C94C20ECF93DF93B6
:101F3000BC0180E090E04AE00E94C20EEC018CEA15
:101F400091E00E94B00E8C0F9D1FDF91CF910895FC
:101F5000AF92BF92CF92DF92EF92FF920F931F93B7
:101F6000CF93DF93EC016A018C819D81892B09F06D
:101F70008AC0E090C102F090C20287015E0122E0B7
:101F8000A20EB11C0115110501F1D80112969C9108
:101F90008E8198130EC0BE01C80103960E94C3062D
:101FA000882339F0B501C80105960E94C306811146
:101FB000E3C0F80100851185E5CFD70118968D9112
:101FC0009C911997009721F07C01E114F104A9F785
:101FD0008AE090E00E9402168C018AE0F8011192DA
:101FE0008A95E9F7D80113961C92139714961C92C0
:101FF000149715961C92159716961C92E114F104ED
:1020000029F41093C2020093C10203C0F7011187A3
:1020100000878E81D80112968C93129788819981BE
:1020200014969C938E9313978A819B8116969C930A
:102030008E9315978091BF029091C002019621F472
:102040001092C0021092BF028091BF029091C00214
:1020500001969093C0028093BF02F8019183808320
:102060009D838C838CE599E00E94470F8AE090E085
:102070000E94960F87E499E00E94470FD8018D9146
:102080009C910E94960FD6011996ED91FC911A979A
:10209000868197810E945406D6011996ED91FC9194
:1020A0001A970680F781E02D82819381DC01ED9102
:1020B000FC910084F185E02D48E050E0BE010995D7
:1020C000D6011996ED91FC911A97868197810E940D
:1020D000440689EE99E00E94470FF60184810E9430
:1020E0007D0F88810E94760F87EE99E00E94470F4E
:1020F00089810E94760F82EE99E00E94470F8A81C3
:102100000E94760F80EE99E00E94470F8B810E941B
:10211000760F8FED99E00E94680F86ED99E00E949E
:10212000470F8C819D810E94900F8FEC99E00E9457
:10213000470F8E810E94760F88EC99E00E94470F2E
:102140008F810E947D0F8BEB99E00E94470F0E94C8
:10215000400C0E94350F8BE999E00E94680F8C813A
:102160009D81DF91CF911F910F91FF90EF90DF90B4
:10217000CF90BF90AF90089586E799E00E94470FF7
:10218000D8018D919C910E94900F8091BF029091F7
:10219000C002019621F41092C0021092BF028091F9
:1021A000BF029091C00201969093C0028093BF023B
:1021B000F801918380839D838C8382E0878387E607
:1021C00099E05ACFE091C102F091C202309749F0F4
:1021D000208131812817390721F00084F185E02D15
:1021E000F5CFCF010895CF92DF92EF92FF920F9338
:1021F0001F93CF93DF938C01C091BB02D091BC029F
:102200007C0182E0E80EF11C209761F18E819F81B4
:10221000892B21F188859985892B01F16E0182E056
:10222000C80ED11CB801C6010E94C306811106C0A8
:10223000B701C6010E94C306882381F06E0184E0C5
:10224000C80ED11CB801C6010E94C30681110DC081
:10225000B701C6010E94C306811107C00A84DB854D
:10226000C02DD2CF80E090E001C0CE01DF91CF91B0
:102270001F910F91FF90EF90DF90CF900895CF9234
:10228000DF92EF92FF920F931F93CF93DF93CDB71F
:10229000DEB728970FB6F894DEBF0FBECDBF8C0116
:1022A0007B016A0185E499E00E94680F19821A8215
:1022B0001B821C821E821D821F82188683E499E085
:1022C0000E94680FD8011496ED91FC9115978481B6
:1022D0008430A1F0B3EFEB16F10481F0C701805F09
:1022E0009109029758F08EE099E00E94470FB701DC
:1022F000FF0C880B990B0E94030FDCC08CE099E067
:102300000E94680F80911B028983C114D104C9F116
:102310008AE099E00E94680FDE82CD8288E099E031
:102320000E94680F8BEF98E00E94470F0E94400CBC
:102330000E94350F89EE98E00E94470FB801012EE8
:10234000000C880B990B0E94030F8CEA91E00E940D
:10235000B00E87EE98E00E94680FD8011496ED91B8
:10236000FC911597309709F49DC018968D919C911A
:102370001997892B09F496C08481843009F092C0A2
:102380009CC01E821D82D8011496ED91FC91159778
:10239000828193819C838B83D8011496ED91FC916B
:1023A0001597808191819A838983EF8218868EE6C2
:1023B00098E00E94680F89810E94760F8CE698E071
:1023C0000E94470F8A810E94760F87E698E00E945C
:1023D000470F8B810E94760F85E698E00E94470F99
:1023E0008C810E94760F84E698E00E94680F8BE54E
:1023F00098E00E94470F8D819E810E94900F84E596
:1024000098E00E94470F8F810E94760F8DE498E03C
:102410000E94470F88850E947D0FF80140855185F5
:102420004115510549F060E070E0CE0101960E942F
:10243000A80F82E298E031C08B81009119021091BF
:102440001A02A8014115510509F449C0DA01149690
:102450009C91981309C060E070E0CE0101960E9443
:10246000A80F80EF97E019C0FA0142815381EACFAB
:1024700084EA97E00E94680FA80160E070E0CE0156
:1024800001960E94A80FD80112960D911C911397E6
:102490000115110589F788E797E00E94680F8D8183
:1024A0009E8123C083EE98E00E94680F84EA98E042
:1024B0000E94680F80E090E018C085EE98E00E94CE
:1024C000680FD8011496ED91FC9115978281938144
:1024D0009C838B8388E898E00E94680F5DCF01158C
:1024E000110531F68CEC97E0E3CF28960FB6F894FF
:1024F000DEBF0FBECDBFDF91CF911F910F91FF9037
:10250000EF90DF90CF90089590E0FC01EC59F84FE8
:102510003491FC01E05BF84F2491FC01E45CF84F3E
:10252000E491EE2309F43BC0332339F1333091F0C9
:1025300038F43130A9F0323001F584B58F7D12C006
:10254000373091F03830A1F03430B9F48091800008
:102550008F7D03C0809180008F77809380000DC0B5
:1025600084B58F7784BD09C08091B0008F7703C098
:102570008091B0008F7D8093B000F0E0EE0FFF1FE0
:10258000EE5CF84FA591B4918FB7F894EC9161117E
:1025900003C020952E2301C02E2B2C938FBF0895AE
:1025A000789484B5826084BD84B5816084BD85B52E
:1025B000826085BD85B5816085BD80916E0081603A
:1025C00080936E00109281008091810082608093E0
:1025D00081008091810081608093810080918000E2
:1025E0008160809380008091B10084608093B1000D
:1025F0008091B00081608093B00080917A00846007
:1026000080937A0080917A00826080937A00809132
:102610007A00816080937A0080917A00806880934C
:102620007A001092C100E0912C02F0912D0282E01C
:102630008083E0912802F09129021082E0912A0221
:10264000F0912B028FEC808310923402E0913002E3
:10265000F091310286E08083E0912E02F0912F020A
:10266000808180618083E0912E02F0912F02808131
:1026700088608083E0912E02F0912F028081806833
:102680008083E0912E02F0912F0280818F7D8083E4
:102690008EEA91E00E94B00E8CEA91E00E94B00EAA
:1026A0008FEA91E00E94B00E8CEA91E00E94B00E99
:1026B0008EE090E00E940216EC018AE291E099839C
:1026C00088831B821A821C821E821D8218861F82AA
:1026D0001A86198689EF95E00E94680F8BE08C833B
:1026E000E0911902F0911A02309729F4D0931A025E
:1026F000C093190209C082819381892B19F4E0E00B
:10270000F0E0F9CFD383C28388E090E00E94021604
:102710007C0182E291E0D7018D939C9380E190E06F
:102720000E9402168C0182E191E0F801918380837E
:1027300015821482108611861286138614861686D8
:1027400015861786D70115961C930E93149784E06F
:1027500090E00E9402162AE131E0FC0131832083DF
:10276000D70117969C938E931697F801D783C6834B
:10277000DC011396DC93CE931297F701D383C283C7
:1027800088E299E0D80113969C938E931297FA866B
:10279000E9868CEE95E00E94470F0E94400C0E9453
:1027A000350FE985FA85048115818CE090E0F80108
:1027B000968785870E940216D80115969C938E9362
:1027C00014978DEC95E00E94680F82E591E0998363
:1027D00088831D868FE190E00E9402168C01FC0127
:1027E0001382128288EE93E0A0E0B0E084839583A8
:1027F000A683B78380E491E091838083178A168A49
:10280000118E108E138E128E158E148E668D6E7F25
:102810006D7F668F6695617081E068278BE00E940E
:102820008412EBE5F7E02491E7E4F7E08491882354
:1028300099F090E0880F991FFC01ED5DF94FA5918B
:10284000B491FC01EE5CF84F859194918FB7F894A8
:10285000EC91E22BEC938FBFEBE5F7E0E491D8012C
:102860005096EC93E7E4F7E0E491F0E0EE0FFF1F01
:10287000EE5CF84F85919491F801928B818BEAE59B
:10288000F7E02491E6E4F7E084918823C9F090E032
:10289000880F991FFC01ED5DF94FA591B491FC01E2
:1028A000EE5CF84F459154919FB7F8948C91E22FCC
:1028B000E0958E238C93DA018C91E823EC939FBFF3
:1028C000F801868D81FD04C061E08AE00E948412D7
:1028D0008AE0F82ED8011C96FC921C97EAE5F7E0F6
:1028E000E4911D96EC93E6E4F7E0E491F0E0EE0F5E
:1028F000FF1FE35DF94F85919491F80197878687D3
:102900001C870B8711E01D87D0930F02C0930E0226
:10291000E881F9810284F385E02D40E855E260E02A
:1029200070E0CE010995F0921B0287E396E00E94C9
:10293000470F8AE00E947D0F8AE090E00E94021615
:10294000EC0188E691E0998388831B821A821D82BC
:102950001C821F821E821986188600911B0201119B
:1029600005C089E796E00E94680FFFCF86E090E0FF
:102970000E940216FC0186E0DF011D928A95E9F7AC
:1029800012821382FD83EC8300831183E0910A029B
:10299000F0910B02309739F082819381009709F40E
:1029A000D9C0FC01F7CFD0930B02C0930A0287E590
:1029B00096E00E94470FEC81FD8180810E94760F96
:1029C00085E596E00E94470FEC81FD8181810E94A0
:1029D000760F84E596E00E94680FD0930D02C093B5
:1029E0000C02EC81FD8182E084838DEB96E00E94F5
:1029F000470F0E94400C0E94350FFF24F394009172
:102A0000190210911A020115110509F4A0C0D8018C
:102A10001996ED91FC911A97C481D581209709F4FC
:102A200088C08E819F81DC01ED91FC910088F18945
:102A3000E02D0995882309F484C08E819F81DC01F3
:102A4000ED91FC910684F785E02D0995181619067D
:102A50000CF077C08E819F81DC01ED91FC910480A8
:102A6000F581E02D09958F879C859923D9F02A85DA
:102A700030E04D855E852417350750F44C815D812B
:102A8000FA01E20FF31F80838A858F5F8A870AC06D
:102A900083EF96E00E94470F8D859E8504970E94E4
:102AA000900F1C869F858885E82FF0E0EC5FFE4F35
:102AB0002081921309C0833021F41886FC861A867F
:102AC00009C08F5F888706C018868091040198131B
:102AD00001C0F8868985E82FF0E0E050FF4F2081A3
:102AE000921320C08330D9F48A8584508B878A81E1
:102AF0009B81892B81F08C85882369F08AEC96E094
:102B00000E94680F4E815F816B8570E0EA81FB81D6
:102B10008C819D81099519861C861A8612C08F5F4B
:102B200089870FC019868091000198130AC0F98621
:102B300008C081E197E00E94470FF80184810E945C
:102B40007D0FD80112960D911C9113975CCF0E94B6
:102B5000530D55CFD383C2832ACF8DEB92E00C94D3
:102B60002106ECE1F2E01382128288EE93E0A0E00D
:102B7000B0E084839583A683B78380E791E0918357
:102B8000808385EC90E09587848784EC90E097873C
:102B9000868780EC90E0918B808B81EC90E0938B2A
:102BA000828B82EC90E0958B848B86EC90E0978B07
:102BB000868B118E128E138E148EEDECF2E0108245
:102BC0001182EBECF2E010821182EDEBF2E080EA90
:102BD00091E0918380831582148213821282E9EB43
:102BE000F2E088EA91E09183808313821282E3EC21
:102BF000F2E01082118212821382158214821682F0
:102C000017820895CF93DF938230910510F482E00C
:102C100090E0E091D102F091D20220E030E0C0E0FB
:102C2000D0E0309711F14081518148175907C0F029
:102C30004817590761F482819381209719F09B838B
:102C40008A832BC09093D2028093D10226C0211593
:102C5000310519F04217530718F49A01BE01DF013C
:102C6000EF010280F381E02DDCCF2115310509F160
:102C7000281B390B2430310590F412968D919C91CC
:102C800013976115710521F0FB019383828304C0C2
:102C90009093D2028093D102FD01329644C0FD018F
:102CA000E20FF31F81939193225031092D933C93AE
:102CB0003AC02091CF023091D002232B41F42091D1
:102CC0000A0130910B013093D0022093CF02209162
:102CD0000801309109012115310541F42DB73EB7A6
:102CE00040910C0150910D01241B350BE091CF0256
:102CF000F091D002E217F307A0F42E1B3F0B281728
:102D0000390778F0AC014E5F5F4F2417350748F064
:102D10004E0F5F1F5093D0024093CF028193919347
:102D200002C0E0E0F0E0CF01DF91CF9108950F9372
:102D30001F93CF93DF93009709F48CC0FC01329767
:102D4000138212820091D1021091D2020115110555
:102D500081F420813181820F931F2091CF02309125
:102D6000D0022817390779F5F093D002E093CF020B
:102D700071C0D80140E050E0AE17BF0750F4129682
:102D80002D913C911397AD012115310509F1D90120
:102D9000F3CF9D01DA013383228360817181860F35
:102DA000971F8217930769F4EC0128813981260F58
:102DB000371F2E5F3F4F318320838A819B8193830E
:102DC0008283452B29F4F093D202E093D10242C0D2
:102DD0001396FC93EE931297ED01499159919E0140
:102DE000240F351FE217F30771F480819181840F5E
:102DF000951F029611969C938E93828193811396D0
:102E00009C938E931297E0E0F0E0D80112968D919A
:102E10009C911397009719F0F8018C01F6CF8D91D2
:102E20009C9198012E5F3F4F820F931F2091CF02FC
:102E30003091D0022817390769F4309729F410929D
:102E4000D2021092D10202C0138212821093D002D9
:102E50000093CF02DF91CF911F910F91089597FBBF
:102E6000072E16F4009407D077FD09D00E948A1728
:102E700007FC05D03EF4909581959F4F089570957D
:102E800061957F4F0895A1E21A2EAA1BBB1BFD017D
:102E90000DC0AA1FBB1FEE1FFF1FA217B307E40739
:102EA000F50720F0A21BB30BE40BF50B661F771F91
:102EB000881F991F1A9469F7609570958095909571
:102EC0009B01AC01BD01CF010895052E97FB1EF4B7
:102ED00000940E947C1757FD07D00E94431707FCFF
:102EE00003D04EF40C947C17509540953095219565
:102EF0003F4F4F4F5F4F0895909580957095619526
:102F00007F4F8F4F9F4F0895EE0FFF1F0590F49155
:102F1000E02D0994AA1BBB1B51E107C0AA1FBB1FD0
:102F2000A617B70710F0A61BB70B881F991F5A9555
:102F3000A9F780959095BC01CD01089581E090E0BE
:102F4000F8940C94A31715E0CAE0D5E004C0FE0184
:102F50000E9484172196CB30D107C9F7F894FFCF90
:102F600060574E450E1720290000D3028000000054
:102F700000008F061B06000000008E0619060000E8
:102F8000000090061D060000000000000000770D04
:102F9000770D770D770D770D770D770D0000000019
:102FA0008605570C14068505DA05F2056D05000047
:102FB000000043061706530541053505790D090E36
:102FC0006B0D5D0D000000009106B80600000000CA
:102FD000EA0C570C820C310DB30C910CA50C0000BF
:102FE0000000770D570C14061306770D770D770D3B
:102FF00000000000770D570C1406130600000000B7
:103000002106390600000000C2061F060D0A0073E3
:10301000657475702053657269616C546573744D85
:063020006173746572008B
:00000001FF
