:100000000C94F8060C9420070C9420070C94130F02
:100010000C94130F0C94130F0C9420070C942007CE
:100020000C9420070C9420070C9420070C942007B4
:100030000C9420070C9420070C9420070C942007A4
:100040000C94D5120C9420070C9445130C941F1398
:100050000C9420070C9420070C9420070C94200784
:100060000C9420070C94200753657269616C4E6FE5
:1000700064653A7265636F6E6E65637428293E200D
:1000800073656E6420435220666F72206E6F6465E4
:10009000200053657269616C4E6F64653A726563E6
:1000A0006F6E6E6563743E206E6F6465206E6F7454
:1000B0002072656164793A200053657269616C4E03
:1000C0006F64653A7265636F6E6E65637428293E6E
:1000D0002077616974696E6720666F7220435220D1
:1000E0006D6573736167652C206E6F64653A2000DF
:1000F000207061723A200020636D643A2000206114
:100100006B7449643A2000002E0020746F20002E8A
:100110000053657269616C4E6F64653A3A77726933
:100120007465546F506F72743E20737563636573AA
:1001300073202C206865616465722E2E2E00207756
:10014000616974656420666F72203A20005365729D
:1001500069616C4E6F64653A3A7772697465546F81
:10016000506F72743E2077616974696E6720656EA6
:10017000642C206E6F6465203A20006672656520ED
:100180007372616D203A20002061636220636F7595
:100190006E743A200053657269616C4E6F64653A03
:1001A0003A7772697465546F506F72743E2077614C
:1001B0006974696E6720666F72207265706C69651C
:1001C00073206F6E20706F72743A200053657269ED
:1001D000616C4E6F64653A3A7772697465546F501A
:1001E0006F72743E2077616974696E6720666F7202
:1001F000207265706C696573206F6E206F7468651E
:100200007220736F66742073657269616C20706F01
:1002100072742C202063616E63656C2C20616362B4
:1002200020636F756E743A200053657269616C4E7D
:100230006F64653A3A7772697465546F506F72747F
:100240003E20474C454943484552204C495354456C
:100250004E4552203F00203E3E3E20706F72743A61
:10026000200020203E3E3E200053657269616C4EA6
:100270006F64653A3A7772697465546F506F72743F
:100280003E206E6F6465203A200020203E3E3E20D6
:10029000006E6F6465203A200053657269616C4E90
:1002A0006F64654E65743A3A5570646174653E20BA
:1002B000666F727761726420666F722043522066A7
:1002C00061696C65643A2000002E005365726961B3
:1002D0006C4E6F64654E65743A3A5570646174652E
:1002E0003E204C494E4B20637265617465643A2030
:1002F0000053657269616C4E6F64654E65743A3A7D
:100300005570646174653E206E6F206C696E6B2061
:10031000666F756E6420746F2073797374656D3ABF
:100320002000207061723A200020636D643A200042
:1003300020616B7449643A2000002E0020746F2005
:10034000002E0053657269616C4E6F64654E657472
:100350003A3A666F72776172643E00536572696102
:100360006C4E6F64654E65743A3A7570646174657D
:100370003E2072656D6F74652073797374656D20AE
:10038000686173207468652073616D6520696420FD
:100390006173206C6F63616C2073797374656D2079
:1003A0002C206D6573736167652064697363617286
:1003B0006465640053657269616C4E6F64654E6577
:1003C000743A3A7570646174653E206D657373614B
:1003D000676520776974686F7574206E6F6465490E
:1003E0006420696E20746F41646472207265636575
:1003F000697665640053657269616C4E6F64654E21
:1004000065743A3A7570646174653E206E6F20724F
:1004100065616479206E6F646520666F7220435257
:1004200020666F756E640053657269616C4E6F640F
:10043000654E65743A3A7570646174653E206E6FFE
:10044000206E6F64657320666F756E64005365720D
:1004500069616C4E6F64654E65743A3A757064619B
:1004600074653E2073797374656D4964206D75738E
:1004700074206265203E2030200053657269616CF3
:100480004E6F64654E65743A3A7570646174653E8A
:10049000206D6573736167652068617320636F7297
:1004A0007275707465642073697A652C2065787044
:1004B0006563746564203A2000736572506F7374CD
:1004C000616D626C6520434F4D504C455445207022
:1004D0006F7274203A2000736572507265616D62AC
:1004E0006C6520434F4D504C45544520706F7274DD
:1004F000203A2000425546464552204F5645524626
:100500004C4F573A206461746153697A65203E20EC
:100510000072656D6F74655379734964206D7573EE
:1005200074206265206469666672656E7420667206
:100530006F6D2073797374656D49640072656D6FBA
:1005400074655379734964206D75737420626520F6
:100550003E203020210000000000240027002A0057
:1005600000000000230026002900536F66745365C5
:100570007269616C506F72743A3A6C697374656E2B
:100580003E206F6E20706F7274203A00667265654F
:10059000207372616D203A20002323232323232319
:1005A000232323232323232323232323232323231B
:1005B000232323232323232323736574757020535C
:1005C000657269616C546573744D617374657223EF
:1005D00023232323232323232323232323232323EB
:1005E00023232323232323232323232323232323DB
:1005F0002323232323000053657269616C4E6F64CB
:10060000654E65743A3A70726F636573734E6F64CA
:1006100065733E206E6F206E6F64657320666F7524
:100620006E6400202D2D2D2D2D2D2D2D2D2D2D2DBC
:100630002D2D2D2D2D2D2D2D2D2D2D2D2D2D2D2DEA
:100640002D2D2D2D200053657269616C4E6F6465F0
:100650004E65743A3A70726F636573734E6F64657A
:10066000203A2D2D2D2D2D2D2D2D2D6D73656320D3
:100670003A200053657269616C4E6F64654E657413
:100680003A3A70726F636573734E6F6465733E20A0
:100690004143422773203A20002053657269616C00
:1006A0004E6F64654E65743A3A617265416C6C4E8A
:1006B0006F646573436F6E6E656374656428293E6D
:1006C000202A2A2A20414C4C204E4F444553204397
:1006D0004F4E4E45435445442057495448205245B7
:1006E0004D4F5445202A2A2A002064656C617920E8
:1006F000002064617461203A200073656E643A20C2
:1007000000415250004152510041434400435200C5
:100710004C4956450041434B004E414B0000000000
:1007200000250028002B000404040404040404022F
:10073000020202020203030303030301020408107E
:10074000204080010204081020010204081020004B
:100750000000080002010000030407000000000080
:10076000000000554E4B4F574E5F434D44005365BC
:100770007269616C4E6F64653A3A73656E643E20CF
:100780006E6F64652C206E6F7420636F6E6E656390
:10079000746564202C20756E6B6E6F776E207265A9
:1007A0006D6F746520616464726573733A0053659C
:1007B0007269616C4E6F64653A3A73656E643E208F
:1007C0007265706C7920746F3A0053657269616C60
:1007D0004E6F64653A3A73656E64203E206E6F74A6
:1007E00020636F6E6E65637465642C20636D642096
:1007F0006E6F7420616C6C6F776564203A20002006
:100800003E3E3E0053657269616C4E6F64653A3AD4
:1008100073656E643E20203E3E3E2000203A20005C
:100820002053657269616C4E6F64653A3A69734C26
:10083000696665436865636B4C6174653E206E6FE5
:100840006465206C6174653A2000203A20002053D2
:10085000657269616C4E6F64653A3A69734C69669A
:1008600065436865636B4C6174653E206E6F6465BB
:100870002076657279206C617465202C65787069CA
:100880007265643A200053657269616C4E6F6465ED
:100890004E65743A3A636865636B436F6E6E656369
:1008A00074696F6E3E2061636220666F756E642CA2
:1008B0002077616974696E6720666F722072657057
:1008C0006C79200053657269616C4E6F64654E658A
:1008D000743A3A636865636B436F6E6E65637469FF
:1008E0006F6E3E206C61737453656E64416B744926
:1008F000643A200053657269616C4E6F64654E65A1
:10090000743A3A636865636B436F6E6E65637469CE
:100910006F6E3E20435220616C7265616479207372
:10092000656E742C2077616974696E6720666F72DA
:10093000207265706C79200053657269616C4E6F2E
:1009400064654E65743A3A636865636B436F6E6EB7
:10095000656374696F6E3E2069734C6966654368B0
:1009600065636B457870697265640053657269618F
:100970006C4E6F64654E65743A3A636865636B43A9
:100980006F6E6E656374696F6E3E20435220616CBA
:1009900072656164792073656E742C207761697467
:1009A000696E6720666F72207265706C79200053E3
:1009B000657269616C4E6F64654E65743A3A63683E
:1009C00065636B436F6E6E656374696F6E3E206E18
:1009D0006F7420636F6E6E65637465640053657237
:1009E00069616C4E6F64654E65743A3A636865631D
:1009F0006B436F6E6E656374696F6E3E20636865EE
:100A0000636B206163627320656E642C20636F7575
:100A10006E74203A200020726F756E6420747269C3
:100A2000702074696D65203A2000206F6E206E6F13
:100A300064653A200053657269616C4E6F64654E5F
:100A400065743A3A636865636B436F6E6E65637491
:100A5000696F6E3A3A69734C696665436865636BA2
:100A6000457870697265643E207265706C79207497
:100A7000696D65206578706972656420666F7220A3
:100A8000616B7469643A200053657269616C4E6FE2
:100A900064654E65743A3A636865636B436F6E6E66
:100AA000656374696F6E3E20636865636B20616384
:100AB00062732073746172742C20636F756E74207E
:100AC0003A20006F6E507265436F6E6E65637420DE
:100AD0003A002061636273203A20002064617461EF
:100AE000203A2000415250203A2000706C6561731A
:100AF000652063616C6C2053797374656D2E696E2B
:100B0000697428796F757253797374656D496429B6
:100B1000206265666F726520796F7520637265610A
:100B20007465206E6F6465732E0066726565207350
:100B300072616D203A200053657269616C4E6F647A
:100B4000653A3A6F6E4D6573736167653E20726FEB
:100B5000756E6420747269702074696D65203A2026
:100B60000053657269616C4E6F64653A3A6F6E4D01
:100B70006573736167653E20616362206E6F7420E8
:100B8000666F756E64202D20616B7469643A000095
:100B90002E0053657269616C4E6F64653A3A6F6EF0
:100BA0004D6573736167653E20434F4E4E45435418
:100BB000494F4E5F5354415455535F434F4E4E453A
:100BC00043544544206E6F646520286163746976E0
:100BD0006529203A200053657269616C4E6F646527
:100BE0003A3A6F6E4D6573736167653E41434B20C2
:100BF0004F4E204352206E6F6465206973206E6FE4
:100C0000742072656164793A200053657269616C81
:100C10004E6F64653A3A6F6E4D6573736167653EFA
:100C20006E6F646520697320616C72656164792000
:100C3000636F6E6E65637465643A20005365726914
:100C4000616C4E6F64653A3A6F6E4D6573736167A0
:100C5000653E41434B204F4E204352206E6F6465EA
:100C6000206973206E6F74206163746976653A2021
:100C70000020203C3C3C200053657269616C4E6F43
:100C800064653A3A6F6E4D6573736167653E2043E4
:100C90004D445F414344203A200053657269616CC2
:100CA0004E6F64653A3A6F6E4D6573736167653E6A
:100CB00020434F4E4E454354494F4E5F5354415489
:100CC00055535F434F4E4E4543544544206E6F6429
:100CD00065203A2000002E0053657269616C4E6FEA
:100CE00064653A3A6F6E4D6573736167653E207552
:100CF0006E6B6E6F776E2072656D6F7465206E6FB0
:100D000064652077616E747320746F20636F6E6EFC
:100D10006563743A2000002E007063622072656D76
:100D20006F746520616464726573733A0053657211
:100D300069616C4E6F64653A3A6F6E4D65737361AD
:100D400067653E206E6F6465206E6F74207265610A
:100D50006479203A0053657269616C4E6F64653A3C
:100D60003A6F6E4D6573736167653E20756E616C99
:100D70006C6F776564206D6573736167652C207394
:100D80007461747573203C3E20636F6E6E6563748E
:100D900065642C20616B74696420203A00207061C6
:100DA000723A200020636D643A200020616B744920
:100DB000643A2000002E0020746F20002E00203C9A
:100DC0003C3C3C200020203C3C3C200053657269A8
:100DD000616C4E6F64653A3A6F6E4D65737361670F
:100DE000653E206E6F6465203A2000007E1F7A1FEA
:100DF00011241FBECFEFD8E0DEBFCDBF11E0A0E0D1
:100E0000B1E0ECE0F3E402C005900D92A23EB10720
:100E1000D9F723E0A2EEB1E001C01D92A830B207DD
:100E2000E1F716E0C7EFD6E004C02197FE010E946B
:100E30006E21C63FD107C9F70E94271C0C94792167
:100E40000C9400004F925F926F927F928F929F92CC
:100E5000AF92BF92CF92DF92EF92FF920F931F93C8
:100E6000CF93DF9300D0CDB7DEB72C016B018A01A1
:100E7000892B09F44CC06930710520F09B01295081
:100E8000310902C020E030E0D20116964D915C910C
:100E90001797CA01805F91090597E8F4211531057C
:100EA000D1F08AE794E00E94041489E090E00F906A
:100EB0000F90DF91CF911F910F91FF90EF90DF90F6
:100EC000CF90BF90AF909F908F907F906F905F90EA
:100ED0004F900C944F14F2019281911103C08DE454
:100EE00094E057C0E0905002F0905102D701149660
:100EF0008C911497981364C01596ED90FC901697FA
:100F0000E114F10431F487E294E00E9461140E943C
:100F10007421F20183818823C9F06201F2E0CF0ECF
:100F2000D11CB601D70112968D919C9113972983FC
:100F30003A830E94BE1829813A818111F1C0F701DC
:100F4000E684F784E114F10461F7D3C1433F51050E
:100F5000A1F5D7011296ED91FC911397858181112E
:100F60000EC08481823059F48281882321F0D2011D
:100F70009C91891304C08381882309F4D1C0D701CF
:100F80001E96ED90FC901F97E114F10411F785EF88
:100F900093E00F900F90DF91CF911F910F91FF90F1
:100FA000EF90DF90CF90BF90AF909F908F907F9009
:100FB0006F905F904F900C94611484EB93E0E9CFB5
:100FC000F2019081981303C08BE593E0E2CF83E4B4
:100FD00093E00E946114D2018C910E94251481E457
:100FE00093E00E940414F20181810E9425148CE395
:100FF00093E00E940414D20112968C910E94251451
:101000008AE393E00E940414F20183810E94251474
:1010100089E393E00E94611480E393E00E9404144A
:10102000D20114966D917C91159780E090E04AE092
:101030000E94891389E293E00E940414F2018681E0
:101040009781805F91098830910540F4880F991F3E
:10105000FC01E358FE4F8081918102C083E697E056
:101060000E94041482E293E00E940414D2011896B4
:101070008C910E94F113F2018281E0915202F09171
:101080005302309739F09581981751F10280F3811E
:10109000E02DF7CFB201C70107960E94DC1B5C016F
:1010A000892B09F451C04501F2E08F0E911CB20169
:1010B000C4010E94BE1895012C5F3F4F390188235F
:1010C000E9F1B2016E5F7F4FC9010E94BE1888230B
:1010D000A9F1D5011896ED91FC9119973097A1F1DE
:1010E000CF010E94E0118C010E942911A601B201DA
:1010F000C8010E943911C8010F900F90DF91CF9164
:101100001F910F91FF90EF90DF90CF90BF90AF9025
:101110009F908F907F906F905F904F900C941911DB
:101120002115310541F0A201475F5F4FB201C701B0
:101130000E94CB18DEC040E050E0F8CFB201C301FE
:101140000E94BE188111C0C0D20116968D919C914B
:101150001797833F9105D1F081EF92E00E9404142C
:10116000F20182810F900F90DF91CF911F910F912B
:10117000FF90EF90DF90CF90BF90AF909F908F90B7
:101180007F906F905F904F900C942514D701199623
:10119000ED91FC911A97309721F00284F385E02DB0
:1011A000FACFA114B10461F0F20184819581D501D7
:1011B00011969C938E9319961C921E92189735C087
:1011C0008CE090E00E94D81FFC018CE0DF011D92B2
:1011D0008A95E9F71282138214821582D701199633
:1011E0002D913C911A972115310509F47CC0D90144
:1011F0001A968D919C911B97009711F09C01F3CF4B
:10120000D9011B96FC93EE931A97D2018D919C9174
:101210001197938382831783068314968D919C91F3
:10122000159791838083EF2BA9F08BEC92E00E94BD
:101230000414F20180810E94251489EC92E00E943E
:101240000414D20111968C910E94251488EC92E02E
:101250000E946114E0905202F0905302B12CE1140C
:10126000F104D1F0F7019581D80115968C9198176A
:1012700079F0C7010E94E0114C010E942911A601DA
:10128000B201C4010E943911C4010E941911B39422
:10129000F701E280F380E3CFB1102BC089E992E03F
:1012A0000F900F90DF91CF911F910F91FF90EF90D2
:1012B000DF90CF90BF90AF909F908F907F906F9076
:1012C0005F904F900C940414B2016E5F7F4FC40185
:1012D0000E94BE18882309F437CFD5011696ED91E8
:1012E000FC911797FBCED7011A96FC93EE931997B2
:1012F0008CCF0F900F90DF91CF911F910F91FF90A6
:10130000EF90DF90CF90BF90AF909F908F907F90A5
:101310006F905F904F9008950C946D2008952F92D8
:101320003F924F925F926F927F928F929F92AF9275
:10133000BF92CF92DF92EF92FF920F931F93CF93C2
:10134000DF93CDB7DEB72A970FB6F894DEBF0FBE96
:10135000CDBF9C838B837B015E834D8338872F8336
:1013600081E992E00E940414D70111968C910E94A9
:1013700025148AE892E00E94041489E692E00E9413
:101380000414F70181810E94251482E692E00E94F4
:101390000414D70116968D919C911797805F91093F
:1013A0008830910540F4880F991FFC01E358FE4FE7
:1013B0008081918102C083E697E00E94041486E553
:1013C00092E00E940414F80185810E94F113D80173
:1013D000ED91FC910480F581E02DC80109950197FC
:1013E00099F4D801ED91FC910288F389E02DC801B0
:1013F0000995811109C075C1F60185810E943B14D0
:101400005C01892B09F07FC1D801ED91FC91028824
:10141000F389E02DC8010995811116C0F701868175
:101420009781825F91098530910570F4FC01E25F3C
:10143000FE4F8081882341F0D801ED91FC91068414
:10144000F785E02DC8010995E114F10411F40E941B
:101450007421F701928180819817C9F38481958165
:10146000892B09F0B9C08091F3029091F4020196A2
:1014700021F41092F4021092F302C090F302D09083
:10148000F4022FEFC21AD20AD092F402C092F302F1
:10149000D7011596DC92CE92149716966D907C909B
:1014A0001797C301825F91098530910508F094C0B8
:1014B000FC01E25FFE4F2081222309F48DC03090B1
:1014C000F5022090F602039708F0F4C1A32CB22C89
:1014D0002701B2E04B0E511CA114B10409F4EAC17A
:1014E000F501828190E08615970571F4B701C50179
:1014F00003960E94BE18882339F0B201C5010596F3
:101500000E94BE188111D2C1D5011D96AD90BC902C
:101510001E97E2CFF20185859685009721F02C0178
:1015200041145104B9F78FE090E00E94D81F5C018C
:101530008FE0D5011D928A95E9F7F5011382148297
:10154000158216824114510409F0B7C1B092F60217
:10155000A092F502F5016282D7018D919C911197BD
:101560009483838312968D919C91139796838583A0
:10157000CD20C09421F41092F4021092F3028091D5
:10158000F3029091F40201969093F4028093F30297
:10159000F50191838083D70115969C938E931497C0
:1015A0000E94C912F5016187728783879487D701EA
:1015B00014968D919C91159791838083F801858174
:1015C000D50118968C93F70184819581AB81BC81FC
:1015D0001D969C938E931C97C8010E94E0110E9457
:1015E0002911C8010E94E01149E050E0B7010E94B2
:1015F0003911ED81FE81EF2B69F08F819885892B60
:1016000049F0C8010E94E0114F8158856D817E81AB
:101610000E943911C8010E94E0110E941911E09145
:101620005002F0915102AB81BC81B383A28381E16E
:1016300091E00E946114F70180810E9425148FE0DF
:1016400091E00E940414D70111968C910E942514F8
:101650008AE091E00E940414F70182810E9425141F
:1016600088E091E00E940414D70113968C910E94A7
:10167000251487E091E00E9461148EEF90E00E94B3
:101680000414F7016481758180E090E04AE00E94D3
:10169000891387EF90E00E940414D70116968D916C
:1016A0009C911797805F91098830910540F4880FCD
:1016B000991FFC01E358FE4F8081918102C083E6AF
:1016C00097E00E94041480EF90E00E940414F70158
:1016D00080850E94F113D70114968D919C911597E6
:1016E000F2C00E94D9106C018017910709F084CED6
:1016F00089E292E00E9461140E94C81F84E592E092
:101700000E94A712A4CED70116968D919C9117978F
:10171000823F910551F48CEC91E00E940414C501C4
:101720000E944F1480E090E0CEC0863F910509F002
:101730006BCE85E991E00E940414F60185810E9438
:10174000251488E891E00E940414C5010E944F14FA
:101750008BE791E00E94041420910403309105036B
:101760002115310511F428E033E0CE010196821BEA
:10177000930B0E946F140E94C9121B012C01D60109
:10178000ED91FC910684F785E02DC6010995D601FF
:10179000ED91FC910088F189E02DC601099518169C
:1017A000190654F4D6011696ED91FC911797848191
:1017B00095810E944511EBCFF6018581E091F502FC
:1017C000F091F602309739F09085981721F0058452
:1017D000F685E02DF7CFDF013097B9F090859813AB
:1017E00010C081849284A384B48419964D915D9134
:1017F0006D917C911C9784169506A606B70608F491
:10180000DF010584F685E02DE7CF109729F12091BF
:10181000500230915102F901658076805D01F3E05C
:10182000AF0EB11C61147104B9F0B501D301129669
:101830008D919C91139729873A870E94BE1829851C
:101840003A85882329F0B301C9010E946B1504C0B1
:10185000F30166847784E6CFD60115968C910E94B9
:101860003B14892B09F093CF8DE491E00E9404147E
:10187000AB81BC811296ED91FC91139781810E94FE
:1018800025148EE391E00E9404140E94C91262198B
:101890007309840995090E942C14D801ED91FC91DB
:1018A0000684F785E02DC8010995AECD82E0F501EB
:1018B000878376CE432C522C33CED2011E96BC9217
:1018C000AE921D9747CE2A960FB6F894DEBF0FBE94
:1018D000CDBFDF91CF911F910F91FF90EF90DF90DF
:1018E000CF90BF90AF909F908F907F906F905F90C0
:1018F0004F903F902F9008950F931F93CF93DF93B6
:10190000EC01EA81FB8181E08483EA81FB818581AE
:10191000882349F1E0915002F09151020384F4854B
:10192000E02D309711F0CE010995EA81FB81848189
:101930008230E1F488E690E00E940414EA81FB81A1
:1019400081810E94F11300E010E020E030E040E0EF
:1019500050E063EF70E0CE010E948714DF91CF91D9
:101960001F910F91089589EB90E002C082E990E009
:101970000E940414EA81FB818181DF91CF911F9144
:101980000F910C94F11380E090E0892B29F00E94D4
:10199000541281110C94000008952091240230917A
:1019A00025022817390771F49091230280912202B1
:1019B000981741F0E0912302F0E0EE51FE4F808154
:1019C00090E008958FEF9FEF089508951F93CF93B0
:1019D000DF93DC015C962D913C915D9721153105DB
:1019E00039F481E090E013969C938E9312973DC05A
:1019F0005196ED91FC91529750969C915097892F5A
:101A000080951FB75E964C915E9741FB772770F9E2
:101A100041FD6095F8944081772311F0492B01C076
:101A200048234083E9012197F1F748E0508160FFA6
:101A300002C0592B01C058235083E9012197F1F7C7
:101A40006695415099F7772321F09081892380830F
:101A500003C08081982B90831FBF5C968D919C91D1
:101A60005D970197F1F721E030E0C901DF91CF9157
:101A70001F910895209124023091250228173907DB
:101A800071F4809122022091230290E0805C9F4FAC
:101A9000821B910960E470E00E940521089580E0B6
:101AA00090E00895209124023091250228173907EB
:101AB000B9F49091230280912202981789F0E09165
:101AC0002302F0E0EE51FE4F80812091230230E0AE
:101AD0002F5F3F4F2F7333272093230290E0089509
:101AE0008FEF9FEF0895CF93DF93FC01828D938D4D
:101AF000892B31F1A0912402B0912502AE17BF07C6
:101B0000F9F0109751F05396CD91DC91549798814C
:101B100055968C91809589238883868D8E7F868FBC
:101B20001092220210922302F0932502E0932402E5
:101B3000A389B4899C918589892B8C9381E001C00C
:101B400080E0DF91CF910895089580E090E00895BE
:101B500021E0FC0144855585809124029091250265
:101B60004817590709F020E0822F0895DC011C96E0
:101B70008D919C911D97DC01ED91FC910084F18584
:101B8000E02D0994CF93DF939A01AB01FC01C4854A
:101B9000D5851B8E1A8E198E188E1F8A1E8A60E0BC
:101BA00079E08DE390E00E943B21F901243031057A
:101BB00018F0C901039702C081E090E09D8F8C8FDF
:101BC0006C85663108F069C0C901969587958431A6
:101BD000910510F0439702C081E090E09F8B8E8BBF
:101BE000369718F0C901059702C081E090E0998FFF
:101BF000888FC901880F991F280F391F369527959F
:101C0000369527952D30310518F02C50310902C03A
:101C100021E030E03B8F2A8F90916800683050F0CF
:101C200021E06E3008F420E081E001C0880F2A95A1
:101C3000EAF701C084E0892B809368008C858830A6
:101C400038F08E3040F0863148F020E030E008C0B7
:101C50002DE630E005C02BE630E002C02CE630E097
:101C60003C8B2B8B883030F491E001C0990F8A9522
:101C7000EAF70EC0282F30E08E3018F428503109D2
:101C800002C02E50310991E001C0990F2A95EAF760
:101C90009D8B8C8D9D8D0197F1F7CE01DF91CF91BA
:101CA0000C94730DDC011C968D919C911D97DC01A9
:101CB000ED91FC910280F381E02D0994DC011C96EA
:101CC0008D919C911D97DC01ED91FC910190F0812B
:101CD000E02D099521E0892B09F420E0822F089559
:101CE000DC011C968D919C911D97DC01ED91FC917E
:101CF0000284F385E02D0995089581E090E0089530
:101D000021E431E0DC0111963C932E9316968D91DF
:101D10009C911797009739F0DC01ED91FC910280BE
:101D2000F381E02D0994089508950895CF93DF93EA
:101D3000EC0187E291E0998388838C819D810097F3
:101D400039F0DC01ED91FC910280F381E02D0995E1
:101D50008E819F81009749F0DC01ED91FC9102801A
:101D6000F381E02DDF91CF910994DF91CF91089518
:101D7000CF93DF93EC01E881F9810288F389E02DAC
:101D80000995811113C00E94C912688779878A87D3
:101D90009B878AE695E00E9404148D810E94F113CE
:101DA0008C859D85DF91CF910C94730D80E0DF9140
:101DB000CF910895CF93DF93EC010E94800ECE0166
:101DC000DF91CF910C946D200C946D200C946D20BC
:101DD000CF93DF93EC010E94960ECE01DF91CF915D
:101DE0000C946D20FC01848DDF01A80FB11DA35A56
:101DF000BF4F2C91848D90E001968F739927848F2B
:101E0000A689B7892C93A089B1898C9180648C9321
:101E1000938D848D981306C00288F389E02D80810C
:101E20008F7D808308951F920F920FB60F92112419
:101E30002F933F934F935F936F937F938F939F93D2
:101E4000AF93BF93EF93FF93E0912402F0912502AB
:101E5000309709F451C0968DA685B785858591FF89
:101E600004C09C91892329F447C09C91892309F0DF
:101E700043C0A389B4899C918589809589238C93DB
:101E8000868997890197F1F7608D718DA685B78551
:101E9000558538E020E0CB010197F1F7822F90E0E3
:101EA00095958795282F4C91452309F0206831504E
:101EB00091F7868D81FD20958091220290E0019618
:101EC0008F73992730912302381749F0A09122028D
:101ED000B0E0AE51BE4F2C938093220203C0868D9A
:101EE0008160868F828D938D0197F1F7A389B489E4
:101EF0009C918589892B8C93FF91EF91BF91AF9134
:101F00009F918F917F916F915F914F913F912F9111
:101F10000F900FBE0F901F901895AF92BF92CF9267
:101F2000DF92FF920F931F93CF93DF938C01F62ED6
:101F3000D42E81E491E0D80111969C938E93139650
:101F40001C921E92129714961C92149715961C922E
:101F5000159717961C921E921697F80110861186F7
:101F600012861386211103C08CE395E009C0E0912D
:101F70005002F0915102848128130CC081E195E058
:101F80000E9461140E94C81F84E592E00E94A7127B
:101F90000E947421D80115962C93E0915202F09181
:101FA0005302309729F4109353020093520208C051
:101FB00082819381009711F0FC01FACF1383028391
:101FC00088E090E00E94D81F5C0187E291E0F50173
:101FD0009183808380E190E00E94D81FEC0187E12B
:101FE00091E0998388831D821C82188619861A863F
:101FF0001B861C861E861D861F861B821A82D501A3
:102000001596DC93CE93149784E090E00E94D81F3D
:10201000FC018FE191E09183808313821282D501CC
:102020001796FC93EE9316971F830E8301151105E7
:1020300009F4AECF13830283F5011383028382E296
:1020400097E09B838A83D8011796BC92AE9216972D
:102050008DE090E09E878D870E94D81F9D838C83A2
:1020600089E591E0F801918380838FE190E00E94FF
:10207000D81FEC011B821A8288EE93E0A0E0B0E04A
:102080008C839D83AE83BF838FE291E099838883A5
:102090001F8A1E8A198E188E1B8E1A8E1D8E1C8EFC
:1020A0006E8D6E7F6D7F6E8F6695617081E06827A3
:1020B0008D2D0E94EC164D2D50E09A01255C384F75
:1020C000F9016491495D584FFA018491882399F090
:1020D00090E0880F991FFC01EA5AFA4FA591B4913C
:1020E000835E984FFC01C590D4908FB7F8949C9173
:1020F000692B6C938FBFF9012491288BFA014491CD
:10210000E42FF0E0EE0FFF1FE35EF84F859194910E
:102110009A8B898B8F2D90E09C01255C384F59015B
:10212000F9012491AC01495D584F6A01FA0184918B
:102130008823C9F090E0880F991FFC01EA5AFA4FF2
:10214000A591B491835E984FFC01459154913FB79E
:10215000F8949C91822F809598239C93DA019C910E
:1021600089238C933FBF8E8D81FD04C061E08F2D4C
:102170000E94EC16FC86F501A490AD86F601C49091
:10218000EC2DF0E0EE0FFF1FE05AFA4F859194918D
:102190009F878E87D8011D96DC93CE931C97DF9185
:1021A000CF911F910F91FF90DF90CF90BF90AF9094
:1021B0000895CF93DF93C0915202D091530220979C
:1021C000B1F0E881F9810480F581E02DCE01099517
:1021D000019749F4E881F9810288F389E02DCE0165
:1021E0000995811122C00A80DB81C02DE8CFC09102
:1021F0005202D09153022097A9F0E881F98104801E
:10220000F581E02DCE010995019741F4E881F9812E
:102210000684F785E02DCE01099507C00A80DB8191
:10222000C02DE9CF80E090E001C0CE01DF91CF91D9
:102230000895DC0112968D919C911397DC01ED912C
:10224000FC910284F385E02D44E050E064E071E00D
:102250000994DC0112968D919C911397DC01ED910C
:10226000FC910284F385E02D44E050E060E071E0F1
:102270000994DC0112968D919C911397DC01ED91EC
:10228000FC910284F385E02D0994CF93DF93EC0158
:102290008E819F81009711F40E947421DC01ED91E1
:1022A000FC910088F189E02D0995181619060CF0AB
:1022B00083C08985843080F78885843068F78E8173
:1022C0009F81DC01ED91FC910680F781E02D09955D
:1022D0008F879C859923D9F02A8530E04D855E85CE
:1022E0002417350750F44C815D81FA01E20FF31F8A
:1022F00080838A858F5F8A870AC084EF94E00E947A
:1023000004148D859E8504970E944F141C869F851A
:102310008885E82FF0E0E050FF4F2081921312C033
:10232000833071F487ED94E00E940414EE81FF8104
:1023300085810E94F113188681E08C871A8609C076
:102340008F5F06C0188680910001981302C081E05B
:1023500088879F858985E82FF0E0EC5FFE4F20811C
:10236000921323C08330F9F489EB94E00E940414A3
:10237000EE81FF8185810E94F1136A8564506B872D
:10238000EA81FB81309709F487CF8C85882331F06F
:102390004E815F8170E08C819D81099519861C8634
:1023A0001A8681E00AC08F5F06C0198680910401F9
:1023B000981302C081E0898780E0DF91CF91089572
:1023C000DC011696ED91FC91179786819781009715
:1023D00011F40E9474210895CF92DF92EF92FF9240
:1023E0000F931F93CF93DF936C017A018B01C0E0B1
:1023F000D0E0CE15DF0589F0D8016D918D01D601B1
:10240000ED91FC910190F081E02DC6010995892B99
:1024100011F47E0102C02196ECCFC701DF91CF916C
:102420001F910F91FF90EF90DF90CF900895FC01E6
:10243000538D448D252F30E0842F90E0821B930B29
:10244000541710F0CF96089501970895FC01918DCF
:10245000828D981761F0828DDF01A80FB11D5D9606
:102460008C91928D9F5F9F73928F90E008958FEF74
:102470009FEF0895FC01918D828D981731F0828D28
:10248000E80FF11D858D90E008958FEF9FEF08957F
:10249000FC01918D228D892F90E0805C9F4F821BE3
:1024A00091098F739927089584E592E00E9448125C
:1024B00021E0892B09F420E0822F08950E947421E5
:1024C000EF92FF920F931F93CF93DF93EC0181E084
:1024D000888F9B8D8C8D981305C0E889F989808140
:1024E00085FD24C0F62E0B8D10E00F5F1F4F0F737C
:1024F0001127E02E8C8DE8120CC00FB607FCFACF26
:10250000E889F989808185FFF5CFCE010E94F20E1E
:10251000F1CF8B8DFE01E80FF11DE35AFF4FF082E2
:102520000B8FEA89FB898081806207C0EE89FF8971
:102530006083E889F98980818064808381E090E00C
:10254000DF91CF911F910F91FF90EF900895CF935E
:10255000DF93EC01888D8823C9F0EA89FB898081AB
:1025600085FD05C0A889B9898C9186FD0FC00FB67D
:1025700007FCF5CF808185FFF2CFA889B9898C91BE
:1025800085FFEDCFCE010E94F20EE7CFDF91CF9114
:1025900008952FB7F89460914C0270914D0280918C
:1025A0004E0290914F022FBF08951F920F920FB6C7
:1025B0000F9211242F933F938F939F93AF93BF93C9
:1025C00080914C0290914D02A0914E02B0914F0229
:1025D00030914B0223E0230F2D3720F40196A11DEB
:1025E000B11D05C026E8230F0296A11DB11D209341
:1025F0004B0280934C0290934D02A0934E02B093F5
:102600004F028091470290914802A0914902B091F7
:102610004A020196A11DB11D809347029093480282
:10262000A0934902B0934A02BF91AF919F918F91BD
:102630003F912F910F900FBE0F901F9018951F92F2
:102640000F920FB60F9211242F933F934F935F93E6
:102650006F937F938F939F93AF93BF93EF93FF936A
:1026600084E592E00E94F20EFF91EF91BF91AF914D
:102670009F918F917F916F915F914F913F912F919A
:102680000F900FBE0F901F9018951F920F920FB6CC
:102690000F9211242F938F939F93EF93FF93E091C9
:1026A0006402F09165028081E0916A02F0916B0210
:1026B00082FD12C0908180916D028F5F8F73209197
:1026C0006E02821751F0E0916D02F0E0EC5AFD4F7E
:1026D000958F80936D0201C08081FF91EF919F9152
:1026E0008F912F910F900FBE0F901F90189500970C
:1026F00069F0FC0101900020E9F73197AF01481B18
:10270000590BBC0184E592E00C94EC1180E090E060
:1027100008958F929F92AF92BF920F931F93CF9382
:10272000DF93CDB7DEB7A1970FB6F894DEBF0FBE2B
:10273000CDBF19A2423008F44AE08E010F5D1F4F51
:10274000842E912CA12CB12CA50194010E94192159
:10275000E62FB901CA0101501109EA3014F4E05D15
:1027600001C0E95CD801EC93232B242B252B61F7C6
:10277000C8010E947713A1960FB6F894DEBF0FBE72
:10278000CDBFDF91CF911F910F91BF90AF909F90E0
:102790008F900895CF92DF92EF92FF92CF93DF93C5
:1027A0006B017C01E0915402F09155020190F0819F
:1027B000E02D6DE284E592E00995EC01662777272C
:1027C000CB016C197D098E099F094AE00E9489138B
:1027D0008C0F9D1FDF91CF91FF90EF90DF90CF90F6
:1027E0000895CF93DF93682F70E080E090E04AE097
:1027F0000E948913EC018DEC91E00E9477138C0FFD
:102800009D1FDF91CF9108950F931F93CF93DF9377
:102810008C01C0E0D0E0F801EC0FFD1F649166234D
:1028200071F0E0915402F09155020190F081E02D99
:1028300084E592E00995892B11F02196ECCFCE0129
:10284000DF91CF911F910F910895682F70E080E084
:1028500090E04AE00C948913CF93DF934AE00E9402
:102860008913EC018DEC91E00E9477138C0F9D1F72
:10287000DF91CF910895282FE091F502F091F602B3
:1028800080E090E0309751F0222319F03085321328
:1028900001C001960584F685E02DF4CF0895CF930D
:1028A000DF93BC0180E090E04AE00E948913EC01D4
:1028B0008DEC91E00E9477138C0F9D1FDF91CF91DB
:1028C0000895CF93DF930E940414EC018DEC91E006
:1028D0000E9477138C0F9D1FDF91CF910895CF93A6
:1028E000DF93BC01990F880B990B97FF03C00E94DF
:1028F000CA1303C04AE00E948913EC018DEC91E0F9
:102900000E9477138C0F9D1FDF91CF9108956F92D6
:102910007F928F929F92AF92BF92CF92DF92EF926F
:10292000FF920F931F93CF93DF93CDB7DEB7299715
:102930000FB6F894DEBF0FBECDBF7C016B013A012C
:102940005901480119821A821B821C821E821D8233
:1029500018861F82198684E098E00E94041486017C
:10296000005F11090830110540F4F801EE0FFF1F58
:10297000E358FE4F8081918102C083E697E00E9478
:1029800004148FEF97E00E946114D7011296ED9125
:10299000FC911397A0915002B091510214968C9122
:1029A0009281981302C00E94742194819430C1F0E6
:1029B000B3EFCB16D104A1F00230110588F08AECF8
:1029C00097E00E940414B601DD0C880B990B97FF69
:1029D00003C00E94CA1368C04AE00E94891364C001
:1029E000898361147104C9F08EEA97E00E9404148F
:1029F000C3010E944F147E826D82C7010E9440185D
:102A0000882331F0D7011296ED91FC91139707C0FE
:102A10008EE697E00E94611447C01E821D8282816B
:102A200093819C838B83D7011296ED91FC91139730
:102A3000808191819A838983D886CF821986509626
:102A40000D911C9151970115110581F48B81C09056
:102A50005202D0905302F60103C00280F381E02DB0
:102A6000309769F095819813F8CF8F019401A501F3
:102A7000BE016F5F7F4FC7010E948F0912C0C11452
:102A8000D10491F086019401A501BE016F5F7F4FD3
:102A9000C7010E948F09F601C280D380C114D104FE
:102AA00089F78D819E8102C080E090E029960FB663
:102AB000F894DEBF0FBECDBFDF91CF911F910F9174
:102AC000FF90EF90DF90CF90BF90AF909F908F904E
:102AD0007F906F9008954F925F926F927F92AF9226
:102AE000BF92CF92DF92EF92FF920F931F93CF93FB
:102AF000DF935C01EB010E94C9122B013C0180E0D5
:102B00000E943B147C01892B09F493C00091F502CB
:102B10001091F60288E89AE00E940414C7010E940E
:102B20004F140115110509F479C00E94C912D8018A
:102B30001996CD90DD90ED90FC901C97DC01CB01B7
:102B40008C199D09AE09BF09893B9B40A105B105C0
:102B500008F460C0D5011596CD90DC9016977801E9
:102B6000B3E0EB0EF11CC114D10471F0B701F60112
:102B7000828193810E94BE18811108C0D6011E96E1
:102B8000CD90DC901F97EFCFC12CD12C85E39AE03C
:102B90000E940414F8016081718180E090E04AE0B5
:102BA0000E9489138AE29AE00E940414C114D1049D
:102BB00041F0D6011296ED91FC911397C180D12C72
:102BC00002C0C12CD12CB601DD0C880B990B4AE058
:102BD0000E94891386E19AE00E9404140E94C9129F
:102BE000F801C184D284E384F4846C197D098E09D0
:102BF0009F090E942C14D8011D96EC901D971E96DB
:102C0000FC901E976D917C9181EF92E00E9462187A
:102C1000870187CFF8010585168583CF80E00E9464
:102C20003B148C018DED99E00E940414C8010E94B0
:102C30004F1488859985AA85BB850097A105B105A4
:102C400071F0A3019201281B390B4A0B5B0BDA01CF
:102C5000C901843F9140A105B10508F4AEC06C855F
:102C60007D8581EF92E00E9452188C01CE010E9476
:102C70004018811110C08FEA99E00E94611401157B
:102C8000110509F43FC0D80112968C91833FD1F50C
:102C90008BE699E045C0EA81FB818581882309F4B0
:102CA00046C00E94C912CC80DD80EE80FF80DC012E
:102CB000CB018C199D09AE09BF0981319742A1054D
:102CC000B105A8F18EE498E00E940414EA81FB812A
:102CD00081810E9425148AE498E00E9404140E94D5
:102CE000C912CC80DD80EE80FF806C197D098E09D1
:102CF0009F090E942C1488E399E00E946114011539
:102D0000110521F4CE010E947C0C0CC0D801129652
:102D10008C91833FB9F784EF98E002C086E898E091
:102D20000E946114488659866A867B8646C0EA817D
:102D3000FB8185818823B1F30E94C912CC80DD809C
:102D4000EE80FF80DC01CB018C199D09AE09BF0923
:102D5000813A9F40A105B10528F380E298E00E94E6
:102D60000414EA81FB8181810E9425148CE198E0A2
:102D70000E9404140E94C912CC80DD80EE80FF8086
:102D80006C197D098E099F090E942C1484EC98E02F
:102D90000E9404148C859D850E944F14012B09F01C
:102DA000BDCF00E010E020E030E040E050E062EF16
:102DB00070E0CE010E948714B5CFDF91CF911F91B3
:102DC0000F91FF90EF90DF90CF90BF90AF907F90EA
:102DD0006F905F904F90089590E0FC01E15BF84F99
:102DE0003491FC01E55CF84F2491FC01E95DF84F5A
:102DF000E491EE2309F43BC0332339F1333091F0F1
:102E000038F43130A9F0323001F584B58F7D12C02D
:102E1000373091F03830A1F03430B9F4809180002F
:102E20008F7D03C0809180008F77809380000DC0DC
:102E300084B58F7784BD09C08091B0008F7703C0BF
:102E40008091B0008F7D8093B000F0E0EE0FFF1F07
:102E5000E35EF84FA591B4918FB7F894EC916111AE
:102E600003C020952E2301C02E2B2C938FBF0895D5
:102E70000F931F93CF93DF93DC0116968D919C9156
:102E80001797873F910529F58901EB0184EE9AE0B8
:102E90000E940414D8011296ED91FC911397818140
:102EA0000E9425148BED9AE00E94041468817981B8
:102EB0008A819B810E942C1482ED9AE00E94041466
:102EC00080E00E943B14DF91CF911F910F910C94F1
:102ED0004F14DF91CF911F910F910895CF93DF93FE
:102EE000EC0183EC9AE00E940414EA81FB81818169
:102EF0000E94F113EA81FB8182E08483DF91CF910C
:102F00000895DC0189EC91E011969C938E931E96B6
:102F10002D913C911F9721153105A1F0E0915002B0
:102F2000F09151020580F681E02D309759F08685A9
:102F30009785009729F08A179B0711F0FC01F5CFC0
:102F40003787268712968D919C911397009711F0E1
:102F50000C946D200895CF93DF93EC010E948117AC
:102F6000CE01DF91CF910C946D200C946D20AF9227
:102F7000BF92CF92DF92EF92FF920F93CF93DF93A6
:102F800000D01F92CDB7DEB75C0189EC91E0D5018E
:102F900011969C938E9313961C921E921297F50194
:102FA000148215821682178218961D921D921D9208
:102FB0001C921B971D961C921E921C971F961C928A
:102FC0001E921E9751961C921E925097C0905002CE
:102FD000D0905102F601848181110CC08BEE9AE0F1
:102FE0000E9461140E94C81F84E592E00E94A7120B
:102FF0000E947421D5015196FC92EE92509786E082
:1030000090E02B834A8369830E94D81FFC0186E0ED
:10301000DF011D928A95E9F71082118212821382D4
:10302000D5011396FC93EE931297D60114968C91CA
:1030300014978083698161832B81228303834A8172
:1030400045831596ED91FC911697309731F0868562
:103050009785009731F0FC01F8CFF601B682A58282
:1030600002C0B786A6860F900F900F90DF91CF9188
:103070000F91FF90EF90DF90CF90BF90AF900895A9
:10308000DC0150962D913C915197232B41F01296E3
:10309000ED91FC91139781E09481943009F080E0E8
:1030A00008950895FC0184819581009751F0FC01F9
:1030B000208131812617370721F0FC01858596850F
:1030C000F4CF0895CF93DF93EC010E94521800973C
:1030D00099F1FC0145855685EC81FD81411551052D
:1030E000A1F08E179F0721F45D834C8321C0F90165
:1030F0003097F1F02585368521153105C9F028175F
:103100003907A9F75687458713C08E179F0721F403
:103110001D821C820DC0F901309751F0258536853E
:103120002115310529F028173907A9F716861586C4
:103130000E946D2081E001C080E0DF91CF91089571
:10314000CF93DF93EC0181EC91E099838883EC814C
:10315000FD81309731F060817181CE010E9462184B
:10316000F6CFDF91CF910895CF93DF93EC010E94CA
:10317000A018CE01DF91CF910C946D20FC019081BD
:10318000DB018C91981305C081E0218111969C91FF
:10319000291380E008953F924F925F926F927F9241
:1031A0008F929F92AF92BF92CF92DF92EF92FF9257
:1031B0000F931F93CF93DF9300D0CDB7DEB77C0181
:1031C0006B012A0139014801672B11F40E94742117
:1031D000452B19F0232B19F4F9CF232BB9F78114C0
:1031E0009104A1F3F701A281B381E0915002F09123
:1031F000510212969C918481981741F30E94C91242
:10320000D70114966D937D938D939C931797F60138
:10321000A680B780C7010E944018382E8CEC9DE034
:103220000E940414D7011296ED91FC9113978181AD
:103230000E94251485EC9DE00E9404148501005F26
:1032400011090830110540F4F801EE0FFF1FE35893
:10325000FE4F8081918102C083E697E00E940414B2
:103260008EEB9DE00E946114F60180810E9425147E
:103270008CEB9DE00E940414D60111968C910E9463
:10328000251487EB9DE00E940414F60182810E94C0
:10329000251485EB9DE00E940414D60113968C91B1
:1032A0000E94251484EB9DE00E9461148BEA9DE04E
:1032B0000E940414F6016481758180E090E04AE088
:1032C0000E94891384EA9DE00E940414D601169698
:1032D0008D919C911797805F91098830910540F4FA
:1032E000880F991FFC01E358FE4F8081918102C035
:1032F00083E697E00E9404148DE99DE00E94041487
:10330000F60180850E94F113311011C002301105C1
:1033100070F0F3EFAF16B10451F085E59DE00E9427
:103320000414D60114968D919C9115972BC2B3EF7E
:10333000AB16B10441F1ACF4F0EFAF16B10409F4EF
:10334000B0C124F4AB2809F423C21FC2A1EFAA160E
:10335000B10409F41CC1B2EFAB16B10409F4E9C021
:1033600014C2E5EFAE16B10409F4F4C00CF4C8C001
:1033700086EFA816B10409F4B1C1A7EFAA16B104EB
:1033800009F4F9C002C2D7011296ED91FC9113978E
:1033900085818111ABC0E0915002F091510203840C
:1033A000F485E02D309711F0C7010995D7011296E9
:1033B000ED91FC9113978481823069F08DE29DE05C
:1033C0000E940414D7011296ED91FC91139781810C
:1033D0000E94F113DDC18281811122C0D6018D913D
:1033E0009C919383828389E19DE00E946114D701BF
:1033F0001296ED91FC91139782810E94251487E12A
:103400009DE00E940414D7011296ED91FC91139750
:1034100083810E94251486E19DE00E94611437C0DB
:10342000B601CF0102960E94BE18811130C088ED0E
:103430009CE00E940414D7011296ED91FC91139721
:1034400081810E942514D7011296ED91FC9113976A
:1034500082810E94251486ED9CE00E940414D7010D
:103460001296ED91FC91139783810E94251485EDAE
:103470009CE00E946114F6014481558100E010E057
:1034800020E030E060EF70E0C7010E948714D701B0
:1034900051969C928E9250971296ED91FC911397B3
:1034A00084E084831296ED91FC911397D6018D915F
:1034B0009C9111979383828314964D915C911597FB
:1034C00000E010E020E030E061EF70E0C7010E9412
:1034D00087148AE99CE00E940414D7011296ED91AA
:1034E000FC91139781810E94F1134FC1F601448131
:1034F000558100E010E020E030E060EF70E026C091
:103500003320A1F3D60114964D915C91159700E0FC
:1035100010E020E030E061EF70E0C7010E94871406
:10352000F701118A108A0280F381E02D83E0848301
:103530002CC13320D9F2D60114964D915C91159788
:1035400000E010E020E030E061EF70E0C7010E9491
:1035500087141BC188E79CE00E940414D7011296CF
:10356000ED91FC91139781810E94251481E79CE0E5
:103570000E940414B3C0F6016481758181EF92E06A
:103580000E9452185C01892B09F0AAC0F4C0D60130
:1035900014966D917C91159781EF92E00E945218DC
:1035A0005C01009709F4E7C0FC018281843F09F4C3
:1035B00071C0863F09F494C0833F09F09FC0D701D2
:1035C00051969C928E92509712960D911C91139742
:1035D000F8018581811103C08CE39CE018C0C7010C
:1035E0000E944018882369F08AE09CE00E9404143D
:1035F000D7011296ED91FC91139781810E94F113EE
:103600007DC0F8018481823069F086ED9BE00E94E4
:103610000414D7011296ED91FC91139781810E94B9
:1036200025146CC0F60180819181D80113969C937A
:103630008E931297D7011296ED91FC91139784E027
:10364000848351969C928E92509782E99BE00E94CF
:103650000414D7011296ED91FC91139781810E9479
:10366000F113D7011296ED91FC91139780810E947E
:10367000251480E99BE00E940414D7011296ED9175
:10368000FC91139781810E9425148FE89BE00E9492
:10369000611434C0F701118A108A0280F381E02D91
:1036A0001AC0D60114966D917C91159781EF92E026
:1036B0000E9452185C01009709F45DC0FC018281F0
:1036C000833F21F0863F61F0823FC1F4D70112961B
:1036D000ED91FC91139783E0848310C0A12CB12C51
:1036E000E0915002F09151020584F685E02D30976B
:1036F00029F09701A301B201C6010995A114B104F3
:1037000009F446C087E39BE00E9404140E94C9129A
:10371000F5010185128523853485601B710B820BB1
:10372000930B0E942C1480E00E943B148C01D60164
:1037300014966D917C91159781EF92E00E9462182A
:1037400080E00E943B148017910708F03FCD8AE289
:103750009BE00E940414209104033091050321157D
:10376000310511F428E033E0CE010196821B930B62
:103770000E946F140DC081E69BE00E940414F601C4
:10378000848195810E944F1403C0A12CB12CB6CF27
:103790000F900F90DF91CF911F910F91FF90EF90BD
:1037A000DF90CF90BF90AF909F908F907F906F9061
:1037B0005F904F903F900895CF92DF92EF92FF92EB
:1037C0000F931F93CF93DF938B01FC01C281D381B1
:1037D0007B01F2E0EF0EF11C209761F18E819F8159
:1037E000892B21F188859985892B01F16E0182E071
:1037F000C80ED11CB801C6010E94BE18811106C0B6
:10380000B701C6010E94BE18882381F06E01E4E072
:10381000CE0ED11CB801C6010E94BE1881110DC088
:10382000B701C6010E94BE18811107C00A84DB855A
:10383000C02DD2CF80E090E001C0CE01DF91CF91CA
:103840001F910F91FF90EF90DF90CF900895CF934D
:10385000DF9300D0CDB7DEB7789484B5826084BDA5
:1038600084B5816084BD85B5826085BD85B5816084
:1038700085BD80916E00816080936E001092810002
:1038800080918100826080938100809181008160BD
:10389000809381008091800081608093800080917E
:1038A000B10084608093B1008091B000816080930A
:1038B000B00080917A00846080937A0080917A00D1
:1038C000826080937A0080917A00816080937A0090
:1038D00080917A00806880937A001092C100E09114
:1038E0006402F091650282E08083E0916002F091D1
:1038F00061021082E0916202F09163028FEC80839A
:1039000010926C02E0916802F091690286E0808377
:10391000E0916602F0916702808180618083E0918E
:103920006602F0916702808188608083E091660280
:10393000F0916702808180688083E0916602F09157
:10394000670280818F7D808386EF95E00E946114FD
:1039500089E995E00E946114809150029091510292
:10396000009739F0DC01ED91FC910280F381E02DAC
:1039700009958FE090E00E94D81FFC0189E791E053
:1039800091838083138212821682158281E791E0EF
:10399000908787831286118614861386168615866D
:1039A0008AE08483F0935102E0935002F093460240
:1039B000E09345028EE090E00E94D81F8C012BE03E
:1039C0004BE06AE00E948D0F1093350200933402A1
:1039D000D8011696ED91FC911797C480D58081E1AE
:1039E00090E0F6019687858784819581009711F094
:1039F0000E946D20D6011D968D919C911E970E946C
:103A0000D81FF60195838483D801ED91FC9104843D
:103A1000F585E02D40E855E260E070E0C8010995C9
:103A20008EE090E00E94D81F8C012CE049E068E015
:103A30000E948D0F1093330200933202D801169624
:103A4000ED91FC911797C480D58081E190E0F6015B
:103A50009687858784819581009711F00E946D205B
:103A6000D6011D968D919C911E970E94D81FF6013C
:103A700095838483D801ED91FC910484F585E02D34
:103A800040E855E260E070E0C8010995E091450228
:103A9000F091460288E397E1968785878EE697E165
:103AA0009487838782E190E00E94D81F6C01E12C0B
:103AB000F12C01E02BE041E061E00E94B717D092C9
:103AC0003102C092300282E190E00E94D81F6C0166
:103AD00002E02BE041E062E00E94B717D0922F0293
:103AE000C0922E0282E190E00E94D81F6C0103E098
:103AF0002BE041E063E00E94B717D0922D02C09204
:103B00002C0282E190E00E94D81F6C0101E02CE0C1
:103B100041E064E00E94B717D0922B02C0922A02C3
:103B200082E190E00E94D81F6C0102E02CE041E0AD
:103B300065E00E94B717D0922902C092280282E164
:103B400090E00E94D81F6C0103E02CE041E066E0A9
:103B50000E94B717D0922702C0922602E091450238
:103B6000F0914602858196819093380280933702C6
:103B70008CE895E00E940414209104033091050321
:103B80002115310511F428E033E0CE010196821BA6
:103B9000930B0E946F14FF24F3940091450210913F
:103BA0004602F80182819381892B21F485819681D7
:103BB00093838283E0915202F091530280E0309728
:103BC00029F08F5F0280F381E02DF9CF823008F475
:103BD00044C00E94D910DC0115968C910E943B14C0
:103BE000D82EF801A280B380882371F1A5016091DD
:103BF000500270915102D50150968D919C91519730
:103C0000F5010684F785E02D309729F4DB01159640
:103C1000ED91FC911697009761F02089318921156B
:103C2000310539F02817390709F4EBC0EA15FB050F
:103C300041F7F8014283538383E796E00E9404141E
:103C40008D2D0E94F11314C0D5011E968D919C916B
:103C50001F97F801938382830BC0D8011296ED91D0
:103C6000FC9113978685978513969C938E93129754
:103C7000F80182819381892B21F485819681938338
:103C80008283D8011296ED91FC91139780899189D6
:103C9000009739F0DC01ED91FC910684F785E02D69
:103CA000099586E496E00E9404140E94C9124AE035
:103CB0000E94891383E296E00E940414D8011296B0
:103CC000ED91FC9113970280F381E02D81810E9498
:103CD000F113F801628173816115710559F487EF61
:103CE00095E00E9461140E94C81F84E592E00E9442
:103CF000A7120AC0C8010E946B15009152021091D0
:103D000053020115110511F40E947421D801169671
:103D1000ED91FC91179784819581892BA9F3ED9101
:103D2000FC910088F189E02DC80109951816190643
:103D3000CCF0F801028113810115110539F7E091EA
:103D40005002F09151020581168181E01EC0D80118
:103D50001696ED91FC911797848195810097A1F2B9
:103D60000E944511D801ED91FC910088F189E02D68
:103D7000C8010995892B59F7DCCF882319F0C801B0
:103D80000E944018F8010685178501151105A9F74D
:103D9000882359F080913602811135C089E996E077
:103DA0000E946114F09236022EC01092360226C094
:103DB000E0913702F091380286859785909338021A
:103DC00080933702892B51F4E0914502F09146022D
:103DD00085819681909338028093370280914102C9
:103DE00090914202A0914302B091440280933D021F
:103DF00090933E02A0933F02B09340020E94C30CF6
:103E0000CCCEAF0116CF0E94C912609341027093CD
:103E10004202809343029093440200913D0210912C
:103E20003E0220913F0230914002DC01CB01801B19
:103E3000910BA20BB30B853FE1E09E07A105B105F5
:103E4000E8F222E0C22ED12C4C015D01F4EF8F1A72
:103E5000F1E09F0AA108B1088091390290913A02DD
:103E6000A0913B02B0913C020196A11DB11D80932F
:103E7000390290933A02A0933B02B0933C0204E0D3
:103E800010E029E332E040E050E066EF70E080911E
:103E90003702909138020E9487148AEF96E00E94C0
:103EA0000414E0913702F09138020280F381E02D92
:103EB00081810E94251481EF96E00E940414609194
:103EC000390270913A0280913B0290913C024AE0A3
:103ED0000E94891389EE96E00E940414C501B40182
:103EE0000E942C14CA94CD2809F462CFCC24C39428
:103EF000D12CB2CF81EF92E00C94A018E4E5F2E06F
:103F00001382128288EE93E0A0E0B0E08483958370
:103F1000A683B78381E991E09183808385EC90E06B
:103F20009587848784EC90E09787868780EC90E083
:103F3000918B808B81EC90E0938B828B82EC90E074
:103F4000958B848B86EC90E0978B868B118E128EEE
:103F5000138E148EE2E0F3E010821182E0E0F3E0D1
:103F600010821182E1EFF2E081EC91E09183808395
:103F70001582148213821282E7EFF2E0108211821E
:103F80001282138215821482178216821086089577
:103F9000CF93DF9380ED91E00E947713EC018DECDD
:103FA00091E00E9477138C0F9D1FDF91CF910895B0
:103FB000CF93DF938230910510F482E090E0E0919E
:103FC0000603F091070320E030E0C0E0D0E0309736
:103FD00011F14081518148175907C0F0481759071E
:103FE00061F482819381209719F09B838A832BC08F
:103FF000909307038093060326C02115310519F01D
:104000004217530718F49A01BE01DF01EF01028045
:10401000F381E02DDCCF2115310509F1281B390B87
:104020002430310590F412968D919C91139761156F
:10403000710521F0FB019383828304C090930703F1
:1040400080930603FD01329644C0FD01E20FF31F89
:1040500081939193225031092D933C933AC0209142
:10406000040330910503232B41F420910A01309180
:104070000B01309305032093040320910801309134
:1040800009012115310541F42DB73EB740910C01CE
:1040900050910D01241B350BE0910403F0910503B1
:1040A000E217F307A0F42E1B3F0B2817390778F00F
:1040B000AC014E5F5F4F2417350748F04E0F5F1F6E
:1040C00050930503409304038193919302C0E0E071
:1040D000F0E0CF01DF91CF9108950F931F93CF931D
:1040E000DF93009709F48CC0FC013297138212828F
:1040F00000910603109107030115110581F4208139
:104100003181820F931F20910403309105032817FA
:10411000390779F5F0930503E093040371C0D801E2
:1041200040E050E0AE17BF0750F412962D913C913D
:104130001397AD012115310509F1D901F3CF9D0187
:10414000DA013383228360817181860F971F821782
:10415000930769F4EC0128813981260F371F2E5F00
:104160003F4F318320838A819B8193838283452BB8
:1041700029F4F0930703E093060342C01396FC93DF
:10418000EE931297ED01499159919E01240F351F2D
:10419000E217F30771F480819181840F951F0296D5
:1041A00011969C938E938281938113969C938E9308
:1041B0001297E0E0F0E0D80112968D919C91139750
:1041C000009719F0F8018C01F6CF8D919C91980120
:1041D0002E5F3F4F820F931F209104033091050300
:1041E0002817390769F4309729F4109207031092C1
:1041F000060302C013821282109305030093040386
:10420000DF91CF911F910F91089597FB072E16F420
:10421000009407D077FD09D00E945A2107FC05D0F1
:104220003EF4909581959F4F0895709561957F4FCD
:104230000895A1E21A2EAA1BBB1BFD010DC0AA1FE7
:10424000BB1FEE1FFF1FA217B307E407F50720F0FF
:10425000A21BB30BE40BF50B661F771F881F991F7A
:104260001A9469F760957095809590959B01AC01C3
:10427000BD01CF010895052E97FB1EF400940E9406
:10428000522157FD07D00E94192107FC03D04EF49C
:104290000C94522150954095309521953F4F4F4FAA
:1042A0005F4F089590958095709561957F4F8F4FE2
:1042B0009F4F0895AA1BBB1B51E107C0AA1FBB1F3C
:1042C000A617B70710F0A61BB70B881F991F5A95A2
:1042D000A9F780959095BC01CD010895EE0FFF1FC1
:1042E0000590F491E02D099481E090E0F8940C940D
:1042F000792116E0C7EFD6E004C0FE010E946E21CE
:0C4300002196C83FD107C9F7F894FFCF01
:10430C000E17202960574E4500000803800001015C
:10431C0000000100000000950EE60E000000009465
:10432C000EE40E00000000960EE80E00000000E601
:10433C000CEC11A50DE50C3A0D520DCD0C00000046
:10434C0000000000005E125E125E125E125E125ED3
:10435C00125E125E1200000000800EDA0E7D0E70EE
:10436C000E5E0E520EC20DB80EB60DA80D0000005A
:10437C00005118B517000000008E098C091907159B
:10438C000710070D07630709070507010700000061
:10439C00006012EC111712A712481226123A1200E2
:1043AC000000005E12EC11A50DA40D5E125E125EF3
:1043BC0012000000005E12EC11A50DA40D0000000F
:1043CC0000A018B418000000008117AB170D0A00EC
:1043DC005B70726F6772616D2061626F727465647D
:0243EC005D0072
:00000001FF
