:100000000C947E000C94A6000C94A6000C94A60000
:100010000C94A6000C94A6000C94A6000C94A600C8
:100020000C94A6000C94A6000C94A6000C94A600B8
:100030000C94A6000C94A6000C94A6000C94A600A8
:100040000C943D040C94A6000C94AD040C9487040D
:100050000C94A6000C94A6000C94A6000C94A60088
:100060000C94DF040C94A60000000000240027007C
:100070002A0066726565207372616D203A20004F18
:100080004C4544204D4153544552000000000000AF
:10009000250028002B0004040404040404040202C4
:1000A00002020202030303030303010204081020F7
:1000B0004080010204081020010204081020000002
:1000C0000008000201000003040700000000000017
:1000D00000004F6C65644D657373616765517565AC
:1000E00075653A3A707573683E207175657565205F
:1000F0006F766572666C6F7700000D0611241FBE67
:10010000CFEFD8E0DEBFCDBF11E0A0E0B1E0EEE67A
:10011000F3E102C005900D92AE33B107D9F722E0AA
:10012000AEE3B1E001C01D92A339B207E1F710E0E0
:10013000CEE7D0E004C02197FE010E94A109CD378F
:10014000D107C9F70E9454060C94B5090C9400001D
:1001500090E0FC01E254FF4F2491FC01E655FF4F73
:100160003491FC01EA56FF4FE491EE2309F43CC0C0
:10017000222339F1233091F038F42130A9F02230D4
:1001800001F584B58F7D12C0273091F02830A1F0A1
:100190002430B9F4809180008F7D03C0809180006D
:1001A0008F77809380000DC084B58F7784BD09C0A0
:1001B0008091B0008F7703C08091B0008F7D8093D5
:1001C000B000F0E0EE0FFF1FE457FF4FA591B49190
:1001D0009FB7F894611104C08C913095382302C008
:1001E000EC913E2B3C939FBF0895CF93DF93C0913A
:1001F0008C02D0918D02209769F08A859B850097AB
:1002000029F090938D0280938C0204C010928D028D
:1002100010928C028091880290918902A0918A02AA
:10022000B0918B020097A105B10559F00197A10982
:10023000B1098093880290938902A0938A02B093B7
:100240008B0280918C0290918D02892B29F460E0C1
:1002500080918E020E94A800CE01DF91CF91089577
:100260003FB7F8948091D9019091DA01A091DB0118
:10027000B091DC0126B5A89B05C02F3F19F001966F
:10028000A11DB11D3FBFBA2FA92F982F8827820F1C
:10029000911DA11DB11DBC01CD0142E0660F771F6C
:1002A000881F991F4A95D1F708958F929F92AF9218
:1002B000BF92CF92DF92EF92FF926B017C010E947E
:1002C00030014B015C01C114D104E104F104F1F0EF
:1002D0000E943001DC01CB0188199909AA09BB09E8
:1002E000883E9340A105B10570F321E0C21AD10800
:1002F000E108F10888EE880E83E0981EA11CB11C6D
:10030000C114D104E104F10419F7DDCFFF90EF909F
:10031000DF90CF90BF90AF909F908F900895E09125
:10032000D001F091D101309729F01092CD011092B7
:10033000CC01099408950895CF92DF92EF92FF9235
:100340000F931F93CF93DF936C017A018B01C0E071
:10035000D0E0CE15DF0581F0D8016D918D01D60179
:10036000ED91FC910190F081E02DC6010995892B5A
:1003700011F02196EECF7E01C701DF91CF911F9141
:100380000F91FF90EF90DF90CF900895FC01538D77
:10039000448D252F30E0842F90E0821B930B54175F
:1003A00010F0CF96089501970895FC01918D828DEC
:1003B000981761F0828DDF01A80FB11D5D968C91B9
:1003C000928D9F5F9F73928F90E008958FEF9FEFC4
:1003D0000895FC01918D828D981731F0828DE80F80
:1003E000F11D858D90E008958FEF9FEF0895FC013A
:1003F000918D228D892F90E0805C9F4F821B910907
:100400008F73992708958DED91E00E94F70121E007
:10041000892B09F420E0822F0895FC01848DDF01EF
:10042000A80FB11DA35ABF4F2C91848D90E0019667
:100430008F739927848FA689B7892C93A089B18956
:100440008C91837080648C93938D848D981306C0F7
:100450000288F389E02D80818F7D80830895EF925B
:10046000FF920F931F93CF93DF93EC0181E0888F6E
:100470009B8D8C8D981305C0E889F989808185FD55
:1004800026C0F62E0B8D10E00F5F1F4F0F73112744
:10049000E02E8C8DE8120CC00FB607FCFACFE8896D
:1004A000F989808185FFF5CFCE010E940D02F1CF41
:1004B0008B8DFE01E80FF11DE35AFF4FF0829FB7CD
:1004C000F8940B8FEA89FB89808180620AC09FB70C
:1004D000F894EE89FF896083E889F98980818370C7
:1004E000806480839FBF81E090E0DF91CF911F9176
:1004F0000F91FF90EF9008950F931F93CF93DF9389
:100500008C01C0E0D0E0F801EC0FFD1F6491662380
:1005100041F08DED91E00E942F02892B11F0219680
:10052000F2CFCE01DF91CF911F910F910895CF931C
:10053000DF93EC01888D8823C9F0EA89FB898081EB
:1005400085FD05C0A889B9898C9186FD0FC00FB6BD
:1005500007FCF5CF808185FFF2CFA889B9898C91FE
:1005600085FFEDCFCE010E940D02E7CFDF91CF9145
:10057000089580E090E0892B29F00E940302811108
:100580000C94000008950895E091CF018091CE0170
:10059000E81730F4F0E0EB55FE4F808190E00895CD
:1005A0008FEF9FEF08959091CF018091CE01981722
:1005B00050F4E92FF0E0EB55FE4F208130E09F5FD3
:1005C0009093CF0102C02FEF3FEFC90108958091B2
:1005D000CE0190E02091CF01821B910908950895EA
:1005E00080E090E0089585ED8093BC008091BC0090
:1005F00084FDFCCF1092CB01089540915E01262F1F
:1006000030E0240F311D21323105DCF42091CB0183
:100610002430C9F4FC0180E090E0861758F4309152
:100620005E012191DC01A25CBE4FA30FB11D2C9392
:100630000196F3CF80915E01680F60935E0180E0C8
:10064000089581E0089582E00895CF93DF93CB0170
:10065000EA01642F0E94FD02CE01DF91CF9108953F
:10066000CF93DF931F92CDB7DEB7698361E0CE01F0
:1006700001960E94FD0281E090E00F90DF91CF9102
:10068000089508950895CF93DF9380918C029091FF
:100690008D02892BB9F00E94F500EC01BC016E5F60
:1006A0007F4F48E050E08AE792E00E9425032097C0
:1006B00049F0E881F9810280F381E02DCE01DF91DC
:1006C000CF910994DF91CF9108958F929F92AF922D
:1006D000BF920F931F93CF93DF93CDB7DEB7A19750
:1006E0000FB6F894DEBF0FBECDBF19A2423008F49A
:1006F0004AE08E010F5D1F4F842E912CA12CB12C4E
:10070000A50194010E947F09E62FB901CA01015099
:100710001109EA3014F4E05D01C0E95CD801EC9302
:10072000232B242B252B61F70115110571F0F801FE
:1007300001900020E9F73197AF01401B510BB80140
:100740008DED91E00E949C0102C080E090E0A196B6
:100750000FB6F894DEBF0FBECDBFDF91CF911F91D2
:100760000F91BF90AF909F908F90089542E050E01E
:100770006AE371E08DED91E00C949C01CF93DF93DF
:100780000E947C02EC010E94B6038C0F9D1FDF913A
:10079000CF910895CF93DF93EC01809188029091DF
:1007A0008902A0918A02B0918B020597A105B1053B
:1007B00078F082ED90E00E94BE030E94F500009761
:1007C00039F0DC01ED91FC910280F381E02D099577
:1007D000E0918C02F0918D02309719F1828593851A
:1007E000009711F0FC01F8CFD387C28761E08091B8
:1007F0008E020E94A8008091880290918902A091A7
:100800008A02B0918B020196A11DB11D80938802CE
:1008100090938902A0938A02B0938B02DF91CF91CB
:100820000895D0938D02C0938C02E0CF0E94A70957
:100830000C94F6080C94F608CF93DF93FC01CA01E0
:100840004AE051E05183408313861286DF011296FD
:1008500048E0ED0119924A95E9F762832383211557
:10086000310541F0A901BC01CF010496DF91CF9180
:100870000C94AC09DF91CF9108951F920F920FB69F
:100880000F9211242F933F938F939F93AF93BF9316
:100890008091D5019091D601A091D701B091D80156
:1008A0003091D40123E0230F2D3720F40196A11DB0
:1008B000B11D05C026E8230F0296A11DB11D20938E
:1008C000D4018093D5019093D601A093D701B09322
:1008D000D8018091D9019091DA01A091DB01B0910A
:1008E000DC010196A11DB11D8093D9019093DA011D
:1008F000A093DB01B093DC01BF91AF919F918F91E9
:100900003F912F910F900FBE0F901F9018951F923F
:100910000F920FB60F9211242F933F934F935F9333
:100920006F937F938F939F93AF93BF93EF93FF93B7
:100930008DED91E00E940D02FF91EF91BF91AF917B
:100940009F918F917F916F915F914F913F912F91E7
:100950000F900FBE0F901F9018951F920F920FB619
:100960000F9211242F938F939F93EF93FF93E09116
:10097000ED01F091EE018081E091F301F091F4013D
:1009800082FD12C090818091F6018F5F8F7320915C
:10099000F701821751F0E091F601F0E0E352FE4FCB
:1009A000958F8093F60101C08081FF91EF919F9117
:1009B0008F912F910F900FBE0F901F9018951F923F
:1009C0000F920FB60F9211242F933F934F935F9383
:1009D0006F937F938F939F93AF93BF93EF93FF9307
:1009E0008091B900887F803609F49CC068F5883210
:1009F00009F45BC090F4803109F454C038F48823C2
:100A000009F4F6C0883009F44DC0F6C0883109F405
:100A10004CC0803209F45DC0EFC0803409F468C076
:100A200048F4803309F455C0883309F0E5C0809359
:100A30008101D8C0803509F44FC0883509F45DC004
:100A4000883409F0D9C0D6C0883909F4C7C0A8F4E1
:100A5000883709F467C038F4883609F463C08037F2
:100A600009F460C0C9C0883809F4B8C0803909F4F5
:100A70005FC0803809F0C0C05BC0803B09F486C00D
:100A800038F4803A09F466C0883A09F47FC0B4C0EB
:100A9000803C09F4A7C0883C09F4A4C0883B09F451
:100AA0008AC0AAC08091A40110C09091A301809136
:100AB000A201981770F5E091A30181E08E0F809359
:100AC000A301F0E0EE57FE4F80818093BB0085ECE0
:100AD00086C0809381018EC0E091A30181E08E0FDA
:100AE0008093A3018091BB00F0E0EE57FE4F80831E
:100AF0009091A3018091A2016EC0E091A30181E0D9
:100B00008E0F8093A3018091BB00F0E0EE57FE4F63
:100B100080838091CA0181116DC081E08093C901F9
:100B200084EA61C083E08093CB0110928001CFCF33
:100B300080918001803208F051C0E091800181E015
:100B40008E0F809380018091BB00F0E0E05AFE4F51
:100B50008083BDCF85EC8093BC001092CB01809147
:100B60008001803230F4E0918001F0E0E05AFE4FE5
:100B700010826091800170E0E091C501F091C601A2
:100B800080E691E009951092800136C084E0809360
:100B9000CB0110925F0110925E01E091C701F091CC
:100BA000C801099580915E01811105C081E08093A3
:100BB0005E0110923E01E0915F0181E08E0F809313
:100BC0005F01F0E0E25CFE4F80818093BB0090917A
:100BD0005F0180915E01981708F479CF85E88093D2
:100BE000BC000AC085EC8093BC001092CB0104C00D
:100BF000109281010E94F302FF91EF91BF91AF919A
:100C00009F918F917F916F915F914F913F912F9124
:100C10000F900FBE0F901F901895EDEDF1E013822D
:100C2000128288EE93E0A0E0B0E084839583A683EF
:100C3000B78322E131E03183208325EC30E0358732
:100C4000248724EC30E03787268720EC30E0318B96
:100C5000208B21EC30E0338B228B22EC30E0358B83
:100C6000248B26EC30E0378B268B118E128E138E60
:100C7000148EEAE7F2E01382128284839583A683BE
:100C8000B78384E291E091838083E6E8F2E086E333
:100C900091E09183808312821382148215821782DD
:100CA000168282E080870895CF93DF93CDB7DEB7B9
:100CB0002E970FB6F894DEBF0FBECDBF789484B5E3
:100CC000826084BD84B5816084BD85B5826085BD48
:100CD00085B5816085BD80916E00816080936E00D6
:100CE00010928100809181008260809381008091C8
:100CF0008100816080938100809180008160809379
:100D000080008091B10084608093B1008091B00038
:100D100081608093B00080917A00846080937A0033
:100D200080917A00826080937A0080917A0081605D
:100D300080937A0080917A00806880937A00109284
:100D4000C100E091ED01F091EE0182E08083E0913D
:100D5000E901F091EA011082E091EB01F091EC01E0
:100D60008FEC80831092F501E091F101F091F20196
:100D700086E08083E091EF01F091F0018081806155
:100D80008083E091EF01F091F001808188608083A1
:100D9000E091EF01F091F001808180688083E09123
:100DA000EF01F091F00180818F7D80838BE890E0EE
:100DB0000E94BE038FE790E00E94BE03ECEAF0E0E1
:100DC0002491E8E9F0E08491882399F090E0880F7D
:100DD000991FFC01E859FF4FA591B491FC01E4571C
:100DE000FF4F859194918FB7F894EC91E22BEC939F
:100DF0008FBF1092CF011092CE011092CD011092B0
:100E0000CC011092CB0181E08093CA011092C901FC
:100E100061E082E10E94A80061E083E10E94A800F5
:100E20008091B9008E7F8093B9008091B9008D7F49
:100E30008093B90088E48093B80085E48093BC0077
:100E40008FE891E09093C8018093C7018BE991E00E
:100E50009093C6018093C50180E18093BA0083E43A
:100E600093E09093D1018093D00182E790E00E94BB
:100E70007C028E010F5F1F4F80918F029091900234
:100E8000009711F483E992E06801C81AD90A0D2C81
:100E9000000CEE08FF08F7FE0EC06DE28DED91E04C
:100EA0000E942F0266277727CB016C197D098E09D6
:100EB0009F094AE003C04AE0C701B6010E946503EA
:100EC0000E94B6038CE090E00E945E087C0120E066
:100ED00030E040E050E062E070E00E941C04C70196
:100EE0000E94CA038CE090E00E945E087C0120E032
:100EF00030E040E050E066E070E00E941C04C70172
:100F00000E94CA038CE090E00E945E087C0120E011
:100F100030E040E050E061E070E00E941C04C70156
:100F20000E94CA0368EB7BE080E090E00E945501DC
:100F30008CE090E00E945E087C0120E030E040E020
:100F400050E067E070E00E941C04C7010E94CA03E1
:100F50008CE090E00E945E087C0120E030E040E000
:100F600050E061E070E00E941C04C7010E94CA03C7
:100F700068EB7BE080E090E00E94550185E0C82EA0
:100F80007E0186E0E80EF11CDD24D3949FE7B92EA4
:100F90002FE1A22E8CE090E00E945E084C0120E040
:100FA00030E040E050E062E070E00E941C04C401C8
:100FB0000E94CA03F7018C2D11928A95E9F7DE820F
:100FC0008091D20194E0980F9F8396E0980F9887C4
:100FD00094E1980F9987885D8A878CE090E00E9461
:100FE0005E084C0125E030E0A70164E070E00E945B
:100FF0001C04C4010E94CA03DB868091D2019CE3D9
:10100000980F9C879EE1980F9D878C5E8E878CE061
:1010100090E00E945E084C0124E030E0AE01455FA4
:101020005F4F65E070E00E941C04C4010E94CA0387
:10103000F8018C2D11928A95E9F7D982BC82AD8294
:101040008091D2018A83825E8B838CE090E00E9443
:101050005E084C0125E030E0A80163E070E00E94EA
:101060001C04C4010E94CA038CE090E00E945E0848
:101070004C0120E030E040E050E061E070E00E9490
:101080001C04C4010E94CA038091D2019091D30133
:101090000196893291052CF49093D3018093D2016B
:1010A00004C01092D3011092D2016CE271E080E092
:1010B00090E00E9455010E94B9026CCF0F931F93DC
:1010C000CF93DF938230910510F482E090E0E091BD
:1010D0009102F091920220E030E0A0E0B0E0309781
:1010E00019F1408151810281138148175907C8F0D5
:1010F0008417950769F4109731F012960C931297A4
:1011000013961C9327C0009391021093920222C061
:101110002115310519F04217530718F49A01BD0142
:10112000EF01DF01F801DBCF21153105F9F0281BB4
:10113000390B2430310580F48A819B81611571055A
:1011400021F0FB019383828304C0909392028093E9
:101150009102FE01329644C0FE01E20FF31F81931B
:10116000919322503109398328833AC020918F020C
:1011700030919002232B41F4209102013091030120
:101180003093900220938F02209100013091010151
:101190002115310541F42DB73EB74091040150911E
:1011A0000501241B350BE0918F02F0919002E217AC
:1011B000F307A0F42E1B3F0B2817390778F0AC017A
:1011C0004E5F5F4F2417350748F04E0F5F1F509357
:1011D000900240938F028193919302C0E0E0F0E08F
:1011E000CF01DF91CF911F910F910895CF93DF939E
:1011F000009709F481C0FC01329713821282A091FA
:101200009102B0919202109781F420813181820F76
:10121000931F20918F02309190022817390751F5C2
:10122000F0939002E0938F0267C0ED0120E030E080
:10123000CE17DF0740F44A815B819E0141155105BD
:10124000F1F0EA01F5CFD383C28340815181840F4D
:10125000951FC817D90759F488819981840F951F64
:101260000296918380838A819B8193838283211557
:10127000310529F4F0939202E09391023DC0E90117
:10128000FB83EA8349915991C40FD51FEC17FD07E1
:1012900061F480819181840F951F0296E901998301
:1012A0008883828193819B838A83E0E0F0E01296B9
:1012B0008D919C911397009719F0FD01DC01F7CFF8
:1012C0008D919C9111979D012E5F3F4F820F931F2F
:1012D00020918F02309190022817390769F43097D6
:1012E00029F4109292021092910202C0138212828B
:1012F000B0939002A0938F02DF91CF910895A1E265
:101300001A2EAA1BBB1BFD010DC0AA1FBB1FEE1F7F
:10131000FF1FA217B307E407F50720F0A21BB30BCA
:10132000E40BF50B661F771F881F991F1A9469F746
:1013300060957095809590959B01AC01BD01CF01A2
:101340000895EE0FFF1F0590F491E02D099481E0C0
:1013500090E0F8940C94B509FB01DC0102C0019007
:0E1360000D9241505040D8F70895F894FFCFF9
:10136E0000009302800000000000410318040000FA
:10137E0000002F029C01C6019702F701D501E90179
:10138E000000000030032503F002C302E702D3027F
:0E139E00C4020000000042031A040D0A000001
:00000001FF
