:100000000C947F000C94A7000C94A7000C94A700FC
:100010000C94A7000C94A7000C94A7000C94A700C4
:100020000C94A7000C94A7000C94A7000C94A700B4
:100030000C94A7000C94A7000C94A7000C94A700A4
:100040000C94D1030C94A7000C9441040C941B0451
:100050000C94A7000C94A7000C94A7000C94A70084
:100060000C9473040C94A7000000000024002700E7
:100070002A0066726565207372616D203A20004F18
:100080004C4544204D4153544552000000000000AF
:10009000250028002B0004040404040404040202C4
:1000A00002020202030303030303010204081020F7
:1000B0004080010204081020010204081020000002
:1000C0000008000201000003040700000000000017
:1000D00000004F6C65644D657373616765517565AC
:1000E00075653A3A707573683E207175657565205F
:1000F0006F766572666C6F770000A1052208112487
:100100001FBECFEFD8E0DEBFCDBF11E0A0E0B1E071
:10011000E4E1F3E102C005900D92AE33B107D9F7E7
:1001200022E0AEE3B1E001C01D92A739B207E1F7CA
:1001300010E0CEE7D0E004C02197FE010E947209D2
:10014000CD37D107C9F70E94E8050C947D090C94BE
:1001500000000F931F93CF93DF938C01C0E0D0E09A
:10016000F801EC0FFD1F6491662371F0E091E1014D
:10017000F091E2010190F081E02D81EE91E009958E
:10018000892B11F02196ECCFCE01DF91CF911F91F9
:100190000F91089590E0FC01E254FF4F3491FC016F
:1001A000E655FF4F2491FC01EA56FF4FE491EE2300
:1001B00009F43BC0332339F1333091F038F4313056
:1001C000A9F0323001F584B58F7D12C0373091F03F
:1001D0003830A1F03430B9F4809180008F7D03C0B5
:1001E000809180008F77809380000DC084B58F77D9
:1001F00084BD09C08091B0008F7703C08091B000AA
:100200008F7D8093B000F0E0EE0FFF1FE457FF4FAB
:10021000A591B4918FB7F894EC91611103C020952A
:100220002E2301C02E2B2C938FBF0895CF93DF93E5
:10023000C0919002D0919102209769F08A859B85A8
:10024000009729F0909391028093900204C010923D
:1002500091021092900240918C0250918D02609117
:100260008E0270918F02411551056105710561F093
:10027000415051096109710940938C0250938D02DC
:1002800060938E0270938F02809190029091910200
:10029000892B29F460E0809192020E94CA00CE016D
:1002A000DF91CF9108953FB7F8948091DD0190914F
:1002B000DE01A091DF01B091E00126B5A89B05C049
:1002C0002F3F19F00196A11DB11D3FBFBA2FA92FD5
:1002D000982F8827820F911DA11DB11DBC01CD0152
:1002E00042E0660F771F881F991F4A95D1F708953E
:1002F000E091D201F091D301309729F01092CB0117
:100300001092CA0109940895CF93DF93AC01E09154
:10031000C501F091C6013097F1F09091CD01809127
:10032000CC019817C0F090E0292F30E0261737074E
:1003300054F4D901AB55BE4FEA01C20FD31F8881D7
:100340008C939F5FF1CF1092CD016093CC01CB01D4
:10035000DF91CF910994DF91CF910895CF92DF92F1
:10036000EF92FF920F931F93CF93DF936C017A016B
:100370008B01C0E0D0E0CE15DF0589F0D8016D918A
:100380008D01D601ED91FC910190F081E02DC60127
:100390000995892B11F47E0102C02196ECCFC7018B
:1003A000DF91CF911F910F91FF90EF90DF90CF9051
:1003B0000895FC01538D448D252F30E0842F90E06B
:1003C000821B930B541710F0CF9608950197089550
:1003D000FC01918D828D981761F0828DDF01A80F4D
:1003E000B11D5D968C91928D9F5F9F73928F90E06F
:1003F00008958FEF9FEF0895FC01918D828D9817DE
:1004000031F0828DE80FF11D858D90E008958FEF1A
:100410009FEF0895FC01918D228D892F90E0805CE3
:100420009F4F821B91098F739927089581EE91E068
:100430000E940A0221E0892B09F420E0822F08950E
:10044000FC01848DDF01A80FB11DA35ABF4F2C9171
:10045000848D90E001968F739927848FA689B78940
:100460002C93A089B1898C9180648C93938D848D19
:10047000981306C00288F389E02D80818F7D8083E8
:100480000895EF92FF920F931F93CF93DF93EC01A8
:1004900081E0888F9B8D8C8D981305C0E889F98940
:1004A000808185FD24C0F62E0B8D10E00F5F1F4F5D
:1004B0000F731127E02E8C8DE8120CC00FB607FCCD
:1004C000FACFE889F989808185FFF5CFCE010E94B6
:1004D0002002F1CF8B8DFE01E80FF11DE35AFF4F93
:1004E000F0820B8FEA89FB898081806207C0EE89E8
:1004F000FF896083E889F98980818064808381E055
:1005000090E0DF91CF911F910F91FF90EF900895B0
:10051000CF93DF93EC01888D8823C9F0EA89FB89AA
:10052000808185FD05C0A889B9898C9186FD0FC0A1
:100530000FB607FCF5CF808185FFF2CFA889B98976
:100540008C9185FFEDCFCE010E942002E7CFDF9195
:10055000CF91089580E090E0892B29F00E94160247
:1005600081110C94000008950895E091CD018091CF
:10057000CC01E81730F4F0E0EB55FE4F808190E0BD
:1005800008958FEF9FEF08959091CD018091CC0158
:10059000981750F4E92FF0E0EB55FE4F208130E042
:1005A0009F5F9093CD0102C02FEF3FEFC9010895E7
:1005B0008091CC0190E02091CD01821B910908959A
:1005C000089580E090E0089585ED8093BC008091CF
:1005D000BC0084FDFCCF1092C901089540915E01DA
:1005E000262F30E0240F311D21323105DCF420911B
:1005F000C9012430C9F4FC0180E090E0861758F46A
:1006000030915E012191DC01A25CBE4FA30FB11DB0
:100610002C930196F3CF80915E01680F60935E0189
:1006200080E0089581E0089582E00895CF93DF93FC
:1006300000D0CDB7DEB7CB01642F49835A830E9427
:10064000EE024981842F5A81952F0F900F90DF91F0
:10065000CF910895CF93DF931F92CDB7DEB7698313
:1006600061E0CE0101960E94EE0281E090E00F90E1
:10067000DF91CF91089508950895CF93DF938091EE
:10068000900290919102892BB9F00E941601EC0121
:10069000BC016E5F7F4F48E050E08EE792E00E9421
:1006A0001603209749F0E881F9810280F381E02D5B
:1006B000CE01DF91CF910994DF91CF9108950097FA
:1006C00069F0FC0101900020E9F73197AF01481B68
:1006D000590BBC0181EE91E00C94AE0180E090E0FA
:1006E0000895CF93DF930E94A900EC018AE391E083
:1006F0000E945F038C0F9D1FDF91CF910895CF93D0
:10070000DF93EC0180918C0290918D02A0918E027A
:10071000B0918F020597A105B10578F082ED90E0C8
:100720000E9471030E941601009739F0DC01ED91DF
:10073000FC910280F381E02D0995E0919002F09107
:100740009102309719F182859385009711F0FC0191
:10075000F8CFD387C28761E0809192020E94CA00DD
:1007600080918C0290918D02A0918E02B0918F02A7
:100770000196A11DB11D80938C0290938D02A093D0
:100780008E02B0938F02DF91CF910895D0939102A2
:10079000C0939002E0CF0E9478090C94B8080C94A2
:1007A000B8081F920F920FB60F9211242F933F9308
:1007B0008F939F93AF93BF938091D9019091DA016A
:1007C000A091DB01B091DC013091D80123E0230F2F
:1007D0002D3720F40196A11DB11D05C026E8230F79
:1007E0000296A11DB11D2093D8018093D901909349
:1007F000DA01A093DB01B093DC018091DD019091DF
:10080000DE01A091DF01B091E0010196A11DB11DB3
:100810008093DD019093DE01A093DF01B093E001AE
:10082000BF91AF919F918F913F912F910F900FBEEC
:100830000F901F9018951F920F920FB60F921124D0
:100840002F933F934F935F936F937F938F939F93D8
:10085000AF93BF93EF93FF9381EE91E00E9420024C
:10086000FF91EF91BF91AF919F918F917F916F9188
:100870005F914F913F912F910F900FBE0F901F905E
:1008800018951F920F920FB60F9211242F938F93EA
:100890009F93EF93FF93E091F101F091F20180813A
:1008A000E091F701F091F80182FD12C090818091F2
:1008B000FA018F5F8F732091FB01821751F0E09155
:1008C000FA01F0E0EF51FE4F958F8093FA0101C0DD
:1008D0008081FF91EF919F918F912F910F900FBE8B
:1008E0000F901F9018951F920F920FB60F92112420
:1008F0002F933F934F935F936F937F938F939F9328
:10090000AF93BF93EF93FF938091B900887F8036B8
:1009100009F49CC068F5883209F45BC090F480311A
:1009200009F454C038F4882309F4F6C0883009F477
:100930004DC0F6C0883109F44CC0803209F45DC066
:10094000EFC0803409F468C048F4803309F455C01E
:10095000883309F0E5C080938101D8C0803509F45F
:100960004FC0883509F45DC0883409F0D9C0D6C0BD
:10097000883909F4C7C0A8F4883709F467C038F487
:10098000883609F463C0803709F460C0C9C088386C
:1009900009F4B8C0803909F45FC0803809F0C0C0DC
:1009A0005BC0803B09F486C038F4803A09F466C025
:1009B000883A09F47FC0B4C0803C09F4A7C0883CE1
:1009C00009F4A4C0883B09F48AC0AAC08091A4019C
:1009D00010C09091A3018091A201981770F5E09149
:1009E000A30181E08E0F8093A301F0E0EE57FE4F4C
:1009F00080818093BB0085EC86C0809381018EC08E
:100A0000E091A30181E08E0F8093A3018091BB0050
:100A1000F0E0EE57FE4F80839091A3018091A201F8
:100A20006EC0E091A30181E08E0F8093A3018091BD
:100A3000BB00F0E0EE57FE4F80838091C80181112A
:100A40006DC081E08093C70184EA61C083E0809338
:100A5000C90110928001CFCF80918001803208F0CF
:100A600051C0E091800181E08E0F809380018091E0
:100A7000BB00F0E0E05AFE4F8083BDCF85EC809351
:100A8000BC001092C90180918001803230F4E09165
:100A90008001F0E0E05AFE4F10826091800170E02A
:100AA000E091CE01F091CF0180E691E0099510929E
:100AB000800136C084E08093C90110925F011092DA
:100AC0005E01E091D001F091D101099580915E0124
:100AD000811105C081E080935E0110923E01E0919A
:100AE0005F0181E08E0F80935F01F0E0E25CFE4FDA
:100AF00080818093BB0090915F0180915E01981787
:100B000008F479CF85E88093BC000AC085EC809317
:100B1000BC001092C90104C0109281010E94E4023D
:100B2000FF91EF91BF91AF919F918F917F916F91C5
:100B30005F914F913F912F910F900FBE0F901F909B
:100B40001895E1EEF1E01382128288EE93E0A0E0C6
:100B5000B0E084839583A683B78322E131E03183BB
:100B6000208325EC30E03587248724EC30E037877C
:100B7000268720EC30E0318B208B21EC30E0338B6A
:100B8000228B22EC30E0358B248B26EC30E0378B47
:100B9000268B118E128E138E148EEEE7F2E01382E6
:100BA000128284839583A683B78384E291E0918344
:100BB0008083EAE8F2E086E391E091838083128209
:100BC0001382148215821782168282E0808708952C
:100BD000CF93DF93CDB7DEB7A2970FB6F894DEBF01
:100BE0000FBECDBF789484B5826084BD84B581602A
:100BF00084BD85B5826085BD85B5816085BD8091E8
:100C00006E00816080936E0010928100809181005F
:100C10008260809381008091810081608093810057
:100C2000809180008160809380008091B100846019
:100C30008093B1008091B00081608093B00080917A
:100C40007A00846080937A0080917A008260809339
:100C50007A0080917A00816080937A0080917A0096
:100C6000806880937A001092C100E091F101F091C8
:100C7000F20182E08083E091ED01F091EE011082BB
:100C8000E091EF01F091F0018FEC80831092F90177
:100C9000E091F501F091F60186E08083E091F301A7
:100CA000F091F401808180618083E091F301F09103
:100CB000F401808188608083E091F301F091F40178
:100CC000808180688083E091F301F091F40180815C
:100CD0008F7D80838BE890E00E9471038FE790E026
:100CE0000E947103ECEAF0E02491E8E9F0E08491DD
:100CF000882399F090E0880F991FFC01E859FF4F75
:100D0000A591B491FC01E457FF4F859194918FB761
:100D1000F894EC91E22BEC938FBF80E18093BA00C2
:100D200088E791E09093D1018093D00184E891E02D
:100D30009093CF018093CE011092CD011092CC01FF
:100D40001092CB011092CA011092C90181E08093E8
:100D5000C8011092C70161E082E10E94CA0061E00F
:100D600083E10E94CA008091B9008E7F8093B90010
:100D70008091B9008D7F8093B90088E48093B8009A
:100D800085E48093BC008DE393E09093D30180933E
:100D9000D20182E790E00E94A90080919302909195
:100DA0009402009711F487E992E09E012F5F3F4F74
:100DB0006901C81AD90A0D2C000CEE08FF08F7FECD
:100DC0002CC0E091E101F091E2010190F081E02D71
:100DD0006DE281EE91E0099522273327A9012C19B4
:100DE0003D094E095F0919A28E010F5D1F4F7AE080
:100DF000C72ED12CE12CF12CCA01B901A701960113
:100E00000E945009605DD8016E938D012115310556
:100E10004105510589F7CD011BC0A701960119A213
:100E2000FE01B1967F016AE0862E912CA12CB12C97
:100E3000CA01B901A50194010E945009605DD70162
:100E40006E937D01211531054105510589F7CD01CD
:100E50000E945F038AE391E00E945F030AE011E0D1
:100E600098E0F92E22E0322E34E0C32E45E0D42E55
:100E7000EE24E39453E0252E8CE090E00E942308BA
:100E8000FC0111830083138612863296DF012F2D19
:100E90001D922A95E9F7DC0112963C92129713965F
:100EA0001C929093D7018093D6010E947F032091DA
:100EB000D4018CE090E02AA30E942308FC01118356
:100EC000008313861286AC014E5F5F4FDA018F2DCF
:100ED0001D928A95E9F7C282D382E4822AA184E036
:100EE000820F858386E0820F868384E1820F878369
:100EF000285D2087F093D701E093D601CF010E94AF
:100F00007F032091D4018CE090E02AA30E94230863
:100F1000FC011183008313861286AC014E5F5F4F84
:100F2000DA018F2D1D928A95E9F7D282C382E4827D
:100F30002AA18CE3820F85838EE1820F86832C5E4B
:100F40002783F093D701E093D601CF010E947F035E
:100F50007090D4018CE090E00E942308FC01118382
:100F60000083138612869C012E5F3F4FD9018F2D7F
:100F70001D928A95E9F72282D382E48275828EE1FE
:100F8000870D86839FE79783AFE1A087F093D70112
:100F9000E093D601CF010E947F038CE090E00E9495
:100FA0002308FC0111830083138612863296DF0129
:100FB0002F2D1D922A95E9F7DC011296EC921297DB
:100FC00013961C929093D7018093D6010E947F03C1
:100FD0008091D4019091D5010196893291052CF42C
:100FE0009093D5018093D40104C01092D501109242
:100FF000D4010E9453014B015C0184E6482E512C20
:10100000612C712C0E945301DC01CB0188199909D4
:10101000AA09BB09883E9340A105B10558F0B1E08B
:101020004B1A510861087108E8EE8E0EE3E09E1E2F
:10103000A11CB11C411451046104710419F70E94F0
:10104000AA021ACF0895CF93DF938230910510F44E
:1010500082E090E0E0919502F091960220E030E08D
:10106000C0E0D0E0309711F1408151814817590715
:10107000C0F04817590761F482819381209719F0D5
:101080009B838A832BC0909396028093950226C0FF
:101090002115310519F04217530718F49A01BE01C2
:1010A000DF01EF010280F381E02DDCCF2115310556
:1010B00009F1281B390B2430310590F412968D91DB
:1010C0009C9113976115710521F0FB019383828335
:1010D00004C09093960280939502FD01329644C01D
:1010E000FD01E20FF31F81939193225031092D935B
:1010F0003C933AC02091930230919402232B41F407
:1011000020910201309103013093940220939302C5
:1011100020910001309101012115310541F42DB7D5
:101120003EB74091040150910501241B350BE0911D
:101130009302F0919402E217F307A0F42E1B3F0BE9
:101140002817390778F0AC014E5F5F4F2417350739
:1011500048F04E0F5F1F5093940240939302819387
:10116000919302C0E0E0F0E0CF01DF91CF910895CC
:101170000F931F93CF93DF93009709F48CC0FC016A
:1011800032971382128200919502109196020115F6
:10119000110581F420813181820F931F20919302E8
:1011A000309194022817390779F5F0939402E0936F
:1011B000930271C0D80140E050E0AE17BF0750F471
:1011C00012962D913C911397AD012115310509F12E
:1011D000D901F3CF9D01DA013383228360817181CC
:1011E000860F971F8217930769F4EC0128813981D4
:1011F000260F371F2E5F3F4F318320838A819B81CB
:1012000093838283452B29F4F0939602E093950211
:1012100042C01396FC93EE931297ED0149915991B8
:101220009E01240F351FE217F30771F4808191812D
:10123000840F951F029611969C938E9382819381C1
:1012400013969C938E931297E0E0F0E0D8011296EB
:101250008D919C911397009719F0F8018C01F6CFAE
:101260008D919C9198012E5F3F4F820F931F20918B
:101270009302309194022817390769F4309729F4C2
:10128000109296021092950202C01382128210935D
:10129000940200939302DF91CF911F910F910895D3
:1012A000A1E21A2EAA1BBB1BFD010DC0AA1FBB1F6A
:1012B000EE1FFF1FA217B307E407F50720F0A21BDC
:1012C000B30BE40BF50B661F771F881F991F1A9449
:1012D00069F760957095809590959B01AC01BD0173
:1012E000CF010895EE0FFF1F0590F491E02D0994B2
:1012F00081E090E0F8940C947D0910E0CEE7D0E016
:1013000004C0FE010E9472092196CF37D107C9F7A8
:04131000F894FFCF7F
:10131400000097028000000000003B03CD030000A2
:1013240000004102AE01D90188020A02E801FC0171
:10133400000000002A031603E102B402D802C4022A
:0E134400B502000000003C03CF030D0A0000BC
:00000001FF
