:100000000C94EA020C9412030C9412030C945F0DEE
:100010000C945F0D0C945F0D0C9412030C9412035E
:100020000C9412030C9412030C9412030C941203FC
:100030000C9412030C9412030C9412030C941203EC
:100040000C94D4110C9412030C943C0F0C94160FC6
:100050000C9412030C9412030C9412030C941203CC
:100060000C94690D0C94120300000000003E5B4FDD
:100070005B3E3E6B4F6B3E1C3E7C3E1C183C7E3C08
:10008000181C577D571C1C5E7F5E1C00183C180016
:10009000FFE7C3E7FF0018241800FFE7DBE7FF30A6
:1000A000483A060E2629792926407F050507407F14
:1000B00005253F5A3CE73C5A7F3E1C1C08081C1C87
:1000C0003E7F14227F22145F5F005F5F06097F017D
:1000D0007F006689956A606060606094A2FFA29468
:1000E00008047E040810207E201008082A1C080836
:1000F0001C2A08081E101010100C1E0C1E0C303884
:100100003E3830060E3E0E06000000000000005F84
:1001100000000007000700147F147F14242A7F2AA0
:100120001223130864623649562050000807030062
:10013000001C2241000041221C002A1C7F1C2A08AE
:10014000083E080800807030000808080808000011
:1001500060600020100804023E5149453E00427F85
:10016000400072494949462141494D331814127FD4
:100170001027454545393C4A494931412111090774
:100180003649494936464949291E000014000000F5
:1001900040340000000814224114141414140041C7
:1001A00022140802015909063E415D594E7C121184
:1001B000127C7F494949363E414141227F414141BC
:1001C0003E7F494949417F090909013E4141517337
:1001D0007F0808087F00417F41002040413F017FA8
:1001E000081422417F404040407F021C027F7F0470
:1001F00008107F3E4141413E7F090909063E4151B9
:10020000215E7F09192946264949493203017F01A8
:10021000033F4040403F1F2040201F3F4038403FA9
:10022000631408146303047804036159494D4300BF
:100230007F4141410204081020004141417F0402F6
:10024000010204404040404000030708002054548D
:1002500078407F284444383844444428384444286B
:100260007F385454541800087E090218A4A49C78BE
:100270007F0804047800447D40002040403D007F1A
:100280001028440000417F40007C047804787C08FA
:100290000404783844444438FC18242418182424CE
:1002A00018FC7C08040408485454542404043F44B3
:1002B000243C4040207C1C2040201C3C4030403CE2
:1002C00044281028444C9090907C4464544C440042
:1002D00008364100000077000000413608000201A6
:1002E0000204023C2623263C1EA1A161123A404092
:1002F000207A38545455592155557941225454780F
:1003000042215554784020545579400C1E527212A7
:100310003955555559395454545939555454580030
:1003200000457C410002457D420001457C407D1234
:1003300011127DF0282528F07C5455450020545496
:100340007C547C0A097F4932494949323A44444441
:100350003A324A4848303A4141217A3A424020787C
:10036000009DA0A07D3D4242423D3D4040403D3C7D
:1003700024FF2424487E4943662B2FFC2F2BFF09A2
:1003800029F620C0887E0903205454794100004496
:100390007D413048484A32384040227A007A0A0A81
:1003A000727D0D19317D2629292F282629292926F4
:1003B00030484D4020380808080808080808382F39
:1003C00010C8ACBA2F102834FA00007B00000814C3
:1003D0002A142222142A14085500550055AA55AA99
:1003E00055AAFF55FF55FF000000FF00101010FF39
:1003F00000141414FF001010FF00FF1010F010F094
:10040000141414FC001414F700FF0000FF00FF1484
:1004100014F404FC141417101F10101F101F1414D0
:10042000141F00101010F0000000001F101010101A
:100430001F10101010F010000000FF10101010100E
:1004400010101010FF10000000FF140000FF00FF4C
:1004500000001F10170000FC04F4141417101714E8
:1004600014F404F40000FF00F7141414141414140A
:10047000F700F7141414171410101F101F1414147D
:10048000F4141010F010F000001F101F0000001FE7
:1004900014000000FC140000F010F01010FF10FF1A
:1004A000141414FF141010101F00000000F010FFAF
:1004B000FFFFFFFFF0F0F0F0F0FFFFFF0000000093
:1004C00000FFFF0F0F0F0F0F3844443844FC4A4A17
:1004D0004A347E02020606027E027E0263554941CC
:1004E000633844443C04407E201E2006027E020203
:1004F00099A5E7A5991C2A492A1C4C7201724C3017
:100500004A4D4D303048784830BC625A463D3E49ED
:100510004949007E0101017E2A2A2A2A2A44445F91
:10052000444440514A444040444A51400000FF0185
:1005300003E080FF000008086B6B08361236243693
:10054000060F090F060000181800000010100030F8
:1005500040FF0101001F01011E00191D1712003C80
:100560003C3C3C00000000006672656520737261CF
:100570006D203A2000000000002300260029000022
:10058000000000240027002A0000000000250028A9
:10059000002B000404040404040404020202020206
:1005A0000203030303030301020408102040800137
:1005B00002040810200102040810200000000800B6
:1005C000020100000304070000000000000000001A
:1005D000FE151E1211241FBECFEFD8E0DEBFCDBF27
:1005E00015E0A0E0B1E0E4EAFFE202C005900D9260
:1005F000AE37B107D9F727E0AEE7B5E001C01D92ED
:10060000A632B207E1F712E0C9EED2E004C02197AA
:10061000FE010E94BA17C83ED107C9F70E941F12F7
:100620000C94C5170C940000FC01538D448D252FAC
:1006300030E0842F90E0821B930B541710F0CF967C
:10064000089501970895FC01918D828D981761F0AE
:10065000828DDF01A80FB11D5D968C91928D9F5FF9
:100660009F73928F90E008958FEF9FEF0895FC01A4
:10067000918D828D981731F0828DE80FF11D858D57
:1006800090E008958FEF9FEF0895FC01918D228DEA
:10069000892F90E0805C9F4F821B91098F7399276F
:1006A000089580E090E0892B29F00E94C50E811109
:1006B0000C94000008950895FC016370658B84819B
:1006C000958126813781613039F0633029F0918737
:1006D0008087338722870895318720879387828791
:1006E00008952F923F924F925F926F927F928F92D6
:1006F0009F92AF92BF92CF92DF92EF92FF920F93B1
:100700001F93CF93DF93CDB7DEB76C970FB6F894F6
:10071000DEBF0FBECDBF9C8F8B8F5B011A011F8385
:100720000E833701C982DC0158964D915C9159972F
:100730004115510509F0E5C018968D919C911997C6
:10074000681779070CF0CAC11A968D919C911B9776
:10075000281639060CF0C2C18C2C912CFB0136E016
:10076000C39EE00DF11D1124FB87EA871E161F06AC
:100770000CF0B4C1C40133E0880F991F3A95E1F73A
:100780009D878C87820D931D181619060CF0A6C143
:1007900057968C91811103C0203B08F02F5FAB8DE1
:1007A000BC8DED91FC9111970284F385E02DCD0174
:1007B0002A8F09952A8DB5E02B9F90011124F50110
:1007C0003596FF87EE87BB82AA822501A9014A19C7
:1007D0005B09598B488BC10108969B8B8A8BE889F2
:1007E000F989E40DF51DE859FF4F9491988761014F
:1007F0003D822C82A885A0FF13C0AB8DBC8DED91EE
:10080000FC91B981B13031F40484F585E02D2E815D
:100810003F8116C00684F785E02DEE80FF801AC068
:10082000EE81FF816E167F06F1F0AB8DBC8DED91F0
:10083000FC91B981B13051F40484F585E02D930128
:10084000A601B2018B8D9C8D09950DC00684F7859C
:10085000E02D7301840194014C815D816A817B816B
:100860008B8D9C8D0995E885E695E887FFEFCF1A7B
:10087000DF0A2C813D81280D391D3D832C834A8957
:100880005B89C416D50609F0B5CF5FEF451A550A46
:100890008A819B81880D991D9B838A83AE85BF8544
:1008A0004A165B0609F09BCFEE81FF816E167F062C
:1008B00009F4F2C0EB8DFC8DA081B181F981F1309A
:1008C00079F4B5016B5F7F4F5096ED91FC91519794
:1008D000830128E030E0A1018B8D9C8D0995DCC05F
:1008E0006A857B85681979091E96ED91FC911F97A1
:1008F00073010C851D859401A1018B8D9C8D09953B
:10090000CBC0FA0134969491329765917491291B6A
:10091000CB01B7E02B9F800D911D1124FA01259189
:1009200034913B8B2A8BFC01459154915B834A8324
:10093000FC013296C490319654915E8732961491A0
:100940003196D4908981823058F0612E012E000CAE
:100950007708AD2D0D2C000CBB0BB987A88704C000
:1009600019861886612C712CAB8DBC8DED91FC9194
:1009700011970284F385E02DCD010995B9818B2E65
:10098000912C689CC001699C900D789C900D11245D
:10099000FC01EA0DFB1DFD87EC871C82712C612C8C
:1009A000E12F110FFF0B95012E0F3F1F3B872A8769
:1009B000AC0CB11CA5014E0F5F1F5F8B4E8BC101AC
:1009C0008D0D911DD7FC9A95998F888F4E85641651
:1009D00008F062C0862D90E048855985480F591F60
:1009E000489D9001499D300D589D300D1124D9012D
:1009F000A20DB31DB98BA88BAA84BB844C845D84E3
:100A0000DC80BA85DB1AE88DF98DE80FF91FFD8BC4
:100A1000EC8B8D2D8A0D2E893F89A216B306B9F174
:100A2000877061F48A819B810196EA89FB89AA819A
:100A3000BB81EA0FFB1F74909B838A8377FE20C0E3
:100A4000AB8DBC8DED91FC91B981B13061F4048422
:100A5000F585E02D2E813F814C895D89B5018B8D17
:100A60009C8D09950DC00684F785E02DEE80FF80F2
:100A70008401940148895989B2018B8D9C8D099517
:100A8000770CEFEFAE1ABE0A480C591CC2CF3C815E
:100A90003C0D3C8363949ACFAB8DBC8DED91FC9162
:100AA00011970688F789E02DCD016C960FB6F89462
:100AB000DEBF0FBECDBFDF91CF911F910F91FF9091
:100AC000EF90DF90CF90BF90AF909F908F907F90EE
:100AD0006F905F904F903F902F9009946C960FB657
:100AE000F894DEBF0FBECDBFDF91CF911F910F9164
:100AF000FF90EF90DF90CF90BF90AF909F908F903E
:100B00007F906F905F904F903F902F900895AF929D
:100B1000BF92CF92EF92FF920F931F93CF93DF93E9
:100B2000EC01262F888D998D009709F040C06A301E
:100B300059F41D861C862C898E859F8538E0239F5D
:100B4000800D911D112441C06D3009F4AAC08E8919
:100B50008823C1F03C898C859D8546E0349F800DBB
:100B6000911D112448855985481759075CF41D8645
:100B70001C868E859F8548E0349F800D911D112431
:100B80009F878E87EA88FB88088919894E855F854B
:100B90006C857D85CC88CE010E9471032C898C8563
:100BA0009D8536E0239F800D911D112442C06A303F
:100BB00079F41D861C862C89FC013696E4918E857D
:100BC0009F852E9F800D911D11249F878E8769C060
:100BD0006D3009F466C0FC0134963491631708F453
:100BE00060C03196E491E61708F45BC0FC013296D0
:100BF000A590B490462F50E0431B510937E0349F35
:100C0000B001359F700D1124A60EB71EF501329666
:100C100034913196E491332311F0E1110DC0F501C7
:100C20003496E4912C898C859D85E29F800D911DE1
:100C300011249D878C8735C0F501359644915E89D6
:100C4000552311F16C89E32FF0E0E40FF11D47FD0E
:100C5000FA956E9FD0016F9FB00D11244C855D8574
:100C60004A0F5B1FE885F985E417F5076CF41D86CC
:100C70001C86FC013696E4918E859F856E9F800DC3
:100C8000911D11249F878E87EA88FB88088919891E
:100C90004E855F856C857D85CC88CE010E94710371
:100CA000BECF81E090E0DF91CF911F910F91FF9037
:100CB000EF90CF90BF90AF9008956F927F928F92F8
:100CC0009F92AF92BF92CF92DF92EF92FF920F93DB
:100CD0001F93CF93DF93EC014B015A016901380157
:100CE000E881F9810284F385E02D0995E881F98195
:100CF0000288F389E02D87019601A501B401CE0198
:100D00000995E881F981A501460D571D415051090A
:100D10000288F389E02D9601B401CE010995E8819E
:100D2000F9810088F189E02D9301A501B401CE017C
:100D30000995E881F981C80CD91CB6016150710987
:100D40000088F189E02D9301A501CE010995E88184
:100D5000F9810688F789E02DCE01DF91CF911F91AF
:100D60000F91FF90EF90DF90CF90BF90AF909F904A
:100D70008F907F906F900994CF92DF92EF92FF92C5
:100D80000F931F93CF93DF9300D000D000D0CDB747
:100D9000DEB76C01DC01ED91FC916217730789F4F9
:100DA000041715072CF4942F852FA801092F182F4D
:100DB000041B150B98012F5F3F4F048CF58DE02D20
:100DC00012C04017510709F5261737072CF4962F44
:100DD000872FB901292F382F261B370B2F5F3F4F45
:100DE000068CF78DE02D8701C601099526960FB672
:100DF000F894DEBF0FBECDBFDF91CF911F910F9151
:100E0000FF90EF90DF90CF9008950284F385E02D5E
:100E10002D833E834B835C8369837A830995D60156
:100E2000ED91FC910488F589E02D2D813E814B8167
:100E30005C8169817A81C6010995D601ED91FC91A9
:100E40000688F789E02DC60126960FB6F894DEBF16
:100E50000FBECDBFDF91CF911F910F91FF90EF900B
:100E6000DF90CF900994EF92FF920F931F93DC01D4
:100E7000ED91FC9111971A960D911C911B97189664
:100E80002D913C91199700A0F1A1E02D7B0140E04C
:100E900050E060E070E009951F910F91FF90EF9096
:100EA00008954F925F926F927F928F929F92AF922E
:100EB000BF92CF92DF92EF92FF920F931F93CF9347
:100EC000DF9300D0CDB7DEB76C015A01390148017C
:100ED000DC01ED91FC910284F385E02D69837A8336
:100EE00009956981462E7A81572E640C751CD601AE
:100EF000ED91FC91461457046CF40088F189E02DC3
:100F000087019401A501B201C6010995BFEF4B1AF3
:100F10005B0AEDCF0688F789E02DC6010F900F9090
:100F2000DF91CF911F910F91FF90EF90DF90CF90C5
:100F3000BF90AF909F908F907F906F905F904F90F9
:100F40000994AF92BF92CF92DF92EF92FF920F93EC
:100F50001F93CF93DF9300D000D0CDB7DEB75C01F5
:100F60006901DC01ED91FC910284F385E02D4B8356
:100F70005C8369837A830995D501ED91FC91698140
:100F80007A819B012C0D3D1D215031090488F58982
:100F9000E02D78014B815C818A01C5010995D5015D
:100FA000ED91FC910688F789E02DC5010F900F9017
:100FB0000F900F90DF91CF911F910F91FF90EF90C5
:100FC000DF90CF90BF90AF900994AF92BF92CF9235
:100FD000DF92EF92FF920F931F93CF93DF9300D096
:100FE00000D0CDB7DEB75C016901DC01ED91FC9169
:100FF0000284F385E02D4B835C8369837A830995B2
:10100000D501ED91FC914B815C81C40ED51EB1E000
:10101000CB1AD1080488F589E02D78018601698111
:101020007A819B01C5010995D501ED91FC91068856
:10103000F789E02DC5010F900F900F900F90DF9171
:10104000CF911F910F91FF90EF90DF90CF90BF90C5
:10105000AF9009940895EF92FF920F931F93DC01D4
:10106000ED91FC9100A0F1A1E02D09951F910F9148
:10107000FF90EF9008950F931F93DC01ED91FC9189
:10108000068CF78DE02D09951F910F9108950F9310
:101090001F93DC01ED91FC91048CF58DE02D0995F9
:1010A0001F910F910895DC01ED91FC910084F18571
:1010B000E02D099408952F923F924F925F926F9284
:1010C0007F928F929F92AF92BF92CF92DF92EF92D8
:1010D000FF920F931F93CF93DF9300D01F92CDB752
:1010E000DEB74C017B836A836A01590117019801BD
:1010F000241B350B37FF03C0319521953109C501FC
:101100004A815B81841B950B97FF03C09195819564
:10111000910951E059838217930714F019820BC08B
:101120009A2D8B2D5801092F182F9A818B81DB82E4
:10113000CA82C92ED82E8A819B81A816B9065CF472
:101140009C2D8D2D6801092F182F9A818B81BB82D0
:10115000AA82A92EB82E2501AA81BB814A1A5B0A50
:1011600038016C187D0877FE03C071946194710892
:10117000720157FE03C0BFEFEB1AFB0AF594E79428
:10118000C016D1061CF00FEF1FEF1FC001E010E0EA
:101190001CC0D401ED91FC91B9810484F585E02D4A
:1011A0009101BB23C1F04A815B81B601C40109955D
:1011B000E618F708F7FE04C0C00ED11EE40CF51CBB
:1011C000EA81FB813196FB83EA834A815B81A41625
:1011D000B506FCF604C0A6016A817B81E7CF0F90BB
:1011E0000F900F90DF91CF911F910F91FF90EF9093
:1011F000DF90CF90BF90AF909F908F907F906F9037
:101200005F904F903F902F9008950F931F93CF932F
:10121000DF93DC0155968C915597823071F08330C5
:1012200009F1813009F08CC01496ED91FC9115976D
:10123000E41BF50BE21BF30B20C01496ED91FC911F
:101240001597CF01861B970BBC016150710916964B
:10125000ED91FC911797CF01841B950BAC01421BBC
:10126000530B6EC01696ED91FC911797CF01861B1C
:10127000970BBC0161507109FA0177FD1BC11696ED
:101280008D919C911797681779070CF013C1F7FFA0
:1012900004C02E0F3F1FE0E0F0E014968D919C916A
:1012A0001597AF01420F531F841795071CF49C013B
:1012B0002E1B3F0B121613060CF0FCC0CB0177FD62
:1012C000079643E0959587954A95E1F79695982F6F
:1012D000882797958795E80FF91FE050FF4F6770B3
:1012E000772781E090E001C0880F6A95EAF7482FE0
:1012F0000130110541F088F00230110509F0DAC023
:101300002E0F3F1F15C02E0F3F1FE217F30709F4E2
:10131000D1C08081842B8193F8CF80952E0F3F1F01
:10132000E217F30709F4C6C0908198239193F8CF90
:10133000E217F30709F4BEC0808184278193F8CFB8
:1013400077FDB8C014968D919C9115976817790711
:101350000CF0B0C057FF04C0240F351F40E050E030
:1013600016968D919C911797FA01E20FF31F8E1735
:101370009F071CF49C01241B350B121613060CF05E
:1013800099C0A22F842F86958695869590E8899F8F
:10139000600D711D1124FB01E050FF4F4770A9F152
:1013A00098E0941B492F50E0EA01C25FDA4F888130
:1013B000291790F4421B51092FEF30E002C03595F8
:1013C00027954A95E2F782230130110541F068F034
:1013D0000230110589F06EC00130110519F4208129
:1013E000822B0CC00130110520F4809520818223CE
:1013F00005C00230110531F4208182278083A917AE
:1014000008F458C0A91BE058FF4FA83048F102303B
:10141000110559F4EF018A2F988190959883C0584F
:10142000DF4F88508830C0F730C081E001301105AF
:1014300009F080E08195EF019A2F8883C058DF4F33
:1014400098509830D0F788EF8A0F869586958695C4
:1014500090E8899FE00DF11D1124E058FF4FA7701F
:10146000AA2341F1B0E0AA5FBA4F8C910130110577
:1014700029F038F002301105D1F01CC09081892B81
:1014800018C080959081892314C088EF8A0F8695B3
:101490008695869590E8899FE00DF11D1124E0580E
:1014A000FF4FA77039F0B0E0AA5FBA4F8C919081DE
:1014B00089278083DF91CF911F910F9108950F931A
:1014C0001F93CF93DF93DC01FB0155968C915597C9
:1014D000823081F0833019F1813051F514968D916D
:1014E0009C911597BC01641B750BAB0141505109D0
:1014F000BF0181C014966D917C911597CB018E1B15
:101500009F0BFC0116968D919C911797BC01641B53
:10151000750BAB0141505109E21BF30B09C0169644
:101520006D917C9117976E1B7F0B621B730B63C0D1
:1015300057FD1CC116968D919C9117974817590716
:101540000CF014C1F7FF04C02E0F3F1FE0E0F0E0E5
:1015500014968D919C911597BF01620F731F86178A
:1015600097071CF49C012E1B3F0B121613060CF060
:10157000FDC0CA0157FD079663E0959587956A956A
:10158000E1F79695982F882797958795E80FF91F8B
:10159000E050FF4F4770552781E090E001C0880F71
:1015A0004A95EAF7482F0130110541F088F00230E2
:1015B000110509F0DBC02E0F3F1F15C02E0F3F1F76
:1015C000E217F30709F4D2C08081842B8193F8CF0E
:1015D00080952E0F3F1FE217F30709F4C7C09081D3
:1015E00098239193F8CFE217F30709F4BFC08081E5
:1015F00084278193F8CF57FDB9C014968D919C91A3
:101600001597481759070CF0B1C077FF04C0260F93
:10161000371F60E070E016968D919C911797FB0143
:10162000E20FF31F8E179F071CF49C01261B370B3C
:10163000121613060CF09AC0A22F862F8695869557
:10164000869590E8899F400D511D1124FA01E050C4
:10165000FF4F6770A9F198E0961B492F50E0EA010F
:10166000C25FDA4F8881291790F4421B51092FEF8E
:1016700030E002C0359527954A95E2F78223013084
:10168000110541F068F00230110589F06FC001309A
:10169000110519F42081822B0CC00130110520F4B2
:1016A00080952081822305C00230110531F420810C
:1016B00082278083A91708F459C0A91BE058FF4F5F
:1016C000A83048F10230110559F4EF018A2F9881B2
:1016D00090959883C058DF4F88508830C0F731C04C
:1016E00081E00130110509F080E08195EF019A2F2A
:1016F0008883C058DF4F98509830D0F788EF8A0F12
:1017000086958695869560E8869FE00DF11D1124EB
:10171000E058FF4FA770AA2349F1B0E0AA5FBA4F83
:101720008C910130110529F038F002301105D9F003
:101730001DC09081892B03C080959081892380836F
:1017400015C088EF8A0F86958695869570E8879FE5
:10175000E00DF11D1124E058FF4FA77039F0B0E003
:10176000AA5FBA4F8C9190818927E9CFDF91CF9101
:101770001F910F910895FC0177FD9AC08085918596
:10178000681779070CF094C057FD92C08285938545
:10179000481759070CF08CC08589823009F07CC04D
:1017A00084819581DC01A61BB70BBD0161507109D5
:1017B00086819781FC01E41BF50BAF014150510973
:1017C0000AC0813041F484819581841B950BAB0163
:1017D000BC01615071092130310529F008F1223036
:1017E0003105E1F10895FA0157FD3796A3E0F5952B
:1017F000E795AA95E1F7F695FE2FEE27F795E79581
:101800006E0F7F1FFB01E050FF4F4770552781E0AF
:1018100090E001C0880F4A95EAF79081892B3AC081
:10182000FA0157FD379623E0F595E7952A95E1F7FC
:10183000F695FE2FEE27F795E7956E0F7F1FFB01BC
:10184000E050FF4F4770552781E090E001C0880FBE
:101850004A95EAF78095908189231CC0FA0157FDCB
:10186000379683E0F595E7958A95E1F7F695FE2F93
:10187000EE27F795E7956E0F7F1FFB01E050FF4FB6
:101880004770552781E090E001C0880F4A95EAF73C
:101890009081892780830895833009F092CF8681D3
:1018A0009781861B970BBA01AC014150510993CF28
:1018B00008950895E091E7058091E805E81730F470
:1018C000F0E0E953FA4F808190E008958FEF9FEFA9
:1018D00008959091E7058091E805981750F4E92F55
:1018E000F0E0E953FA4F208130E09F5F9093E705E5
:1018F00002C02FEF3FEFC90108958091E80590E005
:101900002091E705821B91090895089580E090E0F9
:10191000089585ED8093BC008091BC0084FDFCCFD0
:101920001092100608954091A005262F30E0240F54
:10193000311D21323105DCF4209110062430C9F428
:10194000FC0180E090E0861758F43091A0052191C9
:10195000DC01A258BA4FA30FB11D2C930196F3CF0F
:101960008091A005680F6093A00580E0089581E054
:10197000089582E00895CF92DF92EF92FF920F9345
:101980001F93CF93DF937C01262F972F8A0180919D
:101990001106882391F0C62FD72F6E01C40ED51ED5
:1019A000CC15DD0571F06991D701ED91FC910190A5
:1019B000F081E02DC7010995F3CF642F822F0E949B
:1019C000930CC801DF91CF911F910F91FF90EF9081
:1019D000DF90CF900895CF93DF931F92CDB7DEB7FE
:1019E0006983209111062223D1F020913306203201
:1019F00040F021E030E0FC013383228380E090E07E
:101A000015C080911206E82FF0E0ED5EF94F998144
:101A100090838F5F809312068093330605C061E048
:101A2000CE0101960E94930C81E090E00F90DF912F
:101A3000CF9108950C940017FC01848DDF01A80F4D
:101A4000B11DA35ABF4F2C91848D90E001968F73E6
:101A50009927848FA689B7892C93A089B1898C9105
:101A600080648C93938D848D981306C00288F389CB
:101A7000E02D80818F7D80830895CF93DF93EC01EB
:101A8000888D8823C9F0EA89FB89808185FD05C09E
:101A9000A889B9898C9186FD0FC00FB607FCF5CFD8
:101AA000808185FFF2CFA889B9898C9185FFEDCF20
:101AB000CE010E941C0DE7CFDF91CF9108951F92B8
:101AC0000F920FB60F9211240F900FBE0F901F9020
:101AD00018951F920F920FB60F9211242F933F93D8
:101AE0004F935F936F937F938F939F93AF93BF9326
:101AF000EF93FF938091B900887F803609F49CC0F2
:101B000068F5883209F45BC090F4803109F454C060
:101B100038F4882309F4F6C0883009F44DC0F6C0C3
:101B2000883109F44CC0803209F45DC0EFC08034C4
:101B300009F468C048F4803309F455C0883309F0CB
:101B4000E5C080930E06D8C0803509F44FC08835B3
:101B500009F45DC0883409F0D9C0D6C0883909F4C9
:101B6000C7C0A8F4883709F467C038F4883609F488
:101B700063C0803709F460C0C9C0883809F4B8C0B0
:101B8000803909F45FC0803809F0C0C05BC0803B79
:101B900009F486C038F4803A09F466C0883A09F43A
:101BA0007FC0B4C0803C09F4A7C0883C09F4A4C03D
:101BB000883B09F48AC0AAC08091EB0510C09091BF
:101BC0000D0680910C06981770F5E0910D0681E0E6
:101BD0008E0F80930D06F0E0E451FA4F80818093E0
:101BE000BB0085EC86C080930E068EC0E0910D068A
:101BF00081E08E0F80930D068091BB00F0E0E451F0
:101C0000FA4F808390910D0680910C066EC0E09192
:101C10000D0681E08E0F80930D068091BB00F0E0F1
:101C2000E451FA4F808380910F0681116DC081E0ED
:101C30008093EA0584EA61C083E0809310061092E5
:101C4000C405CFCF8091C405803208F051C0E09127
:101C5000C40581E08E0F8093C4058091BB00F0E045
:101C6000EC55FA4F8083BDCF85EC8093BC00109279
:101C700010068091C405803230F4E091C405F0E094
:101C8000EC55FA4F10826091C40570E0E091A20516
:101C9000F091A30584EA95E009951092C40536C039
:101CA00084E0809310061092A1051092A005E091A7
:101CB0009E05F0919F0509958091A005811105C0B1
:101CC00081E08093A00510927E05E091A10581E05E
:101CD0008E0F8093A105F0E0E258FA4F8081809347
:101CE000BB009091A1058091A005981708F479CFC9
:101CF00085E88093BC000AC085EC8093BC001092FC
:101D0000100604C010920E060E94890CFF91EF91FC
:101D1000BF91AF919F918F917F916F915F914F9103
:101D20003F912F910F900FBE0F901F90189508951F
:101D3000CF92DF92EF92FF920F931F93CF93DF9397
:101D40006C017A018B01C0E0D0E0CE15DF0589F08F
:101D5000D8016D918D01D601ED91FC910190F0813A
:101D6000E02DC6010995892B11F47E0102C0219650
:101D7000ECCFC701DF91CF911F910F91FF90EF90B2
:101D8000DF90CF9008950E94C01784E396E00E94F0
:101D9000450321E0892B09F420E0822F0895EF927A
:101DA000FF920F931F93CF93DF93EC0181E0888F15
:101DB0009B8D8C8D981305C0E889F989808185FDFC
:101DC00024C0F62E0B8D10E00F5F1F4F0F731127ED
:101DD000E02E8C8DE8120CC00FB607FCFACFE88914
:101DE000F989808185FFF5CFCE010E941C0DF1CFCE
:101DF0008B8DFE01E80FF11DE35AFF4FF0820B8F30
:101E0000EA89FB898081806207C0EE89FF8960834F
:101E1000E889F98980818064808381E090E0DF91A6
:101E2000CF911F910F91FF90EF9008951F920F9205
:101E30000FB60F9211242F933F934F935F936F939D
:101E40007F938F939F93AF93BF93EF93FF9384E31D
:101E500096E00E941C0DFF91EF91BF91AF919F9171
:101E60008F917F916F915F914F913F912F910F9043
:101E70000FBE0F901F9018951F920F920FB60F92E2
:101E800011242F938F939F93EF93FF93E091440638
:101E9000F09145068081E0914A06F0914B0682FD63
:101EA00012C0908180914D068F5F8F7320914E06F6
:101EB000821751F0E0914D06F0E0EC5CF94F958F00
:101EC00080934D0601C08081FF91EF919F918F918A
:101ED0002F910F900FBE0F901F901895382F2091C3
:101EE000330690912107213208F049C080911006F5
:101EF0008111FCCF42E04093100630930F063FEF74
:101F000030930E0610920D0620930C06A3E1B6E066
:101F10004CEE55E0FA013E2F341B321718F43D9178
:101F20003193F9CF1092EB052091EB05990F922B8D
:101F30009093EB059091EA05913061F41092EA05D7
:101F40009091EB059093BB009091BC0093FDF8CF6E
:101F500095EC01C095EE9093BC00909110069230E4
:101F6000E1F390910E069F3F79F080910E0680324A
:101F700041F080910E06803331F084E005C081E0AD
:101F800003C082E001C083E0109212061092330673
:101F90001092110608959091FE06992339F08EBD96
:101FA00000000DB407FEFDCF8EB5089528E030E0A7
:101FB00040E8E0910107F0910207508190910807F5
:101FC000909595239083E091FF06F0910007909102
:101FD0000707542F582319F05081952B03C05081C7
:101FE000909595239083E0910107F091020750812D
:101FF00090910807952B9083469521503109C9F699
:1020000008953FB7F89480911D0790911E07A09105
:102010001F07B091200726B5A89B05C02F3F19F0D8
:102020000196A11DB11D3FBFBA2FA92F982F882758
:10203000820F911DA11DB11DBC01CD0142E0660FB3
:10204000771F881F991F4A95D1F70895CF93C82FFE
:102050008091F9068F3F59F1E0910307F091040751
:10206000808190910907982B9083E0910507F0916A
:102070000607208190910A07909592239083E09122
:102080000307F0910407208190910907909592230E
:1020900090838C2F0E94CB0FE0910307F0910407EF
:1020A000908180910907892B8083CF910895809139
:1020B000F70691E090931106809321071092120683
:1020C0001092330660E081ED96E00E94EB0C6C2FDD
:1020D00081ED96E00E94EB0C81E0CF910C946E0FA5
:1020E000EF92FF920F931F93CF93DF9381E20E94B1
:1020F000261080E00E9426108FE70E94261082E2C0
:102100000E94261080E00E94261087E00E94261080
:102110008091F9068F3F79F1E0910307F091040770
:10212000908180910907892B8083E0910507F091C8
:102130000607908180910A07892B8083E09103072D
:10214000F09104079081809109078095892380830D
:10215000C0E0D1E089910E94CB0F85E0C030D80764
:10216000C9F7E0910307F091040790818091090776
:10217000892B808331C0F090B8008CE08093B80048
:10218000C0E0D1E0EE24E3948091F706E0921106DE
:1021900080932107109212061092330660E481EDBD
:1021A00096E00E94EB0C00E010E0FE01E00FF11F52
:1021B000608181ED96E00E94EB0C0F5F1F4F0031B4
:1021C000110599F781E00E946E0F609685E0C0309E
:1021D000D807D1F6F092B800DF91CF911F910F91FF
:1021E000FF90EF900895009769F0FC0101900020A6
:1021F000E9F73197AF01481B590BBC0184E396E026
:102200000C94980E80E090E00895833081F028F4DB
:10221000813099F08230A1F008958730A9F088309C
:10222000B9F08430D1F4809180008F7D03C080911B
:1022300080008F7780938000089584B58F7702C0E7
:1022400084B58F7D84BD08958091B0008F7703C0E1
:102250008091B0008F7D8093B00008951F93CF933D
:10226000DF93282F30E0F901E554FA4F8491F9010A
:10227000E955FA4FD491F901ED56FA4FC491CC23A8
:10228000C9F0162F81110E940511EC2FF0E0EE0F1E
:10229000FF1FE757FA4FA591B4918FB7F89411112A
:1022A00005C09C91ED2FE095E92302C0EC91ED2B48
:1022B000EC938FBFDF91CF911F910895CF93DF9360
:1022C00090E0FC01E955FA4F2491FC01ED56FA4FDC
:1022D0008491882361F190E0880F991FFC01E158F7
:1022E000FA4FC591D491FC01E757FA4FA591B491EB
:1022F000611109C09FB7F894888120958223888353
:10230000EC912E230BC0623061F49FB7F8943881B2
:10231000822F809583238883EC912E2B2C939FBF53
:1023200006C08FB7F894E8812E2B28838FBFDF91EA
:10233000CF9108958F929F92AF92BF92CF92DF92EA
:10234000EF92FF926B017C010E9401104B015C0136
:10235000C114D104E104F104F1F00E940110DC0188
:10236000CB0188199909AA09BB09883E9340A105A8
:10237000B10570F321E0C21AD108E108F10888EE36
:10238000880E83E0981EA11CB11CC114D104E10485
:10239000F10419F7DDCFFF90EF90DF90CF90BF9061
:1023A000AF909F908F9008951F920F920FB60F924B
:1023B00011242F933F938F939F93AF93BF9380915B
:1023C000190790911A07A0911B07B0911C07309133
:1023D000180723E0230F2D3720F40196A11DB11D0E
:1023E00005C026E8230F0296A11DB11D20931807F2
:1023F0008093190790931A07A0931B07B0931C07AB
:1024000080911D0790911E07A0911F07B091200792
:102410000196A11DB11D80931D0790931E07A093E7
:102420001F07B0932007BF91AF919F918F913F916C
:102430002F910F900FBE0F901F9018950895CF9376
:10244000DF93CDB7DEB7AB970FB6F894DEBF0FBE04
:10245000CDBF789484B5826084BD84B5816084BD2D
:1024600085B5826085BD85B5816085BD80916E0032
:10247000816080936E001092810080918100826063
:1024800080938100809181008160809381008091A0
:1024900080008160809380008091B100846080938F
:1024A000B1008091B00081608093B00080917A008B
:1024B000846080937A0080917A00826080937A00B1
:1024C00080917A00816080937A0080917A008068A0
:1024D00080937A001092C100E0914406F091450685
:1024E00012E01083E0914006F09141061082E091E5
:1024F0004206F09143068FEC808310924C06E091E7
:102500004806F091490686E08083E0914606F09106
:102510004706808180618083E0914606F0914706FE
:10252000808188608083E0914606F0914706808133
:1025300080688083E0914606F091470680818F7D18
:10254000808380E795E00E94F3108EE695E00E947C
:10255000F31081E795E00E94F3108EE695E00E946B
:10256000F31060E082E00E945E111093F8068CE3A5
:102570008093F7068091F9068F3F09F4BDC061E0B2
:102580008091FB060E945E1161E08091FD060E9431
:102590005E118091FD06082E000C990BFC01ED5692
:1025A000FA4FE491F0E0EE0FFF1FE757FA4F259145
:1025B00034913093040720930307FC01E955FA4F47
:1025C000E491E09309078091FB06082E000C990B1B
:1025D000FC01ED56FA4FE491F0E0EE0FFF1FE757D4
:1025E000FA4F259134913093060720930507FC019B
:1025F000E955FA4FE491E0930A078091FE068111B4
:102600003EC061E08091F9060E945E1161E0809118
:10261000FA060E945E118091FA06082E000C990BB2
:10262000FC01ED56FA4FE491F0E0EE0FFF1FE75783
:10263000FA4F259134913093020720930107FC0152
:10264000E955FA4FE491E09308078091F906082EC6
:10265000000C990BFC01ED56FA4FE491F0E0EE0FFF
:10266000FF1FE757FA4F25913491309300072093CD
:10267000FF06FC01E955FA4FE491E09307078091CA
:10268000FE06882309F45FC01FB7F8948091E9051E
:10269000811127C0EDE9F5E08491E1EBF5E094913B
:1026A000E82FF0E0EE0FFF1FE158FA4FA591B4912B
:1026B000EC91E92321F461E08AE00E942E1161E0AF
:1026C0008AE00E945E118CB580618CBD8CB58064FF
:1026D0008CBD61E08DE00E945E1161E08BE00E94A4
:1026E0005E118091E9058F5F8093E9051FBF80E54A
:1026F0008CBD81E08DBD27C01092E7051092E805E2
:1027000010921206109233061092100681E0809308
:102710000F061092EA0561E082E10E942E1161E04D
:1027200083E10E942E118091B9008E7F8093B900C1
:102730008091B9008D7F8093B90088E48093B800C0
:1027400085E48093BC008091FC0687FD1EC061E09B
:102750000E945E1161E08091FC060E942E1161E0F2
:1027600070E080E090E00E949A1160E08091FC06A9
:102770000E942E116AE070E080E090E00E949A11C1
:1027800061E08091FC060E942E118EEA0E942610C4
:1027900085ED0E94261080E80E94261088EA0E949B
:1027A00026108FE30E94261083ED0E94261080E001
:1027B0000E94261080E40E9426108DE80E942610B8
:1027C00084E10E94261080E20E94261080E00E9490
:1027D000261081EA0E94261088EC0E9426108AEDBD
:1027E0000E94261082E10E94261081E80E94261095
:1027F0008FEC0E94261089ED0E94261081EF0E9426
:1028000026108BED0E94261080E40E94261084EA98
:102810000E94261086EA0E9426108EE20E94261050
:102820008FEA0E94261008E615E0F8016491611114
:1028300009C08091220790912307009791F486E2C6
:1028400097E00FC0E0913406F09135060190F081D9
:10285000E02D84E396E009950F5F1F4F892B29F740
:10286000E8CF9E012F5F3F4F6901C81AD90A0D2C8E
:10287000000CEE08FF08F7FE2BC0E0913406F09143
:1028800035060190F081E02D6DE284E396E0099534
:1028900022273327A9012C193D094E095F0919A2E6
:1028A0008E010F5D1F4F7AE0C72ED12CE12CF12C49
:1028B000CA01B901A70196010E949817605DF8014D
:1028C00062938F01211531054105510589F71AC021
:1028D000A701960119A28E010F5D1F4F6AE0C62E57
:1028E000D12CE12CF12CCA01B901A70196010E945B
:1028F0009817605DF80162938F012115310541053C
:10290000510589F7C8010E94F3108EE695E00E94F8
:10291000F31084E396E00E943D0DEDEBF5E0849129
:10292000E9EAF5E00491E5E9F5E01491112309F4F1
:1029300062C181110E940511E12FF0E0EE0FFF1F2F
:10294000EB58FA4FA591B4918C91082309F453C127
:10295000809110068111FCCFF1E0F0931006F09306
:102960000F062FEF20930E0610920D0637E03093DE
:102970000C06F093EB058091EB0580618093EB05ED
:102980008091EA05813061F41092EA058091EB05AF
:102990008093BB008091BC0083FDF8CF85EC01C023
:1029A00085EE8093BC00809110068130E1F3809128
:1029B0000D06883018F400910D0601C008E0ACEE59
:1029C000B5E0E7ECF5E08E2F27EC35E0821B8017B1
:1029D00018F48D918193F7CF1092E7050093E805E5
:1029E0002DE0E22E27E0F22E10E08091E705081797
:1029F00059F0183061F081ED96E00E94690CF70102
:102A000081937F011F5FF1CF112309F4F4C08091FE
:102A10000D07823009F456C020F4813009F4E9C072
:102A2000EAC0833009F457C0843009F0E4C0E09074
:102A30001207F12C0091110710E040901007512C63
:102A400060900F07712C81E090E0FC01E01BF10B1E
:102A5000FBA3EAA388279927801B910B9C01220FD7
:102A6000331F3DA32CA3A201400F511F9701B301B7
:102A70008DED96E00E945308A201401B510B970177
:102A8000B3018DED96E00E945308B301600F711FF2
:102A90009701A2018DED96E00E945308B301601BDF
:102AA000710B9701A2018DED96E00E945308212C35
:102AB000312C81E090E09FA38EA379A668A65BA647
:102AC0004AA693C0E0E0F1E020E034E0119221500A
:102AD0003040E1F790C04091100750E060910F073F
:102AE00070E00091120710E0041B150B20911107F4
:102AF00030E0261B370BEE24E394F12C8DED96E0AD
:102B00000E945D0676C0EAA1FBA1F7FD0CC0015052
:102B100011092CA13DA12E5F3F4F3DA32CA3E20F35
:102B2000F31FFBA3EAA33FEF231A330A8EA19FA151
:102B300002969FA38EA3EAA1FBA1E80FF91FFBA3B6
:102B4000EAA388A499A4820C931C97016201C00E89
:102B5000D11EA601B4018DED96E00E945308A8A4F1
:102B6000B9A4A218B3089701A601B5018DED96E0AE
:102B70000E94530897016201C01AD10AA601B4014C
:102B80008DED96E00E9453089701A601B5018DEDE9
:102B900096E00E945308CAA4DBA4C20CD31C970180
:102BA000A6015301A00EB11EB5018DED96E00E9465
:102BB00053089701A6016301C01AD10AB6018DED31
:102BC00096E00E9453088AA49BA482189308970158
:102BD000A401B5018DED96E00E9453089701A40170
:102BE000B6018DED96E00E945308201631060CF4D4
:102BF0008ACF0E9470100E9451038FCEE4E3F6E06A
:102C00001382128288EE93E0A0E0B0E08483958383
:102C1000A683B7832AE135E03183208325EC30E0B9
:102C20003587248724EC30E03787268720EC30E096
:102C3000318B208B21EC30E0338B228B22EC30E087
:102C4000358B248B26EC30E0378B268B118E128E41
:102C5000138E148EE1EDF6E0138212828483958345
:102C6000A683B7838CE295E091838083EDEDF6E057
:102C70001382128220E830E03583248380E490E0E0
:102C8000978386833187208793878287158A158665
:102C900014861786168681E0848B2FEF3FEF338BE7
:102CA000228B318B208B868B178A118E108E8EE3B0
:102CB00095E0918380838FEF848F80A3868F858FAB
:102CC00084E0878FEBE0F7E08AE695E091838083EC
:102CD000138612860895CF93DF938230910510F406
:102CE00082E090E0E0912407F091250720E030E0B9
:102CF000C0E0D0E0309711F1408151814817590769
:102D0000C0F04817590761F482819381209719F028
:102D10009B838A832BC0909325078093240726C02A
:102D20002115310519F04217530718F49A01BE0115
:102D3000DF01EF010280F381E02DDCCF21153105A9
:102D400009F1281B390B2430310590F412968D912E
:102D50009C9113976115710521F0FB019383828388
:102D600004C09093250780932407FD01329644C048
:102D7000FD01E20FF31F81939193225031092D93AE
:102D80003C933AC02091220730912307232B41F432
:102D900020910205309103053093230720932207E9
:102DA00020910005309101052115310541F42DB721
:102DB0003EB74091040550910505241B350BE09169
:102DC0002207F0912307E217F307A0F42E1B3F0B15
:102DD0002817390778F0AC014E5F5F4F241735078D
:102DE00048F04E0F5F1F50932307409322078193B3
:102DF000919302C0E0E0F0E0CF01DF91CF91089520
:102E00000F931F93CF93DF93009709F48CC0FC01BD
:102E10003297138212820091240710912507011521
:102E2000110581F420813181820F931F20912207A7
:102E3000309123072817390779F5F0932307E0939A
:102E4000220771C0D80140E050E0AE17BF0750F430
:102E500012962D913C911397AD012115310509F181
:102E6000D901F3CF9D01DA0133832283608171811F
:102E7000860F971F8217930769F4EC012881398127
:102E8000260F371F2E5F3F4F318320838A819B811E
:102E900093838283452B29F4F0932507E09324073D
:102EA00042C01396FC93EE931297ED01499159910C
:102EB0009E01240F351FE217F30771F48081918181
:102EC000840F951F029611969C938E938281938115
:102ED00013969C938E931297E0E0F0E0D80112963F
:102EE0008D919C911397009719F0F8018C01F6CF02
:102EF0008D919C9198012E5F3F4F820F931F2091DF
:102F00002207309123072817390769F4309729F4ED
:102F1000109225071092240702C013821282109388
:102F2000230700932207DF91CF911F910F910895FE
:102F3000A1E21A2EAA1BBB1BFD010DC0AA1FBB1FBD
:102F4000EE1FFF1FA217B307E407F50720F0A21B2F
:102F5000B30BE40BF50B661F771F881F991F1A949C
:102F600069F760957095809590959B01AC01BD01C6
:102F7000CF010895EE0FFF1F0590F491E02D099405
:102F800081E090E0F8940C94C51712E0C9EED2E00D
:102F900004C0FE010E94BA172196CA3ED107C9F7A4
:042FA000F894FFCFD3
:102FA400000000000000000000000000000000001D
:102FB400000000000000000000000000000000000D
:102FC40000000000000000000000000000000000FD
:102FD400000000000000000000000000000000806D
:102FE40080800000000000000000000000000000DD
:102FF400008080C0C000000000000000000000004D
:1030040000000000000000000000000000000000BC
:1030140000000000000000000000000000000000AC
:10302400000000000000000000000000000000009C
:103034000000000080C0E0F0F8FCF8E000000000B0
:1030440000000000000000000000000000808080FC
:10305400808000808000000000808080808000FFED
:10306400FFFF00000000808080800000808000005E
:1030740080FFFF80800080800080808080008080CE
:103084000000000000808000008C8E84000080F826
:10309400F8F88000000000000000000000000000BC
:1030A400F0F0F0F0F0F0F0F0F0F0F0F0E0E0C080DC
:1030B40000E0FCFEFFFFFF7FFFFFFFFFFF000000BB
:1030C4000000000000000000000000FEFFC7010136
:1030D400010183FFFF00007CFEC70101010183FFA2
:1030E400FFFF0038FEC78301010183C7FFFF000013
:1030F40001FFFF010100FFFF0701010100007FFF45
:1031040080000000FFFF7F0000FFFFFF000001FFC1
:10311400FFFF0100000000000000000000000000AC
:10312400030F3F7F7FFFFFFFFFFFFFFFE7C7C78F4F
:103134008F9FBFFFFFC3C0F0FFFFFFFFFFFCFCFC3E
:10314400FCFCFCFCFCF8F8F0F0E0C0000103030315
:10315400030301030300000000010303030301014F
:103164000301000000010303030301010303000042
:10317400000303000000030300000000000000013E
:103184000303030303010000000103010000000323
:103194000301000000000000000000000000000027
:1031A40000000080C0E0F0F9FFFFFFFFFF3F1F0FAA
:1031B40087C7F7FFFF1F1F3DFCF8F8F8F87C7DFF79
:1031C400FFFFFFFFFFFFFF7F3F0F070030300000CE
:1031D40000000000000000000000000000000000EB
:1031E40000000000FEFEFC000000000000000000E3
:1031F40000000000000000000000000000E0C0002B
:10320400000000000000000000003030000000005A
:1032140000000000000000000000000000000000AA
:1032240000C0FEFFFFFFFFFFFFFFFFFF7F7F3F1F89
:103234000F071F7FFFFFF8F8FFFFFFFFFFFEF8E017
:10324400000000010000000000000000FEFE00007D
:1032540000FCFEFC0C06060EFCF80000F0F81C0E48
:103264000606060CFFFFFF0000FEFE00000000FC47
:10327400FEFC00183C7E66E6CE84000006FFFF06D6
:1032840006FCFEFC0C0606060000FEFE0000C0F86C
:10329400FC4E4646464E7C7840183C76E6CECC80C2
:1032A400000000000000000000000000000000001A
:1032B4000000000001070F1F1F3F3F3F3F1F0F0388
:1032C4000000000000000000000000000F0F0000DC
:1032D400000F0F0F000000000F0F000003070E0C7B
:1032E40018180C060F0F0F0000010F0E0C180C0F0E
:1032F400070100040E0C180C0F070000000F0F004C
:10330400000F0F0F0000000000000F0F0000000767
:10331400070C0C181C0C060600040E0C180C0F07E6
:103324000000000000000000000000000000000099
:103334000000000000000000000000000000000089
:103344000000000000000000000000000000000079
:103354000000000000000000000000000000000069
:103364000000000000000000000000000000000059
:103374000000000000000000000000000000000049
:103384000000000000000000000000000000000039
:103394000000000000000000000000000000000029
:1033A400000026078000000103070F1F3F7F0080F5
:1033B400C0E0F0F8FCFE00000000CF0E980E1403ED
:1033C4003D0D45032303370300000000EB0CBB0C49
:1033D400860C590C7D0C690C5A0C00000000870502
:1033E400980E860C850CBB0B5A0853082B0847080B
:1033F4003B085B082A085C035B0305095F0A510765
:103404003307BC065D0600000000970E1A0D0D0A76
:0E341400004F4C454420434C49454E540000A7
:00000001FF
