:100000000C94F0020C9418030C9418030C9418032D
:100010000C9418030C9418030C9418030C941803F4
:100020000C9418030C9418030C9418030C941803E4
:100030000C9418030C9418030C9418030C941803D4
:100040000C946E110C9418030C94380F0C94120F2E
:100050000C9418030C9418030C9418030C941803B4
:100060000C94AC0D0C94180300000000003E5B4F94
:100070005B3E3E6B4F6B3E1C3E7C3E1C183C7E3C08
:10008000181C577D571C1C5E7F5E1C00183C180016
:10009000FFE7C3E7FF0018241800FFE7DBE7FF30A6
:1000A000483A060E2629792926407F050507407F14
:1000B00005253F5A3CE73C5A7F3E1C1C08081C1C87
:1000C0003E7F14227F22145F5F005F5F06097F017D
:1000D0007F006689956A606060606094A2FFA29468
:1000E00008047E040810207E201008082A1C080836
:1000F0001C2A08081E101010100C1E0C1E0C303884
:100100003E3830060E3E0E06000000000000005F84
:1001100000000007000700147F147F14242A7F2AA0
:100120001223130864623649562050000807030062
:10013000001C2241000041221C002A1C7F1C2A08AE
:10014000083E080800807030000808080808000011
:1001500060600020100804023E5149453E00427F85
:10016000400072494949462141494D331814127FD4
:100170001027454545393C4A494931412111090774
:100180003649494936464949291E000014000000F5
:1001900040340000000814224114141414140041C7
:1001A00022140802015909063E415D594E7C121184
:1001B000127C7F494949363E414141227F414141BC
:1001C0003E7F494949417F090909013E4141517337
:1001D0007F0808087F00417F41002040413F017FA8
:1001E000081422417F404040407F021C027F7F0470
:1001F00008107F3E4141413E7F090909063E4151B9
:10020000215E7F09192946264949493203017F01A8
:10021000033F4040403F1F2040201F3F4038403FA9
:10022000631408146303047804036159494D4300BF
:100230007F4141410204081020004141417F0402F6
:10024000010204404040404000030708002054548D
:1002500078407F284444383844444428384444286B
:100260007F385454541800087E090218A4A49C78BE
:100270007F0804047800447D40002040403D007F1A
:100280001028440000417F40007C047804787C08FA
:100290000404783844444438FC18242418182424CE
:1002A00018FC7C08040408485454542404043F44B3
:1002B000243C4040207C1C2040201C3C4030403CE2
:1002C00044281028444C9090907C4464544C440042
:1002D00008364100000077000000413608000201A6
:1002E0000204023C2623263C1EA1A161123A404092
:1002F000207A38545455592155557941225454780F
:1003000042215554784020545579400C1E527212A7
:100310003955555559395454545939555454580030
:1003200000457C410002457D420001457C407D1234
:1003300011127DF0282528F07C5455450020545496
:100340007C547C0A097F4932494949323A44444441
:100350003A324A4848303A4141217A3A424020787C
:10036000009DA0A07D3D4242423D3D4040403D3C7D
:1003700024FF2424487E4943662B2FFC2F2BFF09A2
:1003800029F620C0887E0903205454794100004496
:100390007D413048484A32384040227A007A0A0A81
:1003A000727D0D19317D2629292F282629292926F4
:1003B00030484D4020380808080808080808382F39
:1003C00010C8ACBA2F102834FA00007B00000814C3
:1003D0002A142222142A14085500550055AA55AA99
:1003E00055AAFF55FF55FF000000FF00101010FF39
:1003F00000141414FF001010FF00FF1010F010F094
:10040000141414FC001414F700FF0000FF00FF1484
:1004100014F404FC141417101F10101F101F1414D0
:10042000141F00101010F0000000001F101010101A
:100430001F10101010F010000000FF10101010100E
:1004400010101010FF10000000FF140000FF00FF4C
:1004500000001F10170000FC04F4141417101714E8
:1004600014F404F40000FF00F7141414141414140A
:10047000F700F7141414171410101F101F1414147D
:10048000F4141010F010F000001F101F0000001FE7
:1004900014000000FC140000F010F01010FF10FF1A
:1004A000141414FF141010101F00000000F010FFAF
:1004B000FFFFFFFFF0F0F0F0F0FFFFFF0000000093
:1004C00000FFFF0F0F0F0F0F3844443844FC4A4A17
:1004D0004A347E02020606027E027E0263554941CC
:1004E000633844443C04407E201E2006027E020203
:1004F00099A5E7A5991C2A492A1C4C7201724C3017
:100500004A4D4D303048784830BC625A463D3E49ED
:100510004949007E0101017E2A2A2A2A2A44445F91
:10052000444440514A444040444A51400000FF0185
:1005300003E080FF000008086B6B08361236243693
:10054000060F090F060000181800000010100030F8
:1005500040FF0101001F01011E00191D1712003C80
:100560003C3C3C00000000006672656520737261CF
:100570006D203A20004F4C454420434C49454E5491
:1005800000000000000023002600290000000000F9
:10059000240027002A0000000000250028002B006E
:1005A0000404040404040404020202020202030319
:1005B0000303030301020408102040800102040821
:1005C00010200102040810200000000800020100B1
:1005D0000003040700000000000000001516B81119
:1005E00011241FBECFEFD8E0DEBFCDBF15E0A0E0E5
:1005F000B1E0E2EDFFE202C005900D92A237B10733
:10060000D9F727E0A2E7B5E001C01D92A831B207F3
:10061000E1F712E0CFEED2E004C02197FE010E9484
:10062000D117CE3ED107C9F70E94B9110C94DC173F
:100630000C940000FC01538D448D252F30E0842F55
:1006400090E0821B930B541710F0CF9608950197FA
:100650000895FC01918D828D981761F0828DDF01E4
:10066000A80FB11D5D968C91928D9F5F9F73928FA5
:1006700090E008958FEF9FEF0895FC01918D828D9A
:10068000981731F0828DE80FF11D858D90E0089567
:100690008FEF9FEF0895FC01918D228D892F90E0BF
:1006A000805C9F4F821B91098F739927089580E08A
:1006B00090E0892B29F00E94080F81110C94000012
:1006C00008950895FC016370658B8481958126816E
:1006D0003781613039F0633029F091878087338723
:1006E00022870895318720879387828708952F92E4
:1006F0003F924F925F926F927F928F929F92AF92B2
:10070000BF92CF92DF92EF92FF920F931F93CF93FE
:10071000DF93CDB7DEB76C970FB6F894DEBF0FBE90
:10072000CDBF9C8F8B8F5B011A011F830E83370116
:10073000C982DC0158964D915C915997411551053C
:1007400009F0E5C018968D919C9119976817790763
:100750000CF0CAC11A968D919C911B9728163906E8
:100760000CF0C2C18C2C912CFB0136E0C39EE00D35
:10077000F11D1124FB87EA871E161F060CF0B4C179
:10078000C40133E0880F991F3A95E1F79D878C8764
:10079000820D931D181619060CF0A6C157968C9160
:1007A000811103C0203B08F02F5FAB8DBC8DED9114
:1007B000FC9111970284F385E02DCD012A8F0995D4
:1007C0002A8DB5E02B9F90011124F5013596FF8706
:1007D000EE87BB82AA822501A9014A195B09598BC0
:1007E000488BC10108969B8B8A8BE889F989E40DB7
:1007F000F51DE859FF4F9491988761013D822C8245
:10080000A885A0FF13C0AB8DBC8DED91FC91B98183
:10081000B13031F40484F585E02D2E813F8116C07E
:100820000684F785E02DEE80FF801AC0EE81FF81FF
:100830006E167F06F1F0AB8DBC8DED91FC91B98108
:10084000B13051F40484F585E02D9301A601B20185
:100850008B8D9C8D09950DC00684F785E02D730165
:10086000840194014C815D816A817B818B8D9C8D9B
:100870000995E885E695E887FFEFCF1ADF0A2C8116
:100880003D81280D391D3D832C834A895B89C4161F
:10089000D50609F0B5CF5FEF451A550A8A819B81CD
:1008A000880D991D9B838A83AE85BF854A165B069A
:1008B00009F09BCFEE81FF816E167F0609F4F2C02E
:1008C000EB8DFC8DA081B181F981F13079F4B50116
:1008D0006B5F7F4F5096ED91FC915197830128E01B
:1008E00030E0A1018B8D9C8D0995DCC06A857B85EC
:1008F000681979091E96ED91FC911F9773010C857B
:100900001D859401A1018B8D9C8D0995CBC0FA01A9
:1009100034969491329765917491291BCB01B7E07D
:100920002B9F800D911D1124FA01259134913B8B51
:100930002A8BFC01459154915B834A83FC013296DA
:10094000C490319654915E87329614913196D4902A
:100950008981823058F0612E012E000C7708AD2D70
:100960000D2C000CBB0BB987A88704C0198618860C
:10097000612C712CAB8DBC8DED91FC911197028493
:10098000F385E02DCD010995B9818B2E912C689CC2
:10099000C001699C900D789C900D1124FC01EA0D1A
:1009A000FB1DFD87EC871C82712C612CE12F110F40
:1009B000FF0B95012E0F3F1F3B872A87AC0CB11C04
:1009C000A5014E0F5F1F5F8B4E8BC1018D0D911DD9
:1009D000D7FC9A95998F888F4E85641608F062C06F
:1009E000862D90E048855985480F591F489D9001F4
:1009F000499D300D589D300D1124D901A20DB31D14
:100A0000B98BA88BAA84BB844C845D84DC80BA85B6
:100A1000DB1AE88DF98DE80FF91FFD8BEC8B8D2D1E
:100A20008A0D2E893F89A216B306B9F1877061F449
:100A30008A819B810196EA89FB89AA81BB81EA0FA1
:100A4000FB1F74909B838A8377FE20C0AB8DBC8D87
:100A5000ED91FC91B981B13061F40484F585E02D0C
:100A60002E813F814C895D89B5018B8D9C8D0995C7
:100A70000DC00684F785E02DEE80FF80840194018F
:100A800048895989B2018B8D9C8D0995770CEFEFC0
:100A9000AE1ABE0A480C591CC2CF3C813C0D3C83A7
:100AA00063949ACFAB8DBC8DED91FC911197068824
:100AB000F789E02DCD016C960FB6F894DEBF0FBE1E
:100AC000CDBFDF91CF911F910F91FF90EF90DF90FD
:100AD000CF90BF90AF909F908F907F906F905F90DE
:100AE0004F903F902F9009946C960FB6F894DEBF0C
:100AF0000FBECDBFDF91CF911F910F91FF90EF906F
:100B0000DF90CF90BF90AF909F908F907F906F902D
:100B10005F904F903F902F900895AF92BF92CF92E9
:100B2000EF92FF920F931F93CF93DF93EC01262F49
:100B3000888D998D009709F040C06A3059F41D8660
:100B40001C862C898E859F8538E0239F800D911D02
:100B5000112441C06D3009F4AAC08E898823C1F0E8
:100B60003C898C859D8546E0349F800D911D112424
:100B700048855985481759075CF41D861C868E8563
:100B80009F8548E0349F800D911D11249F878E879B
:100B9000EA88FB88088919894E855F856C857D8583
:100BA000CC88CE010E9477032C898C859D8536E008
:100BB000239F800D911D112442C06A3079F41D8657
:100BC0001C862C89FC013696E4918E859F852E9F8C
:100BD000800D911D11249F878E8769C06D3009F4A7
:100BE00066C0FC0134963491631708F460C03196F6
:100BF000E491E61708F45BC0FC013296A590B4902E
:100C0000462F50E0431B510937E0349FB001359F18
:100C1000700D1124A60EB71EF5013296349131964F
:100C2000E491332311F0E1110DC0F5013496E49104
:100C30002C898C859D85E29F800D911D11249D87B7
:100C40008C8735C0F501359644915E89552311F1A5
:100C50006C89E32FF0E0E40FF11D47FDFA956E9FDC
:100C6000D0016F9FB00D11244C855D854A0F5B1F2D
:100C7000E885F985E417F5076CF41D861C86FC01F0
:100C80003696E4918E859F856E9F800D911D11246F
:100C90009F878E87EA88FB88088919894E855F853A
:100CA0006C857D85CC88CE010E947703BECF81E024
:100CB00090E0DF91CF911F910F91FF90EF90CF9037
:100CC000BF90AF9008956F927F928F929F92AF9254
:100CD000BF92CF92DF92EF92FF920F931F93CF9329
:100CE000DF93EC014B015A0169013801E881F98178
:100CF0000284F385E02D0995E881F9810288F38962
:100D0000E02D87019601A501B401CE010995E88186
:100D1000F981A501460D571D415051090288F389FB
:100D2000E02D9601B401CE010995E881F981008892
:100D3000F189E02D9301A501B401CE010995E88167
:100D4000F981C80CD91CB601615071090088F1897C
:100D5000E02D9301A501CE010995E881F98106886E
:100D6000F789E02DCE01DF91CF911F910F91FF9078
:100D7000EF90DF90CF90BF90AF909F908F907F903B
:100D80006F900994CF92DF92EF92FF920F931F938F
:100D9000CF93DF9300D000D000D0CDB7DEB76C0189
:100DA000DC01ED91FC916217730789F404171507B4
:100DB0002CF4942F852FA801092F182F041B150B35
:100DC00098012F5F3F4F048CF58DE02D12C0401726
:100DD000510709F5261737072CF4962F872FB901ED
:100DE000292F382F261B370B2F5F3F4F068CF78D8F
:100DF000E02D8701C601099526960FB6F894DEBF4F
:100E00000FBECDBFDF91CF911F910F91FF90EF905B
:100E1000DF90CF9008950284F385E02D2D833E83EB
:100E20004B835C8369837A830995D601ED91FC91AC
:100E30000488F589E02D2D813E814B815C8169819B
:100E40007A81C6010995D601ED91FC910688F78952
:100E5000E02DC60126960FB6F894DEBF0FBECDBFBB
:100E6000DF91CF911F910F91FF90EF90DF90CF9086
:100E70000994EF92FF920F931F93DC01ED91FC9187
:100E800011971A960D911C911B9718962D913C91D4
:100E9000199700A0F1A1E02D7B0140E050E060E057
:100EA00070E009951F910F91FF90EF9008954F9278
:100EB0005F926F927F928F929F92AF92BF92CF92EA
:100EC000DF92EF92FF920F931F93CF93DF9300D0A7
:100ED000CDB7DEB76C015A0139014801DC01ED9153
:100EE000FC910284F385E02D69837A8309956981F9
:100EF000462E7A81572E640C751CD601ED91FC911B
:100F0000461457046CF40088F189E02D87019401A0
:100F1000A501B201C6010995BFEF4B1A5B0AEDCFDF
:100F20000688F789E02DC6010F900F90DF91CF91D1
:100F30001F910F91FF90EF90DF90CF90BF90AF90F7
:100F40009F908F907F906F905F904F900994AF9299
:100F5000BF92CF92DF92EF92FF920F931F93CF93A6
:100F6000DF9300D000D0CDB7DEB75C016901DC01B2
:100F7000ED91FC910284F385E02D4B835C836983C2
:100F80007A830995D501ED91FC9169817A819B0164
:100F90002C0D3D1D215031090488F589E02D780183
:100FA0004B815C818A01C5010995D501ED91FC91C8
:100FB0000688F789E02DC5010F900F900F900F90D4
:100FC000DF91CF911F910F91FF90EF90DF90CF9025
:100FD000BF90AF900994AF92BF92CF92DF92EF9201
:100FE000FF920F931F93CF93DF9300D000D0CDB724
:100FF000DEB75C016901DC01ED91FC910284F385AF
:10100000E02D4B835C8369837A830995D501ED914B
:10101000FC914B815C81C40ED51EB1E0CB1AD10886
:101020000488F589E02D7801860169817A819B0128
:10103000C5010995D501ED91FC910688F789E02D50
:10104000C5010F900F900F900F90DF91CF911F91DE
:101050000F91FF90EF90DF90CF90BF90AF900994E9
:101060000895EF92FF920F931F93DC01ED91FC9195
:1010700000A0F1A1E02D09951F910F91FF90EF9035
:1010800008950F931F93DC01ED91FC91068CF78D71
:10109000E02D09951F910F9108950F931F93DC0187
:1010A000ED91FC91048CF58DE02D09951F910F9128
:1010B0000895DC01ED91FC910084F185E02D099407
:1010C00008952F923F924F925F926F927F928F92EC
:1010D0009F92AF92BF92CF92DF92EF92FF920F93C7
:1010E0001F93CF93DF9300D01F92CDB7DEB74C0193
:1010F0007B836A836A01590117019801241B350B10
:1011000037FF03C0319521953109C5014A815B81C3
:10111000841B950B97FF03C091958195910951E030
:1011200059838217930714F019820BC09A2D8B2DC7
:101130005801092F182F9A818B81DB82CA82C92E10
:10114000D82E8A819B81A816B9065CF49C2D8D2D22
:101150006801092F182F9A818B81BB82AA82A92E40
:10116000B82E2501AA81BB814A1A5B0A38016C1886
:101170007D0877FE03C0719461947108720157FE77
:1011800003C0BFEFEB1AFB0AF594E794C016D10633
:101190001CF00FEF1FEF1FC001E010E01CC0D401D6
:1011A000ED91FC91B9810484F585E02D9101BB237B
:1011B000C1F04A815B81B601C4010995E618F708C0
:1011C000F7FE04C0C00ED11EE40CF51CEA81FB81C1
:1011D0003196FB83EA834A815B81A416B506FCF64F
:1011E00004C0A6016A817B81E7CF0F900F900F901A
:1011F000DF91CF911F910F91FF90EF90DF90CF90F3
:10120000BF90AF909F908F907F906F905F904F9026
:101210003F902F9008950F931F93CF93DF93DC019E
:1012200055968C915597823071F0833009F1813059
:1012300009F08CC01496ED91FC911597E41BF50B09
:10124000E21BF30B20C01496ED91FC911597CF0192
:10125000861B970BBC01615071091696ED91FC91AC
:101260001797CF01841B950BAC01421B530B6EC02B
:101270001696ED91FC911797CF01861B970BBC0139
:1012800061507109FA0177FD1BC116968D919C91F1
:101290001797681779070CF013C1F7FF04C02E0FDA
:1012A0003F1FE0E0F0E014968D919C911597AF01FF
:1012B000420F531F841795071CF49C012E1B3F0BF4
:1012C000121613060CF0FCC0CB0177FD079643E025
:1012D000959587954A95E1F79695982F8827979544
:1012E0008795E80FF91FE050FF4F6770772781E07F
:1012F00090E001C0880F6A95EAF7482F0130110588
:1013000041F088F00230110509F0DAC02E0F3F1FBE
:1013100015C02E0F3F1FE217F30709F4D1C08081DB
:10132000842B8193F8CF80952E0F3F1FE217F30790
:1013300009F4C6C0908198239193F8CFE217F30780
:1013400009F4BEC0808184278193F8CF77FDB8C0AF
:1013500014968D919C911597681779070CF0B0C081
:1013600057FF04C0240F351F40E050E016968D91C2
:101370009C911797FA01E20FF31F8E179F071CF439
:101380009C01241B350B121613060CF099C0A22FDA
:10139000842F86958695869590E8899F600D711DAE
:1013A0001124FB01E050FF4F4770A9F198E0941B16
:1013B000492F50E0EA01C25FDA4F8881291790F483
:1013C000421B51092FEF30E002C0359527954A9511
:1013D000E2F782230130110541F068F00230110577
:1013E00089F06EC00130110519F42081822B0CC0E8
:1013F0000130110520F480952081822305C0023040
:10140000110531F4208182278083A91708F458C080
:10141000A91BE058FF4FA83048F10230110559F4DC
:10142000EF018A2F988190959883C058DF4F88509C
:101430008830C0F730C081E00130110509F080E04C
:101440008195EF019A2F8883C058DF4F98509830CC
:10145000D0F788EF8A0F86958695869590E8899FC4
:10146000E00DF11D1124E058FF4FA770AA2341F1B0
:10147000B0E0AA5FBA4F8C910130110529F038F025
:1014800002301105D1F01CC09081892B18C08095C5
:101490009081892314C088EF8A0F8695869586955A
:1014A00090E8899FE00DF11D1124E058FF4FA770CF
:1014B00039F0B0E0AA5FBA4F8C9190818927808380
:1014C000DF91CF911F910F9108950F931F93CF93A9
:1014D000DF93DC01FB0155968C915597823081F0AA
:1014E000833019F1813051F514968D919C911597A7
:1014F000BC01641B750BAB0141505109BF0181C098
:1015000014966D917C911597CB018E1B9F0BFC015E
:1015100016968D919C911797BC01641B750BAB01BE
:1015200041505109E21BF30B09C016966D917C9155
:1015300017976E1B7F0B621B730B63C057FD1CC19B
:1015400016968D919C911797481759070CF014C166
:10155000F7FF04C02E0F3F1FE0E0F0E014968D91DE
:101560009C911597BF01620F731F861797071CF494
:101570009C012E1B3F0B121613060CF0FDC0CA0176
:1015800057FD079663E0959587956A95E1F79695DF
:10159000982F882797958795E80FF91FE050FF4F00
:1015A0004770552781E090E001C0880F4A95EAF71F
:1015B000482F0130110541F088F00230110509F083
:1015C000DBC02E0F3F1F15C02E0F3F1FE217F30782
:1015D00009F4D2C08081842B8193F8CF80952E0F9F
:1015E0003F1FE217F30709F4C7C090819823919336
:1015F000F8CFE217F30709F4BFC0808184278193F5
:10160000F8CF57FDB9C014968D919C911597481746
:1016100059070CF0B1C077FF04C0260F371F60E0F8
:1016200070E016968D919C911797FB01E20FF31FC6
:101630008E179F071CF49C01261B370B12161306EE
:101640000CF09AC0A22F862F86958695869590E8F5
:10165000899F400D511D1124FA01E050FF4F677022
:10166000A9F198E0961B492F50E0EA01C25FDA4FDA
:101670008881291790F4421B51092FEF30E002C0F6
:10168000359527954A95E2F782230130110541F0FF
:1016900068F00230110589F06FC00130110519F4AE
:1016A0002081822B0CC00130110520F4809520810F
:1016B000822305C00230110531F420818227808306
:1016C000A91708F459C0A91BE058FF4FA83048F1EA
:1016D0000230110559F4EF018A2F98819095988373
:1016E000C058DF4F88508830C0F731C081E00130EA
:1016F000110509F080E08195EF019A2F8883C05889
:10170000DF4F98509830D0F788EF8A0F86958695EE
:10171000869560E8869FE00DF11D1124E058FF4F8B
:10172000A770AA2349F1B0E0AA5FBA4F8C910130AB
:10173000110529F038F002301105D9F01DC0908153
:10174000892B03C0809590818923808315C088EF01
:101750008A0F86958695869570E8879FE00DF11D26
:101760001124E058FF4FA77039F0B0E0AA5FBA4FDC
:101770008C9190818927E9CFDF91CF911F910F91B3
:101780000895FC0177FD9AC08085918568177907D7
:101790000CF094C057FD92C0828593854817590775
:1017A0000CF08CC08589823009F07CC084819581E1
:1017B000DC01A61BB70BBD016150710986819781C1
:1017C000FC01E41BF50BAF01415051090AC0813007
:1017D00041F484819581841B950BAB01BC01615060
:1017E00071092130310529F008F122303105E1F18C
:1017F0000895FA0157FD3796A3E0F595E795AA9568
:10180000E1F7F695FE2FEE27F795E7956E0F7F1F10
:10181000FB01E050FF4F4770552781E090E001C089
:10182000880F4A95EAF79081892B3AC0FA0157FD53
:10183000379623E0F595E7952A95E1F7F695FE2F83
:10184000EE27F795E7956E0F7F1FFB01E050FF4FE6
:101850004770552781E090E001C0880F4A95EAF76C
:101860008095908189231CC0FA0157FD379683E04B
:10187000F595E7958A95E1F7F695FE2FEE27F79512
:10188000E7956E0F7F1FFB01E050FF4F4770552714
:1018900081E090E001C0880F4A95EAF7908189279E
:1018A00080830895833009F092CF86819781861BCB
:1018B000970BBA01AC014150510993CF0895089597
:1018C000E091D9058091DA05E81730F4F0E0E754AB
:1018D000FA4F808190E008958FEF9FEF08959091E7
:1018E000D9058091DA05981750F4E92FF0E0E75414
:1018F000FA4F208130E09F5F9093D90502C02FEF0F
:101900003FEFC90108958091DA0590E02091D90553
:10191000821B91090895089580E090E0089585ED77
:101920008093BC008091BC0084FDFCCF1092020625
:10193000089540919405262F30E0240F311D213267
:101940003105DCF4209102062430C9F4FC0180E06A
:1019500090E0861758F4309194052191DC01AE583F
:10196000BA4FA30FB11D2C930196F3CF809194052C
:10197000680F6093940580E0089581E0089582E007
:101980000895CF92DF92EF92FF920F931F93CF9320
:10199000DF937C01262F972F8A01809103068823ED
:1019A00091F0C62FD72F6E01C40ED51ECC15DD05C4
:1019B00071F06991D701ED91FC910190F081E02DDA
:1019C000C7010995F3CF642F822F0E94990CC8019B
:1019D000DF91CF911F910F91FF90EF90DF90CF900B
:1019E0000895CF93DF931F92CDB7DEB7698320911F
:1019F00003062223D1F020912606203240F021E078
:101A000030E0FC013383228380E090E015C08091B8
:101A10000406E82FF0E0EB5FF94F998190838F5F28
:101A2000809304068093260605C061E0CE010196EE
:101A30000E94990C81E090E00F90DF91CF91089582
:101A40000C941717FC01848DDF01A80FB11DA35A58
:101A5000BF4F2C91848D90E001968F739927848FCE
:101A6000A689B7892C93A089B1898C9180648C93C5
:101A7000938D848D981306C00288F389E02D8081B0
:101A80008F7D80830895EF92FF920F931F93CF93E2
:101A9000DF93EC0181E0888F9B8D8C8D981305C0BE
:101AA000E889F989808185FD24C0F62E0B8D10E030
:101AB0000F5F1F4F0F731127E02E8C8DE8120CC0A3
:101AC0000FB607FCFACFE889F989808185FFF5CF49
:101AD000CE010E94220DF1CF8B8DFE01E80FF11D8A
:101AE000E35AFF4FF0820B8FEA89FB898081806285
:101AF00007C0EE89FF896083E889F9898081806465
:101B0000808381E090E0DF91CF911F910F91FF9052
:101B1000EF900895CF93DF93EC01888D8823C9F06F
:101B2000EA89FB89808185FD05C0A889B9898C91E6
:101B300086FD0FC00FB607FCF5CF808185FFF2CF81
:101B4000A889B9898C9185FFEDCFCE010E94220D25
:101B5000E7CFDF91CF9108951F920F920FB60F92AA
:101B600011242F933F934F935F936F937F938F93A2
:101B70009F93AF93BF93EF93FF938091B900887FBA
:101B8000803609F49CC068F5883209F45BC090F493
:101B9000803109F454C038F4882309F4F6C0883041
:101BA00009F44DC0F6C0883109F44CC0803209F404
:101BB0005DC0EFC0803409F468C048F4803309F494
:101BC00055C0883309F0E5C080930006D8C0803541
:101BD00009F44FC0883509F45DC0883409F0D9C0D4
:101BE000D6C0883909F4C7C0A8F4883709F467C09B
:101BF00038F4883609F463C0803709F460C0C9C07E
:101C0000883809F4B8C0803909F45FC0803809F019
:101C1000C0C05BC0803B09F486C038F4803A09F448
:101C200066C0883A09F47FC0B4C0803C09F4A7C0FC
:101C3000883C09F4A4C0883B09F48AC0AAC08091FA
:101C4000DD0510C09091FF058091FE05981770F595
:101C5000E091FF0581E08E0F8093FF05F0E0E252F6
:101C6000FA4F80818093BB0085EC86C0809300068C
:101C70008EC0E091FF0581E08E0F8093FF0580917B
:101C8000BB00F0E0E252FA4F80839091FF05809113
:101C9000FE056EC0E091FF0581E08E0F8093FF0589
:101CA0008091BB00F0E0E252FA4F80838091010600
:101CB00081116DC081E08093DC0584EA61C083E01E
:101CC000809302061092B805CFCF8091B80580327C
:101CD00008F051C0E091B80581E08E0F8093B805FF
:101CE0008091BB00F0E0E856FA4F8083BDCF85ECD1
:101CF0008093BC00109202068091B805803230F4C7
:101D0000E091B805F0E0E856FA4F10826091B8050E
:101D100070E0E0919605F091970588E995E00995C6
:101D20001092B80536C084E08093020610929505A3
:101D300010929405E0919205F09193050995809198
:101D40009405811105C081E080939405109272057D
:101D5000E091950581E08E0F80939505F0E0EE58B7
:101D6000FA4F80818093BB009091950580919405F6
:101D7000981708F479CF85E88093BC000AC085ECF9
:101D80008093BC001092020604C0109200060E94CC
:101D90008F0CFF91EF91BF91AF919F918F917F91A8
:101DA0006F915F914F913F912F910F900FBE0F90C8
:101DB0001F9018950895CF92DF92EF92FF920F93A4
:101DC0001F93CF93DF936C017A018B01C0E0D0E0C9
:101DD000CE15DF0589F0D8016D918D01D601ED9109
:101DE000FC910190F081E02DC6010995892B11F439
:101DF0007E0102C02196ECCFC701DF91CF911F91E8
:101E00000F91FF90EF90DF90CF9008950E94D71729
:101E100087E296E00E944B0321E0892B09F420E041
:101E2000822F08951F920F920FB60F9211242F93B5
:101E30003F934F935F936F937F938F939F93AF9352
:101E4000BF93EF93FF9387E296E00E94220DFF91EC
:101E5000EF91BF91AF919F918F917F916F915F9122
:101E60004F913F912F910F900FBE0F901F9018959B
:101E70001F920F920FB60F9211242F938F939F935F
:101E8000EF93FF93E0913706F09138068081E0915F
:101E90003D06F0913E0682FD12C090818091400681
:101EA0008F5F8F7320914106821751F0E0914006B9
:101EB000F0E0E95DF94F958F8093400601C0808185
:101EC000FF91EF919F918F912F910F900FBE0F90E7
:101ED0001F9018953FB7F8948091100790911107C3
:101EE000A0911207B091130726B5A89B05C02F3FFC
:101EF00019F00196A11DB11D3FBFBA2FA92F982F30
:101F00008827820F911DA11DB11DBC01CD0142E0AA
:101F1000660F771F881F991F4A95D1F70895382FAC
:101F20002091260690912506213208F049C0809123
:101F300002068111FCCF42E0409302063093010675
:101F40003FEF309300061092FF052093FE05A5E0B9
:101F5000B6E04EED55E0FA013E2F341B321718F46F
:101F60003D913193F9CF1092DD052091DD05990F58
:101F7000922B9093DD059091DC05913061F41092E5
:101F8000DC059091DD059093BB009091BC0093FD22
:101F9000F8CF95EC01C095EE9093BC0090910206AD
:101FA0009230E1F3909100069F3F79F08091000616
:101FB000803241F080910006803331F084E005C02A
:101FC00081E003C082E001C083E010920406109219
:101FD00026061092030608959091F106992339F090
:101FE0008EBD00000DB407FEFDCF8EB5089528E02C
:101FF00030E040E8E091F406F091F50650819091D0
:10200000FB06909595239083E091F206F091F306FC
:102010009091FA06542F582319F05081952B03C044
:102020005081909595239083E091F406F091F50608
:1020300050819091FB06952B908346952150310954
:10204000C9F60895CF93C82F8091EC068F3F59F1C0
:10205000E091F606F091F70680819091FC06982BAE
:102060009083E091F806F091F90620819091FD06A9
:10207000909592239083E091F606F091F7062081E7
:102080009091FC069095922390838C2F0E94EC0FE8
:10209000E091F606F091F70690818091FC06892B7D
:1020A0008083CF9108958091EA0691E09093030692
:1020B00080932506109204061092260660E084ECB8
:1020C00096E00E94F10C6C2F84EC96E00E94F10CDB
:1020D00081E0CF910C948F0F009769F0FC01019083
:1020E0000020E9F73197AF01481B590BBC0187E28B
:1020F00096E00C94DB0E80E090E008950F931F9320
:10210000CF93DF938C01C0E0D0E0F801EC0FFD1F0E
:102110006491662371F0E0912706F0912806019002
:10212000F081E02D87E296E00995892B11F0219648
:10213000ECCFCE01DF91CF911F910F9108958330A5
:1021400081F028F4813099F08230A1F00895873031
:10215000A9F08830B9F08430D1F4809180008F7D6F
:1021600003C0809180008F7780938000089584B5AC
:102170008F7702C084B58F7D84BD08958091B000B3
:102180008F7703C08091B0008F7D8093B000089559
:102190001F93CF93DF93282F30E0F901E853FA4FD4
:1021A0008491F901EC54FA4FD491F901E056FA4FB9
:1021B000C491CC23C9F0162F81110E949F10EC2FDF
:1021C000F0E0EE0FFF1FEA56FA4FA591B4918FB7DA
:1021D000F894111105C09C91ED2FE095E92302C000
:1021E000EC91ED2BEC938FBFDF91CF911F91089570
:1021F000CF93DF9390E0FC01EC54FA4F2491FC0163
:10220000E056FA4F8491882361F190E0880F991F7E
:10221000FC01E457FA4FC591D491FC01EA56FA4FFC
:10222000A591B491611109C09FB7F8948881209558
:1022300082238883EC912E230BC0623061F49FB718
:10224000F8943881822F809583238883EC912E2BFC
:102250002C939FBF06C08FB7F894E8812E2B28835C
:102260008FBFDF91CF9108958F929F92AF92BF92CF
:10227000CF92DF92EF92FF926B017C010E946A0F76
:102280004B015C01C114D104E104F104F1F00E949E
:102290006A0FDC01CB0188199909AA09BB09883E9C
:1022A0009340A105B10570F321E0C21AD108E108FD
:1022B000F10888EE880E83E0981EA11CB11CC114A1
:1022C000D104E104F10419F7DDCFFF90EF90DF9026
:1022D000CF90BF90AF909F908F9008951F920F92D4
:1022E0000FB60F9211242F933F938F939F93AF9329
:1022F000BF9380910C0790910D07A0910E07B091AC
:102300000F0730910B0723E0230F2D3720F40196A0
:10231000A11DB11D05C026E8230F0296A11DB11D08
:1023200020930B0780930C0790930D07A0930E0743
:10233000B0930F078091100790911107A091120799
:10234000B09113070196A11DB11D809310079093C2
:102350001107A0931207B0931307BF91AF919F91FC
:102360008F913F912F910F900FBE0F901F90189556
:102370000895CF93DF93CDB7DEB7AB970FB6F89440
:10238000DEBF0FBECDBF789484B5826084BD84B5B6
:10239000816084BD85B5826085BD85B5816085BD60
:1023A00080916E00816080936E0010928100809118
:1023B00081008260809381008091810081608093A0
:1023C0008100809180008160809380008091B100C5
:1023D00084608093B1008091B00081608093B000F0
:1023E00080917A00846080937A0080917A00826084
:1023F00080937A0080917A00816080937A00809146
:102400007A00806880937A001092C100E0913706CC
:10241000F091380612E01083E0913306F091340613
:102420001082E0913506F09136068FEC8083109291
:102430003F06E0913B06F0913C0686E08083E09108
:102440003906F0913A06808180618083E0913906F7
:10245000F0913A06808188608083E0913906F0919E
:102460003A06808180688083E0913906F0913A06CF
:1024700080818F7D808381E895E00E947E108EE6CA
:1024800095E00E946C1085E795E00E947E108EE634
:1024900095E00E946C1060E082E00E94F8101093BA
:1024A000EB068CE38093EA068091EC068F3F09F4FB
:1024B000BDC061E08091EE060E94F81061E080915D
:1024C000F0060E94F8108091F006082E000C990B7F
:1024D000FC01E056FA4FE491F0E0EE0FFF1FEA56E0
:1024E000FA4F259134913093F7062093F606FC01BC
:1024F000EC54FA4FE491E093FC068091EE06082E2E
:10250000000C990BFC01E056FA4FE491F0E0EE0F5D
:10251000FF1FEA56FA4F259134913093F906209324
:10252000F806FC01EC54FA4FE491E093FD0680912B
:10253000F10681113EC061E08091EC060E94F81026
:1025400061E08091ED060E94F8108091ED06082E62
:10255000000C990BFC01E056FA4FE491F0E0EE0F0D
:10256000FF1FEA56FA4F259134913093F5062093D8
:10257000F406FC01EC54FA4FE491E093FB068091E1
:10258000EC06082E000C990BFC01E056FA4FE49182
:10259000F0E0EE0FFF1FEA56FA4F25913491309389
:1025A000F3062093F206FC01EC54FA4FE491E09319
:1025B000FA068091F106882309F45FC01FB7F894EA
:1025C0008091DB05811127C0EAEAF5E08491EEEB0A
:1025D000F5E09491E82FF0E0EE0FFF1FE457FA4F7B
:1025E000A591B491EC91E92321F461E08AE00E9485
:1025F000C81061E08AE00E94F8108CB580618CBD43
:102600008CB580648CBD61E08DE00E94F81061E0C3
:102610008BE00E94F8108091DB058F5F8093DB05D3
:102620001FBF80E58CBD81E08DBD27C01092D9050C
:102630001092DA05109204061092260610920206F5
:1026400081E0809301061092DC0561E082E10E9446
:10265000C81061E083E10E94C8108091B9008E7FAC
:102660008093B9008091B9008D7F8093B90088E490
:102670008093B80085E48093BC008091EF0687FDCD
:102680001EC061E00E94F81061E08091EF060E9498
:10269000C81061E070E080E090E00E94341160E0DA
:1026A0008091EF060E94C8106AE070E080E090E040
:1026B0000E94341161E08091EF060E94C8108EEAFA
:1026C0000E94221085ED0E94221080E80E942210B4
:1026D00088EA0E9422108FE30E94221083ED0E945C
:1026E000221080E00E94221080E40E9422108DE8D7
:1026F0000E94221084E10E94221080E20E94221097
:1027000080E00E94221081EA0E94221088EC0E9440
:1027100022108AED0E94221082E10E94221081E89C
:102720000E9422108FEC0E94221089ED0E9422103C
:1027300081EF0E9422108BED0E94221080E40E9403
:10274000221084EA0E94221086EA0E9422108EE261
:102750000E9422108FEA0E94221088E695E00E94D3
:102760007E108091140790911507009711F488E16D
:1027700097E09E012F5F3F4F6901C81AD90A0D2CBF
:10278000000CEE08FF08F7FE2BC0E0912706F09141
:1027900028060190F081E02D6DE287E296E0099530
:1027A00022273327A9012C193D094E095F0919A2D7
:1027B0008E010F5D1F4F8AE0C82ED12CE12CF12C29
:1027C000CA01B901A70196010E94AF17605DF80127
:1027D00062938F01211531054105510589F71AC012
:1027E000A701960119A28E010F5D1F4FBAE0CB2EF3
:1027F000D12CE12CF12CCA01B901A70196010E944C
:10280000AF17605DF80162938F0121153105410515
:10281000510589F7C8010E946C108EE695E00E9470
:102820006C1087E296E00E948A0DEAECF5E0849154
:10283000E6EBF5E00491E2EAF5E01491112309F4E6
:10284000F1C181110E949F10E12FF0E0EE0FFF1FF8
:10285000EE57FA4FA591B4918C91082309F4E2C187
:10286000809102068111FCCFF1E0F0930206F09313
:1028700001062FEF209300061092FF0537E03093FA
:10288000FE05F093DD058091DD0580618093DD0517
:102890008091DC05813061F41092DC058091DD05CA
:1028A0008093BB008091BC0083FDF8CF85EC01C014
:1028B00085EE8093BC00809102068130E1F3809127
:1028C000FF05883018F40091FF0501C008E0AEED67
:1028D000B5E0E9EBF5E08E2F29EB35E0821B8017A0
:1028E00018F48D918193F7CF1092D9050093DA05F2
:1028F000F0E0EF2EF7E0FF2E10E08091D9050817E9
:1029000059F0183061F084EC96E00E946F0CF701EA
:1029100081937F011F5FF1CF112309F483C180915F
:102920000007833009F4DCC078F4813009F45DC01D
:10293000823009F077C1E0E0F1E020E034E011926C
:1029400021503040E1F76EC1843009F4DDC085309C
:1029500009F068C14090040760900307E090020707
:10296000F12C0091050710E0512C712C81E090E0D2
:10297000FC01E01BF10BFBA3EAA388279927801B2E
:10298000910B9C01220F331F3DA32CA3A201400FEA
:10299000511F9701B30180ED96E00E945908A201F2
:1029A000401B510B9701B30180ED96E00E9459083E
:1029B000B301600F711F9701A20180ED96E00E94A4
:1029C0005908B301601B710B9701A20180ED96E0DD
:1029D0000E945908212C312C81E090E09FA38EA306
:1029E00079A668A65BA64AA619C181E20E942210B8
:1029F00080E00E9422108FE70E94221082E20E9453
:102A0000221080E00E94221087E00E942210809114
:102A1000EC068F3F89F1E091F606F091F706908180
:102A20008091FC06892B8083E091F806F091F906ED
:102A300090818091FD06892B8083E091F606F091CC
:102A4000F70690818091FC0680958923808300E0C1
:102A500011E0F80181918F010E94EC0FF5E0003048
:102A60001F07B9F7E091F606F091F7069081809183
:102A7000FC06892B8083D6C0F090B8008CE0809350
:102A8000B80000E011E08091EA0621E020930306FF
:102A900080932506109204061092260660E484ECCA
:102AA00096E00E94F10CC12CD12CF801EC0DFD1D1B
:102AB000608184EC96E00E94F10C3FEFC31AD30AC8
:102AC00080E1C816D10489F781E00E948F0F005F72
:102AD0001F4F95E000301907B1F6F092B800A2C080
:102AE0000091060710E02091050730E040910407AF
:102AF00050E06091030770E0EE24E394F12C80ED48
:102B000096E00E94C2068EC04091040750E060919A
:102B1000030770E00091060710E0041B150B2091DD
:102B2000050730E0261B370BEE24E394F12C80EDF3
:102B300096E00E94630676C0EAA1FBA1F7FD0CC0F7
:102B4000015011092CA13DA12E5F3F4F3DA32CA3A5
:102B5000E20FF31FFBA3EAA33FEF231A330A8EA170
:102B60009FA102969FA38EA3EAA1FBA1E80FF91FE4
:102B7000FBA3EAA388A499A4820C931C9701620189
:102B8000C00ED11EA601B40180ED96E00E94590846
:102B9000A8A4B9A4A218B3089701A601B50180EDB5
:102BA00096E00E94590897016201C01AD10AA60155
:102BB000B40180ED96E00E9459089701A601B50185
:102BC00080ED96E00E945908CAA4DBA4C20CD31C75
:102BD0009701A6015301A00EB11EB50180ED96E04C
:102BE0000E9459089701A6016301C01AD10AB601D3
:102BF00080ED96E00E9459088AA49BA4821893084D
:102C00009701A401B50180ED96E00E945908970153
:102C1000A401B60180ED96E00E9459082016310605
:102C20000CF48ACF0E94570300CEE7E2F6E013824D
:102C3000128288EE93E0A0E0B0E084839583A683BF
:102C4000B7832AE135E03183208325EC30E03587F6
:102C5000248724EC30E03787268720EC30E0318B66
:102C6000208B21EC30E0338B228B22EC30E0358B53
:102C7000248B26EC30E0378B268B118E128E138E30
:102C8000148EE4ECF6E01382128284839583A6838B
:102C9000B7838CE295E091838083E0EDF6E01382C8
:102CA000128220E830E03583248380E490E097832B
:102CB00086833187208793878287158A15861486B5
:102CC0001786168681E0848B2FEF3FEF338B228BA4
:102CD000318B208B868B178A118E108E8EE395E0B8
:102CE000918380838FEF848F80A3868F858F84E08C
:102CF000878FEEEFF6E08AE695E091838083138676
:102D000012860895CF93DF938230910510F482E00C
:102D100090E0E0911607F091170720E030E0C0E066
:102D2000D0E0309711F14081518148175907C0F028
:102D30004817590761F482819381209719F09B838A
:102D40008A832BC0909317078093160726C02115FE
:102D5000310519F04217530718F49A01BE01DF013B
:102D6000EF010280F381E02DDCCF2115310509F15F
:102D7000281B390B2430310590F412968D919C91CB
:102D800013976115710521F0FB019383828304C0C1
:102D90009093170780931607FD01329644C0FD01FA
:102DA000E20FF31F81939193225031092D933C93AD
:102DB0003AC02091140730911507232B41F420913C
:102DC00002053091030530931507209314072091D5
:102DD0000005309101052115310541F42DB73EB7AD
:102DE0004091040550910505241B350BE091140713
:102DF000F0911507E217F307A0F42E1B3F0B2817DD
:102E0000390778F0AC014E5F5F4F2417350748F063
:102E10004E0F5F1F509315074093140781939193B2
:102E200002C0E0E0F0E0CF01DF91CF9108950F9371
:102E30001F93CF93DF93009709F48CC0FC01329766
:102E400013821282009116071091170701151105C0
:102E500081F420813181820F931F209114073091DA
:102E600015072817390779F5F0931507E09314072C
:102E700071C0D80140E050E0AE17BF0750F4129681
:102E80002D913C911397AD012115310509F1D9011F
:102E9000F3CF9D01DA013383228360817181860F34
:102EA000971F8217930769F4EC0128813981260F57
:102EB000371F2E5F3F4F318320838A819B8193830D
:102EC0008283452B29F4F0931707E093160742C03D
:102ED0001396FC93EE931297ED01499159919E013F
:102EE000240F351FE217F30771F480819181840F5D
:102EF000951F029611969C938E93828193811396CF
:102F00009C938E931297E0E0F0E0D80112968D9199
:102F10009C911397009719F0F8018C01F6CF8D91D1
:102F20009C9198012E5F3F4F820F931F20911407B1
:102F3000309115072817390769F4309729F4109252
:102F400017071092160702C01382128210931507FA
:102F500000931407DF91CF911F910F910895A1E283
:102F60001A2EAA1BBB1BFD010DC0AA1FBB1FEE1F03
:102F7000FF1FA217B307E407F50720F0A21BB30B4E
:102F8000E40BF50B661F771F881F991F1A9469F7CA
:102F900060957095809590959B01AC01BD01CF0126
:102FA0000895EE0FFF1F0590F491E02D099481E044
:102FB00090E0F8940C94DC1712E0CFEED2E004C05D
:102FC000FE010E94D1172196C03FD107C9F7F8949E
:022FD000FFCF31
:102FD20000000000000000000000000000000000EF
:102FE20000000000000000000000000000000000DF
:102FF20000000000000000000000000000000000CF
:10300200000000000000000000000000000000803E
:1030120080800000000000000000000000000000AE
:10302200008080C0C000000000000000000000001E
:10303200000000000000000000000000000000008E
:10304200000000000000000000000000000000007E
:10305200000000000000000000000000000000006E
:103062000000000080C0E0F0F8FCF8E00000000082
:1030720000000000000000000000000000808080CE
:10308200808000808000000000808080808000FFBF
:10309200FFFF000000008080808000008080000030
:1030A20080FFFF80800080800080808080008080A0
:1030B2000000000000808000008C8E84000080F8F8
:1030C200F8F880000000000000000000000000008E
:1030D200F0F0F0F0F0F0F0F0F0F0F0F0E0E0C080AE
:1030E20000E0FCFEFFFFFF7FFFFFFFFFFF0000008D
:1030F2000000000000000000000000FEFFC7010108
:10310200010183FFFF00007CFEC70101010183FF73
:10311200FFFF0038FEC78301010183C7FFFF0000E4
:1031220001FFFF010100FFFF0701010100007FFF16
:1031320080000000FFFF7F0000FFFFFF000001FF93
:10314200FFFF01000000000000000000000000007E
:10315200030F3F7F7FFFFFFFFFFFFFFFE7C7C78F21
:103162008F9FBFFFFFC3C0F0FFFFFFFFFFFCFCFC10
:10317200FCFCFCFCFCF8F8F0F0E0C00001030303E7
:103182000303010303000000000103030303010121
:103192000301000000010303030301010303000014
:1031A2000003030000000303000000000000000110
:1031B20003030303030100000001030100000003F5
:1031C20003010000000000000000000000000000F9
:1031D20000000080C0E0F0F9FFFFFFFFFF3F1F0F7C
:1031E20087C7F7FFFF1F1F3DFCF8F8F8F87C7DFF4B
:1031F200FFFFFFFFFFFFFF7F3F0F070030300000A0
:1032020000000000000000000000000000000000BC
:1032120000000000FEFEFC000000000000000000B4
:1032220000000000000000000000000000E0C000FC
:10323200000000000000000000003030000000002C
:10324200000000000000000000000000000000007C
:1032520000C0FEFFFFFFFFFFFFFFFFFF7F7F3F1F5B
:103262000F071F7FFFFFF8F8FFFFFFFFFFFEF8E0E9
:10327200000000010000000000000000FEFE00004F
:1032820000FCFEFC0C06060EFCF80000F0F81C0E1A
:103292000606060CFFFFFF0000FEFE00000000FC19
:1032A200FEFC00183C7E66E6CE84000006FFFF06A8
:1032B20006FCFEFC0C0606060000FEFE0000C0F83E
:1032C200FC4E4646464E7C7840183C76E6CECC8094
:1032D20000000000000000000000000000000000EC
:1032E2000000000001070F1F1F3F3F3F3F1F0F035A
:1032F2000000000000000000000000000F0F0000AE
:10330200000F0F0F000000000F0F000003070E0C4C
:1033120018180C060F0F0F0000010F0E0C180C0FDF
:10332200070100040E0C180C0F070000000F0F001D
:10333200000F0F0F0000000000000F0F0000000739
:10334200070C0C181C0C060600040E0C180C0F07B8
:10335200000000000000000000000000000000006B
:10336200000000000000000000000000000000005B
:10337200000000000000000000000000000000004B
:10338200000000000000000000000000000000003B
:10339200000000000000000000000000000000002B
:1033A200000000000000000000000000000000001B
:1033B200000000000000000000000000000000000B
:1033C20000000000000000000000000000000000FB
:1033D200000018078000000103070F1F3F7F0080D5
:1033E200C0E0F0F8FCFE00000000430DDB0E1A0303
:1033F2008A0D4B0329033D0300000000F10CC10CB0
:103402008C0C5F0C830C6F0C600C000000008D05AF
:10341200DB0E8C0C8B0CC10B6008590831084D086F
:10342200410861083008620361030B09650A570706
:103432003907C206630600000000DA0E200D0D0AED
:02344200000088
:00000001FF
