:100000000C94F8060C9420070C9420070C942007FD
:100010000C9420070C9420070C9420070C942007C4
:100020000C9420070C9420070C9420070C942007B4
:100030000C9420070C9420070C9420070C942007A4
:100040000C945E110C9420070C94D60F0C94B00FF6
:100050000C9420070C9420070C9420070C94200784
:100060000C9408100C942007D2184A1953196719D8
:100070007F193F1A421A66726565207372616D209E
:100080003A20004F4C454420434C49454E5420569D
:1000900031000000000000230026002900FFFFFFC0
:1000A000FFFFFFFFFFFFFFFFFFFFFFFFFFFFFFFF60
:1000B000FFFFFFFFFFFFFFFFFFFFFFFFFFFFFFFF50
:1000C000FFFFFFFFFFFFFFFFFFFFFE0007FFFFFF38
:1000D000FFFFFFFFFFFFFFFFFFFFFEFFF7FFFFFF39
:1000E000FFFFFFFFFFFFFFFFFFFFFE8013FFFC3F4F
:1000F000FFFFFFFFFFFFFFFFFFFFFE801BFFF1FF82
:10010000F3FFFFFFFFF0FFFFFFFFFE801BFFE7FF96
:10011000F3FFFF9FFFC4FFFFFFFFFE8013FFCFFF32
:10012000F3FFFF9FFF8FFFFFFFFFFEFFF7FFCFFFF4
:10013000E3FFFF9FFF9FFFFFFFFFFE0007FFE0F0D1
:1001400067838703FF30E0E00707FFFFFFFFFE66DE
:1001500067331C0FFE44C4C00667FFFFFFFFFE406D
:10016000E6073E3FFE78C8CCC40FFFFFFFFFFCCE82
:1001700046727E67FE7199CCCCE7FFFFFFFF39CC5A
:100180004E62464FFE2381898CC7FFFFFFFF83E14C
:10019000CF0E0F1FFF0F81999E1FFFFFFFFFFFFF75
:1001A000FFFFFFFFFFFFFFFFFFFFFFFFFFFFFFFF5F
:1001B000FFFFFFFFFFFFFFFFFFFFFFFFFFFFFFFF4F
:1001C000FFFFFFFFFFFFFFFFFFFFFFFFFFFFFFFF3F
:1001D000FFFFFFFFFFFFFFFFFFFFFFFFFFFFFFFF2F
:1001E000FFFFFFFFFFFFFFFFFFFFFFFFFFFFFFFF1F
:1001F000FFFFFFFFFFFFFFFFFFFFFFFFFFFFFFFF0F
:10020000FFFFFFFFFFFFFFFFFFFFFFFFFFFFFFFFFE
:10021000FFFFFFFFFFFFFFFFFFFFFFFFFFFFFFFFEE
:10022000FFFFFFFFFFFFFFFFFFFFFFFFFFFFFFFFDE
:10023000FFFFFFFFFFFFFFFFFFFFFFFFFFFFFFFFCE
:10024000FFFFFFFFF8CFFFFFFFFFFFFFFFFFE7FF0D
:10025000FFFFFFFFE0F3FFFFFE7FFFFFFFFFC0FF99
:10026000FFFFFFFFFCF8FFFCFE63FFFFFFFFC63F41
:10027000FFFFFFFFFCFE7FFCFC67F1CFFFFFCF3FDE
:10028000FFFFFFFFFC7F3FF8CC67F1CFFFFFCE3FC2
:10029000FFFFFFFFF87FDFF98CE7FFCFFFFF88E06C
:1002A00060E1C3FFF83FEFF99CC7E38183FF83E27E
:1002B0004CC78FFBF79EF7F118C8660733FF9FE71F
:1002C00081C78FF7EFDCFBF319C0E71E07FF9FC75D
:1002D0009CE3C7FF9FEE7CF21384C73273FF1FCFEE
:1002E00098F3E7FF38767EF09388CF2663FF3FCF01
:1002F000C3870FFE401A7F71C799CF8F0FFFFFFF93
:10030000FFFFFFFC80017F3FFFFFFFFFFFFFFFFFBD
:10031000FFFFFFFF0001FFBFFFFFFFFFFFFFFFFF2A
:10032000FFFFFFFE0000FFDFFFFFFFFFFFFFFFFFFC
:10033000FFFFFDFC00007FEFFFFFFFFFFFFFFFFF60
:10034000FFFFF9FC00007FE7FFFFFFFFFFFFFFFF5C
:10035000FFFFF3FC0000BFF7FFFFFFFFFFFFFFFF02
:10036000FFFFE7F80000DFF3FFFFFFFFFFFFFFFFE6
:10037000FFFFC7FC0000EFF9FFFFFFFFFFFFFFFFDC
:10038000FFFFEFFE0000F7F9FFFFFFFFFFFFFFFF9A
:10039000FFFFFFBF8007F1FC7FFFFFFFFFFFFFFFB5
:1003A000FFFFFE78600EF8FC1FFFFFFFFFFFFFFF5F
:1003B000FFFFDCFC0018FCFC0FFFFFFFFFFFFFFF4F
:1003C000FFFFB9FF0103FE7E0FFFFFFFFFFFFFFFEF
:1003D000FFFF33FFC107FE7F07FFFFFFFFFFFFFFA8
:1003E000FFFC07FFFF3FFF3F83FFFFFFFFFFFFFF14
:1003F000FFF00FFFFFFFFF3FE1FFFFFFFFFFFFFFEA
:10040000FFF81FFFFFFFFFBFE0FFFFFFFFFFFFFF42
:10041000FFFC1FF3FC7FFF9FE07FFFFFFFFFFFFF5D
:10042000FEF83FF0018E1F9FF37FFFFFFFFFFFFFEE
:10043000FFF87FF801803FDFFFBFFFFFFFFFFFFFF7
:10044000FFF0FFFF01C3FFCFFFDFFFFFFFFFFFFF55
:10045000FBF1FFFF83C3FFEFFFE7FFFFFFFFFFFF9E
:10046000F7E3F9FFC7E7FFEFFFF3FFFFFFFFFFFF32
:10047000EFC7F9FFE387FFF7FFF1FFFFFFFFFFFF84
:10048000FFFFFFFFFFFFFFFFFFFFFFFFFFFFFFFF7C
:10049000FFFFFFFFFFFFFFFFFFFFFFFFFFFFFFFF6C
:1004A000FFFFFFFFFFFFFFFFFFFFFFFFFFFFFFFF5C
:1004B000FFFFFFFFFFFFFFFFFFFFFFFFFFFFFFFF4C
:1004C000FFFFFFFFFFFFFFFFFFFFFFFFFFFFFFFF3C
:1004D000FFFFFFFFFFFFFFFFFFFFFFFFFFFFFFFF2C
:1004E000FFFFFFFFFFFFFFFFFFFFFFFFFFFFFFFF1C
:1004F000FFFFFFFFFFFFFFFFFFFFFFFFFFFFFFFF0C
:10050000FFFFFFFFFFFFFFFFFFFFFFFFFFFFFFFFFB
:10051000FFFFFFFFFFFFFFFFFFFFFFFFFFFFFFFFEB
:10052000FFFFFFFFFFFFFFFFFFFFFFFFFFFFFFFFDB
:10053000FFFFFFFFFFFFFFFFFFFFFFFFFFFFFFFFCB
:10054000FFFFFFFFFFFFFFFFFFFFFFFFFFFFFFFFBB
:10055000FFFFFFFFFFFFFFFFFFFFFFFFFFFFFFFFAB
:10056000FFFFFFFFFFFFFFFFFFFFFFFFFFFFFFFF9B
:10057000FFFFFFFFFFFFFFFFFFFFFFFFFFFFFFFF8B
:10058000FFFFFFFFFFFFFFFFFFFFFFFFFFFFFFFF7B
:10059000FFFFFFFFFFFFFFFFFFFFFFFFFFFFFFFF6B
:1005A000FFFFFFFFFFFFFFFFFFFFFFFFFFFFFFFF5B
:1005B000FFFFFFFFFFFFFFFFFFFFFFFFFFFFFFFF4B
:1005C000FFFFFFFFFFFFF3FFFFFFFFFFFFFFFFFE48
:1005D00003FFFFFFFFFFE3FF80FFFFFC7FFFFFE064
:1005E00001FFFC0FFFFFE3F8007E3FE07FFFFF808D
:1005F00001F00007F3FFC7E0007C0000FFFFFF03EE
:10060000F1E0000FE3FFC7C0FC780001FFFFFE1F11
:10061000F1E00FFFC3FF8F87FC78001FFFFFFC3F57
:10062000F3E3FFFFC1FF8F0FFCF87FFFFFFFF87FB1
:10063000FFC7FFFF80FF1E1FFFF0FFFFFFFFF87FD8
:10064000FFC7FFFF80FF1E1FFFF0FFFFFFFFF87FC8
:10065000FF87FFFF107E1E1FFFF0FFFFFFFFF83F29
:10066000FF8FFFFF387E3E0FFFE0003FFFFFFC07DC
:10067000FF0007FE383C3F01FFE0003FFFFFFE00A8
:10068000FF0007FC7C3C7F803FC000FFFFFFFF00B6
:100690003E000FFC7E3C7FC00FC7FFFFFFFFFFE067
:1006A0003E1FFFF8FE18FFF80F87FFFFFFFFFFF860
:1006B0003C3FFFF9FF18FFFE0F8FFFFFFFFFFFFC1E
:1006C0003C7FFFF1FF11FFFF0F0FFFFFFFFFFFFC5C
:1006D000787FFFF3FF01FFFF1E1FFF3FFFFFFFF0CB
:1006E000F87F03E3FF81FFFC3E3F803FFFFFFFC138
:1006F000F00003C7FF83FFF07C00003FFFFF1F03F4
:10070000F00007C7FF83C7C0FC0000FFFFFF000F1A
:10071000F001FFC7FFC3C003FC007FFFFFFE003FE7
:10072000F0FFFF8FFFC7800FFC3FFFFFFFFF81FF40
:10073000FFFFFF8FFFFFE07FFFFFFFFFFFFFFFFFD8
:10074000FFFFFF9FFFFFFFFFFFFFFFFFFFFFFFFF19
:10075000FFFFFFFFFFFFFFFFFFFFFFFFFFFFFFFFA9
:10076000FFFFFFFFFFFFFFFFFFFFFFFFFFFFFFFF99
:10077000FFFFFFFFFFFFFFFFFFFFFFFFFFFFFFFF89
:10078000FFFFFFFFFFFFFFFFFFFFFFFFFFFFFFFF79
:10079000FFFFFFFFFFFFFFFFFFFFFFFFFFFFFFFF69
:1007A000FFFFFFFFFFFFFFFFFFFFFFFFFFFFFFFF59
:1007B000FFFFFFFFFFFFFFFFFFFFFFFFFFFFFFFF49
:1007C000FFFFFFFFFFFFFFFFFFFFFFFFFFFFFFFF39
:1007D000FFFFFFFFFFFFFFFFFFFFFFFFFFFFFFFF29
:1007E000FFFFFFFFFFFFFFFFFFFFFFFFFFFFFFFF19
:1007F000FFFFFFFFFFFFFFFFFFFFFFFFFFFFFFFF09
:10080000FFFFFFFFFFFFFFFFFFFFFFFFFFFFFFFFF8
:10081000FFFFF8FC38E63FDFF0FFFFFFFFFFFFFFC1
:10082000FFFFF77FD745DFAFF6FFFFFF77FFFFFF43
:10083000FFFFE8BFD775DFAFF6C6186223FFFFFFE3
:10084000FFFFEBBFB7763F67F1BADB5D77FFFFFFD6
:10085000FFFFE8BE7775DF07F582DB4177FFFFFF1B
:10086000FFFFF77DF775DF77F6BEDB5F77FFFFFFF2
:10087000FFFFF8FC18F63EF2F642DB6133FFFFFFA4
:10088000FFFFFFFFFFFFFFFFFFFFFFFFFFFFFFFF78
:10089000FFFFFFFFFFFFFFFFFFFFFFFFFF00000065
:1008A00000240027002A0000000000250028002B5B
:1008B0000004040404040404040202020202020309
:1008C0000303030303010204081020408001020413
:1008D0000810200102040810200000000800020196
:1008E00000000304070000000000000000000000FA
:1008F00000003E5B4F5B3E3E6B4F6B3E1C3E7C3EC2
:100900001C183C7E3C181C577D571C1C5E7F5E1CCF
:1009100000183C1800FFE7C3E7FF0018241800FF89
:10092000E7DBE7FF30483A060E2629792926407F83
:10093000050507407F05253F5A3CE73C5A7F3E1C92
:100940001C08081C1C3E7F14227F22145F5F005F7E
:100950005F06097F017F006689956A60606060605C
:1009600094A2FFA29408047E040810207E201008A0
:10097000082A1C08081C2A08081E101010100C1E3B
:100980000C1E0C30383E3830060E3E0E06000000BD
:10099000000000005F00000007000700147F147FC4
:1009A00014242A7F2A1223130864623649562050E1
:1009B0000008070300001C2241000041221C002AFD
:1009C0001C7F1C2A08083E080800807030000808B8
:1009D000080808000060600020100804023E514929
:1009E000453E00427F400072494949462141494DF8
:1009F000331814127F1027454545393C4A4949317F
:100A000041211109073649494936464949291E00FD
:100A100000140000004034000000081422411414A7
:100A2000141414004122140802015909063E415DC4
:100A3000594E7C1211127C7F494949363E41414151
:100A4000227F4141413E7F494949417F09090901CE
:100A50003E414151737F0808087F00417F410020DB
:100A600040413F017F081422417F404040407F02C7
:100A70001C027F7F0408107F3E4141413E7F0909EF
:100A800009063E4151215E7F0919294626494949F7
:100A90003203017F01033F4040403F1F2040201FA1
:100AA0003F4038403F631408146303047804036133
:100AB00059494D43007F4141410204081020004143
:100AC00041417F04020102044040404040000307CE
:100AD000080020545478407F284444383844444423
:100AE00028384444287F385454541800087E09029A
:100AF00018A4A49C787F0804047800447D4000205A
:100B000040403D007F1028440000417F40007C04AD
:100B10007804787C080404783844444438FC182469
:100B2000241818242418FC7C08040408485454543D
:100B30002404043F44243C4040207C1C2040201CD2
:100B40003C4030403C44281028444C9090907C44D9
:100B500064544C4400083641000000770000004116
:100B600036080002010204023C2623263C1EA1A1F5
:100B700061123A4040207A385454555921555579DC
:100B8000412254547842215554784020545579409C
:100B90000C1E5272123955555559395454545939FD
:100BA000555454580000457C410002457D420001E7
:100BB000457C407D1211127DF0282528F07C54558B
:100BC00045002054547C547C0A097F4932494949E4
:100BD000323A4444443A324A4848303A4141217A10
:100BE0003A42402078009DA0A07D3D4242423D3DDA
:100BF0004040403D3C24FF2424487E4943662B2F3F
:100C0000FC2F2BFF0929F620C0887E0903205454AD
:100C100079410000447D413048484A323840402202
:100C20007A007A0A0A727D0D19317D2629292F282A
:100C3000262929292630484D402038080808080868
:100C4000080808382F10C8ACBA2F102834FA000052
:100C50007B000008142A142222142A140855005577
:100C60000055AA55AA55AAFF55FF55FF000000FFE1
:100C700000101010FF00141414FF001010FF00FFEC
:100C80001010F010F0141414FC001414F700FF00FE
:100C900000FF00FF1414F404FC141417101F1010AC
:100CA0001F101F1414141F00101010F0000000007B
:100CB0001F101010101F10101010F010000000FF77
:100CC000101010101010101010FF10000000FF1472
:100CD0000000FF00FF00001F10170000FC04F414C8
:100CE000141710171414F404F40000FF00F7141480
:100CF0001414141414F700F7141414171410101FFC
:100D0000101F141414F4141010F010F000001F1031
:100D10001F0000001F14000000FC140000F010F081
:100D20001010FF10FF141414FF141010101F0000F7
:100D30000000F010FFFFFFFFFFF0F0F0F0F0FFFF0A
:100D4000FF0000000000FFFF0F0F0F0F0F3844449B
:100D50003844FC4A4A4A347E02020606027E027E7B
:100D60000263554941633844443C04407E201E20C0
:100D700006027E020299A5E7A5991C2A492A1C4C65
:100D80007201724C304A4D4D303048784830BC6268
:100D90005A463D3E494949007E0101017E2A2A2AE0
:100DA0002A2A44445F444440514A444040444A5102
:100DB000400000FF0103E080FF000008086B6B08A3
:100DC0003612362436060F090F06000018180000E8
:100DD000001010003040FF0101001F01011E00192A
:100DE0001D1712003C3C3C3C000000000000551A5E
:100DF00011241FBECFEFD8E0DEBFCDBF15E0A0E0CD
:100E0000B1E0E4E2F8E302C005900D92A237B10729
:100E1000D9F727E0A2E7B5E001C01D92A831B207DB
:100E2000E1F716E0C8EFD6E004C02197FE010E946A
:100E3000051CC73FD107C9F70E942A160C94101C45
:100E40000C940000CF92DF92EF92FF920F931F93CA
:100E5000CF93DF936C017A018B01C0E0D0E0CE1517
:100E6000DF0581F0D8016D918D01D601ED91FC91E6
:100E70000190F081E02DC6010995892B11F0219692
:100E8000EECF7E01C701DF91CF911F910F91FF90AF
:100E9000EF90DF90CF900895FC01538D448D252F66
:100EA00030E0842F90E0821B930B541710F0CF9604
:100EB000089501970895FC01918D828D981761F036
:100EC000828DDF01A80FB11D5D968C91928D9F5F81
:100ED0009F73928F90E008958FEF9FEF0895FC012C
:100EE000918D828D981731F0828DE80FF11D858DDF
:100EF00090E008958FEF9FEF0895FC01918D228D72
:100F0000892F90E0805C9F4F821B91098F739927F6
:100F1000089580E396E00E947D0721E0892B09F483
:100F200020E0822F0895FC01848DDF01A80FB11D00
:100F3000A35ABF4F2C91848D90E001968F7399270F
:100F4000848FA689B7892C93A089B1898C918370ED
:100F500080648C93938D848D981306C00288F389E6
:100F6000E02D80818F7D80830895EF92FF920F9313
:100F70001F93CF93DF93EC0181E0888F9B8D8C8D45
:100F8000981305C0E889F989808185FD26C0F62E71
:100F90000B8D10E00F5F1F4F0F731127E02E8C8D0C
:100FA000E8120CC00FB607FCFACFE889F9898081F6
:100FB00085FFF5CFCE010E949307F1CF8B8DFE0107
:100FC000E80FF11DE35AFF4FF0829FB7F8940B8FA3
:100FD000EA89FB89808180620AC09FB7F894EE8914
:100FE000FF896083E889F9898081837080648083C8
:100FF0009FBF81E090E0DF91CF911F910F91FF9013
:10100000EF900895CF93DF93EC01888D8823C9F08A
:10101000EA89FB89808185FD05C0A889B9898C9101
:1010200086FD0FC00FB607FCF5CF808185FFF2CF9C
:10103000A889B9898C9185FFEDCFCE010E949307D5
:10104000E7CFDF91CF91089580E090E0892B29F0E0
:101050000E94890781110C94000008950895FC01F5
:101060006370658B8481958126813781613039F089
:10107000633029F0918780873387228708953187ED
:1010800020879387828708956F927F928F929F9295
:10109000AF92BF92CF92DF92EF92FF920F931F9386
:1010A000CF93DF93EC014B015A0169013801E881CC
:1010B000F9810284F385E02D0995E881F9810288A0
:1010C000F389E02D87019601A501B401CE010995B0
:1010D000A501460D571D41505109E881F98102884B
:1010E000F389E02D9601B401CE010995E881F981DB
:1010F0000088F189E02D9301A501B401CE01099585
:10110000C80CD91CB60161507109E881F9810088C9
:10111000F189E02D9301A501CE010995E881F981BE
:101120000688F789E02DCE01DF91CF911F910F91B5
:10113000FF90EF90DF90CF90BF90AF909F908F90F7
:101140007F906F9009948F929F92AF92BF92CF92AF
:10115000DF92EF92FF920F931F93CF93DF934C0197
:101160006B015A01E901DC01ED91FC9162177307F3
:1011700081F40417150724F48B2D5801042F182F20
:101180000A191B0998012F5F3F4F048CF58DE02D44
:1011900012C04017510709F52617370724F48D2D83
:1011A0006901C62FD82F9E012C193D092F5F3F4F93
:1011B000068CF78DE02D8701A501B601C4010995C4
:1011C000DF91CF911F910F91FF90EF90DF90CF9023
:1011D000BF90AF909F908F9008950284F385E02D8B
:1011E0000995D401ED91FC910488F589E02D9E01CB
:1011F000A501B601C4010995D401ED91FC910688C1
:10120000F789E02DC401DF91CF911F910F91FF90DD
:10121000EF90DF90CF90BF90AF909F908F90099408
:10122000EF92FF920F931F93DC011A960D911C9180
:101230001B9718962D913C911997ED91FC9100A068
:10124000F1A1E02D7B0140E050E060E070E0099505
:101250001F910F91FF90EF9008954F925F926F92C0
:101260007F928F929F92AF92BF92CF92DF92EF9236
:10127000FF920F931F93CF93DF936C012B015A01C1
:1012800039014801DC01ED91FC910284F385E02DE8
:101290000995E201640C751CD601ED91FC91C6150F
:1012A000D7055CF40088F189E02D87019401A50140
:1012B000BE01C60109952196EFCF0688F789E02D7A
:1012C000C601DF91CF911F910F91FF90EF90DF90BA
:1012D000CF90BF90AF909F908F907F906F905F90D6
:1012E0004F9009948F929F92AF92BF92CF92DF92CC
:1012F000EF92FF920F931F93CF93DF93EC015B016B
:101300004A016901E881F9810284F385E02D09959C
:1013100095012C0D3D1D21503109E881F98104888A
:10132000F589E02D78018401A401B501CE0109956C
:10133000E881F9810688F789E02DCE01DF91CF9110
:101340001F910F91FF90EF90DF90CF90BF90AF90E3
:101350009F908F9009948F929F92AF92BF92CF925D
:10136000DF92EF92FF920F931F93CF93DF93EC01E5
:101370005B014A0169017801E881F9810284F38502
:10138000E02D0995C80CD91C860101501109E8818E
:10139000F9810488F589E02D9501A401B501CE01FC
:1013A0000995E881F9810688F789E02DCE01DF9162
:1013B000CF911F910F91FF90EF90DF90CF90BF9052
:1013C000AF909F908F9009940895EF92FF920F93A2
:1013D0001F93DC01ED91FC9100A0F1A1E02D099596
:1013E0001F910F91FF90EF9008950F931F93DC01D1
:1013F000ED91FC91068CF78DE02D09951F910F91D1
:1014000008950F931F93DC01ED91FC91048CF58DF1
:10141000E02D09951F910F910895DC01ED91FC914C
:101420000084F185E02D09942F923F924F925F92B4
:101430006F927F928F929F92AF92BF92CF92DF92E4
:10144000EF92FF920F931F93CF93DF9300D000D0C2
:1014500000D0CDB7DEB72C017E836D836A015901C0
:10146000C801FC82EB824801841A950A97FE03C0EA
:1014700091948194910835012D813E81621A730AFD
:1014800077FE03C0719461947108681479045CF468
:101490003A2D2B2D5C01832F922F3D812E81DE82F0
:1014A000CD82C32ED22EAD81BE81AA16BB065CF4BE
:1014B0003C2D2D2D6C01832F922F3D812E81BE82DC
:1014C000AD82A32EB22E85012D813E81021B130B0E
:1014D0001C012C183D0837FE03C0319421943108BB
:1014E000780117FF03C03FEFE31AF30AF594E7947E
:1014F000C816D9062CF08FEF9FEF9A83898304C01A
:10150000A1E0B0E0BA83A9832D813E81A216B30683
:1015100024F1D201ED91FC910484F585E02D2B811D
:101520003C816814790424F44D815E81B60103C0C6
:10153000A6016D817E81C2010995E218F308F7FECC
:1015400006C029813A81C20ED31EE00EF11E8D81A4
:101550009E8101969E838D83D7CF26960FB6F894F1
:10156000DEBF0FBECDBFDF91CF911F910F91FF90D6
:10157000EF90DF90CF90BF90AF909F908F907F9033
:101580006F905F904F903F902F9008950F931F930F
:10159000CF93DF93DC0155968C915597823071F093
:1015A000833009F1813009F08CC01496ED91FC91E3
:1015B0001597E41BF50BE21BF30B20C01496ED917D
:1015C000FC911597CF01861B970BBC0161507109E7
:1015D0001696ED91FC911797CF01841B950BAC01EA
:1015E000421B530B6EC01696ED91FC911797CF01DD
:1015F000861B970BBC0161507109FA0177FD1BC175
:1016000016968D919C911797681779070CF013C166
:10161000F7FF04C02E0F3F1FE0E0F0E014968D911D
:101620009C911597AF01420F531F841795071CF427
:101630009C012E1B3F0B121613060CF0FCC0CB01B5
:1016400077FD079643E0959587954A95E1F796953E
:10165000982F882797958795E80FF91FE050FF4F3F
:101660006770772781E090E001C0880F6A95EAF7FC
:10167000482F0130110541F088F00230110509F0C2
:10168000DAC02E0F3F1F15C02E0F3F1FE217F307C2
:1016900009F4D1C08081842B8193F8CF80952E0FDF
:1016A0003F1FE217F30709F4C6C090819823919376
:1016B000F8CFE217F30709F4BEC080818427819335
:1016C000F8CF77FDB8C014968D919C911597681747
:1016D00079070CF0B0C057FF04C0240F351F40E05D
:1016E00050E016968D919C911797FA01E20FF31F27
:1016F0008E179F071CF49C01241B350B1216130632
:101700000CF099C0A22F842F86958695869590E837
:10171000899F600D711D1124FB01E050FF4F477040
:10172000A9F198E0941B492F50E0EA01C25FDA4F1B
:101730008881291790F4421B51092FEF30E002C035
:10174000359527954A95E2F782230130110541F03E
:1017500068F00230110589F06EC00130110519F4EE
:101760002081822B0CC00130110520F4809520814E
:10177000822305C00230110531F420818227808345
:10178000A91708F458C0A91BE058FF4FA83048F12A
:101790000230110559F4EF018A2F988190959883B2
:1017A000C058DF4F88508830C0F730C081E001302A
:1017B000110509F080E08195EF019A2F8883C058C8
:1017C000DF4F98509830D0F788EF8A0F869586952E
:1017D000869590E8899FE00DF11D1124E058FF4F98
:1017E000A770AA2341F1B0E0AA5FBA4F8C910130F3
:1017F000110529F038F002301105E9F419C0908183
:10180000892B18C080959081892314C088EF8A0F96
:1018100086958695869590E8899FE00DF11D1124A7
:10182000E058FF4FA77039F0B0E0AA5FBA4F8C9133
:10183000908189278083DF91CF911F910F91089527
:101840000F931F93CF93DF93DC01FB0155968C918F
:101850005597823089F0833021F1813009F0E7C05B
:1018600014968D919C911597BC01641B750BAB016F
:1018700041505109BF011DC014966D917C9115977F
:10188000CB018E1B9F0BFC0116968D919C91179797
:10189000BC01641B750BAB0141505109E21BF30BFA
:1018A000C6C016966D917C9117976E1B7F0B621BBD
:1018B000730B57FD1BC114968D919C91159748177A
:1018C00059070CF013C177FF04C0260F371F60E0E3
:1018D00070E016968D919C911797FB01E20FF31F14
:1018E0008E179F071CF49C01261B370B121613063C
:1018F0000CF0FCC0A22F862F86958695869590E8E1
:10190000899F400D511D1124FA01E050FF4F67706F
:10191000A9F198E0961B492F50E0EA01C25FDA4F27
:101920008881291790F4421B51092FEF30E002C043
:10193000359527954A95E2F782230130110541F04C
:1019400068F00230110589F0D1C00130110519F499
:101950002081822B0CC00130110520F4809520815C
:10196000822305C00230110531F420818227808353
:10197000A91708F4BBC0A91BE058FF4FA83048F1D5
:101980000230110559F4EF018A2F988190959883C0
:10199000C058DF4F88508830C0F733C081E0013035
:1019A000110509F080E08195EF019A2F8883C058D6
:1019B000DF4F98509830D0F788EF8A0F869586953C
:1019C000869560E8869FE00DF11D1124E058FF4FD9
:1019D000A770AA2309F48AC0B0E0AA5FBA4F8C911D
:1019E0000130110531F040F00230110509F07EC0E0
:1019F0001BC09081892B03C08095908189238083AF
:101A000075C088EF8A0F86958695869570E8879FC2
:101A1000E00DF11D1124E058FF4FA77009F466C0D6
:101A2000B0E0AA5FBA4F8C9190818927E8CF57FD2B
:101A30005DC016968D919C911797481759070CF029
:101A400055C0F7FF04C02E0F3F1FE0E0F0E01496F2
:101A50008D919C911597BF01620F731F8617970791
:101A60001CF49C012E1B3F0B121613060CF03EC0FB
:101A7000CA0157FD079663E0959587956A95E1F74A
:101A80009695982F882797958795E80FF91FE0502E
:101A9000FF4F4770552781E090E001C0880F4A95BD
:101AA000EAF7482F0130110539F078F002301105BE
:101AB000E9F42E0F3F1F13C02E0F3F1FE217F3074D
:101AC000A9F08081842B8193F9CF80952E0F3F1F41
:101AD000E217F30759F0908198239193F9CFE21719
:101AE000F30721F0808184278193F9CFDF91CF9193
:101AF0001F910F910895FC0177FD9AC08085918513
:101B0000681779070CF094C057FD92C082859385C1
:101B1000481759070CF08CC08589823009F07CC0C9
:101B200084819581DC01A61BB70BBD016150710951
:101B300086819781FC01E41BF50BAF0141505109EF
:101B40000AC0813041F484819581841B950BAB01DF
:101B5000BC01615071092130310529F008F12230B2
:101B60003105E1F10895FA0157FD3796A3E0F595A7
:101B7000E795AA95E1F7F695FE2FEE27F795E795FD
:101B80006E0F7F1FFB01E050FF4F4770552781E02C
:101B900090E001C0880F4A95EAF79081892B3AC0FE
:101BA000FA0157FD379623E0F595E7952A95E1F779
:101BB000F695FE2FEE27F795E7956E0F7F1FFB0139
:101BC000E050FF4F4770552781E090E001C0880F3B
:101BD0004A95EAF78095908189231CC0FA0157FD48
:101BE000379683E0F595E7958A95E1F7F695FE2F10
:101BF000EE27F795E7956E0F7F1FFB01E050FF4F33
:101C00004770552781E090E001C0880F4A95EAF7B8
:101C10009081892780830895833009F092CF86814F
:101C20009781861B970BBA01AC014150510993CFA4
:101C3000089508950895E091D9058091DA05E8178F
:101C400030F4F0E0E754FA4F808190E008958FEF90
:101C50009FEF08959091D9058091DA05981750F477
:101C6000E92FF0E0E754FA4F208130E09F5F909336
:101C7000D90502C02FEF3FEFC90108958091DA0521
:101C800090E02091D905821B91090895089580E084
:101C900090E0089585ED8093BC008091BC0084FDA8
:101CA000FCCF10920B06089540919205262F30E04C
:101CB000240F311D21323105DCF420910B06243034
:101CC000C9F4FC0180E090E0861758F43091920549
:101CD0002191DC01AE58BA4FA30FB11D2C93019690
:101CE000F3CF80919205680F6093920580E008958C
:101CF00081E0089582E00895CF92DF92EF92FF9203
:101D00000F931F93CF93DF937C01CB018A01209126
:101D10000C06222389F0EB016B01C40ED51ECC15F5
:101D2000DD0569F06991D701ED91FC910190F08199
:101D3000E02DC7010995F3CF642F0E94540EC8010E
:101D4000DF91CF911F910F91FF90EF90DF90CF9097
:101D50000895CF93DF931F92CDB7DEB769832091AB
:101D60000C062223D1F020912F06203240F021E0F2
:101D700030E0FC013383228380E090E015C0809145
:101D80000D06E82FF0E0E25FF94F998190838F5FB5
:101D900080930D0680932F0605C061E0CE01019669
:101DA0000E94540E81E090E00F90DF91CF91089552
:101DB000AF92BF92CF92EF92FF920F931F93CF9368
:101DC000DF93EC01262F888D998D009709F040C094
:101DD0006A3059F41D861C862C898E859F8538E0D3
:101DE000239F800D911D112441C06D3009F4AAC0BC
:101DF0008E898823C1F03C898C859D8546E0349F7F
:101E0000800D911D112448855985481759075CF4A8
:101E10001D861C868E859F8548E0349F800D911D10
:101E200011249F878E87EA88FB88088919894E8547
:101E30005F856C857D85CC88CE010E9442132C89FC
:101E40008C859D8536E0239F800D911D112442C015
:101E50006A3079F41D861C862C89FC013696E49143
:101E60008E859F852E9F800D911D11249F878E87C3
:101E700069C06D3009F466C0FC0134963491631773
:101E800008F460C03196E491E61708F45BC0FC01E9
:101E9000329665917491422F50E0431B510937E00F
:101EA000349F5001359FB00C1124A60EB71EF501CA
:101EB000329634913196E491332311F0E1110DC043
:101EC000F5013496E4912C898C859D85E29F800DE7
:101ED000911D11249D878C8735C0F501359644915D
:101EE0005E89552311F16C89E32FF0E0E40FF11DB9
:101EF00047FDFA956E9FD0016F9FB00D11244C8560
:101F00005D854A0F5B1FE885F985E417F5076CF4DA
:101F10001D861C86FC013696E4918E859F856E9FFA
:101F2000800D911D11249F878E87EA88FB88088980
:101F300019894E855F856C857D85CC88CE010E9490
:101F40004213BECF81E090E0DF91CF911F910F91BE
:101F5000FF90EF90CF90BF90AF9008950C945A1BD4
:101F60001F920F920FB60F9211242F933F934F930E
:101F70005F936F937F938F939F93AF93BF93EF93F1
:101F8000FF9380E396E00E949307FF91EF91BF914A
:101F9000AF919F918F917F916F915F914F913F9101
:101FA0002F910F900FBE0F901F9018951F920F92B8
:101FB0000FB60F9211242F938F939F93EF93FF935C
:101FC000E0914006F09141068081E0914606F09153
:101FD000470682FD12C09081809149068F5F8F7302
:101FE00020914A06821751F0E0914906F0E0E05D49
:101FF000F94F958F8093490601C08081FF91EF9141
:102000009F918F912F910F900FBE0F901F90189559
:102010001F920F920FB60F9211242F933F934F935D
:102020005F936F937F938F939F93AF93BF93EF9340
:10203000FF938091B900887F803609F49CC068F5D1
:10204000883209F45BC090F4803109F454C038F44C
:10205000882309F4F6C0883009F44DC0F6C08831F1
:1020600009F44CC0803209F45DC0EFC0803409F43B
:1020700068C048F4803309F455C0883309F0E5C0DE
:1020800080930906D8C0803509F44FC0883509F41B
:102090005DC0883409F0D9C0D6C0883909F4C7C0FA
:1020A000A8F4883709F467C038F4883609F463C0A7
:1020B000803709F460C0C9C0883809F4B8C08039D5
:1020C00009F45FC0803809F0C0C05BC0803B09F4F0
:1020D00086C038F4803A09F466C0883A09F47FC0B3
:1020E000B4C0803C09F4A7C0883C09F4A4C0883B74
:1020F00009F48AC0AAC08091E60510C09091080634
:1021000080910706981770F5E091080681E08E0F20
:1021100080930806F0E0E951FA4F80818093BB007C
:1021200085EC86C0809309068EC0E091080681E0A8
:102130008E0F809308068091BB00F0E0E951FA4FC2
:10214000808390910806809107066EC0E091080692
:1021500081E08E0F809308068091BB00F0E0E9518A
:10216000FA4F808380910A0681116DC081E08093CF
:10217000E50584EA61C083E080930B061092B40504
:10218000CFCF8091B405803208F051C0E091B40502
:1021900081E08E0F8093B4058091BB00F0E0EC5697
:1021A000FA4F8083BDCF85EC8093BC0010920B0664
:1021B0008091B405803230F4E091B405F0E0EC5643
:1021C000FA4F10826091B40570E0E091B505F0918E
:1021D000B60584E995E009951092B40536C084E00F
:1021E00080930B061092930510929205E091B7052B
:1021F000F091B805099580919205811105C081E0A3
:102200008093920510927205E091930581E08E0F04
:1022100080939305F0E0EE58FA4F80818093BB00E5
:102220009091930580919205981708F479CF85E8ED
:102230008093BC000AC085EC8093BC0010920B0612
:1022400004C0109209060E944A0EFF91EF91BF91BF
:10225000AF919F918F917F916F915F914F913F913E
:102260002F910F900FBE0F901F90189508950E9408
:102270000B1C3FB7F8948091E1059091E205A09185
:10228000E305B091E40526B5A89B05C02F3F19F0E2
:102290000196A11DB11D3FBFBA2FA92F982F8827E6
:1022A000820F911DA11DB11DBC01CD0142E0660F41
:1022B000771F881F991F4A95D1F708951F920F9293
:1022C0000FB60F9211242F933F938F939F93AF9349
:1022D000BF938091DD059091DE05A091DF05B0915F
:1022E000E0053091DC0523E0230F2D3720F4019623
:1022F000A11DB11D05C026E8230F0296A11DB11D29
:102300002093DC058093DD059093DE05A093DF0527
:10231000B093E0058091E1059091E205A091E3057D
:10232000B091E4050196A11DB11D8093E105909344
:10233000E205A093E305B093E405BF91AF919F91AF
:102340008F913F912F910F900FBE0F901F90189576
:10235000282F30912F06313208F04AC080910B06A9
:102360008111FCCF90912E0642E040930B06209302
:102370000A062FEF209309061092080630930706ED
:10238000EEE0F6E0A7EEB5E020E0321721F0419153
:102390004D932F5FFACF1092E6052091E605990F35
:1023A000922B9093E6059091E505913061F410929F
:1023B000E5059091E6059093BB009091BC0093FDDC
:1023C000F8CF95EC01C095EE9093BC0090910B0670
:1023D0009230E1F3909109069F3F79F080910906D0
:1023E000803241F080910906803331F084E005C0ED
:1023F00081E003C082E001C083E010920D061092DC
:102400002F0610920C0608959091FA06992339F040
:102410008EBD00000DB407FEFDCF8EB5089528E0F7
:1024200030E040E8E091FD06F091FE065081909189
:102430000407909595239083E091FB06F091FC06AC
:1024400090910307582F542319F05081952B03C006
:102450005081909595239083E091FD06F091FE06C2
:10246000508190910407952B908346952150310916
:10247000C9F60895CF93C82F8091F5068F3F59F183
:10248000E091FF06F0910007908180910507892B6C
:102490008083E0910107F091020790818091060707
:1024A000809589238083E091FF06F0910007908159
:1024B000809105078095892380838C2F0E940412C8
:1024C000E091FF06F0910007908180910507892B2C
:1024D0008083CF9108958091F30691E090930C064C
:1024E00080932E0610920D0610922F0660E08DEC60
:1024F00096E00E94A90E6C2F8DEC96E00E94A90E2A
:1025000081E0CF910C94A811BF92CF92DF92EF920D
:10251000FF920F931F93CF93DF936C01E12CF12C6B
:10252000B12C00E010E0C0E0D0E0CE018770992728
:10253000892B11F0BB0C0BC0FE0183E0F595E795EC
:102540008A95E1F7EE0DFF1DEC0DFD1DB4908B2D6E
:102550000B2C000C990B80959095292F221F222778
:10256000221F30E0A801BE0189ED96E00E940D0A0D
:102570002196C038D105C9F60F5F1F4F80E1E80EE4
:10258000F11C0034110579F6DF91CF911F910F9165
:10259000FF90EF90DF90CF90BF90089542E050E021
:1025A0006EE675E080E396E00C9422078F929F928E
:1025B000AF92BF920F931F93CF93DF93CDB7DEB748
:1025C000A1970FB6F894DEBF0FBECDBF19A242305F
:1025D00008F44AE08E010F5D1F4F842E912CA12C30
:1025E000B12CA50194010E94E31BE62FB901CA0199
:1025F00001501109EA3014F4E05D01C0E95CD80132
:10260000EC93232B242B252B61F70115110571F079
:10261000F80101900020E9F73197AF01401B510B01
:10262000B80180E396E00E94220702C080E090E0BB
:10263000A1960FB6F894DEBF0FBECDBFDF91CF914C
:102640001F910F91BF90AF909F908F9008950F931F
:102650001F93CF93DF938C01C0E0D0E0F801EC0F23
:10266000FD1F6491662341F080E396E00E94B50768
:10267000892B11F02196F2CFCE01DF91CF911F91DE
:102680000F9108952F923F924F925F926F927F9297
:102690008F929F92AF92BF92CF92DF92EF92FF9272
:1026A0000F931F93CF93DF93CDB7DEB76B970FB622
:1026B000F894DEBF0FBECDBF9B8F8A8F5B011A01DE
:1026C000D22E1F830E833701C982DC0158962D91CB
:1026D0003C9159972115310509F0E6C018968D9166
:1026E0009C911997681779070CF0CDC11A968D91B6
:1026F0009C911B97481759070CF0C5C18C2C912C45
:10270000FB0126E0C29EE00DF11D1124FB87EA8744
:102710001E161F060CF0B7C1A40183E0440F551F1D
:102720008A95E1F75D874C87CA01820D931D1816C3
:1027300019060CF0A8C157968C91811104C05FEA6C
:102740005D1508F4D394AA8DBB8DED91FC91119782
:102750000284F385E02DCD010995B5E0DB9EC00133
:102760001124F5013596FF87EE87BB82AA822501E9
:102770009C012A193B09398B288BA101485F5F4FC7
:102780005B8B4A8BE889F989E40DF51DE351F74F1E
:102790005491588761013D822C82888580FF13C047
:1027A000AA8DBB8DED91FC91B981B13031F40484D7
:1027B000F585E02D2E813F8116C00684F785E02D3A
:1027C000EE80FF801AC0EE81FF81E615F705F1F07B
:1027D000AA8DBB8DED91FC91B981B13051F4048487
:1027E000F585E02D9301A601B2018A8D9B8D099597
:1027F0000DC00684F785E02D7301840194014C819E
:102800005D816A817B818A8D9B8D0995E885E6953E
:10281000E887FFEFCF1ADF0A2C813D81280D391D93
:102820003D832C834A895B89C416D50609F0B5CF50
:102830005FEF451A550A8A819B81880D991D9B83FC
:102840008A83AE85BF854A165B0609F09BCFEE8171
:10285000FF81E615F70509F4F4C0EA8DFB8DA08130
:10286000B181F981F13079F4B5016B5F7F4F5096FA
:10287000ED91FC915197830128E030E0A1018A8D10
:102880009B8D0995DEC06A857B85681979091E963E
:10289000ED91FC911F9773010C851D859401A10199
:1028A0008A8D9B8D0995CDC0F9013496E491DE1A8D
:1028B000F901329685919491B7E0DB9E800D911DD0
:1028C0001124F901259134913B8B2A8BFC01259130
:1028D00034912901FC013296C490319634913E879F
:1028E000329614913196D4904981423058F0612E3D
:1028F000012E000C77088D2D0D2C000C990B99875B
:10290000888704C019861886612C712CAA8DBB8D0E
:10291000ED91FC9111970284F385E02DCD0109958D
:10292000B9818B2E912C689CC001699C900D789C7C
:10293000900D1124FC01EA0DFB1DFD87EC871A8226
:10294000712C612CE12F110FFF0B95012E0F3F1FF2
:102950003B872A87AC0CB11CA5014E0F5F1F5F8B14
:102960004E8BC1018D0D911DD7FC9A95998F888F43
:102970009E85691608F065C0862D90E048855985CA
:10298000480F591F489D9001499D300D589D300DAD
:102990001124D101A20FB31FB98BA88BEC85FD8543
:1029A000FD83EC83AA84BB84DA80FA85DF1A288D44
:1029B000398D280F391F3D8B2C8B8D2D8A0D4E891B
:1029C0005F89A416B506C1F1877041F4C201019672
:1029D000EA89FB89E40DF51D74902C0177FE21C076
:1029E000AA8DBB8DED91FC91B981B13061F4048465
:1029F000F585E02D2E813F814C895D89B5018A8D59
:102A00009B8D09950EC00684F785E02DEE80FF8032
:102A100084019401488959896C817D818A8D9B8DBF
:102A20000995770CEFEFAE1ABE0A2C813D81280D77
:102A3000391D3D832C83C1CF3A813C0D3A83639489
:102A400097CFAA8DBB8DED91FC9111970688F789E0
:102A5000E02DCD016B960FB6F894DEBF0FBECDBF53
:102A6000DF91CF911F910F91FF90EF90DF90CF906A
:102A7000BF90AF909F908F907F906F905F904F909E
:102A80003F902F9009946B960FB6F894DEBF0FBE5F
:102A9000CDBFDF91CF911F910F91FF90EF90DF900D
:102AA000CF90BF90AF909F908F907F906F905F90EE
:102AB0004F903F902F900895833081F028F481301B
:102AC00099F08230A1F008958730A9F08830B9F0EC
:102AD0008430D1F4809180008F7D03C0809180008C
:102AE0008F7780938000089584B58F7702C084B576
:102AF0008F7D84BD08958091B0008F7703C0809151
:102B0000B0008F7D8093B00008951F93CF93DF9323
:102B1000282F30E0F901E752F74F8491F901EB5388
:102B2000F74FD491F901EF54F74FC491CC23C1F082
:102B3000162F81110E945C15EC2FF0E0EE0FFF1FA5
:102B4000E955F74FA591B4919FB7F894111104C0BE
:102B50008C91D095D82302C0EC91DE2BDC939FBFE3
:102B6000DF91CF911F910895CF93DF9390E0FC0107
:102B7000EB53F74F2491FC01EF54F74F84918823D6
:102B800061F190E0880F991FFC01E356F74FC59162
:102B9000D491FC01E955F74FA591B491611109C099
:102BA0009FB7F8948881209582238883EC912E2307
:102BB0000BC0623061F49FB7F8948881322F309552
:102BC00083238883EC912E2B2C939FBF06C08FB755
:102BD000F894E8812E2B28838FBFDF91CF91089541
:102BE0008F929F92AF92BF92CF92DF92EF92FF921D
:102BF0006B017C010E9439114B015C01C114D104AD
:102C0000E104F104F1F00E943911DC01CB018819D3
:102C10009909AA09BB09883E9340A105B10570F343
:102C200021E0C21AD108E108F10888EE880E83E09D
:102C3000981EA11CB11CC114D104E104F10419F7C0
:102C4000DDCFFF90EF90DF90CF90BF90AF909F903F
:102C50008F900895CF93DF93CDB7DEB72C970FB643
:102C6000F894DEBF0FBECDBF789484B5826084BD7A
:102C700084B5816084BD85B5826085BD85B5816080
:102C800085BD80916E00816080936E0010928100FE
:102C900080918100826080938100809181008160B9
:102CA000809381008091800081608093800080917A
:102CB000B10084608093B1008091B0008160809306
:102CC000B00080917A00846080937A0080917A00CD
:102CD000826080937A0080917A00816080937A008C
:102CE00080917A00806880937A001092C100E09110
:102CF0004006F091410612E01083E0913C06F0910D
:102D00003D061082E0913E06F0913F068FEC8083F5
:102D100010924806E0914406F091450686E08083D3
:102D2000E0914206F0914306808180618083E091CA
:102D30004206F0914306808188608083E0914206DC
:102D4000F0914306808180688083E0914206F09193
:102D5000430680818F7D808382E990E00E94271363
:102D60000E94CE1283E890E00E9427130E94CE12A8
:102D700060E082E00E94B4151093F4068CE3809327
:102D8000F3068091F5068F3F09F4BDC061E08091A4
:102D9000F7060E94B41561E08091F9060E94B4150F
:102DA0008091F906082E000C990BFC01EF54F74FA7
:102DB000E491F0E0EE0FFF1FE955F74F25913491B4
:102DC000309300072093FF06FC01EB53F74FE4918B
:102DD000E09305078091F706082E000C990BFC0183
:102DE000EF54F74FE491F0E0EE0FFF1FE955F74F76
:102DF000259134913093020720930107FC01EB5396
:102E0000F74FE491E09306078091FA0681113EC0E6
:102E100061E08091F5060E94B41561E08091F606AC
:102E20000E94B4158091F606082E000C990BFC0147
:102E3000EF54F74FE491F0E0EE0FFF1FE955F74F25
:102E4000259134913093FE062093FD06FC01EB534F
:102E5000F74FE491E09304078091F506082E000CEB
:102E6000990BFC01EF54F74FE491F0E0EE0FFF1FD8
:102E7000E955F74F259134913093FC062093FB06DA
:102E8000FC01EB53F74FE491E09303078091FA06BE
:102E9000882309F46BC01FB7F8948091DB0581117A
:102EA00027C0EBEBF8E08491EFECF8E09491E82F89
:102EB000F0E0EE0FFF1FE356F74FA591B491EC91B0
:102EC000E92321F461E08AE00E94851561E08AE04F
:102ED0000E94B4158CB580618CBD8CB580648CBDAE
:102EE00061E08DE00E94B41561E08BE00E94B415B2
:102EF0008091DB058F5F8093DB051FBF80E58CBD74
:102F000081E08DBD33C01092D9051092DA05109280
:102F10000D0610922F0610920B0681E080930A0690
:102F20001092E50561E082E10E94851561E083E190
:102F30000E9485158091B9008E7F8093B9008091A1
:102F4000B9008D7F8093B90088E48093B80085E450
:102F50008093BC0089E19EE09093B8058093B7050B
:102F60008AE19EE09093B6058093B5058091F806BE
:102F700087FD1EC061E00E94B41561E08091F806F3
:102F80000E94851561E070E080E090E00E94F015FD
:102F900060E08091F8060E9485156AE070E080E0AC
:102FA00090E00E94F01561E08091F8060E9485157E
:102FB0008EEA0E943A1285ED0E943A1280E80E9441
:102FC0003A1288EA0E943A128FE30E943A1283ED85
:102FD0000E943A1280E00E943A1280E40E943A1263
:102FE0008DE80E943A1284E10E943A1280E20E9427
:102FF0003A1280E00E943A1281EA0E943A1288EC6A
:103000000E943A128AED0E943A1282E10E943A121C
:1030100081E80E943A128FEC0E943A1289ED0E94D8
:103020003A1281EF0E943A128BED0E943A1280E42C
:103030000E943A1284EA0E943A1286EA0E943A12E8
:103040008EE20E943A128FEA0E943A1286E790E0DE
:103050000E9427138091140790911507009711F48F
:1030600088E197E09E012F5F3F4F6901C81AD90A96
:103070000D2C000CEE08FF08F7FE0EC06DE280E399
:1030800096E00E94B50766277727CB016C197D096A
:103090008E099F094AE003C04AE0C701B6010E94B9
:1030A000D6120E94CE1280E396E00E940208EBED59
:1030B000F8E08491E7ECF8E01491E3EBF8E0049198
:1030C000002309F4E3C181110E945C15E02FF0E0B8
:1030D000EE0FFF1FED56FF4FA591B4918C91182371
:1030E00009F4D4C180910B068111FCCFF1E0F0937B
:1030F0000B06F0930A062FEF20930906109208069C
:1031000037E030930706F093E6058091E60580618D
:103110008093E6058091E505813061F41092E50524
:103120008091E6058093BB008091BC0083FDF8CFC1
:1031300085EC01C085EE8093BC0080910B06813048
:10314000E1F380910806883018F4E090080602C088
:10315000F8E0EF2EE7EEF5E0A9EBB5E080E08E15A4
:1031600021F091919D938F5FFACF1092D905E09253
:10317000DA0509E017E0F12C8091D905E81609F489
:1031800091C198E0F91285C1E09109078E2F90E076
:10319000FC013197E730F10508F078C1EC5CFF4F96
:1031A0000C94051C81E20E943A1280E00E943A12BF
:1031B0008FE70E943A1282E20E943A1280E00E9457
:1031C0003A1287E00E943A128091F5068F3F89F10A
:1031D000E091FF06F0910007908180910507892B0F
:1031E0008083E0910107F0910207908180910607AA
:1031F000892B8083E091FF06F091000790818091F8
:10320000050780958923808300E011E0F801819112
:103210008F010E940412F5E000301F07B9F7E0911A
:10322000FF06F0910007908180910507892B80832C
:103230002DC1C090B8002CE02093B80000E011E050
:103240008091F30631E030930C0680932E061092A5
:103250000D0610922F0660E48DEC96E00E94A90EF8
:103260007801D12CF70161917F018DEC96E00E94ED
:10327000A90ED394F0E1DF12F5CF81E00E94A811EE
:10328000005F1F4F20E035E020173107C9F6C092DC
:10329000B800FCC0E0E0F1E020E034E01192215001
:1032A0003040E1F7F3C000910F0710E020910E07C6
:1032B00030E040910D0750E060910C0770E0EE2483
:1032C000E394F12C89ED96E00E94A308DFC04091C1
:1032D0000D0750E060910C0770E000910F0710E0BF
:1032E000041B150B20910E0730E0261B370BEE2434
:1032F000E394F12C89ED96E00E944408C7C06090E9
:103300000D0740900C07E0900B07F12C00910E0781
:1033100010E0712C512C81E090E0801B910B9C837C
:103320008B8388279927801B910BFC01EE0FFF1FD1
:10333000FE83ED83A801460D571D9701B20189ED6B
:1033400096E00E940D0AA301401B510B9701B201A8
:1033500089ED96E00E940D0AB801640D751D970174
:10336000A30189ED96E00E940D0AB201601B710B6A
:103370009701A30189ED96E00E940D0A212C312CC2
:1033800021E030E038872F835A8649867C866B8619
:10339000201631060CF07AC08B819C8197FD0BC002
:1033A00001501109ED81FE813296FE83ED838E0F6F
:1033B0009F1F9C838B83FFEF2F1A3F0A2F81388535
:1033C0002E5F3F4F38872F838B819C81820F931F05
:1033D0009C838B8389849A84820C931C970163015C
:1033E000C00ED11EA601B40189ED96E00E940D0A1F
:1033F000A984BA84A218B3089701A601B50189ED82
:1034000096E00E940D0A97016301C01AD10AA60135
:10341000B40189ED96E00E940D0A9701A601B5015D
:1034200089ED96E00E940D0ACB84DC84C20CD31C8B
:103430009701A6015201A00EB11EB50189ED96E0DB
:103440000E940D0A9701A6016201C01AD10AB601B5
:1034500089ED96E00E940D0A8B849C848218930863
:103460009701A401B50189ED96E00E940D0A97012C
:10347000A401B60189ED96E00E940D0A89CF8DE97D
:1034800094E002C08DE990E00E9484120E9424081A
:103490000ECE8DEC96E00E942A0EF80181938F01EA
:1034A000F3946ACEFF2091F36FCEE0E3F6E013824F
:1034B000128288EE93E0A0E0B0E084839583A68337
:1034C000B7832AE135E03183208325EC30E035876E
:1034D000248724EC30E03787268720EC30E0318BDE
:1034E000208B21EC30E0338B228B22EC30E0358BCB
:1034F000248B26EC30E0378B268B118E128E138EA8
:10350000148EEDECF6E01382128284839583A683F9
:10351000B7838CE295E091838083E9EDF6E0138236
:10352000128220E830E03583248380E490E09783A2
:1035300086833187208793878287158A158614862C
:103540001786168681E0848B2FEF3FEF338B228B1B
:10355000318B208B868B178A118E108E8EE395E02F
:10356000918380838FEF848F80A3868F858F84E003
:10357000878FE7E0F7E08AE695E091838083138602
:10358000128608950F931F93CF93DF938230910596
:1035900010F482E090E0E0911607F091170720E028
:1035A00030E0A0E0B0E0309719F140815181028114
:1035B000138148175907C8F08417950769F41097C5
:1035C00031F012960C93129713961C9327C0009318
:1035D00016071093170722C02115310519F042175D
:1035E000530718F49A01BD01EF01DF01F801DBCFA9
:1035F00021153105F9F0281B390B2430310580F4F1
:103600008A819B816115710521F0FB01938382837F
:1036100004C09093170780931607FE01329644C0AA
:10362000FE01E20FF31F81939193225031093983F8
:1036300028833AC02091140730911507232B41F4B9
:10364000209102053091030530931507209314074C
:1036500020910005309101052115310541F42DB768
:103660003EB74091040550910505241B350BE091B0
:103670001407F0911507E217F307A0F42E1B3F0B78
:103680002817390778F0AC014E5F5F4F24173507D4
:1036900048F04E0F5F1F5093150740931407819316
:1036A000919302C0E0E0F0E0CF01DF91CF911F9154
:1036B0000F910895CF93DF93009709F481C0FC0127
:1036C000329713821282A0911607B09117071097B4
:1036D00081F420813181820F931F20911407309152
:1036E00015072817390751F5F0931507E0931407CC
:1036F00067C0ED0120E030E0CE17DF0740F44A81DB
:103700005B819E0141155105F1F0EA01F5CFD383AC
:10371000C28340815181840F951FC817D90759F47E
:1037200088819981840F951F0296918380838A8175
:103730009B81938382832115310529F4F093170728
:10374000E09316073DC0E901FB83EA834991599153
:10375000C40FD51FEC17FD0761F480819181840FA0
:10376000951F0296E90199838883828193819B83C7
:103770008A83E0E0F0E012968D919C911397009778
:1037800019F0FD01DC01F7CF8D919C9111979D01FE
:103790002E5F3F4F820F931F209114073091150722
:1037A0002817390769F4309729F4109217071092F7
:1037B000160702C013821282B0931507A093140754
:1037C000DF91CF910895A1E21A2EAA1BBB1BFD0128
:1037D0000DC0AA1FBB1FEE1FFF1FA217B307E407F0
:1037E000F50720F0A21BB30BE40BF50B661F771F48
:1037F000881F991F1A9469F7609570958095909528
:103800009B01AC01BD01CF010895EE0FFF1F059094
:10381000F491E02D099481E090E0F8940C94101C50
:04382000F894FFCF4A
:103824000000000000000000000000000000000094
:103834000000000000000000000000000000000084
:103844000000000000000000000000000000000074
:1038540000000000000000000000000000000080E4
:103864008080000000000000000000000000000054
:10387400008080C0C00000000000000000000000C4
:103884000000000000000000000000000000000034
:103894000000000000000000000000000000000024
:1038A4000000000000000000000000000000000014
:1038B4000000000080C0E0F0F8FCF8E00000000028
:1038C4000000000000000000000000000080808074
:1038D400808000808000000000808080808000FF65
:1038E400FFFF0000000080808080000080800000D6
:1038F40080FFFF8080008080008080808000808046
:103904000000000000808000008C8E84000080F89D
:10391400F8F8800000000000000000000000000033
:10392400F0F0F0F0F0F0F0F0F0F0F0F0E0E0C08053
:1039340000E0FCFEFFFFFF7FFFFFFFFFFF00000032
:103944000000000000000000000000FEFFC70101AD
:10395400010183FFFF00007CFEC70101010183FF19
:10396400FFFF0038FEC78301010183C7FFFF00008A
:1039740001FFFF010100FFFF0701010100007FFFBC
:1039840080000000FFFF7F0000FFFFFF000001FF39
:10399400FFFF010000000000000000000000000024
:1039A400030F3F7F7FFFFFFFFFFFFFFFE7C7C78FC7
:1039B4008F9FBFFFFFC3C0F0FFFFFFFFFFFCFCFCB6
:1039C400FCFCFCFCFCF8F8F0F0E0C000010303038D
:1039D40003030103030000000001030303030101C7
:1039E40003010000000103030303010103030000BA
:1039F40000030300000003030000000000000001B6
:103A0400030303030301000000010301000000039A
:103A1400030100000000000000000000000000009E
:103A240000000080C0E0F0F9FFFFFFFFFF3F1F0F21
:103A340087C7F7FFFF1F1F3DFCF8F8F8F87C7DFFF0
:103A4400FFFFFFFFFFFFFF7F3F0F07003030000045
:103A54000000000000000000000000000000000062
:103A640000000000FEFEFC0000000000000000005A
:103A740000000000000000000000000000E0C000A2
:103A840000000000000000000000303000000000D2
:103A94000000000000000000000000000000000022
:103AA40000C0FEFFFFFFFFFFFFFFFFFF7F7F3F1F01
:103AB4000F071F7FFFFFF8F8FFFFFFFFFFFEF8E08F
:103AC400000000010000000000000000FEFE0000F5
:103AD40000FCFEFC0C06060EFCF80000F0F81C0EC0
:103AE4000606060CFFFFFF0000FEFE00000000FCBF
:103AF400FEFC00183C7E66E6CE84000006FFFF064E
:103B040006FCFEFC0C0606060000FEFE0000C0F8E3
:103B1400FC4E4646464E7C7840183C76E6CECC8039
:103B24000000000000000000000000000000000091
:103B34000000000001070F1F1F3F3F3F3F1F0F03FF
:103B44000000000000000000000000000F0F000053
:103B5400000F0F0F000000000F0F000003070E0CF2
:103B640018180C060F0F0F0000010F0E0C180C0F85
:103B7400070100040E0C180C0F070000000F0F00C3
:103B8400000F0F0F0000000000000F0F00000007DF
:103B9400070C0C181C0C060600040E0C180C0F075E
:103BA4000000000000000000000000000000000011
:103BB4000000000000000000000000000000000001
:103BC40000000000000000000000000000000000F1
:103BD40000000000000000000000000000000000E1
:103BE40000000000000000000000000000000000D1
:103BF40000000000000000000000000000000000C1
:103C040000000000000000000000000000000000B0
:103C140000000000000000000000000000000000A0
:103C2400000018078000000103070F1F3F7F00807A
:103C3400C0E0F0F8FCFE00000000B50722074C07C6
:103C440002087D075B076F0700000000A90E7C0EC9
:103C5400470EE4093E0E2A0E1B0E00000000D80E8B
:103C64002207470E460E7B0DE4090D0AE509010AF9
:103C7400F509140AE4092F082E08C60A200C2D0998
:103C84001009A3084408000000003611AE0F0D0A05
:023C940000002E
:00000001FF
